{
  "contractName": "DEX",
  "abi": [
    {
      "inputs": [],
      "stateMutability": "nonpayable",
      "type": "constructor"
    },
    {
      "anonymous": false,
      "inputs": [
        {
          "indexed": false,
          "internalType": "uint256",
          "name": "amount",
          "type": "uint256"
        }
      ],
      "name": "Bought",
      "type": "event"
    },
    {
      "anonymous": false,
      "inputs": [
        {
          "indexed": false,
          "internalType": "uint256",
          "name": "amount",
          "type": "uint256"
        }
      ],
      "name": "Sold",
      "type": "event"
    },
    {
      "inputs": [],
      "name": "token",
      "outputs": [
        {
          "internalType": "contract Token",
          "name": "",
          "type": "address"
        }
      ],
      "stateMutability": "view",
      "type": "function",
      "constant": true
    },
    {
      "inputs": [],
      "name": "buy",
      "outputs": [],
      "stateMutability": "payable",
      "type": "function",
      "payable": true
    },
    {
      "inputs": [
        {
          "internalType": "uint256",
          "name": "amount",
          "type": "uint256"
        }
      ],
      "name": "sell",
      "outputs": [],
      "stateMutability": "nonpayable",
      "type": "function"
    }
  ],
  "bytecode": "0x608060405234801561001057600080fd5b5060405161001d9061009e565b6040808252600d908201526c22b630b2102a30b61021b7b4b760991b60608201526080602082018190526003908201526245544360e81b60a082015260c001604051809103906000f080158015610078573d6000803e3d6000fd5b50600080546001600160a01b0319166001600160a01b03929092169190911790556100ab565b610de0806105e283390190565b610528806100ba6000396000f3fe6080604052600436106100345760003560e01c8063a6f2ae3a14610039578063e4849b3214610043578063fc0c546a14610063575b600080fd5b61004161009f565b005b34801561004f57600080fd5b5061004161005e3660046104c2565b610280565b34801561006f57600080fd5b50600054610083906001600160a01b031681565b6040516001600160a01b03909116815260200160405180910390f35b600080546040516370a0823160e01b81523060048201523492916001600160a01b0316906370a082319060240160206040518083038186803b1580156100e457600080fd5b505afa1580156100f8573d6000803e3d6000fd5b505050506040513d601f19601f8201168201806040525081019061011c91906104da565b9050600082116101735760405162461bcd60e51b815260206004820152601b60248201527f596f75206e65656420746f2073656e6420736f6d65206574686572000000000060448201526064015b60405180910390fd5b808211156101c35760405162461bcd60e51b815260206004820181905260248201527f4e6f7420656e6f75676820746f6b656e7320696e207468652072657365727665604482015260640161016a565b60005460405163a9059cbb60e01b8152336004820152602481018490526001600160a01b039091169063a9059cbb90604401602060405180830381600087803b15801561020f57600080fd5b505af1158015610223573d6000803e3d6000fd5b505050506040513d601f19601f82011682018060405250810190610247919061049b565b506040518281527f4e08ba899977cf7d4c2964bce71c6b9a7ef76ee5166a4c1249a1e08016e33ef1906020015b60405180910390a15050565b600081116102de5760405162461bcd60e51b815260206004820152602560248201527f596f75206e65656420746f2073656c6c206174206c6561737420736f6d6520746044820152646f6b656e7360d81b606482015260840161016a565b60008054604051636eb1769f60e11b81523360048201523060248201526001600160a01b039091169063dd62ed3e9060440160206040518083038186803b15801561032857600080fd5b505afa15801561033c573d6000803e3d6000fd5b505050506040513d601f19601f8201168201806040525081019061036091906104da565b9050818110156103b25760405162461bcd60e51b815260206004820152601960248201527f436865636b2074686520746f6b656e20616c6c6f77616e636500000000000000604482015260640161016a565b6000546040516323b872dd60e01b8152336004820152306024820152604481018490526001600160a01b03909116906323b872dd90606401602060405180830381600087803b15801561040457600080fd5b505af1158015610418573d6000803e3d6000fd5b505050506040513d601f19601f8201168201806040525081019061043c919061049b565b50604051339083156108fc029084906000818181858888f1935050505015801561046a573d6000803e3d6000fd5b506040518281527f92f64ca637d023f354075a4be751b169c1a8a9ccb6d33cdd0cb352054399572790602001610274565b6000602082840312156104ac578081fd5b815180151581146104bb578182fd5b9392505050565b6000602082840312156104d3578081fd5b5035919050565b6000602082840312156104eb578081fd5b505191905056fea2646970667358221220394e0419987937061286759586d44eb4c3159f7bd8bbed5eee9bde65756f93d664736f6c6343000804003360806040523480156200001157600080fd5b5060405162000de038038062000de08339810160408190526200003491620002e9565b8151829082906200004d90600390602085019062000190565b5080516200006390600490602084019062000190565b5050506200009c6200007a620000a460201b60201c565b620000886012600a620003b4565b62000096906127106200047f565b620000a8565b50506200050a565b3390565b6001600160a01b038216620001035760405162461bcd60e51b815260206004820152601f60248201527f45524332303a206d696e7420746f20746865207a65726f206164647265737300604482015260640160405180910390fd5b806002600082825462000117919062000350565b90915550506001600160a01b038216600090815260208190526040812080548392906200014690849062000350565b90915550506040518181526001600160a01b038316906000907fddf252ad1be2c89b69c2b068fc378daa952ba7f163c4a11628f55a4df523b3ef9060200160405180910390a35050565b8280546200019e90620004a1565b90600052602060002090601f016020900481019282620001c257600085556200020d565b82601f10620001dd57805160ff19168380011785556200020d565b828001600101855582156200020d579182015b828111156200020d578251825591602001919060010190620001f0565b506200021b9291506200021f565b5090565b5b808211156200021b576000815560010162000220565b600082601f83011262000247578081fd5b81516001600160401b0380821115620002645762000264620004f4565b604051601f8301601f19908116603f011681019082821181831017156200028f576200028f620004f4565b81604052838152602092508683858801011115620002ab578485fd5b8491505b83821015620002ce5785820183015181830184015290820190620002af565b83821115620002df57848385830101525b9695505050505050565b60008060408385031215620002fc578182fd5b82516001600160401b038082111562000313578384fd5b620003218683870162000236565b9350602085015191508082111562000337578283fd5b50620003468582860162000236565b9150509250929050565b60008219821115620003665762000366620004de565b500190565b600181815b80851115620003ac578160001904821115620003905762000390620004de565b808516156200039e57918102915b93841c939080029062000370565b509250929050565b6000620003c28383620003c9565b9392505050565b600082620003da5750600162000479565b81620003e95750600062000479565b81600181146200040257600281146200040d576200042d565b600191505062000479565b60ff841115620004215762000421620004de565b50506001821b62000479565b5060208310610133831016604e8410600b841016171562000452575081810a62000479565b6200045e83836200036b565b8060001904821115620004755762000475620004de565b0290505b92915050565b60008160001904831182151516156200049c576200049c620004de565b500290565b600181811c90821680620004b657607f821691505b60208210811415620004d857634e487b7160e01b600052602260045260246000fd5b50919050565b634e487b7160e01b600052601160045260246000fd5b634e487b7160e01b600052604160045260246000fd5b6108c6806200051a6000396000f3fe608060405234801561001057600080fd5b50600436106100a95760003560e01c80633950935111610071578063395093511461012357806370a082311461013657806395d89b411461015f578063a457c2d714610167578063a9059cbb1461017a578063dd62ed3e1461018d57600080fd5b806306fdde03146100ae578063095ea7b3146100cc57806318160ddd146100ef57806323b872dd14610101578063313ce56714610114575b600080fd5b6100b66101c6565b6040516100c391906107de565b60405180910390f35b6100df6100da3660046107b5565b610258565b60405190151581526020016100c3565b6002545b6040519081526020016100c3565b6100df61010f36600461077a565b610270565b604051601281526020016100c3565b6100df6101313660046107b5565b610294565b6100f3610144366004610727565b6001600160a01b031660009081526020819052604090205490565b6100b66102d3565b6100df6101753660046107b5565b6102e2565b6100df6101883660046107b5565b610379565b6100f361019b366004610748565b6001600160a01b03918216600090815260016020908152604080832093909416825291909152205490565b6060600380546101d590610855565b80601f016020809104026020016040519081016040528092919081815260200182805461020190610855565b801561024e5780601f106102235761010080835404028352916020019161024e565b820191906000526020600020905b81548152906001019060200180831161023157829003601f168201915b5050505050905090565b600033610266818585610387565b5060019392505050565b60003361027e8582856104ab565b61028985858561053d565b506001949350505050565b3360008181526001602090815260408083206001600160a01b038716845290915281205490919061026690829086906102ce908790610831565b610387565b6060600480546101d590610855565b3360008181526001602090815260408083206001600160a01b03871684529091528120549091908381101561036c5760405162461bcd60e51b815260206004820152602560248201527f45524332303a2064656372656173656420616c6c6f77616e63652062656c6f77604482015264207a65726f60d81b60648201526084015b60405180910390fd5b6102898286868403610387565b60003361026681858561053d565b6001600160a01b0383166103e95760405162461bcd60e51b8152602060048201526024808201527f45524332303a20617070726f76652066726f6d20746865207a65726f206164646044820152637265737360e01b6064820152608401610363565b6001600160a01b03821661044a5760405162461bcd60e51b815260206004820152602260248201527f45524332303a20617070726f766520746f20746865207a65726f206164647265604482015261737360f01b6064820152608401610363565b6001600160a01b0383811660008181526001602090815260408083209487168084529482529182902085905590518481527f8c5be1e5ebec7d5bd14f71427d1e84f3dd0314c0f7b2291e5b200ac8c7c3b925910160405180910390a3505050565b6001600160a01b038381166000908152600160209081526040808320938616835292905220546000198114610537578181101561052a5760405162461bcd60e51b815260206004820152601d60248201527f45524332303a20696e73756666696369656e7420616c6c6f77616e63650000006044820152606401610363565b6105378484848403610387565b50505050565b6001600160a01b0383166105a15760405162461bcd60e51b815260206004820152602560248201527f45524332303a207472616e736665722066726f6d20746865207a65726f206164604482015264647265737360d81b6064820152608401610363565b6001600160a01b0382166106035760405162461bcd60e51b815260206004820152602360248201527f45524332303a207472616e7366657220746f20746865207a65726f206164647260448201526265737360e81b6064820152608401610363565b6001600160a01b0383166000908152602081905260409020548181101561067b5760405162461bcd60e51b815260206004820152602660248201527f45524332303a207472616e7366657220616d6f756e7420657863656564732062604482015265616c616e636560d01b6064820152608401610363565b6001600160a01b038085166000908152602081905260408082208585039055918516815290812080548492906106b2908490610831565b92505081905550826001600160a01b0316846001600160a01b03167fddf252ad1be2c89b69c2b068fc378daa952ba7f163c4a11628f55a4df523b3ef846040516106fe91815260200190565b60405180910390a3610537565b80356001600160a01b038116811461072257600080fd5b919050565b600060208284031215610738578081fd5b6107418261070b565b9392505050565b6000806040838503121561075a578081fd5b6107638361070b565b91506107716020840161070b565b90509250929050565b60008060006060848603121561078e578081fd5b6107978461070b565b92506107a56020850161070b565b9150604084013590509250925092565b600080604083850312156107c7578182fd5b6107d08361070b565b946020939093013593505050565b6000602080835283518082850152825b8181101561080a578581018301518582016040015282016107ee565b8181111561081b5783604083870101525b50601f01601f1916929092016040019392505050565b6000821982111561085057634e487b7160e01b81526011600452602481fd5b500190565b600181811c9082168061086957607f821691505b6020821081141561088a57634e487b7160e01b600052602260045260246000fd5b5091905056fea2646970667358221220acc4fe78e51c9ccb00bb1f2e79589ede0155db0f406a58d0fb682f7a5b2c800564736f6c63430008040033",
  "immutableReferences": {},
  "source": "// SPDX-License-Identifier: MIT\r\npragma solidity ^0.8.0;\r\n\r\nimport './Token.sol';\r\n\r\ncontract DEX {\r\n    Token public token;\r\n\r\n    event Bought(uint256 amount);\r\n    event Sold(uint256 amount);\r\n\r\n    constructor() {\r\n        token = new Token('Elad Tal Coin', 'ETC');\r\n    }\r\n\r\n    function buy() payable public {\r\n        uint256 amountTobuy = msg.value;\r\n        uint256 dexBalance = token.balanceOf(address(this));\r\n        require(amountTobuy > 0, \"You need to send some ether\");\r\n        require(amountTobuy <= dexBalance, \"Not enough tokens in the reserve\");\r\n        token.transfer(msg.sender, amountTobuy);\r\n        emit Bought(amountTobuy);\r\n    }\r\n\r\n    function sell(uint256 amount) public {\r\n        require(amount > 0, \"You need to sell at least some tokens\");\r\n        uint256 allowance = token.allowance(msg.sender, address(this));\r\n        require(allowance >= amount, \"Check the token allowance\");\r\n        token.transferFrom(msg.sender, address(this), amount);\r\n        payable(msg.sender).transfer(amount);\r\n        emit Sold(amount);\r\n    }\r\n\r\n}\r\n",
  "sourcePath": "C:\\Users\\elads\\Documents\\\\ \\ \\\\\\Final Project\\contracts\\DEX.sol",
  "compiler": {
    "name": "solc",
    "version": "0.8.4+commit.c7e474f2.Emscripten.clang"
  },
  "schemaVersion": "3.4.4",
  "updatedAt": "2022-02-13T18:21:11.836Z",
  "networkType": "ethereum",
  "devdoc": {
    "kind": "dev",
    "methods": {},
    "version": 1
  },
  "userdoc": {
    "kind": "user",
    "methods": {},
    "version": 1
  }
}