{
  "contractName": "Land",
  "abi": [
    {
      "inputs": [],
      "stateMutability": "nonpayable",
      "type": "constructor"
    },
    {
      "anonymous": false,
      "inputs": [
        {
          "indexed": true,
          "internalType": "address",
          "name": "owner",
          "type": "address"
        },
        {
          "indexed": true,
          "internalType": "address",
          "name": "approved",
          "type": "address"
        },
        {
          "indexed": true,
          "internalType": "uint256",
          "name": "tokenId",
          "type": "uint256"
        }
      ],
      "name": "Approval",
      "type": "event"
    },
    {
      "anonymous": false,
      "inputs": [
        {
          "indexed": true,
          "internalType": "address",
          "name": "owner",
          "type": "address"
        },
        {
          "indexed": true,
          "internalType": "address",
          "name": "operator",
          "type": "address"
        },
        {
          "indexed": false,
          "internalType": "bool",
          "name": "approved",
          "type": "bool"
        }
      ],
      "name": "ApprovalForAll",
      "type": "event"
    },
    {
      "anonymous": false,
      "inputs": [
        {
          "indexed": true,
          "internalType": "address",
          "name": "previousOwner",
          "type": "address"
        },
        {
          "indexed": true,
          "internalType": "address",
          "name": "newOwner",
          "type": "address"
        }
      ],
      "name": "OwnershipTransferred",
      "type": "event"
    },
    {
      "anonymous": false,
      "inputs": [
        {
          "indexed": true,
          "internalType": "address",
          "name": "from",
          "type": "address"
        },
        {
          "indexed": true,
          "internalType": "address",
          "name": "to",
          "type": "address"
        },
        {
          "indexed": true,
          "internalType": "uint256",
          "name": "tokenId",
          "type": "uint256"
        }
      ],
      "name": "Transfer",
      "type": "event"
    },
    {
      "inputs": [
        {
          "internalType": "address",
          "name": "to",
          "type": "address"
        },
        {
          "internalType": "uint256",
          "name": "tokenId",
          "type": "uint256"
        }
      ],
      "name": "approve",
      "outputs": [],
      "stateMutability": "nonpayable",
      "type": "function"
    },
    {
      "inputs": [
        {
          "internalType": "address",
          "name": "owner",
          "type": "address"
        }
      ],
      "name": "balanceOf",
      "outputs": [
        {
          "internalType": "uint256",
          "name": "",
          "type": "uint256"
        }
      ],
      "stateMutability": "view",
      "type": "function"
    },
    {
      "inputs": [
        {
          "internalType": "uint256",
          "name": "tokenId",
          "type": "uint256"
        }
      ],
      "name": "getApproved",
      "outputs": [
        {
          "internalType": "address",
          "name": "",
          "type": "address"
        }
      ],
      "stateMutability": "view",
      "type": "function"
    },
    {
      "inputs": [
        {
          "internalType": "address",
          "name": "owner",
          "type": "address"
        },
        {
          "internalType": "address",
          "name": "operator",
          "type": "address"
        }
      ],
      "name": "isApprovedForAll",
      "outputs": [
        {
          "internalType": "bool",
          "name": "",
          "type": "bool"
        }
      ],
      "stateMutability": "view",
      "type": "function"
    },
    {
      "inputs": [],
      "name": "name",
      "outputs": [
        {
          "internalType": "string",
          "name": "",
          "type": "string"
        }
      ],
      "stateMutability": "view",
      "type": "function"
    },
    {
      "inputs": [],
      "name": "owner",
      "outputs": [
        {
          "internalType": "address",
          "name": "",
          "type": "address"
        }
      ],
      "stateMutability": "view",
      "type": "function"
    },
    {
      "inputs": [
        {
          "internalType": "uint256",
          "name": "tokenId",
          "type": "uint256"
        }
      ],
      "name": "ownerOf",
      "outputs": [
        {
          "internalType": "address",
          "name": "",
          "type": "address"
        }
      ],
      "stateMutability": "view",
      "type": "function"
    },
    {
      "inputs": [],
      "name": "renounceOwnership",
      "outputs": [],
      "stateMutability": "nonpayable",
      "type": "function"
    },
    {
      "inputs": [
        {
          "internalType": "address",
          "name": "from",
          "type": "address"
        },
        {
          "internalType": "address",
          "name": "to",
          "type": "address"
        },
        {
          "internalType": "uint256",
          "name": "tokenId",
          "type": "uint256"
        }
      ],
      "name": "safeTransferFrom",
      "outputs": [],
      "stateMutability": "nonpayable",
      "type": "function"
    },
    {
      "inputs": [
        {
          "internalType": "address",
          "name": "from",
          "type": "address"
        },
        {
          "internalType": "address",
          "name": "to",
          "type": "address"
        },
        {
          "internalType": "uint256",
          "name": "tokenId",
          "type": "uint256"
        },
        {
          "internalType": "bytes",
          "name": "_data",
          "type": "bytes"
        }
      ],
      "name": "safeTransferFrom",
      "outputs": [],
      "stateMutability": "nonpayable",
      "type": "function"
    },
    {
      "inputs": [
        {
          "internalType": "address",
          "name": "operator",
          "type": "address"
        },
        {
          "internalType": "bool",
          "name": "approved",
          "type": "bool"
        }
      ],
      "name": "setApprovalForAll",
      "outputs": [],
      "stateMutability": "nonpayable",
      "type": "function"
    },
    {
      "inputs": [
        {
          "internalType": "bytes4",
          "name": "interfaceId",
          "type": "bytes4"
        }
      ],
      "name": "supportsInterface",
      "outputs": [
        {
          "internalType": "bool",
          "name": "",
          "type": "bool"
        }
      ],
      "stateMutability": "view",
      "type": "function"
    },
    {
      "inputs": [],
      "name": "symbol",
      "outputs": [
        {
          "internalType": "string",
          "name": "",
          "type": "string"
        }
      ],
      "stateMutability": "view",
      "type": "function"
    },
    {
      "inputs": [
        {
          "internalType": "uint256",
          "name": "tokenId",
          "type": "uint256"
        }
      ],
      "name": "tokenURI",
      "outputs": [
        {
          "internalType": "string",
          "name": "",
          "type": "string"
        }
      ],
      "stateMutability": "view",
      "type": "function"
    },
    {
      "inputs": [
        {
          "internalType": "address",
          "name": "from",
          "type": "address"
        },
        {
          "internalType": "address",
          "name": "to",
          "type": "address"
        },
        {
          "internalType": "uint256",
          "name": "tokenId",
          "type": "uint256"
        }
      ],
      "name": "transferFrom",
      "outputs": [],
      "stateMutability": "nonpayable",
      "type": "function"
    },
    {
      "inputs": [
        {
          "internalType": "address",
          "name": "newOwner",
          "type": "address"
        }
      ],
      "name": "transferOwnership",
      "outputs": [],
      "stateMutability": "nonpayable",
      "type": "function"
    },
    {
      "inputs": [
        {
          "internalType": "string",
          "name": "tokenURI",
          "type": "string"
        }
      ],
      "name": "mint",
      "outputs": [
        {
          "internalType": "uint256",
          "name": "",
          "type": "uint256"
        }
      ],
      "stateMutability": "nonpayable",
      "type": "function"
    }
  ],
  "bytecode": "0x60806040523480156200001157600080fd5b506040518060400160405280600481526020016313185b9960e21b815250604051806040016040528060048152602001631310539160e21b815250816000908051906020019062000064929190620000f3565b5080516200007a906001906020840190620000f3565b50505062000097620000916200009d60201b60201c565b620000a1565b620001d6565b3390565b600780546001600160a01b038381166001600160a01b0319831681179093556040519116919082907f8be0079c531659141344cd1fd0a4f28419497f9722a3daafe3b4186f6b6457e090600090a35050565b828054620001019062000199565b90600052602060002090601f01602090048101928262000125576000855562000170565b82601f106200014057805160ff191683800117855562000170565b8280016001018555821562000170579182015b828111156200017057825182559160200191906001019062000153565b506200017e92915062000182565b5090565b5b808211156200017e576000815560010162000183565b600181811c90821680620001ae57607f821691505b60208210811415620001d057634e487b7160e01b600052602260045260246000fd5b50919050565b61189a80620001e66000396000f3fe608060405234801561001057600080fd5b506004361061010b5760003560e01c8063715018a6116100a2578063b88d4fde11610071578063b88d4fde1461021b578063c87b56dd1461022e578063d85d3d2714610241578063e985e9c514610254578063f2fde38b1461029057600080fd5b8063715018a6146101e75780638da5cb5b146101ef57806395d89b4114610200578063a22cb4651461020857600080fd5b806323b872dd116100de57806323b872dd1461018d57806342842e0e146101a05780636352211e146101b357806370a08231146101c657600080fd5b806301ffc9a71461011057806306fdde0314610138578063081812fc1461014d578063095ea7b314610178575b600080fd5b61012361011e36600461151a565b6102a3565b60405190151581526020015b60405180910390f35b6101406102f5565b60405161012f9190611648565b61016061015b366004611598565b610387565b6040516001600160a01b03909116815260200161012f565b61018b6101863660046114f1565b610414565b005b61018b61019b366004611403565b61052a565b61018b6101ae366004611403565b61055b565b6101606101c1366004611598565b610576565b6101d96101d43660046113b7565b6105ed565b60405190815260200161012f565b61018b610674565b6007546001600160a01b0316610160565b6101406106aa565b61018b6102163660046114b7565b6106b9565b61018b61022936600461143e565b6106c8565b61014061023c366004611598565b610700565b6101d961024f366004611552565b610877565b6101236102623660046113d1565b6001600160a01b03918216600090815260056020908152604080832093909416825291909152205460ff1690565b61018b61029e3660046113b7565b6108d8565b60006001600160e01b031982166380ac58cd60e01b14806102d457506001600160e01b03198216635b5e139f60e01b145b806102ef57506301ffc9a760e01b6001600160e01b03198316145b92915050565b606060008054610304906117a2565b80601f0160208091040260200160405190810160405280929190818152602001828054610330906117a2565b801561037d5780601f106103525761010080835404028352916020019161037d565b820191906000526020600020905b81548152906001019060200180831161036057829003601f168201915b5050505050905090565b600061039282610973565b6103f85760405162461bcd60e51b815260206004820152602c60248201527f4552433732313a20617070726f76656420717565727920666f72206e6f6e657860448201526b34b9ba32b73a103a37b5b2b760a11b60648201526084015b60405180910390fd5b506000908152600460205260409020546001600160a01b031690565b600061041f82610576565b9050806001600160a01b0316836001600160a01b0316141561048d5760405162461bcd60e51b815260206004820152602160248201527f4552433732313a20617070726f76616c20746f2063757272656e74206f776e656044820152603960f91b60648201526084016103ef565b336001600160a01b03821614806104a957506104a98133610262565b61051b5760405162461bcd60e51b815260206004820152603860248201527f4552433732313a20617070726f76652063616c6c6572206973206e6f74206f7760448201527f6e6572206e6f7220617070726f76656420666f7220616c6c000000000000000060648201526084016103ef565b6105258383610990565b505050565b61053433826109fe565b6105505760405162461bcd60e51b81526004016103ef906116e2565b610525838383610ae4565b610525838383604051806020016040528060008152506106c8565b6000818152600260205260408120546001600160a01b0316806102ef5760405162461bcd60e51b815260206004820152602960248201527f4552433732313a206f776e657220717565727920666f72206e6f6e657869737460448201526832b73a103a37b5b2b760b91b60648201526084016103ef565b60006001600160a01b0382166106585760405162461bcd60e51b815260206004820152602a60248201527f4552433732313a2062616c616e636520717565727920666f7220746865207a65604482015269726f206164647265737360b01b60648201526084016103ef565b506001600160a01b031660009081526003602052604090205490565b6007546001600160a01b0316331461069e5760405162461bcd60e51b81526004016103ef906116ad565b6106a86000610c80565b565b606060018054610304906117a2565b6106c4338383610cd2565b5050565b6106d233836109fe565b6106ee5760405162461bcd60e51b81526004016103ef906116e2565b6106fa84848484610da1565b50505050565b606061070b82610973565b6107715760405162461bcd60e51b815260206004820152603160248201527f45524337323155524953746f726167653a2055524920717565727920666f72206044820152703737b732bc34b9ba32b73a103a37b5b2b760791b60648201526084016103ef565b6000828152600660205260408120805461078a906117a2565b80601f01602080910402602001604051908101604052809291908181526020018280546107b6906117a2565b80156108035780601f106107d857610100808354040283529160200191610803565b820191906000526020600020905b8154815290600101906020018083116107e657829003601f168201915b50505050509050600061082160408051602081019091526000815290565b9050805160001415610834575092915050565b81511561086657808260405160200161084e9291906115dc565b60405160208183030381529060405292505050919050565b61086f84610dd4565b949350505050565b6007546000906001600160a01b031633146108a45760405162461bcd60e51b81526004016103ef906116ad565b6108b2600880546001019055565b60006108bd60085490565b90506108c93382610eac565b6102ef8184610fdf565b919050565b6007546001600160a01b031633146109025760405162461bcd60e51b81526004016103ef906116ad565b6001600160a01b0381166109675760405162461bcd60e51b815260206004820152602660248201527f4f776e61626c653a206e6577206f776e657220697320746865207a65726f206160448201526564647265737360d01b60648201526084016103ef565b61097081610c80565b50565b6000908152600260205260409020546001600160a01b0316151590565b600081815260046020526040902080546001600160a01b0319166001600160a01b03841690811790915581906109c582610576565b6001600160a01b03167f8c5be1e5ebec7d5bd14f71427d1e84f3dd0314c0f7b2291e5b200ac8c7c3b92560405160405180910390a45050565b6000610a0982610973565b610a6a5760405162461bcd60e51b815260206004820152602c60248201527f4552433732313a206f70657261746f7220717565727920666f72206e6f6e657860448201526b34b9ba32b73a103a37b5b2b760a11b60648201526084016103ef565b6000610a7583610576565b9050806001600160a01b0316846001600160a01b03161480610ab05750836001600160a01b0316610aa584610387565b6001600160a01b0316145b8061086f57506001600160a01b0380821660009081526005602090815260408083209388168352929052205460ff1661086f565b826001600160a01b0316610af782610576565b6001600160a01b031614610b5b5760405162461bcd60e51b815260206004820152602560248201527f4552433732313a207472616e736665722066726f6d20696e636f72726563742060448201526437bbb732b960d91b60648201526084016103ef565b6001600160a01b038216610bbd5760405162461bcd60e51b8152602060048201526024808201527f4552433732313a207472616e7366657220746f20746865207a65726f206164646044820152637265737360e01b60648201526084016103ef565b610bc8600082610990565b6001600160a01b0383166000908152600360205260408120805460019290610bf190849061175f565b90915550506001600160a01b0382166000908152600360205260408120805460019290610c1f908490611733565b909155505060008181526002602052604080822080546001600160a01b0319166001600160a01b0386811691821790925591518493918716917fddf252ad1be2c89b69c2b068fc378daa952ba7f163c4a11628f55a4df523b3ef91a4505050565b600780546001600160a01b038381166001600160a01b0319831681179093556040519116919082907f8be0079c531659141344cd1fd0a4f28419497f9722a3daafe3b4186f6b6457e090600090a35050565b816001600160a01b0316836001600160a01b03161415610d345760405162461bcd60e51b815260206004820152601960248201527f4552433732313a20617070726f766520746f2063616c6c65720000000000000060448201526064016103ef565b6001600160a01b03838116600081815260056020908152604080832094871680845294825291829020805460ff191686151590811790915591519182527f17307eab39ab6107e8899845ad3d59bd9653f200f220920489ca2b5937696c31910160405180910390a3505050565b610dac848484610ae4565b610db88484848461106a565b6106fa5760405162461bcd60e51b81526004016103ef9061165b565b6060610ddf82610973565b610e435760405162461bcd60e51b815260206004820152602f60248201527f4552433732314d657461646174613a2055524920717565727920666f72206e6f60448201526e3732bc34b9ba32b73a103a37b5b2b760891b60648201526084016103ef565b6000610e5a60408051602081019091526000815290565b90506000815111610e7a5760405180602001604052806000815250610ea5565b80610e8484611177565b604051602001610e959291906115dc565b6040516020818303038152906040525b9392505050565b6001600160a01b038216610f025760405162461bcd60e51b815260206004820181905260248201527f4552433732313a206d696e7420746f20746865207a65726f206164647265737360448201526064016103ef565b610f0b81610973565b15610f585760405162461bcd60e51b815260206004820152601c60248201527f4552433732313a20746f6b656e20616c7265616479206d696e7465640000000060448201526064016103ef565b6001600160a01b0382166000908152600360205260408120805460019290610f81908490611733565b909155505060008181526002602052604080822080546001600160a01b0319166001600160a01b03861690811790915590518392907fddf252ad1be2c89b69c2b068fc378daa952ba7f163c4a11628f55a4df523b3ef908290a45050565b610fe882610973565b61104b5760405162461bcd60e51b815260206004820152602e60248201527f45524337323155524953746f726167653a2055524920736574206f66206e6f6e60448201526d32bc34b9ba32b73a103a37b5b2b760911b60648201526084016103ef565b6000828152600660209081526040909120825161052592840190611291565b60006001600160a01b0384163b1561116c57604051630a85bd0160e11b81526001600160a01b0385169063150b7a02906110ae90339089908890889060040161160b565b602060405180830381600087803b1580156110c857600080fd5b505af19250505080156110f8575060408051601f3d908101601f191682019092526110f591810190611536565b60015b611152573d808015611126576040519150601f19603f3d011682016040523d82523d6000602084013e61112b565b606091505b50805161114a5760405162461bcd60e51b81526004016103ef9061165b565b805181602001fd5b6001600160e01b031916630a85bd0160e11b14905061086f565b506001949350505050565b60608161119b5750506040805180820190915260018152600360fc1b602082015290565b8160005b81156111c557806111af816117dd565b91506111be9050600a8361174b565b915061119f565b60008167ffffffffffffffff8111156111ee57634e487b7160e01b600052604160045260246000fd5b6040519080825280601f01601f191660200182016040528015611218576020820181803683370190505b5090505b841561086f5761122d60018361175f565b915061123a600a866117f8565b611245906030611733565b60f81b81838151811061126857634e487b7160e01b600052603260045260246000fd5b60200101906001600160f81b031916908160001a90535061128a600a8661174b565b945061121c565b82805461129d906117a2565b90600052602060002090601f0160209004810192826112bf5760008555611305565b82601f106112d857805160ff1916838001178555611305565b82800160010185558215611305579182015b828111156113055782518255916020019190600101906112ea565b50611311929150611315565b5090565b5b808211156113115760008155600101611316565b600067ffffffffffffffff8084111561134557611345611838565b604051601f8501601f19908116603f0116810190828211818310171561136d5761136d611838565b8160405280935085815286868601111561138657600080fd5b858560208301376000602087830101525050509392505050565b80356001600160a01b03811681146108d357600080fd5b6000602082840312156113c8578081fd5b610ea5826113a0565b600080604083850312156113e3578081fd5b6113ec836113a0565b91506113fa602084016113a0565b90509250929050565b600080600060608486031215611417578081fd5b611420846113a0565b925061142e602085016113a0565b9150604084013590509250925092565b60008060008060808587031215611453578081fd5b61145c856113a0565b935061146a602086016113a0565b925060408501359150606085013567ffffffffffffffff81111561148c578182fd5b8501601f8101871361149c578182fd5b6114ab8782356020840161132a565b91505092959194509250565b600080604083850312156114c9578182fd5b6114d2836113a0565b9150602083013580151581146114e6578182fd5b809150509250929050565b60008060408385031215611503578182fd5b61150c836113a0565b946020939093013593505050565b60006020828403121561152b578081fd5b8135610ea58161184e565b600060208284031215611547578081fd5b8151610ea58161184e565b600060208284031215611563578081fd5b813567ffffffffffffffff811115611579578182fd5b8201601f81018413611589578182fd5b61086f8482356020840161132a565b6000602082840312156115a9578081fd5b5035919050565b600081518084526115c8816020860160208601611776565b601f01601f19169290920160200192915050565b600083516115ee818460208801611776565b835190830190611602818360208801611776565b01949350505050565b6001600160a01b038581168252841660208201526040810183905260806060820181905260009061163e908301846115b0565b9695505050505050565b602081526000610ea560208301846115b0565b60208082526032908201527f4552433732313a207472616e7366657220746f206e6f6e20455243373231526560408201527131b2b4bb32b91034b6b83632b6b2b73a32b960711b606082015260800190565b6020808252818101527f4f776e61626c653a2063616c6c6572206973206e6f7420746865206f776e6572604082015260600190565b60208082526031908201527f4552433732313a207472616e736665722063616c6c6572206973206e6f74206f6040820152701ddb995c881b9bdc88185c1c1c9bdd9959607a1b606082015260800190565b600082198211156117465761174661180c565b500190565b60008261175a5761175a611822565b500490565b6000828210156117715761177161180c565b500390565b60005b83811015611791578181015183820152602001611779565b838111156106fa5750506000910152565b600181811c908216806117b657607f821691505b602082108114156117d757634e487b7160e01b600052602260045260246000fd5b50919050565b60006000198214156117f1576117f161180c565b5060010190565b60008261180757611807611822565b500690565b634e487b7160e01b600052601160045260246000fd5b634e487b7160e01b600052601260045260246000fd5b634e487b7160e01b600052604160045260246000fd5b6001600160e01b03198116811461097057600080fdfea264697066735822122075e8d7b0875e67833bae53ee33f288e40519b80449f9f056bfa549311644a5c164736f6c63430008040033",
  "immutableReferences": {},
  "source": "// SPDX-License-Identifier: MIT\r\npragma solidity ^0.8.0;\r\n\r\nimport '@openzeppelin/contracts/token/ERC721/extensions/ERC721URIStorage.sol';\r\nimport '@openzeppelin/contracts/access/Ownable.sol';\r\nimport '@openzeppelin/contracts/utils/Counters.sol';\r\n\r\ncontract Land is ERC721URIStorage, Ownable {\r\n    using Counters for Counters.Counter;\r\n    Counters.Counter private _tokenIds;\r\n\r\n    constructor() ERC721('Land', 'LAND') {}\r\n\r\n    function mint(string memory tokenURI) public onlyOwner returns (uint256) {\r\n        _tokenIds.increment();\r\n        \r\n        uint256 newItemId = _tokenIds.current();\r\n        _mint(msg.sender, newItemId);\r\n        _setTokenURI(newItemId, tokenURI);\r\n\r\n        return newItemId;\r\n    }\r\n}",
  "sourcePath": "C:\\Users\\elads\\Documents\\\\ \\ \\\\\\Final Project\\contracts\\Land.sol",
  "compiler": {
    "name": "solc",
    "version": "0.8.4+commit.c7e474f2.Emscripten.clang"
  },
  "schemaVersion": "3.4.4",
  "updatedAt": "2022-02-13T23:43:19.902Z",
  "devdoc": {
    "kind": "dev",
    "methods": {
      "approve(address,uint256)": {
        "details": "See {IERC721-approve}."
      },
      "balanceOf(address)": {
        "details": "See {IERC721-balanceOf}."
      },
      "getApproved(uint256)": {
        "details": "See {IERC721-getApproved}."
      },
      "isApprovedForAll(address,address)": {
        "details": "See {IERC721-isApprovedForAll}."
      },
      "name()": {
        "details": "See {IERC721Metadata-name}."
      },
      "owner()": {
        "details": "Returns the address of the current owner."
      },
      "ownerOf(uint256)": {
        "details": "See {IERC721-ownerOf}."
      },
      "renounceOwnership()": {
        "details": "Leaves the contract without owner. It will not be possible to call `onlyOwner` functions anymore. Can only be called by the current owner. NOTE: Renouncing ownership will leave the contract without an owner, thereby removing any functionality that is only available to the owner."
      },
      "safeTransferFrom(address,address,uint256)": {
        "details": "See {IERC721-safeTransferFrom}."
      },
      "safeTransferFrom(address,address,uint256,bytes)": {
        "details": "See {IERC721-safeTransferFrom}."
      },
      "setApprovalForAll(address,bool)": {
        "details": "See {IERC721-setApprovalForAll}."
      },
      "supportsInterface(bytes4)": {
        "details": "See {IERC165-supportsInterface}."
      },
      "symbol()": {
        "details": "See {IERC721Metadata-symbol}."
      },
      "tokenURI(uint256)": {
        "details": "See {IERC721Metadata-tokenURI}."
      },
      "transferFrom(address,address,uint256)": {
        "details": "See {IERC721-transferFrom}."
      },
      "transferOwnership(address)": {
        "details": "Transfers ownership of the contract to a new account (`newOwner`). Can only be called by the current owner."
      }
    },
    "version": 1
  },
  "userdoc": {
    "kind": "user",
    "methods": {},
    "version": 1
  }
}