{
  "contractName": "Map",
  "abi": [
    {
      "inputs": [],
      "payable": false,
      "stateMutability": "nonpayable",
      "type": "constructor"
    },
    {
      "constant": true,
      "inputs": [
        {
          "internalType": "uint256",
          "name": "",
          "type": "uint256"
        },
        {
          "internalType": "uint256",
          "name": "",
          "type": "uint256"
        }
      ],
      "name": "map",
      "outputs": [
        {
          "internalType": "address",
          "name": "owner",
          "type": "address"
        },
        {
          "internalType": "enum Map.LandType",
          "name": "landType",
          "type": "uint8"
        },
        {
          "internalType": "uint256",
          "name": "amount",
          "type": "uint256"
        },
        {
          "internalType": "string",
          "name": "content",
          "type": "string"
        }
      ],
      "payable": false,
      "stateMutability": "view",
      "type": "function"
    },
    {
      "constant": false,
      "inputs": [],
      "name": "initMap",
      "outputs": [],
      "payable": false,
      "stateMutability": "nonpayable",
      "type": "function"
    },
    {
      "constant": false,
      "inputs": [
        {
          "internalType": "uint256",
          "name": "row",
          "type": "uint256"
        },
        {
          "internalType": "uint256",
          "name": "col",
          "type": "uint256"
        }
      ],
      "name": "buyLand",
      "outputs": [
        {
          "internalType": "uint256",
          "name": "",
          "type": "uint256"
        },
        {
          "internalType": "uint256",
          "name": "",
          "type": "uint256"
        }
      ],
      "payable": false,
      "stateMutability": "nonpayable",
      "type": "function"
    },
    {
      "constant": true,
      "inputs": [],
      "name": "getMap",
      "outputs": [
        {
          "components": [
            {
              "internalType": "address",
              "name": "owner",
              "type": "address"
            },
            {
              "internalType": "enum Map.LandType",
              "name": "landType",
              "type": "uint8"
            },
            {
              "internalType": "uint256",
              "name": "amount",
              "type": "uint256"
            },
            {
              "internalType": "string",
              "name": "content",
              "type": "string"
            }
          ],
          "internalType": "struct Map.Land[15][15]",
          "name": "",
          "type": "tuple[15][15]"
        }
      ],
      "payable": false,
      "stateMutability": "view",
      "type": "function"
    }
  ],
  "bytecode": "0x60806040523480156200001157600080fd5b50620000226200002860201b60201c565b62000289565b60016014426040516020016200003f919062000258565b6040516020818303038152906040528051906020012060001c816200006057fe5b06016102a38190555060008090505b600f8110156200023a5760008090505b600f8110156200022b576005821480620000995750600581145b15620000ed576002600083600f8110620000af57fe5b602d020182600f8110620000bf57fe5b6003020160000160146101000a81548160ff02191690836002811115620000e257fe5b02179055506200021d565b6002821015801562000100575060048211155b80156200010e575060028110155b80156200011c575060048111155b806200015357506006821015801562000136575060088211155b801562000144575060068110155b801562000152575060088111155b5b15620001a7576001600083600f81106200016957fe5b602d020182600f81106200017957fe5b6003020160000160146101000a81548160ff021916908360028111156200019c57fe5b02179055506200021c565b60008083600f8110620001b657fe5b602d020182600f8110620001c657fe5b6003020160000160146101000a81548160ff02191690836002811115620001e957fe5b02179055506102a354600083600f81106200020057fe5b602d020182600f81106200021057fe5b60030201600101819055505b5b80806001019150506200007f565b5080806001019150506200006f565b50565b620002526200024c8262000275565b6200027f565b82525050565b60006200026682846200023d565b60208201915081905092915050565b6000819050919050565b6000819050919050565b610bd780620002996000396000f3fe608060405234801561001057600080fd5b506004361061004c5760003560e01c8063151810a614610051578063a90b91281461005b578063ad3de14c1461008e578063be977cd4146100ac575b600080fd5b6100596100dd565b005b610075600480360361007091908101906106f4565b6102d4565b60405161008594939291906109a3565b60405180910390f35b6100966103dc565b6040516100a391906109ef565b60405180910390f35b6100c660048036036100c191908101906106f4565b610595565b6040516100d4929190610a11565b60405180910390f35b60016014426040516020016100f29190610988565b6040516020818303038152906040528051906020012060001c8161011257fe5b06016102a38190555060008090505b600f8110156102d15760008090505b600f8110156102c35760058214806101485750600581145b15610197576002600083600f811061015c57fe5b602d020182600f811061016b57fe5b6003020160000160146101000a81548160ff0219169083600281111561018d57fe5b02179055506102b6565b600282101580156101a9575060048211155b80156101b6575060028110155b80156101c3575060048111155b806101f65750600682101580156101db575060088211155b80156101e8575060068110155b80156101f5575060088111155b5b15610245576001600083600f811061020a57fe5b602d020182600f811061021957fe5b6003020160000160146101000a81548160ff0219169083600281111561023b57fe5b02179055506102b5565b60008083600f811061025357fe5b602d020182600f811061026257fe5b6003020160000160146101000a81548160ff0219169083600281111561028457fe5b02179055506102a354600083600f811061029a57fe5b602d020182600f81106102a957fe5b60030201600101819055505b5b8080600101915050610130565b508080600101915050610121565b50565b600082600f81106102e157fe5b602d020181600f81106102f057fe5b60030201600091509150508060000160009054906101000a900473ffffffffffffffffffffffffffffffffffffffff16908060000160149054906101000a900460ff1690806001015490806002018054600181600116156101000203166002900480601f0160208091040260200160405190810160405280929190818152602001828054600181600116156101000203166002900480156103d25780601f106103a7576101008083540402835291602001916103d2565b820191906000526020600020905b8154815290600101906020018083116103b557829003601f168201915b5050505050905084565b6103e461063a565b6000600f80602002604051908101604052809291906000905b8282101561058c578382602d0201600f80602002604051908101604052809291906000905b82821015610579578382600302016040518060800160405290816000820160009054906101000a900473ffffffffffffffffffffffffffffffffffffffff1673ffffffffffffffffffffffffffffffffffffffff1673ffffffffffffffffffffffffffffffffffffffff1681526020016000820160149054906101000a900460ff1660028111156104af57fe5b60028111156104ba57fe5b815260200160018201548152602001600282018054600181600116156101000203166002900480601f0160208091040260200160405190810160405280929190818152602001828054600181600116156101000203166002900480156105615780601f1061053657610100808354040283529160200191610561565b820191906000526020600020905b81548152906001019060200180831161054457829003601f168201915b50505050508152505081526020019060010190610422565b50505050815260200190600101906103fd565b50505050905090565b600080600084101580156105a95750600f84105b80156105b6575060008310155b80156105c25750600f83105b6105cb57600080fd5b33600085600f81106105d957fe5b602d020184600f81106105e857fe5b6003020160000160006101000a81548173ffffffffffffffffffffffffffffffffffffffff021916908373ffffffffffffffffffffffffffffffffffffffff1602179055508383915091509250929050565b604051806101e00160405280600f905b610652610668565b81526020019060019003908161064a5790505090565b604051806101e00160405280600f905b610680610696565b8152602001906001900390816106785790505090565b6040518060800160405280600073ffffffffffffffffffffffffffffffffffffffff168152602001600060028111156106cb57fe5b815260200160008152602001606081525090565b6000813590506106ee81610b7d565b92915050565b6000806040838503121561070757600080fd5b6000610715858286016106df565b9250506020610726858286016106df565b9150509250929050565b600061073c83836107eb565b905092915050565b600061075083836108f0565b905092915050565b61076181610ac1565b82525050565b61077081610ac1565b82525050565b600061078182610a4e565b61078b8185610a89565b93508360208202850161079d85610a3a565b8060005b858110156107d957848403895281516107ba8582610730565b94506107c583610a6f565b925060208a019950506001810190506107a1565b50829750879550505050505092915050565b60006107f682610a59565b6108008185610a94565b93508360208202850161081285610a44565b8060005b8581101561084e578484038952815161082f8582610744565b945061083a83610a7c565b925060208a01995050600181019050610816565b50829750879550505050505092915050565b61086981610b10565b82525050565b61087881610b10565b82525050565b600061088982610a64565b6108938185610a9f565b93506108a3818560208601610b22565b6108ac81610b5f565b840191505092915050565b60006108c282610a64565b6108cc8185610ab0565b93506108dc818560208601610b22565b6108e581610b5f565b840191505092915050565b60006080830160008301516109086000860182610758565b50602083015161091b6020860182610860565b50604083015161092e6040860182610953565b5060608301518482036060860152610946828261087e565b9150508091505092915050565b61095c81610b06565b82525050565b61096b81610b06565b82525050565b61098261097d82610b06565b610b55565b82525050565b60006109948284610971565b60208201915081905092915050565b60006080820190506109b86000830187610767565b6109c5602083018661086f565b6109d26040830185610962565b81810360608301526109e481846108b7565b905095945050505050565b60006020820190508181036000830152610a098184610776565b905092915050565b6000604082019050610a266000830185610962565b610a336020830184610962565b9392505050565b6000819050919050565b6000819050919050565b6000600f9050919050565b6000600f9050919050565b600081519050919050565b6000602082019050919050565b6000602082019050919050565b600081905092915050565b600081905092915050565b600082825260208201905092915050565b600082825260208201905092915050565b6000610acc82610ae6565b9050919050565b6000819050610ae182610b70565b919050565b600073ffffffffffffffffffffffffffffffffffffffff82169050919050565b6000819050919050565b6000610b1b82610ad3565b9050919050565b60005b83811015610b40578082015181840152602081019050610b25565b83811115610b4f576000848401525b50505050565b6000819050919050565b6000601f19601f8301169050919050565b60038110610b7a57fe5b50565b610b8681610b06565b8114610b9157600080fd5b5056fea365627a7a72315820d5b026f09d45a67f3fa0969d3d58a851575d2a95c1e88f06a5b65c2ba5f47eee6c6578706572696d656e74616cf564736f6c63430005100040",
  "source": "pragma solidity ^0.5.0;\r\npragma experimental ABIEncoderV2;\r\n\r\ncontract Map {\r\n    enum LandType{ NFT, PARK, ROAD }\r\n\r\n    struct Land {\r\n        address owner;\r\n        LandType landType;\r\n        uint amount;\r\n        string content;\r\n    }\r\n\r\n    uint constant MAP_SIZE = 15;\r\n    uint constant MAX_INITIAL_PRICE = 20;\r\n    uint constant MIN_INITIAL_PRICE = 1;\r\n\r\n    Land[MAP_SIZE][MAP_SIZE] public map;\r\n    uint initialPrice;\r\n\r\n    constructor() public {\r\n        initMap();\r\n    }\r\n\r\n    function initMap() public {\r\n        initialPrice = uint(keccak256(abi.encodePacked(now))) % MAX_INITIAL_PRICE + MIN_INITIAL_PRICE;\r\n\r\n        for (uint i = 0; i < MAP_SIZE; i++) {\r\n            for (uint j = 0; j < MAP_SIZE; j++) {\r\n                if (i == 5 || j == 5) {\r\n                    map[i][j].landType = LandType.ROAD;\r\n                } else if (i >= 2 && i <= 4 && j >= 2 && j <= 4\r\n                    || i >= 6 && i <= 8 && j >= 6 && j <= 8) {\r\n                    map[i][j].landType = LandType.PARK;\r\n                } else {\r\n                    map[i][j].landType = LandType.NFT;\r\n                    map[i][j].amount = initialPrice;\r\n                }\r\n            }\r\n        }\r\n    }\r\n\r\n    // Adopting a pet\r\n    function buyLand(uint row, uint col) public returns (uint, uint) {\r\n        require(row >= 0 && row < MAP_SIZE && col >= 0 && col < MAP_SIZE);\r\n\r\n        map[row][col].owner = msg.sender;\r\n\r\n        return (row, col);\r\n    }\r\n\r\n    // Retrieving the map\r\n    function getMap() public view returns (Land[MAP_SIZE][MAP_SIZE] memory) {\r\n        return map;\r\n    }\r\n}",
  "sourcePath": "C:\\Users\\elads\\Documents\\תואר\\שנה ג\\סמסטר א\\בלוקציין\\תרגילים\\Final Project\\contracts\\Map.sol",
  "compiler": {
    "name": "solc",
    "version": "0.5.16+commit.9c3226ce.Emscripten.clang"
  },
  "schemaVersion": "3.4.4",
  "updatedAt": "2022-02-07T02:06:40.176Z",
  "networkType": "ethereum",
  "devdoc": {
    "methods": {}
  },
  "userdoc": {
    "methods": {}
  }
}