{
  "contractName": "Token",
  "abi": [
    {
      "inputs": [
        {
          "internalType": "string",
          "name": "name",
          "type": "string"
        },
        {
          "internalType": "string",
          "name": "symbol",
          "type": "string"
        }
      ],
      "stateMutability": "nonpayable",
      "type": "constructor"
    },
    {
      "anonymous": false,
      "inputs": [
        {
          "indexed": true,
          "internalType": "address",
          "name": "owner",
          "type": "address"
        },
        {
          "indexed": true,
          "internalType": "address",
          "name": "spender",
          "type": "address"
        },
        {
          "indexed": false,
          "internalType": "uint256",
          "name": "value",
          "type": "uint256"
        }
      ],
      "name": "Approval",
      "type": "event"
    },
    {
      "anonymous": false,
      "inputs": [
        {
          "indexed": true,
          "internalType": "address",
          "name": "from",
          "type": "address"
        },
        {
          "indexed": true,
          "internalType": "address",
          "name": "to",
          "type": "address"
        },
        {
          "indexed": false,
          "internalType": "uint256",
          "name": "value",
          "type": "uint256"
        }
      ],
      "name": "Transfer",
      "type": "event"
    },
    {
      "inputs": [
        {
          "internalType": "address",
          "name": "owner",
          "type": "address"
        },
        {
          "internalType": "address",
          "name": "spender",
          "type": "address"
        }
      ],
      "name": "allowance",
      "outputs": [
        {
          "internalType": "uint256",
          "name": "",
          "type": "uint256"
        }
      ],
      "stateMutability": "view",
      "type": "function",
      "constant": true
    },
    {
      "inputs": [
        {
          "internalType": "address",
          "name": "spender",
          "type": "address"
        },
        {
          "internalType": "uint256",
          "name": "amount",
          "type": "uint256"
        }
      ],
      "name": "approve",
      "outputs": [
        {
          "internalType": "bool",
          "name": "",
          "type": "bool"
        }
      ],
      "stateMutability": "nonpayable",
      "type": "function"
    },
    {
      "inputs": [
        {
          "internalType": "address",
          "name": "account",
          "type": "address"
        }
      ],
      "name": "balanceOf",
      "outputs": [
        {
          "internalType": "uint256",
          "name": "",
          "type": "uint256"
        }
      ],
      "stateMutability": "view",
      "type": "function",
      "constant": true
    },
    {
      "inputs": [],
      "name": "decimals",
      "outputs": [
        {
          "internalType": "uint8",
          "name": "",
          "type": "uint8"
        }
      ],
      "stateMutability": "view",
      "type": "function",
      "constant": true
    },
    {
      "inputs": [
        {
          "internalType": "address",
          "name": "spender",
          "type": "address"
        },
        {
          "internalType": "uint256",
          "name": "subtractedValue",
          "type": "uint256"
        }
      ],
      "name": "decreaseAllowance",
      "outputs": [
        {
          "internalType": "bool",
          "name": "",
          "type": "bool"
        }
      ],
      "stateMutability": "nonpayable",
      "type": "function"
    },
    {
      "inputs": [
        {
          "internalType": "address",
          "name": "spender",
          "type": "address"
        },
        {
          "internalType": "uint256",
          "name": "addedValue",
          "type": "uint256"
        }
      ],
      "name": "increaseAllowance",
      "outputs": [
        {
          "internalType": "bool",
          "name": "",
          "type": "bool"
        }
      ],
      "stateMutability": "nonpayable",
      "type": "function"
    },
    {
      "inputs": [],
      "name": "name",
      "outputs": [
        {
          "internalType": "string",
          "name": "",
          "type": "string"
        }
      ],
      "stateMutability": "view",
      "type": "function",
      "constant": true
    },
    {
      "inputs": [],
      "name": "symbol",
      "outputs": [
        {
          "internalType": "string",
          "name": "",
          "type": "string"
        }
      ],
      "stateMutability": "view",
      "type": "function",
      "constant": true
    },
    {
      "inputs": [],
      "name": "totalSupply",
      "outputs": [
        {
          "internalType": "uint256",
          "name": "",
          "type": "uint256"
        }
      ],
      "stateMutability": "view",
      "type": "function",
      "constant": true
    },
    {
      "inputs": [
        {
          "internalType": "address",
          "name": "to",
          "type": "address"
        },
        {
          "internalType": "uint256",
          "name": "amount",
          "type": "uint256"
        }
      ],
      "name": "transfer",
      "outputs": [
        {
          "internalType": "bool",
          "name": "",
          "type": "bool"
        }
      ],
      "stateMutability": "nonpayable",
      "type": "function"
    },
    {
      "inputs": [
        {
          "internalType": "address",
          "name": "from",
          "type": "address"
        },
        {
          "internalType": "address",
          "name": "to",
          "type": "address"
        },
        {
          "internalType": "uint256",
          "name": "amount",
          "type": "uint256"
        }
      ],
      "name": "transferFrom",
      "outputs": [
        {
          "internalType": "bool",
          "name": "",
          "type": "bool"
        }
      ],
      "stateMutability": "nonpayable",
      "type": "function"
    },
    {
      "inputs": [],
      "name": "getPrice",
      "outputs": [
        {
          "internalType": "uint256",
          "name": "",
          "type": "uint256"
        }
      ],
      "stateMutability": "view",
      "type": "function",
      "constant": true
    },
    {
      "inputs": [],
      "name": "buyTokens",
      "outputs": [],
      "stateMutability": "payable",
      "type": "function",
      "payable": true
    }
  ],
  "bytecode": "0x60806040523480156200001157600080fd5b5060405162000fe938038062000fe983398101604081905262000034916200032c565b8151829082906200004d906003906020850190620001b9565b50805162000063906004906020840190620001b9565b506200006f9150503390565b600580546001600160a01b0319166001600160a01b039290921691909117905567016345785d8a0000600655620000c9620000a73390565b620000b56012600a620004ab565b620000c390612710620004c0565b620000d1565b50506200053a565b6001600160a01b0382166200012c5760405162461bcd60e51b815260206004820152601f60248201527f45524332303a206d696e7420746f20746865207a65726f206164647265737300604482015260640160405180910390fd5b8060026000828254620001409190620004e2565b90915550506001600160a01b038216600090815260208190526040812080548392906200016f908490620004e2565b90915550506040518181526001600160a01b038316906000907fddf252ad1be2c89b69c2b068fc378daa952ba7f163c4a11628f55a4df523b3ef9060200160405180910390a35050565b828054620001c790620004fd565b90600052602060002090601f016020900481019282620001eb576000855562000236565b82601f106200020657805160ff191683800117855562000236565b8280016001018555821562000236579182015b828111156200023657825182559160200191906001019062000219565b506200024492915062000248565b5090565b5b8082111562000244576000815560010162000249565b634e487b7160e01b600052604160045260246000fd5b600082601f8301126200028757600080fd5b81516001600160401b0380821115620002a457620002a46200025f565b604051601f8301601f19908116603f01168101908282118183101715620002cf57620002cf6200025f565b81604052838152602092508683858801011115620002ec57600080fd5b600091505b83821015620003105785820183015181830184015290820190620002f1565b83821115620003225760008385830101525b9695505050505050565b600080604083850312156200034057600080fd5b82516001600160401b03808211156200035857600080fd5b620003668683870162000275565b935060208501519150808211156200037d57600080fd5b506200038c8582860162000275565b9150509250929050565b634e487b7160e01b600052601160045260246000fd5b600181815b80851115620003ed578160001904821115620003d157620003d162000396565b80851615620003df57918102915b93841c9390800290620003b1565b509250929050565b6000826200040657506001620004a5565b816200041557506000620004a5565b81600181146200042e5760028114620004395762000459565b6001915050620004a5565b60ff8411156200044d576200044d62000396565b50506001821b620004a5565b5060208310610133831016604e8410600b84101617156200047e575081810a620004a5565b6200048a8383620003ac565b8060001904821115620004a157620004a162000396565b0290505b92915050565b6000620004b98383620003f5565b9392505050565b6000816000190483118215151615620004dd57620004dd62000396565b500290565b60008219821115620004f857620004f862000396565b500190565b600181811c908216806200051257607f821691505b602082108114156200053457634e487b7160e01b600052602260045260246000fd5b50919050565b610a9f806200054a6000396000f3fe6080604052600436106100c25760003560e01c806370a082311161007f578063a457c2d711610059578063a457c2d7146101fd578063a9059cbb1461021d578063d0febe4c1461023d578063dd62ed3e1461024757600080fd5b806370a082311461019d57806395d89b41146101d357806398d5fdca146101e857600080fd5b806306fdde03146100c7578063095ea7b3146100f257806318160ddd1461012257806323b872dd14610141578063313ce56714610161578063395093511461017d575b600080fd5b3480156100d357600080fd5b506100dc61028d565b6040516100e99190610893565b60405180910390f35b3480156100fe57600080fd5b5061011261010d366004610904565b61031f565b60405190151581526020016100e9565b34801561012e57600080fd5b506002545b6040519081526020016100e9565b34801561014d57600080fd5b5061011261015c36600461092e565b610337565b34801561016d57600080fd5b50604051601281526020016100e9565b34801561018957600080fd5b50610112610198366004610904565b61035b565b3480156101a957600080fd5b506101336101b836600461096a565b6001600160a01b031660009081526020819052604090205490565b3480156101df57600080fd5b506100dc61039a565b3480156101f457600080fd5b50600654610133565b34801561020957600080fd5b50610112610218366004610904565b6103a9565b34801561022957600080fd5b50610112610238366004610904565b610440565b61024561044e565b005b34801561025357600080fd5b5061013361026236600461098c565b6001600160a01b03918216600090815260016020908152604080832093909416825291909152205490565b60606003805461029c906109bf565b80601f01602080910402602001604051908101604052809291908181526020018280546102c8906109bf565b80156103155780601f106102ea57610100808354040283529160200191610315565b820191906000526020600020905b8154815290600101906020018083116102f857829003601f168201915b5050505050905090565b60003361032d81858561050f565b5060019392505050565b600033610345858285610633565b6103508585856106c5565b506001949350505050565b3360008181526001602090815260408083206001600160a01b038716845290915281205490919061032d9082908690610395908790610a10565b61050f565b60606004805461029c906109bf565b3360008181526001602090815260408083206001600160a01b0387168452909152812054909190838110156104335760405162461bcd60e51b815260206004820152602560248201527f45524332303a2064656372656173656420616c6c6f77616e63652062656c6f77604482015264207a65726f60d81b60648201526084015b60405180910390fd5b610350828686840361050f565b60003361032d8185856106c5565b6005546001600160a01b0316336001600160a01b0316141561046f57600080fd5b6000600654670de0b6b3a76400006104879190610a28565b6104919034610a4a565b6005546001600160a01b03166000908152602081905260409020549091508111156104bb57600080fd5b6005546104d2906001600160a01b031633836106c5565b6005546040516001600160a01b03909116903480156108fc02916000818181858888f1935050505015801561050b573d6000803e3d6000fd5b5050565b6001600160a01b0383166105715760405162461bcd60e51b8152602060048201526024808201527f45524332303a20617070726f76652066726f6d20746865207a65726f206164646044820152637265737360e01b606482015260840161042a565b6001600160a01b0382166105d25760405162461bcd60e51b815260206004820152602260248201527f45524332303a20617070726f766520746f20746865207a65726f206164647265604482015261737360f01b606482015260840161042a565b6001600160a01b0383811660008181526001602090815260408083209487168084529482529182902085905590518481527f8c5be1e5ebec7d5bd14f71427d1e84f3dd0314c0f7b2291e5b200ac8c7c3b925910160405180910390a3505050565b6001600160a01b0383811660009081526001602090815260408083209386168352929052205460001981146106bf57818110156106b25760405162461bcd60e51b815260206004820152601d60248201527f45524332303a20696e73756666696369656e7420616c6c6f77616e6365000000604482015260640161042a565b6106bf848484840361050f565b50505050565b6001600160a01b0383166107295760405162461bcd60e51b815260206004820152602560248201527f45524332303a207472616e736665722066726f6d20746865207a65726f206164604482015264647265737360d81b606482015260840161042a565b6001600160a01b03821661078b5760405162461bcd60e51b815260206004820152602360248201527f45524332303a207472616e7366657220746f20746865207a65726f206164647260448201526265737360e81b606482015260840161042a565b6001600160a01b038316600090815260208190526040902054818110156108035760405162461bcd60e51b815260206004820152602660248201527f45524332303a207472616e7366657220616d6f756e7420657863656564732062604482015265616c616e636560d01b606482015260840161042a565b6001600160a01b0380851660009081526020819052604080822085850390559185168152908120805484929061083a908490610a10565b92505081905550826001600160a01b0316846001600160a01b03167fddf252ad1be2c89b69c2b068fc378daa952ba7f163c4a11628f55a4df523b3ef8460405161088691815260200190565b60405180910390a36106bf565b600060208083528351808285015260005b818110156108c0578581018301518582016040015282016108a4565b818111156108d2576000604083870101525b50601f01601f1916929092016040019392505050565b80356001600160a01b03811681146108ff57600080fd5b919050565b6000806040838503121561091757600080fd5b610920836108e8565b946020939093013593505050565b60008060006060848603121561094357600080fd5b61094c846108e8565b925061095a602085016108e8565b9150604084013590509250925092565b60006020828403121561097c57600080fd5b610985826108e8565b9392505050565b6000806040838503121561099f57600080fd5b6109a8836108e8565b91506109b6602084016108e8565b90509250929050565b600181811c908216806109d357607f821691505b602082108114156109f457634e487b7160e01b600052602260045260246000fd5b50919050565b634e487b7160e01b600052601160045260246000fd5b60008219821115610a2357610a236109fa565b500190565b600082610a4557634e487b7160e01b600052601260045260246000fd5b500490565b6000816000190483118215151615610a6457610a646109fa565b50029056fea2646970667358221220870128ff8b603f93347061020bcfbaaa9013b176d2d1a8a5c6f79d33abe1f2ff64736f6c634300080a0033",
  "immutableReferences": {},
  "source": "// SPDX-License-Identifier: MIT\r\npragma solidity ^0.8.0;\r\n\r\nimport '@openzeppelin/contracts/token/ERC20/ERC20.sol';\r\n\r\ncontract Token is ERC20 {\r\n    address payable private fundsWallet;\r\n    uint256 private price;\r\n\r\n    constructor(string memory name, string memory symbol) ERC20(name, symbol) {\r\n        fundsWallet = payable(_msgSender());\r\n        price = 0.1 ether;\r\n        _mint(_msgSender(), 10000 * 10**uint(decimals()));\r\n    }\r\n\r\n    function getPrice() public view returns (uint256) {\r\n        return price;\r\n    }\r\n\r\n    function buyTokens() public payable {\r\n        require(_msgSender() != fundsWallet);\r\n        uint256 amount = msg.value * (1 ether / price);\r\n        require(balanceOf(fundsWallet) >= amount);\r\n\r\n        _transfer(fundsWallet, _msgSender(), amount);\r\n\r\n        fundsWallet.transfer(msg.value);\r\n    }\r\n}",
  "sourcePath": "C:\\Users\\elads\\Documents\\\\ \\ \\\\\\Final Project\\contracts\\Token.sol",
  "compiler": {
    "name": "solc",
    "version": "0.8.10+commit.fc410830.Emscripten.clang"
  },
  "schemaVersion": "3.4.4",
  "updatedAt": "2022-02-22T00:47:24.676Z",
  "networkType": "ethereum",
  "devdoc": {
    "kind": "dev",
    "methods": {
      "allowance(address,address)": {
        "details": "See {IERC20-allowance}."
      },
      "approve(address,uint256)": {
        "details": "See {IERC20-approve}. NOTE: If `amount` is the maximum `uint256`, the allowance is not updated on `transferFrom`. This is semantically equivalent to an infinite approval. Requirements: - `spender` cannot be the zero address."
      },
      "balanceOf(address)": {
        "details": "See {IERC20-balanceOf}."
      },
      "decimals()": {
        "details": "Returns the number of decimals used to get its user representation. For example, if `decimals` equals `2`, a balance of `505` tokens should be displayed to a user as `5.05` (`505 / 10 ** 2`). Tokens usually opt for a value of 18, imitating the relationship between Ether and Wei. This is the value {ERC20} uses, unless this function is overridden; NOTE: This information is only used for _display_ purposes: it in no way affects any of the arithmetic of the contract, including {IERC20-balanceOf} and {IERC20-transfer}."
      },
      "decreaseAllowance(address,uint256)": {
        "details": "Atomically decreases the allowance granted to `spender` by the caller. This is an alternative to {approve} that can be used as a mitigation for problems described in {IERC20-approve}. Emits an {Approval} event indicating the updated allowance. Requirements: - `spender` cannot be the zero address. - `spender` must have allowance for the caller of at least `subtractedValue`."
      },
      "increaseAllowance(address,uint256)": {
        "details": "Atomically increases the allowance granted to `spender` by the caller. This is an alternative to {approve} that can be used as a mitigation for problems described in {IERC20-approve}. Emits an {Approval} event indicating the updated allowance. Requirements: - `spender` cannot be the zero address."
      },
      "name()": {
        "details": "Returns the name of the token."
      },
      "symbol()": {
        "details": "Returns the symbol of the token, usually a shorter version of the name."
      },
      "totalSupply()": {
        "details": "See {IERC20-totalSupply}."
      },
      "transfer(address,uint256)": {
        "details": "See {IERC20-transfer}. Requirements: - `to` cannot be the zero address. - the caller must have a balance of at least `amount`."
      },
      "transferFrom(address,address,uint256)": {
        "details": "See {IERC20-transferFrom}. Emits an {Approval} event indicating the updated allowance. This is not required by the EIP. See the note at the beginning of {ERC20}. NOTE: Does not update the allowance if the current allowance is the maximum `uint256`. Requirements: - `from` and `to` cannot be the zero address. - `from` must have a balance of at least `amount`. - the caller must have allowance for ``from``'s tokens of at least `amount`."
      }
    },
    "version": 1
  },
  "userdoc": {
    "kind": "user",
    "methods": {},
    "version": 1
  }
}