{
  "contractName": "TokenSale",
  "abi": [
    {
      "inputs": [
        {
          "internalType": "contract Token",
          "name": "_token",
          "type": "address"
        },
        {
          "internalType": "uint256",
          "name": "_tokenPrice",
          "type": "uint256"
        }
      ],
      "payable": false,
      "stateMutability": "nonpayable",
      "type": "constructor"
    },
    {
      "anonymous": false,
      "inputs": [
        {
          "indexed": false,
          "internalType": "address",
          "name": "_buyer",
          "type": "address"
        },
        {
          "indexed": false,
          "internalType": "uint256",
          "name": "_amount",
          "type": "uint256"
        }
      ],
      "name": "Sell",
      "type": "event"
    },
    {
      "constant": true,
      "inputs": [],
      "name": "token",
      "outputs": [
        {
          "internalType": "contract Token",
          "name": "",
          "type": "address"
        }
      ],
      "payable": false,
      "stateMutability": "view",
      "type": "function"
    },
    {
      "constant": true,
      "inputs": [],
      "name": "tokenPrice",
      "outputs": [
        {
          "internalType": "uint256",
          "name": "",
          "type": "uint256"
        }
      ],
      "payable": false,
      "stateMutability": "view",
      "type": "function"
    },
    {
      "constant": false,
      "inputs": [
        {
          "internalType": "uint256",
          "name": "_numberOfTokes",
          "type": "uint256"
        }
      ],
      "name": "buyTokens",
      "outputs": [],
      "payable": true,
      "stateMutability": "payable",
      "type": "function"
    }
  ],
  "bytecode": "0x608060405234801561001057600080fd5b5060405161029f38038061029f8339818101604052604081101561003357600080fd5b810190808051906020019092919080519060200190929190505050336000806101000a81548173ffffffffffffffffffffffffffffffffffffffff021916908373ffffffffffffffffffffffffffffffffffffffff16021790555081600160006101000a81548173ffffffffffffffffffffffffffffffffffffffff021916908373ffffffffffffffffffffffffffffffffffffffff1602179055508060028190555050506101b8806100e76000396000f3fe6080604052600436106100345760003560e01c80633610724e146100395780637ff9b59614610067578063fc0c546a14610092575b600080fd5b6100656004803603602081101561004f57600080fd5b81019080803590602001909291905050506100e9565b005b34801561007357600080fd5b5061007c610157565b6040518082815260200191505060405180910390f35b34801561009e57600080fd5b506100a761015d565b604051808273ffffffffffffffffffffffffffffffffffffffff1673ffffffffffffffffffffffffffffffffffffffff16815260200191505060405180910390f35b7f5e5e995ce3133561afceaa51a9a154d5db228cd7525d34df5185582c18d3df093382604051808373ffffffffffffffffffffffffffffffffffffffff1673ffffffffffffffffffffffffffffffffffffffff1681526020018281526020019250505060405180910390a150565b60025481565b600160009054906101000a900473ffffffffffffffffffffffffffffffffffffffff168156fea265627a7a7231582074e1e88f62e167dbd7d6eed4ce6339bde014eb508424f3cf695280bbda7b006f64736f6c63430005100032",
  "source": "pragma solidity ^0.5.0;\r\n\r\nimport \"./Token.sol\";\r\n\r\ncontract TokenSale {\r\n    address payable owner;\r\n    Token public token;\r\n    uint256 public tokenPrice;\r\n\r\n    event Sell(address _buyer, uint256 _amount);\r\n\r\n    constructor(Token _token, uint256 _tokenPrice) public {\r\n        owner = msg.sender;\r\n        token = _token;\r\n        tokenPrice = _tokenPrice;\r\n    }\r\n\r\n    function multiply(uint x, uint y) internal pure returns (uint z) {\r\n        require(y == 0 || (z = x * y) / y == x);\r\n    }\r\n\r\n    function buyTokens(uint256 _numberOfTokes) public payable {\r\n        //require(msg.value == multiply(_numberOfTokes, tokenPrice));\r\n        //require(token.balanceOf(address(this)) >= _numberOfTokes);\r\n        //require(token.transfer(msg.sender, _numberOfTokes));\r\n\r\n        emit Sell(msg.sender, _numberOfTokes);\r\n    }\r\n\r\n    /*function endSale() public {\r\n        require(msg.sender == owner);\r\n        require(token.transfer(owner, token.balanceOf(address(this))));\r\n\r\n       owner.transfer(address(this).balance);\r\n    }*/\r\n}",
  "sourcePath": "C:\\Users\\elads\\Documents\\תואר\\שנה ג\\סמסטר א\\בלוקציין\\תרגילים\\Final Project\\contracts\\TokenSale.sol",
  "compiler": {
    "name": "solc",
    "version": "0.5.16+commit.9c3226ce.Emscripten.clang"
  },
  "schemaVersion": "3.4.4",
  "updatedAt": "2022-02-10T18:34:25.985Z",
  "devdoc": {
    "methods": {}
  },
  "userdoc": {
    "methods": {}
  }
}