{
  "contractName": "Token",
  "abi": [
    {
      "inputs": [
        {
          "internalType": "string",
          "name": "_name",
          "type": "string"
        },
        {
          "internalType": "string",
          "name": "_symbol",
          "type": "string"
        },
        {
          "internalType": "uint256",
          "name": "_decimals",
          "type": "uint256"
        },
        {
          "internalType": "uint256",
          "name": "_unitsOneEthCanBuy",
          "type": "uint256"
        },
        {
          "internalType": "uint256",
          "name": "_totalSupply",
          "type": "uint256"
        }
      ],
      "payable": false,
      "stateMutability": "nonpayable",
      "type": "constructor"
    },
    {
      "anonymous": false,
      "inputs": [
        {
          "indexed": true,
          "internalType": "address",
          "name": "_owner",
          "type": "address"
        },
        {
          "indexed": true,
          "internalType": "address",
          "name": "_spender",
          "type": "address"
        },
        {
          "indexed": false,
          "internalType": "uint256",
          "name": "_value",
          "type": "uint256"
        }
      ],
      "name": "Approval",
      "type": "event"
    },
    {
      "anonymous": false,
      "inputs": [
        {
          "indexed": true,
          "internalType": "address",
          "name": "_from",
          "type": "address"
        },
        {
          "indexed": true,
          "internalType": "address",
          "name": "_to",
          "type": "address"
        },
        {
          "indexed": false,
          "internalType": "uint256",
          "name": "_value",
          "type": "uint256"
        }
      ],
      "name": "Transfer",
      "type": "event"
    },
    {
      "constant": true,
      "inputs": [
        {
          "internalType": "address",
          "name": "",
          "type": "address"
        },
        {
          "internalType": "address",
          "name": "",
          "type": "address"
        }
      ],
      "name": "allowance",
      "outputs": [
        {
          "internalType": "uint256",
          "name": "",
          "type": "uint256"
        }
      ],
      "payable": false,
      "stateMutability": "view",
      "type": "function"
    },
    {
      "constant": true,
      "inputs": [
        {
          "internalType": "address",
          "name": "",
          "type": "address"
        }
      ],
      "name": "balances",
      "outputs": [
        {
          "internalType": "uint256",
          "name": "",
          "type": "uint256"
        }
      ],
      "payable": false,
      "stateMutability": "view",
      "type": "function"
    },
    {
      "constant": true,
      "inputs": [],
      "name": "decimals",
      "outputs": [
        {
          "internalType": "uint256",
          "name": "",
          "type": "uint256"
        }
      ],
      "payable": false,
      "stateMutability": "view",
      "type": "function"
    },
    {
      "constant": true,
      "inputs": [],
      "name": "fundsWallet",
      "outputs": [
        {
          "internalType": "address payable",
          "name": "",
          "type": "address"
        }
      ],
      "payable": false,
      "stateMutability": "view",
      "type": "function"
    },
    {
      "constant": true,
      "inputs": [],
      "name": "name",
      "outputs": [
        {
          "internalType": "string",
          "name": "",
          "type": "string"
        }
      ],
      "payable": false,
      "stateMutability": "view",
      "type": "function"
    },
    {
      "constant": true,
      "inputs": [],
      "name": "symbol",
      "outputs": [
        {
          "internalType": "string",
          "name": "",
          "type": "string"
        }
      ],
      "payable": false,
      "stateMutability": "view",
      "type": "function"
    },
    {
      "constant": true,
      "inputs": [],
      "name": "totalSupply",
      "outputs": [
        {
          "internalType": "uint256",
          "name": "",
          "type": "uint256"
        }
      ],
      "payable": false,
      "stateMutability": "view",
      "type": "function"
    },
    {
      "constant": true,
      "inputs": [],
      "name": "unitsOneEthCanBuy",
      "outputs": [
        {
          "internalType": "uint256",
          "name": "",
          "type": "uint256"
        }
      ],
      "payable": false,
      "stateMutability": "view",
      "type": "function"
    },
    {
      "constant": true,
      "inputs": [
        {
          "internalType": "address",
          "name": "_owner",
          "type": "address"
        }
      ],
      "name": "balanceOf",
      "outputs": [
        {
          "internalType": "uint256",
          "name": "balance",
          "type": "uint256"
        }
      ],
      "payable": false,
      "stateMutability": "view",
      "type": "function"
    },
    {
      "constant": false,
      "inputs": [],
      "name": "buyTokens",
      "outputs": [],
      "payable": true,
      "stateMutability": "payable",
      "type": "function"
    },
    {
      "constant": false,
      "inputs": [
        {
          "internalType": "address",
          "name": "_to",
          "type": "address"
        },
        {
          "internalType": "uint256",
          "name": "_value",
          "type": "uint256"
        }
      ],
      "name": "transfer",
      "outputs": [
        {
          "internalType": "bool",
          "name": "success",
          "type": "bool"
        }
      ],
      "payable": false,
      "stateMutability": "nonpayable",
      "type": "function"
    },
    {
      "constant": false,
      "inputs": [
        {
          "internalType": "address",
          "name": "_spender",
          "type": "address"
        },
        {
          "internalType": "uint256",
          "name": "_value",
          "type": "uint256"
        }
      ],
      "name": "approve",
      "outputs": [
        {
          "internalType": "bool",
          "name": "success",
          "type": "bool"
        }
      ],
      "payable": false,
      "stateMutability": "nonpayable",
      "type": "function"
    },
    {
      "constant": false,
      "inputs": [
        {
          "internalType": "address",
          "name": "_from",
          "type": "address"
        },
        {
          "internalType": "address",
          "name": "_to",
          "type": "address"
        },
        {
          "internalType": "uint256",
          "name": "_value",
          "type": "uint256"
        }
      ],
      "name": "transferFrom",
      "outputs": [
        {
          "internalType": "bool",
          "name": "success",
          "type": "bool"
        }
      ],
      "payable": false,
      "stateMutability": "nonpayable",
      "type": "function"
    }
  ],
  "bytecode": "0x60806040523480156200001157600080fd5b506040516200147238038062001472833981810160405260a08110156200003757600080fd5b81019080805160405193929190846401000000008211156200005857600080fd5b838201915060208201858111156200006f57600080fd5b82518660018202830111640100000000821117156200008d57600080fd5b8083526020830192505050908051906020019080838360005b83811015620000c3578082015181840152602081019050620000a6565b50505050905090810190601f168015620000f15780820380516001836020036101000a031916815260200191505b50604052602001805160405193929190846401000000008211156200011557600080fd5b838201915060208201858111156200012c57600080fd5b82518660018202830111640100000000821117156200014a57600080fd5b8083526020830192505050908051906020019080838360005b838110156200018057808201518184015260208101905062000163565b50505050905090810190601f168015620001ae5780820380516001836020036101000a031916815260200191505b506040526020018051906020019092919080519060200190929190805190602001909291905050508460009080519060200190620001ee92919062000362565b5083600190805190602001906200020792919062000362565b5082600281905550600254600a0a81026003819055508160048190555033600560006101000a81548173ffffffffffffffffffffffffffffffffffffffff021916908373ffffffffffffffffffffffffffffffffffffffff16021790555060035460066000600560009054906101000a900473ffffffffffffffffffffffffffffffffffffffff1673ffffffffffffffffffffffffffffffffffffffff1673ffffffffffffffffffffffffffffffffffffffff16815260200190815260200160002081905550600560009054906101000a900473ffffffffffffffffffffffffffffffffffffffff1673ffffffffffffffffffffffffffffffffffffffff16600073ffffffffffffffffffffffffffffffffffffffff167fddf252ad1be2c89b69c2b068fc378daa952ba7f163c4a11628f55a4df523b3ef6003546040518082815260200191505060405180910390a3505050505062000411565b828054600181600116156101000203166002900490600052602060002090601f016020900481019282601f10620003a557805160ff1916838001178555620003d6565b82800160010185558215620003d6579182015b82811115620003d5578251825591602001919060010190620003b8565b5b509050620003e59190620003e9565b5090565b6200040e91905b808211156200040a576000816000905550600101620003f0565b5090565b90565b61105180620004216000396000f3fe6080604052600436106100c25760003560e01c8063313ce5671161007f57806395d89b411161005957806395d89b41146103ff578063a9059cbb1461048f578063d0febe4c14610502578063dd62ed3e1461050c576100c2565b8063313ce5671461034457806365f2bc2e1461036f57806370a082311461039a576100c2565b806306fdde03146100c7578063095ea7b31461015757806318160ddd146101ca5780632194f3a2146101f557806323b872dd1461024c57806327e235e3146102df575b600080fd5b3480156100d357600080fd5b506100dc610591565b6040518080602001828103825283818151815260200191508051906020019080838360005b8381101561011c578082015181840152602081019050610101565b50505050905090810190601f1680156101495780820380516001836020036101000a031916815260200191505b509250505060405180910390f35b34801561016357600080fd5b506101b06004803603604081101561017a57600080fd5b81019080803573ffffffffffffffffffffffffffffffffffffffff1690602001909291908035906020019092919050505061062f565b604051808215151515815260200191505060405180910390f35b3480156101d657600080fd5b506101df61075a565b6040518082815260200191505060405180910390f35b34801561020157600080fd5b5061020a610760565b604051808273ffffffffffffffffffffffffffffffffffffffff1673ffffffffffffffffffffffffffffffffffffffff16815260200191505060405180910390f35b34801561025857600080fd5b506102c56004803603606081101561026f57600080fd5b81019080803573ffffffffffffffffffffffffffffffffffffffff169060200190929190803573ffffffffffffffffffffffffffffffffffffffff16906020019092919080359060200190929190505050610786565b604051808215151515815260200191505060405180910390f35b3480156102eb57600080fd5b5061032e6004803603602081101561030257600080fd5b81019080803573ffffffffffffffffffffffffffffffffffffffff1690602001909291905050506109cf565b6040518082815260200191505060405180910390f35b34801561035057600080fd5b506103596109e7565b6040518082815260200191505060405180910390f35b34801561037b57600080fd5b506103846109ed565b6040518082815260200191505060405180910390f35b3480156103a657600080fd5b506103e9600480360360208110156103bd57600080fd5b81019080803573ffffffffffffffffffffffffffffffffffffffff1690602001909291905050506109f3565b6040518082815260200191505060405180910390f35b34801561040b57600080fd5b50610414610a3c565b6040518080602001828103825283818151815260200191508051906020019080838360005b83811015610454578082015181840152602081019050610439565b50505050905090810190601f1680156104815780820380516001836020036101000a031916815260200191505b509250505060405180910390f35b34801561049b57600080fd5b506104e8600480360360408110156104b257600080fd5b81019080803573ffffffffffffffffffffffffffffffffffffffff16906020019092919080359060200190929190505050610ada565b604051808215151515815260200191505060405180910390f35b61050a610ba6565b005b34801561051857600080fd5b5061057b6004803603604081101561052f57600080fd5b81019080803573ffffffffffffffffffffffffffffffffffffffff169060200190929190803573ffffffffffffffffffffffffffffffffffffffff169060200190929190505050610eb9565b6040518082815260200191505060405180910390f35b60008054600181600116156101000203166002900480601f0160208091040260200160405190810160405280929190818152602001828054600181600116156101000203166002900480156106275780601f106105fc57610100808354040283529160200191610627565b820191906000526020600020905b81548152906001019060200180831161060a57829003601f168201915b505050505081565b60008073ffffffffffffffffffffffffffffffffffffffff168373ffffffffffffffffffffffffffffffffffffffff16141561066a57600080fd5b81600760003373ffffffffffffffffffffffffffffffffffffffff1673ffffffffffffffffffffffffffffffffffffffff16815260200190815260200160002060008573ffffffffffffffffffffffffffffffffffffffff1673ffffffffffffffffffffffffffffffffffffffff168152602001908152602001600020819055508273ffffffffffffffffffffffffffffffffffffffff163373ffffffffffffffffffffffffffffffffffffffff167f8c5be1e5ebec7d5bd14f71427d1e84f3dd0314c0f7b2291e5b200ac8c7c3b925846040518082815260200191505060405180910390a36001905092915050565b60035481565b600560009054906101000a900473ffffffffffffffffffffffffffffffffffffffff1681565b600081600760008673ffffffffffffffffffffffffffffffffffffffff1673ffffffffffffffffffffffffffffffffffffffff16815260200190815260200160002060003373ffffffffffffffffffffffffffffffffffffffff1673ffffffffffffffffffffffffffffffffffffffff16815260200190815260200160002054101561087a576040517f08c379a00000000000000000000000000000000000000000000000000000000081526004018080602001828103825260158152602001807f4e6f7420617070726f76656420746f207370656e64000000000000000000000081525060200191505060405180910390fd5b81600660008673ffffffffffffffffffffffffffffffffffffffff1673ffffffffffffffffffffffffffffffffffffffff16815260200190815260200160002054101561092f576040517f08c379a000000000000000000000000000000000000000000000000000000000815260040180806020018281038252601d8152602001807f4e6f7420656e6f75676820746f6b656e7320746f207472616e7366657200000081525060200191505060405180910390fd5b81600760008673ffffffffffffffffffffffffffffffffffffffff1673ffffffffffffffffffffffffffffffffffffffff16815260200190815260200160002060003373ffffffffffffffffffffffffffffffffffffffff1673ffffffffffffffffffffffffffffffffffffffff168152602001908152602001600020600082825403925050819055506109c4848484610ede565b600190509392505050565b60066020528060005260406000206000915090505481565b60025481565b60045481565b6000600660008373ffffffffffffffffffffffffffffffffffffffff1673ffffffffffffffffffffffffffffffffffffffff168152602001908152602001600020549050919050565b60018054600181600116156101000203166002900480601f016020809104026020016040519081016040528092919081815260200182805460018160011615610100020316600290048015610ad25780601f10610aa757610100808354040283529160200191610ad2565b820191906000526020600020905b815481529060010190602001808311610ab557829003601f168201915b505050505081565b600081600660003373ffffffffffffffffffffffffffffffffffffffff1673ffffffffffffffffffffffffffffffffffffffff168152602001908152602001600020541015610b91576040517f08c379a000000000000000000000000000000000000000000000000000000000815260040180806020018281038252601d8152602001807f4e6f7420656e6f75676820746f6b656e7320746f207472616e7366657200000081525060200191505060405180910390fd5b610b9c338484610ede565b6001905092915050565b600560009054906101000a900473ffffffffffffffffffffffffffffffffffffffff1673ffffffffffffffffffffffffffffffffffffffff163373ffffffffffffffffffffffffffffffffffffffff161415610c0157600080fd5b6000600454340290508060066000600560009054906101000a900473ffffffffffffffffffffffffffffffffffffffff1673ffffffffffffffffffffffffffffffffffffffff1673ffffffffffffffffffffffffffffffffffffffff168152602001908152602001600020541015610c7857600080fd5b8060066000600560009054906101000a900473ffffffffffffffffffffffffffffffffffffffff1673ffffffffffffffffffffffffffffffffffffffff1673ffffffffffffffffffffffffffffffffffffffff168152602001908152602001600020540360066000600560009054906101000a900473ffffffffffffffffffffffffffffffffffffffff1673ffffffffffffffffffffffffffffffffffffffff1673ffffffffffffffffffffffffffffffffffffffff1681526020019081526020016000208190555080600660003373ffffffffffffffffffffffffffffffffffffffff1673ffffffffffffffffffffffffffffffffffffffff1681526020019081526020016000205401600660003373ffffffffffffffffffffffffffffffffffffffff1673ffffffffffffffffffffffffffffffffffffffff168152602001908152602001600020819055503373ffffffffffffffffffffffffffffffffffffffff16600560009054906101000a900473ffffffffffffffffffffffffffffffffffffffff1673ffffffffffffffffffffffffffffffffffffffff167fddf252ad1be2c89b69c2b068fc378daa952ba7f163c4a11628f55a4df523b3ef836040518082815260200191505060405180910390a3600560009054906101000a900473ffffffffffffffffffffffffffffffffffffffff1673ffffffffffffffffffffffffffffffffffffffff166108fc349081150290604051600060405180830381858888f19350505050158015610eb5573d6000803e3d6000fd5b5050565b6007602052816000526040600020602052806000526040600020600091509150505481565b600073ffffffffffffffffffffffffffffffffffffffff168273ffffffffffffffffffffffffffffffffffffffff161415610f1857600080fd5b80600660008573ffffffffffffffffffffffffffffffffffffffff1673ffffffffffffffffffffffffffffffffffffffff1681526020019081526020016000206000828254039250508190555080600660008473ffffffffffffffffffffffffffffffffffffffff1673ffffffffffffffffffffffffffffffffffffffff168152602001908152602001600020600082825401925050819055508173ffffffffffffffffffffffffffffffffffffffff168373ffffffffffffffffffffffffffffffffffffffff167fddf252ad1be2c89b69c2b068fc378daa952ba7f163c4a11628f55a4df523b3ef836040518082815260200191505060405180910390a350505056fea265627a7a72315820bf9065ae6ef2d561ab48063c12fda036a938e2cbf55d0ed897d06a250f4f1f6f64736f6c63430005100032",
  "source": "pragma solidity ^0.5.0;\r\n\r\ncontract Token {\r\n    string public name;\r\n    string public symbol;\r\n    uint256 public decimals;\r\n    uint256 public totalSupply;\r\n    uint256 public unitsOneEthCanBuy;\r\n    address payable public fundsWallet;\r\n\r\n    event Transfer(address indexed _from, address indexed _to, uint256 _value);\r\n    event Approval(address indexed _owner, address indexed _spender, uint256 _value);\r\n\r\n    mapping(address => uint256) public balances;\r\n    mapping(address => mapping (address => uint256)) public allowance;\r\n\r\n    constructor(string memory _name, string memory _symbol, uint256 _decimals, uint256 _unitsOneEthCanBuy, uint256 _totalSupply) public {\r\n        name = _name;\r\n        symbol = _symbol;\r\n        decimals = _decimals;\r\n        totalSupply = _totalSupply * (10 ** decimals);\r\n        unitsOneEthCanBuy = _unitsOneEthCanBuy;\r\n        fundsWallet = msg.sender;\r\n        balances[fundsWallet] = totalSupply;\r\n\r\n        emit Transfer(address(0), fundsWallet, totalSupply);\r\n    }\r\n\r\n    function balanceOf(address _owner) public view returns (uint256 balance) {\r\n        return balances[_owner];\r\n    }\r\n\r\n    function buyTokens() public payable {\r\n        require(msg.sender != fundsWallet);\r\n        uint256 amount = msg.value * unitsOneEthCanBuy;\r\n        require(balances[fundsWallet] >= amount);\r\n\r\n        balances[fundsWallet] = balances[fundsWallet] - amount;\r\n        balances[msg.sender] = balances[msg.sender] + amount;\r\n\r\n        emit Transfer(fundsWallet, msg.sender, amount);\r\n\r\n        fundsWallet.transfer(msg.value);                               \r\n    }\r\n\r\n    function transfer(address _to, uint256 _value) public returns (bool success) {\r\n        require(balances[msg.sender] >= _value, \"Not enough tokens to transfer\");\r\n        \r\n        _transfer(msg.sender, _to, _value);\r\n\r\n        return true;\r\n    }\r\n\r\n    function _transfer(address _from, address _to, uint256 _value) internal {\r\n        require(_to != address(0));\r\n\r\n        balances[_from] -= _value;\r\n        balances[_to] += _value;\r\n\r\n        emit Transfer(_from, _to, _value);\r\n    }\r\n\r\n    function approve(address _spender, uint256 _value) public returns (bool success) {\r\n        require(_spender != address(0));\r\n\r\n        allowance[msg.sender][_spender] = _value;\r\n        \r\n        emit Approval(msg.sender, _spender, _value);\r\n        return true;\r\n    }\r\n\r\n    function transferFrom(address _from, address _to, uint256 _value) public returns (bool success) {\r\n        require(allowance[_from][msg.sender] >= _value, \"Not approved to spend\");\r\n        require(balances[_from] >= _value, \"Not enough tokens to transfer\");\r\n        \r\n        allowance[_from][msg.sender] -= _value;\r\n        _transfer(_from, _to, _value);\r\n\r\n        return true;\r\n    }\r\n}",
  "sourcePath": "C:\\Users\\elads\\Documents\\תואר\\שנה ג\\סמסטר א\\בלוקציין\\תרגילים\\Final Project\\contracts\\Token.sol",
  "compiler": {
    "name": "solc",
    "version": "0.5.16+commit.9c3226ce.Emscripten.clang"
  },
  "schemaVersion": "3.4.4",
  "updatedAt": "2022-02-12T23:22:06.521Z",
  "networkType": "ethereum",
  "devdoc": {
    "methods": {}
  },
  "userdoc": {
    "methods": {}
  }
}