{
  "contractName": "Token",
  "abi": [
    {
      "inputs": [
        {
          "internalType": "string",
          "name": "name",
          "type": "string"
        },
        {
          "internalType": "string",
          "name": "symbol",
          "type": "string"
        }
      ],
      "stateMutability": "nonpayable",
      "type": "constructor"
    },
    {
      "anonymous": false,
      "inputs": [
        {
          "indexed": true,
          "internalType": "address",
          "name": "owner",
          "type": "address"
        },
        {
          "indexed": true,
          "internalType": "address",
          "name": "spender",
          "type": "address"
        },
        {
          "indexed": false,
          "internalType": "uint256",
          "name": "value",
          "type": "uint256"
        }
      ],
      "name": "Approval",
      "type": "event"
    },
    {
      "anonymous": false,
      "inputs": [
        {
          "indexed": true,
          "internalType": "address",
          "name": "from",
          "type": "address"
        },
        {
          "indexed": true,
          "internalType": "address",
          "name": "to",
          "type": "address"
        },
        {
          "indexed": false,
          "internalType": "uint256",
          "name": "value",
          "type": "uint256"
        }
      ],
      "name": "Transfer",
      "type": "event"
    },
    {
      "inputs": [
        {
          "internalType": "address",
          "name": "owner",
          "type": "address"
        },
        {
          "internalType": "address",
          "name": "spender",
          "type": "address"
        }
      ],
      "name": "allowance",
      "outputs": [
        {
          "internalType": "uint256",
          "name": "",
          "type": "uint256"
        }
      ],
      "stateMutability": "view",
      "type": "function",
      "constant": true
    },
    {
      "inputs": [
        {
          "internalType": "address",
          "name": "spender",
          "type": "address"
        },
        {
          "internalType": "uint256",
          "name": "amount",
          "type": "uint256"
        }
      ],
      "name": "approve",
      "outputs": [
        {
          "internalType": "bool",
          "name": "",
          "type": "bool"
        }
      ],
      "stateMutability": "nonpayable",
      "type": "function"
    },
    {
      "inputs": [
        {
          "internalType": "address",
          "name": "account",
          "type": "address"
        }
      ],
      "name": "balanceOf",
      "outputs": [
        {
          "internalType": "uint256",
          "name": "",
          "type": "uint256"
        }
      ],
      "stateMutability": "view",
      "type": "function",
      "constant": true
    },
    {
      "inputs": [],
      "name": "decimals",
      "outputs": [
        {
          "internalType": "uint8",
          "name": "",
          "type": "uint8"
        }
      ],
      "stateMutability": "view",
      "type": "function",
      "constant": true
    },
    {
      "inputs": [
        {
          "internalType": "address",
          "name": "spender",
          "type": "address"
        },
        {
          "internalType": "uint256",
          "name": "subtractedValue",
          "type": "uint256"
        }
      ],
      "name": "decreaseAllowance",
      "outputs": [
        {
          "internalType": "bool",
          "name": "",
          "type": "bool"
        }
      ],
      "stateMutability": "nonpayable",
      "type": "function"
    },
    {
      "inputs": [
        {
          "internalType": "address",
          "name": "spender",
          "type": "address"
        },
        {
          "internalType": "uint256",
          "name": "addedValue",
          "type": "uint256"
        }
      ],
      "name": "increaseAllowance",
      "outputs": [
        {
          "internalType": "bool",
          "name": "",
          "type": "bool"
        }
      ],
      "stateMutability": "nonpayable",
      "type": "function"
    },
    {
      "inputs": [],
      "name": "name",
      "outputs": [
        {
          "internalType": "string",
          "name": "",
          "type": "string"
        }
      ],
      "stateMutability": "view",
      "type": "function",
      "constant": true
    },
    {
      "inputs": [],
      "name": "symbol",
      "outputs": [
        {
          "internalType": "string",
          "name": "",
          "type": "string"
        }
      ],
      "stateMutability": "view",
      "type": "function",
      "constant": true
    },
    {
      "inputs": [],
      "name": "totalSupply",
      "outputs": [
        {
          "internalType": "uint256",
          "name": "",
          "type": "uint256"
        }
      ],
      "stateMutability": "view",
      "type": "function",
      "constant": true
    },
    {
      "inputs": [
        {
          "internalType": "address",
          "name": "to",
          "type": "address"
        },
        {
          "internalType": "uint256",
          "name": "amount",
          "type": "uint256"
        }
      ],
      "name": "transfer",
      "outputs": [
        {
          "internalType": "bool",
          "name": "",
          "type": "bool"
        }
      ],
      "stateMutability": "nonpayable",
      "type": "function"
    },
    {
      "inputs": [
        {
          "internalType": "address",
          "name": "from",
          "type": "address"
        },
        {
          "internalType": "address",
          "name": "to",
          "type": "address"
        },
        {
          "internalType": "uint256",
          "name": "amount",
          "type": "uint256"
        }
      ],
      "name": "transferFrom",
      "outputs": [
        {
          "internalType": "bool",
          "name": "",
          "type": "bool"
        }
      ],
      "stateMutability": "nonpayable",
      "type": "function"
    },
    {
      "inputs": [],
      "name": "buyTokens",
      "outputs": [],
      "stateMutability": "payable",
      "type": "function",
      "payable": true
    }
  ],
  "bytecode": "0x60806040523480156200001157600080fd5b5060405162000f7138038062000f7183398101604081905262000034916200030b565b8151829082906200004d906003906020850190620001b2565b50805162000063906004906020840190620001b2565b506200006f9150503390565b600580546001600160a01b0319166001600160a01b0392909216919091179055600a600655620000c2620000a03390565b620000ae6012600a620003d6565b620000bc90612710620004a1565b620000ca565b50506200052c565b6001600160a01b038216620001255760405162461bcd60e51b815260206004820152601f60248201527f45524332303a206d696e7420746f20746865207a65726f206164647265737300604482015260640160405180910390fd5b806002600082825462000139919062000372565b90915550506001600160a01b038216600090815260208190526040812080548392906200016890849062000372565b90915550506040518181526001600160a01b038316906000907fddf252ad1be2c89b69c2b068fc378daa952ba7f163c4a11628f55a4df523b3ef9060200160405180910390a35050565b828054620001c090620004c3565b90600052602060002090601f016020900481019282620001e457600085556200022f565b82601f10620001ff57805160ff19168380011785556200022f565b828001600101855582156200022f579182015b828111156200022f57825182559160200191906001019062000212565b506200023d92915062000241565b5090565b5b808211156200023d576000815560010162000242565b600082601f83011262000269578081fd5b81516001600160401b038082111562000286576200028662000516565b604051601f8301601f19908116603f01168101908282118183101715620002b157620002b162000516565b81604052838152602092508683858801011115620002cd578485fd5b8491505b83821015620002f05785820183015181830184015290820190620002d1565b838211156200030157848385830101525b9695505050505050565b600080604083850312156200031e578182fd5b82516001600160401b038082111562000335578384fd5b620003438683870162000258565b9350602085015191508082111562000359578283fd5b50620003688582860162000258565b9150509250929050565b6000821982111562000388576200038862000500565b500190565b600181815b80851115620003ce578160001904821115620003b257620003b262000500565b80851615620003c057918102915b93841c939080029062000392565b509250929050565b6000620003e48383620003eb565b9392505050565b600082620003fc575060016200049b565b816200040b575060006200049b565b81600181146200042457600281146200042f576200044f565b60019150506200049b565b60ff84111562000443576200044362000500565b50506001821b6200049b565b5060208310610133831016604e8410600b841016171562000474575081810a6200049b565b6200048083836200038d565b806000190482111562000497576200049762000500565b0290505b92915050565b6000816000190483118215151615620004be57620004be62000500565b500290565b600181811c90821680620004d857607f821691505b60208210811415620004fa57634e487b7160e01b600052602260045260246000fd5b50919050565b634e487b7160e01b600052601160045260246000fd5b634e487b7160e01b600052604160045260246000fd5b610a35806200053c6000396000f3fe6080604052600436106100a75760003560e01c806370a082311161006457806370a082311461018257806395d89b41146101b8578063a457c2d7146101cd578063a9059cbb146101ed578063d0febe4c1461020d578063dd62ed3e1461021757600080fd5b806306fdde03146100ac578063095ea7b3146100d757806318160ddd1461010757806323b872dd14610126578063313ce567146101465780633950935114610162575b600080fd5b3480156100b857600080fd5b506100c161025d565b6040516100ce9190610924565b60405180910390f35b3480156100e357600080fd5b506100f76100f23660046108fb565b6102ef565b60405190151581526020016100ce565b34801561011357600080fd5b506002545b6040519081526020016100ce565b34801561013257600080fd5b506100f76101413660046108c0565b610307565b34801561015257600080fd5b50604051601281526020016100ce565b34801561016e57600080fd5b506100f761017d3660046108fb565b61032b565b34801561018e57600080fd5b5061011861019d36600461086d565b6001600160a01b031660009081526020819052604090205490565b3480156101c457600080fd5b506100c161036a565b3480156101d957600080fd5b506100f76101e83660046108fb565b610379565b3480156101f957600080fd5b506100f76102083660046108fb565b610410565b61021561041e565b005b34801561022357600080fd5b5061011861023236600461088e565b6001600160a01b03918216600090815260016020908152604080832093909416825291909152205490565b60606003805461026c906109ae565b80601f0160208091040260200160405190810160405280929190818152602001828054610298906109ae565b80156102e55780601f106102ba576101008083540402835291602001916102e5565b820191906000526020600020905b8154815290600101906020018083116102c857829003601f168201915b5050505050905090565b6000336102fd8185856104cd565b5060019392505050565b6000336103158582856105f1565b610320858585610683565b506001949350505050565b3360008181526001602090815260408083206001600160a01b03871684529091528120549091906102fd9082908690610365908790610977565b6104cd565b60606004805461026c906109ae565b3360008181526001602090815260408083206001600160a01b0387168452909152812054909190838110156104035760405162461bcd60e51b815260206004820152602560248201527f45524332303a2064656372656173656420616c6c6f77616e63652062656c6f77604482015264207a65726f60d81b60648201526084015b60405180910390fd5b61032082868684036104cd565b6000336102fd818585610683565b6005546001600160a01b0316336001600160a01b0316141561043f57600080fd5b60006006543461044f919061098f565b6005546001600160a01b031660009081526020819052604090205490915081111561047957600080fd5b600554610490906001600160a01b03163383610683565b6005546040516001600160a01b03909116903480156108fc02916000818181858888f193505050501580156104c9573d6000803e3d6000fd5b5050565b6001600160a01b03831661052f5760405162461bcd60e51b8152602060048201526024808201527f45524332303a20617070726f76652066726f6d20746865207a65726f206164646044820152637265737360e01b60648201526084016103fa565b6001600160a01b0382166105905760405162461bcd60e51b815260206004820152602260248201527f45524332303a20617070726f766520746f20746865207a65726f206164647265604482015261737360f01b60648201526084016103fa565b6001600160a01b0383811660008181526001602090815260408083209487168084529482529182902085905590518481527f8c5be1e5ebec7d5bd14f71427d1e84f3dd0314c0f7b2291e5b200ac8c7c3b925910160405180910390a3505050565b6001600160a01b03838116600090815260016020908152604080832093861683529290522054600019811461067d57818110156106705760405162461bcd60e51b815260206004820152601d60248201527f45524332303a20696e73756666696369656e7420616c6c6f77616e636500000060448201526064016103fa565b61067d84848484036104cd565b50505050565b6001600160a01b0383166106e75760405162461bcd60e51b815260206004820152602560248201527f45524332303a207472616e736665722066726f6d20746865207a65726f206164604482015264647265737360d81b60648201526084016103fa565b6001600160a01b0382166107495760405162461bcd60e51b815260206004820152602360248201527f45524332303a207472616e7366657220746f20746865207a65726f206164647260448201526265737360e81b60648201526084016103fa565b6001600160a01b038316600090815260208190526040902054818110156107c15760405162461bcd60e51b815260206004820152602660248201527f45524332303a207472616e7366657220616d6f756e7420657863656564732062604482015265616c616e636560d01b60648201526084016103fa565b6001600160a01b038085166000908152602081905260408082208585039055918516815290812080548492906107f8908490610977565b92505081905550826001600160a01b0316846001600160a01b03167fddf252ad1be2c89b69c2b068fc378daa952ba7f163c4a11628f55a4df523b3ef8460405161084491815260200190565b60405180910390a361067d565b80356001600160a01b038116811461086857600080fd5b919050565b60006020828403121561087e578081fd5b61088782610851565b9392505050565b600080604083850312156108a0578081fd5b6108a983610851565b91506108b760208401610851565b90509250929050565b6000806000606084860312156108d4578081fd5b6108dd84610851565b92506108eb60208501610851565b9150604084013590509250925092565b6000806040838503121561090d578182fd5b61091683610851565b946020939093013593505050565b6000602080835283518082850152825b8181101561095057858101830151858201604001528201610934565b818111156109615783604083870101525b50601f01601f1916929092016040019392505050565b6000821982111561098a5761098a6109e9565b500190565b60008160001904831182151516156109a9576109a96109e9565b500290565b600181811c908216806109c257607f821691505b602082108114156109e357634e487b7160e01b600052602260045260246000fd5b50919050565b634e487b7160e01b600052601160045260246000fdfea264697066735822122033bb10ac82feeeea034e32b001e3bfb5321f4e6bc057620809950edd382130ad64736f6c63430008040033",
  "immutableReferences": {},
  "source": "// SPDX-License-Identifier: MIT\r\npragma solidity ^0.8.0;\r\n\r\nimport '@openzeppelin/contracts/token/ERC20/ERC20.sol';\r\n\r\ncontract Token is ERC20 {\r\n    address payable fundsWallet;\r\n    uint256 unitsOneEthCanBuy;\r\n\r\n    constructor(string memory name, string memory symbol) ERC20(name, symbol) {\r\n        fundsWallet = payable(_msgSender());\r\n        unitsOneEthCanBuy = 10;\r\n        _mint(_msgSender(), 10000 * 10**uint(decimals()));\r\n    }\r\n\r\n    function buyTokens() public payable {\r\n        require(_msgSender() != fundsWallet);\r\n        uint256 amount = msg.value * unitsOneEthCanBuy;\r\n        require(balanceOf(fundsWallet) >= amount);\r\n\r\n        _transfer(fundsWallet, _msgSender(), amount);\r\n\r\n        fundsWallet.transfer(msg.value);\r\n    }\r\n}",
  "sourcePath": "C:\\Users\\elads\\Documents\\\\ \\ \\\\\\Final Project\\contracts\\Token.sol",
  "compiler": {
    "name": "solc",
    "version": "0.8.4+commit.c7e474f2.Emscripten.clang"
  },
  "schemaVersion": "3.4.4",
  "updatedAt": "2022-02-15T02:21:38.071Z",
  "networkType": "ethereum",
  "devdoc": {
    "kind": "dev",
    "methods": {
      "allowance(address,address)": {
        "details": "See {IERC20-allowance}."
      },
      "approve(address,uint256)": {
        "details": "See {IERC20-approve}. NOTE: If `amount` is the maximum `uint256`, the allowance is not updated on `transferFrom`. This is semantically equivalent to an infinite approval. Requirements: - `spender` cannot be the zero address."
      },
      "balanceOf(address)": {
        "details": "See {IERC20-balanceOf}."
      },
      "decimals()": {
        "details": "Returns the number of decimals used to get its user representation. For example, if `decimals` equals `2`, a balance of `505` tokens should be displayed to a user as `5.05` (`505 / 10 ** 2`). Tokens usually opt for a value of 18, imitating the relationship between Ether and Wei. This is the value {ERC20} uses, unless this function is overridden; NOTE: This information is only used for _display_ purposes: it in no way affects any of the arithmetic of the contract, including {IERC20-balanceOf} and {IERC20-transfer}."
      },
      "decreaseAllowance(address,uint256)": {
        "details": "Atomically decreases the allowance granted to `spender` by the caller. This is an alternative to {approve} that can be used as a mitigation for problems described in {IERC20-approve}. Emits an {Approval} event indicating the updated allowance. Requirements: - `spender` cannot be the zero address. - `spender` must have allowance for the caller of at least `subtractedValue`."
      },
      "increaseAllowance(address,uint256)": {
        "details": "Atomically increases the allowance granted to `spender` by the caller. This is an alternative to {approve} that can be used as a mitigation for problems described in {IERC20-approve}. Emits an {Approval} event indicating the updated allowance. Requirements: - `spender` cannot be the zero address."
      },
      "name()": {
        "details": "Returns the name of the token."
      },
      "symbol()": {
        "details": "Returns the symbol of the token, usually a shorter version of the name."
      },
      "totalSupply()": {
        "details": "See {IERC20-totalSupply}."
      },
      "transfer(address,uint256)": {
        "details": "See {IERC20-transfer}. Requirements: - `to` cannot be the zero address. - the caller must have a balance of at least `amount`."
      },
      "transferFrom(address,address,uint256)": {
        "details": "See {IERC20-transferFrom}. Emits an {Approval} event indicating the updated allowance. This is not required by the EIP. See the note at the beginning of {ERC20}. NOTE: Does not update the allowance if the current allowance is the maximum `uint256`. Requirements: - `from` and `to` cannot be the zero address. - `from` must have a balance of at least `amount`. - the caller must have allowance for ``from``'s tokens of at least `amount`."
      }
    },
    "version": 1
  },
  "userdoc": {
    "kind": "user",
    "methods": {},
    "version": 1
  }
}