{
  "contractName": "World",
  "abi": [
    {
      "inputs": [
        {
          "internalType": "contract Token",
          "name": "_token",
          "type": "address"
        }
      ],
      "stateMutability": "nonpayable",
      "type": "constructor"
    },
    {
      "anonymous": false,
      "inputs": [
        {
          "indexed": true,
          "internalType": "address",
          "name": "owner",
          "type": "address"
        },
        {
          "indexed": true,
          "internalType": "address",
          "name": "approved",
          "type": "address"
        },
        {
          "indexed": true,
          "internalType": "uint256",
          "name": "tokenId",
          "type": "uint256"
        }
      ],
      "name": "Approval",
      "type": "event"
    },
    {
      "anonymous": false,
      "inputs": [
        {
          "indexed": true,
          "internalType": "address",
          "name": "owner",
          "type": "address"
        },
        {
          "indexed": true,
          "internalType": "address",
          "name": "operator",
          "type": "address"
        },
        {
          "indexed": false,
          "internalType": "bool",
          "name": "approved",
          "type": "bool"
        }
      ],
      "name": "ApprovalForAll",
      "type": "event"
    },
    {
      "anonymous": false,
      "inputs": [
        {
          "indexed": true,
          "internalType": "address",
          "name": "previousOwner",
          "type": "address"
        },
        {
          "indexed": true,
          "internalType": "address",
          "name": "newOwner",
          "type": "address"
        }
      ],
      "name": "OwnershipTransferred",
      "type": "event"
    },
    {
      "anonymous": false,
      "inputs": [
        {
          "indexed": true,
          "internalType": "address",
          "name": "from",
          "type": "address"
        },
        {
          "indexed": true,
          "internalType": "address",
          "name": "to",
          "type": "address"
        },
        {
          "indexed": true,
          "internalType": "uint256",
          "name": "tokenId",
          "type": "uint256"
        }
      ],
      "name": "Transfer",
      "type": "event"
    },
    {
      "inputs": [
        {
          "internalType": "address",
          "name": "to",
          "type": "address"
        },
        {
          "internalType": "uint256",
          "name": "tokenId",
          "type": "uint256"
        }
      ],
      "name": "approve",
      "outputs": [],
      "stateMutability": "nonpayable",
      "type": "function"
    },
    {
      "inputs": [
        {
          "internalType": "address",
          "name": "owner",
          "type": "address"
        }
      ],
      "name": "balanceOf",
      "outputs": [
        {
          "internalType": "uint256",
          "name": "",
          "type": "uint256"
        }
      ],
      "stateMutability": "view",
      "type": "function",
      "constant": true
    },
    {
      "inputs": [
        {
          "internalType": "uint256",
          "name": "tokenId",
          "type": "uint256"
        }
      ],
      "name": "getApproved",
      "outputs": [
        {
          "internalType": "address",
          "name": "",
          "type": "address"
        }
      ],
      "stateMutability": "view",
      "type": "function",
      "constant": true
    },
    {
      "inputs": [
        {
          "internalType": "address",
          "name": "owner",
          "type": "address"
        },
        {
          "internalType": "address",
          "name": "operator",
          "type": "address"
        }
      ],
      "name": "isApprovedForAll",
      "outputs": [
        {
          "internalType": "bool",
          "name": "",
          "type": "bool"
        }
      ],
      "stateMutability": "view",
      "type": "function",
      "constant": true
    },
    {
      "inputs": [],
      "name": "name",
      "outputs": [
        {
          "internalType": "string",
          "name": "",
          "type": "string"
        }
      ],
      "stateMutability": "view",
      "type": "function",
      "constant": true
    },
    {
      "inputs": [],
      "name": "owner",
      "outputs": [
        {
          "internalType": "address",
          "name": "",
          "type": "address"
        }
      ],
      "stateMutability": "view",
      "type": "function",
      "constant": true
    },
    {
      "inputs": [
        {
          "internalType": "uint256",
          "name": "tokenId",
          "type": "uint256"
        }
      ],
      "name": "ownerOf",
      "outputs": [
        {
          "internalType": "address",
          "name": "",
          "type": "address"
        }
      ],
      "stateMutability": "view",
      "type": "function",
      "constant": true
    },
    {
      "inputs": [],
      "name": "renounceOwnership",
      "outputs": [],
      "stateMutability": "nonpayable",
      "type": "function"
    },
    {
      "inputs": [
        {
          "internalType": "address",
          "name": "from",
          "type": "address"
        },
        {
          "internalType": "address",
          "name": "to",
          "type": "address"
        },
        {
          "internalType": "uint256",
          "name": "tokenId",
          "type": "uint256"
        }
      ],
      "name": "safeTransferFrom",
      "outputs": [],
      "stateMutability": "nonpayable",
      "type": "function"
    },
    {
      "inputs": [
        {
          "internalType": "address",
          "name": "from",
          "type": "address"
        },
        {
          "internalType": "address",
          "name": "to",
          "type": "address"
        },
        {
          "internalType": "uint256",
          "name": "tokenId",
          "type": "uint256"
        },
        {
          "internalType": "bytes",
          "name": "_data",
          "type": "bytes"
        }
      ],
      "name": "safeTransferFrom",
      "outputs": [],
      "stateMutability": "nonpayable",
      "type": "function"
    },
    {
      "inputs": [
        {
          "internalType": "address",
          "name": "operator",
          "type": "address"
        },
        {
          "internalType": "bool",
          "name": "approved",
          "type": "bool"
        }
      ],
      "name": "setApprovalForAll",
      "outputs": [],
      "stateMutability": "nonpayable",
      "type": "function"
    },
    {
      "inputs": [
        {
          "internalType": "bytes4",
          "name": "interfaceId",
          "type": "bytes4"
        }
      ],
      "name": "supportsInterface",
      "outputs": [
        {
          "internalType": "bool",
          "name": "",
          "type": "bool"
        }
      ],
      "stateMutability": "view",
      "type": "function",
      "constant": true
    },
    {
      "inputs": [],
      "name": "symbol",
      "outputs": [
        {
          "internalType": "string",
          "name": "",
          "type": "string"
        }
      ],
      "stateMutability": "view",
      "type": "function",
      "constant": true
    },
    {
      "inputs": [
        {
          "internalType": "uint256",
          "name": "tokenId",
          "type": "uint256"
        }
      ],
      "name": "tokenURI",
      "outputs": [
        {
          "internalType": "string",
          "name": "",
          "type": "string"
        }
      ],
      "stateMutability": "view",
      "type": "function",
      "constant": true
    },
    {
      "inputs": [
        {
          "internalType": "address",
          "name": "from",
          "type": "address"
        },
        {
          "internalType": "address",
          "name": "to",
          "type": "address"
        },
        {
          "internalType": "uint256",
          "name": "tokenId",
          "type": "uint256"
        }
      ],
      "name": "transferFrom",
      "outputs": [],
      "stateMutability": "nonpayable",
      "type": "function"
    },
    {
      "inputs": [
        {
          "internalType": "address",
          "name": "newOwner",
          "type": "address"
        }
      ],
      "name": "transferOwnership",
      "outputs": [],
      "stateMutability": "nonpayable",
      "type": "function"
    },
    {
      "inputs": [
        {
          "components": [
            {
              "internalType": "uint256",
              "name": "tokenId",
              "type": "uint256"
            },
            {
              "internalType": "enum LandType",
              "name": "landType",
              "type": "uint8"
            },
            {
              "internalType": "string",
              "name": "game",
              "type": "string"
            },
            {
              "internalType": "uint256",
              "name": "price",
              "type": "uint256"
            }
          ],
          "internalType": "struct World.Land",
          "name": "land",
          "type": "tuple"
        }
      ],
      "name": "mint",
      "outputs": [],
      "stateMutability": "nonpayable",
      "type": "function"
    },
    {
      "inputs": [],
      "name": "getTokensCount",
      "outputs": [
        {
          "internalType": "uint256",
          "name": "",
          "type": "uint256"
        }
      ],
      "stateMutability": "view",
      "type": "function",
      "constant": true
    },
    {
      "inputs": [],
      "name": "getMap",
      "outputs": [
        {
          "internalType": "address[]",
          "name": "",
          "type": "address[]"
        },
        {
          "components": [
            {
              "internalType": "uint256",
              "name": "tokenId",
              "type": "uint256"
            },
            {
              "internalType": "enum LandType",
              "name": "landType",
              "type": "uint8"
            },
            {
              "internalType": "string",
              "name": "game",
              "type": "string"
            },
            {
              "internalType": "uint256",
              "name": "price",
              "type": "uint256"
            }
          ],
          "internalType": "struct World.Land[]",
          "name": "",
          "type": "tuple[]"
        }
      ],
      "stateMutability": "view",
      "type": "function",
      "constant": true
    },
    {
      "inputs": [
        {
          "components": [
            {
              "internalType": "uint256",
              "name": "tokenId",
              "type": "uint256"
            },
            {
              "internalType": "enum LandType",
              "name": "landType",
              "type": "uint8"
            },
            {
              "internalType": "string",
              "name": "game",
              "type": "string"
            },
            {
              "internalType": "uint256",
              "name": "price",
              "type": "uint256"
            }
          ],
          "internalType": "struct World.Land",
          "name": "land",
          "type": "tuple"
        }
      ],
      "name": "setLand",
      "outputs": [],
      "stateMutability": "nonpayable",
      "type": "function"
    },
    {
      "inputs": [
        {
          "components": [
            {
              "internalType": "uint256",
              "name": "tokenId",
              "type": "uint256"
            },
            {
              "internalType": "enum LandType",
              "name": "landType",
              "type": "uint8"
            },
            {
              "internalType": "string",
              "name": "game",
              "type": "string"
            },
            {
              "internalType": "uint256",
              "name": "price",
              "type": "uint256"
            }
          ],
          "internalType": "struct World.Land",
          "name": "land",
          "type": "tuple"
        },
        {
          "internalType": "address",
          "name": "to",
          "type": "address"
        }
      ],
      "name": "transferLand",
      "outputs": [
        {
          "internalType": "bool",
          "name": "",
          "type": "bool"
        }
      ],
      "stateMutability": "payable",
      "type": "function",
      "payable": true
    }
  ],
  "bytecode": "0x60806040523480156200001157600080fd5b5060405162002293380380620022938339810160408190526200003491620001e0565b6040518060400160405280600481526020016313185b9960e21b815250604051806040016040528060048152602001631310539160e21b8152508160009080519060200190620000869291906200013a565b5080516200009c9060019060208401906200013a565b505050620000b9620000b3620000e460201b60201c565b620000e8565b600780546001600160a01b0319166001600160a01b039290921691909117905560006008556200024f565b3390565b600680546001600160a01b038381166001600160a01b0319831681179093556040519116919082907f8be0079c531659141344cd1fd0a4f28419497f9722a3daafe3b4186f6b6457e090600090a35050565b828054620001489062000212565b90600052602060002090601f0160209004810192826200016c5760008555620001b7565b82601f106200018757805160ff1916838001178555620001b7565b82800160010185558215620001b7579182015b82811115620001b75782518255916020019190600101906200019a565b50620001c5929150620001c9565b5090565b5b80821115620001c55760008155600101620001ca565b600060208284031215620001f357600080fd5b81516001600160a01b03811681146200020b57600080fd5b9392505050565b600181811c908216806200022757607f821691505b602082108114156200024957634e487b7160e01b600052602260045260246000fd5b50919050565b612034806200025f6000396000f3fe60806040526004361061012a5760003560e01c8063715018a6116100ab578063ad3de14c1161006f578063ad3de14c14610327578063b88d4fde1461034a578063c87b56dd1461036a578063e985e9c51461038a578063f2fde38b146103aa578063f960a91e146103ca57600080fd5b8063715018a61461029f5780638da5cb5b146102b457806395d89b41146102d2578063a0001329146102e7578063a22cb4651461030757600080fd5b806323b872dd116100f257806323b872dd146102005780633962f82d1461022057806342842e0e1461023f5780636352211e1461025f57806370a082311461027f57600080fd5b806301ffc9a71461012f57806306fdde0314610164578063081812fc14610186578063095ea7b3146101be5780630b1e1d3f146101e0575b600080fd5b34801561013b57600080fd5b5061014f61014a366004611774565b6103dd565b60405190151581526020015b60405180910390f35b34801561017057600080fd5b5061017961042f565b60405161015b91906117e9565b34801561019257600080fd5b506101a66101a13660046117fc565b6104c1565b6040516001600160a01b03909116815260200161015b565b3480156101ca57600080fd5b506101de6101d9366004611831565b61055b565b005b3480156101ec57600080fd5b506101de6101fb366004611997565b610671565b34801561020c57600080fd5b506101de61021b3660046119cc565b610747565b34801561022c57600080fd5b506008545b60405190815260200161015b565b34801561024b57600080fd5b506101de61025a3660046119cc565b610778565b34801561026b57600080fd5b506101a661027a3660046117fc565b610793565b34801561028b57600080fd5b5061023161029a366004611a08565b61080a565b3480156102ab57600080fd5b506101de610891565b3480156102c057600080fd5b506006546001600160a01b03166101a6565b3480156102de57600080fd5b506101796108c7565b3480156102f357600080fd5b506101de610302366004611997565b6108d6565b34801561031357600080fd5b506101de610322366004611a31565b61091e565b34801561033357600080fd5b5061033c61092d565b60405161015b929190611a7e565b34801561035657600080fd5b506101de610365366004611b68565b610b7c565b34801561037657600080fd5b506101796103853660046117fc565b610bb4565b34801561039657600080fd5b5061014f6103a5366004611be4565b610c9c565b3480156103b657600080fd5b506101de6103c5366004611a08565b610cca565b61014f6103d8366004611c17565b610d62565b60006001600160e01b031982166380ac58cd60e01b148061040e57506001600160e01b03198216635b5e139f60e01b145b8061042957506301ffc9a760e01b6001600160e01b03198316145b92915050565b60606000805461043e90611c5c565b80601f016020809104026020016040519081016040528092919081815260200182805461046a90611c5c565b80156104b75780601f1061048c576101008083540402835291602001916104b7565b820191906000526020600020905b81548152906001019060200180831161049a57829003601f168201915b5050505050905090565b6000818152600260205260408120546001600160a01b031661053f5760405162461bcd60e51b815260206004820152602c60248201527f4552433732313a20617070726f76656420717565727920666f72206e6f6e657860448201526b34b9ba32b73a103a37b5b2b760a11b60648201526084015b60405180910390fd5b506000908152600460205260409020546001600160a01b031690565b600061056682610793565b9050806001600160a01b0316836001600160a01b031614156105d45760405162461bcd60e51b815260206004820152602160248201527f4552433732313a20617070726f76616c20746f2063757272656e74206f776e656044820152603960f91b6064820152608401610536565b336001600160a01b03821614806105f057506105f08133610c9c565b6106625760405162461bcd60e51b815260206004820152603860248201527f4552433732313a20617070726f76652063616c6c6572206973206e6f74206f7760448201527f6e6572206e6f7220617070726f76656420666f7220616c6c00000000000000006064820152608401610536565b61066c8383610f52565b505050565b80516000908152600260205260409020546001600160a01b03166106d75760405162461bcd60e51b815260206004820152601d60248201527f4c616e6420736574206f66206e6f6e6578697374656e7420746f6b656e0000006044820152606401610536565b805160009081526009602090815260409091208251815590820151600180830180548594939260ff199091169083600281111561071657610716611a68565b0217905550604082015180516107369160028401916020909101906116c5565b506060820151816003015590505050565b6107513382610fc0565b61076d5760405162461bcd60e51b815260040161053690611c97565b61066c838383611097565b61066c83838360405180602001604052806000815250610b7c565b6000818152600260205260408120546001600160a01b0316806104295760405162461bcd60e51b815260206004820152602960248201527f4552433732313a206f776e657220717565727920666f72206e6f6e657869737460448201526832b73a103a37b5b2b760b91b6064820152608401610536565b60006001600160a01b0382166108755760405162461bcd60e51b815260206004820152602a60248201527f4552433732313a2062616c616e636520717565727920666f7220746865207a65604482015269726f206164647265737360b01b6064820152608401610536565b506001600160a01b031660009081526003602052604090205490565b6006546001600160a01b031633146108bb5760405162461bcd60e51b815260040161053690611ce8565b6108c56000611233565b565b60606001805461043e90611c5c565b6006546001600160a01b031633146109005760405162461bcd60e51b815260040161053690611ce8565b80516008819055610912903390611285565b61091b81610671565b50565b6109293383836113c7565b5050565b606080600060085467ffffffffffffffff81111561094d5761094d61185b565b604051908082528060200260200182016040528015610976578160200160208202803683370190505b509050600060085467ffffffffffffffff8111156109965761099661185b565b6040519080825280602002602001820160405280156109f357816020015b6109e0604080516080810190915260008082526020820190815260200160608152602001600081525090565b8152602001906001900390816109b45790505b50905060005b600854811015610b7257610a1161027a826001611d33565b838281518110610a2357610a23611d4b565b6001600160a01b039092166020928302919091019091015260096000610a4a836001611d33565b8152602001908152602001600020604051806080016040529081600082015481526020016001820160009054906101000a900460ff166002811115610a9157610a91611a68565b6002811115610aa257610aa2611a68565b8152602001600282018054610ab690611c5c565b80601f0160208091040260200160405190810160405280929190818152602001828054610ae290611c5c565b8015610b2f5780601f10610b0457610100808354040283529160200191610b2f565b820191906000526020600020905b815481529060010190602001808311610b1257829003601f168201915b50505050508152602001600382015481525050828281518110610b5457610b54611d4b565b60200260200101819052508080610b6a90611d61565b9150506109f9565b5090939092509050565b610b863383610fc0565b610ba25760405162461bcd60e51b815260040161053690611c97565b610bae84848484611496565b50505050565b6000818152600260205260409020546060906001600160a01b0316610c335760405162461bcd60e51b815260206004820152602f60248201527f4552433732314d657461646174613a2055524920717565727920666f72206e6f60448201526e3732bc34b9ba32b73a103a37b5b2b760891b6064820152608401610536565b6000610c4a60408051602081019091526000815290565b90506000815111610c6a5760405180602001604052806000815250610c95565b80610c74846114c9565b604051602001610c85929190611d7c565b6040516020818303038152906040525b9392505050565b6001600160a01b03918216600090815260056020908152604080832093909416825291909152205460ff1690565b6006546001600160a01b03163314610cf45760405162461bcd60e51b815260040161053690611ce8565b6001600160a01b038116610d595760405162461bcd60e51b815260206004820152602660248201527f4f776e61626c653a206e6577206f776e657220697320746865207a65726f206160448201526564647265737360d01b6064820152608401610536565b61091b81611233565b60008083602001516002811115610d7b57610d7b611a68565b14610dc85760405162461bcd60e51b815260206004820152601e60248201527f4f6e6c79204e4654206c616e64732063616e206265207472616e7366657200006044820152606401610536565b336001600160a01b0383161415610e2d5760405162461bcd60e51b8152602060048201526024808201527f596f752063616e6e6f74207472616e73666572206c616e6420746f20796f757260448201526339b2b63360e11b6064820152608401610536565b6007546040805163313ce56760e01b815290516001600160a01b03909216916323b872dd9185913391859163313ce567916004808201926020929091908290030181865afa158015610e83573d6000803e3d6000fd5b505050506040513d601f19601f82011682018060405250810190610ea79190611dab565b610eb290600a611eb2565b8760600151610ec19190611ec1565b6040516001600160e01b031960e086901b1681526001600160a01b03938416600482015292909116602483015260448201526064016020604051808303816000875af1158015610f15573d6000803e3d6000fd5b505050506040513d601f19601f82011682018060405250810190610f399190611ee0565b50610f4933838560000151611097565b50600192915050565b600081815260046020526040902080546001600160a01b0319166001600160a01b0384169081179091558190610f8782610793565b6001600160a01b03167f8c5be1e5ebec7d5bd14f71427d1e84f3dd0314c0f7b2291e5b200ac8c7c3b92560405160405180910390a45050565b6000818152600260205260408120546001600160a01b03166110395760405162461bcd60e51b815260206004820152602c60248201527f4552433732313a206f70657261746f7220717565727920666f72206e6f6e657860448201526b34b9ba32b73a103a37b5b2b760a11b6064820152608401610536565b600061104483610793565b9050806001600160a01b0316846001600160a01b0316148061107f5750836001600160a01b0316611074846104c1565b6001600160a01b0316145b8061108f575061108f8185610c9c565b949350505050565b826001600160a01b03166110aa82610793565b6001600160a01b03161461110e5760405162461bcd60e51b815260206004820152602560248201527f4552433732313a207472616e736665722066726f6d20696e636f72726563742060448201526437bbb732b960d91b6064820152608401610536565b6001600160a01b0382166111705760405162461bcd60e51b8152602060048201526024808201527f4552433732313a207472616e7366657220746f20746865207a65726f206164646044820152637265737360e01b6064820152608401610536565b61117b600082610f52565b6001600160a01b03831660009081526003602052604081208054600192906111a4908490611efd565b90915550506001600160a01b03821660009081526003602052604081208054600192906111d2908490611d33565b909155505060008181526002602052604080822080546001600160a01b0319166001600160a01b0386811691821790925591518493918716917fddf252ad1be2c89b69c2b068fc378daa952ba7f163c4a11628f55a4df523b3ef91a4505050565b600680546001600160a01b038381166001600160a01b0319831681179093556040519116919082907f8be0079c531659141344cd1fd0a4f28419497f9722a3daafe3b4186f6b6457e090600090a35050565b6001600160a01b0382166112db5760405162461bcd60e51b815260206004820181905260248201527f4552433732313a206d696e7420746f20746865207a65726f20616464726573736044820152606401610536565b6000818152600260205260409020546001600160a01b0316156113405760405162461bcd60e51b815260206004820152601c60248201527f4552433732313a20746f6b656e20616c7265616479206d696e746564000000006044820152606401610536565b6001600160a01b0382166000908152600360205260408120805460019290611369908490611d33565b909155505060008181526002602052604080822080546001600160a01b0319166001600160a01b03861690811790915590518392907fddf252ad1be2c89b69c2b068fc378daa952ba7f163c4a11628f55a4df523b3ef908290a45050565b816001600160a01b0316836001600160a01b031614156114295760405162461bcd60e51b815260206004820152601960248201527f4552433732313a20617070726f766520746f2063616c6c6572000000000000006044820152606401610536565b6001600160a01b03838116600081815260056020908152604080832094871680845294825291829020805460ff191686151590811790915591519182527f17307eab39ab6107e8899845ad3d59bd9653f200f220920489ca2b5937696c31910160405180910390a3505050565b6114a1848484611097565b6114ad848484846115c7565b610bae5760405162461bcd60e51b815260040161053690611f14565b6060816114ed5750506040805180820190915260018152600360fc1b602082015290565b8160005b8115611517578061150181611d61565b91506115109050600a83611f7c565b91506114f1565b60008167ffffffffffffffff8111156115325761153261185b565b6040519080825280601f01601f19166020018201604052801561155c576020820181803683370190505b5090505b841561108f57611571600183611efd565b915061157e600a86611f90565b611589906030611d33565b60f81b81838151811061159e5761159e611d4b565b60200101906001600160f81b031916908160001a9053506115c0600a86611f7c565b9450611560565b60006001600160a01b0384163b156116ba57604051630a85bd0160e11b81526001600160a01b0385169063150b7a029061160b903390899088908890600401611fa4565b6020604051808303816000875af1925050508015611646575060408051601f3d908101601f1916820190925261164391810190611fe1565b60015b6116a0573d808015611674576040519150601f19603f3d011682016040523d82523d6000602084013e611679565b606091505b5080516116985760405162461bcd60e51b815260040161053690611f14565b805181602001fd5b6001600160e01b031916630a85bd0160e11b14905061108f565b506001949350505050565b8280546116d190611c5c565b90600052602060002090601f0160209004810192826116f35760008555611739565b82601f1061170c57805160ff1916838001178555611739565b82800160010185558215611739579182015b8281111561173957825182559160200191906001019061171e565b50611745929150611749565b5090565b5b80821115611745576000815560010161174a565b6001600160e01b03198116811461091b57600080fd5b60006020828403121561178657600080fd5b8135610c958161175e565b60005b838110156117ac578181015183820152602001611794565b83811115610bae5750506000910152565b600081518084526117d5816020860160208601611791565b601f01601f19169290920160200192915050565b602081526000610c9560208301846117bd565b60006020828403121561180e57600080fd5b5035919050565b80356001600160a01b038116811461182c57600080fd5b919050565b6000806040838503121561184457600080fd5b61184d83611815565b946020939093013593505050565b634e487b7160e01b600052604160045260246000fd5b6040516080810167ffffffffffffffff811182821017156118945761189461185b565b60405290565b600067ffffffffffffffff808411156118b5576118b561185b565b604051601f8501601f19908116603f011681019082821181831017156118dd576118dd61185b565b816040528093508581528686860111156118f657600080fd5b858560208301376000602087830101525050509392505050565b60006080828403121561192257600080fd5b61192a611871565b90508135815260208201356003811061194257600080fd5b6020820152604082013567ffffffffffffffff81111561196157600080fd5b8201601f8101841361197257600080fd5b6119818482356020840161189a565b6040830152506060820135606082015292915050565b6000602082840312156119a957600080fd5b813567ffffffffffffffff8111156119c057600080fd5b61108f84828501611910565b6000806000606084860312156119e157600080fd5b6119ea84611815565b92506119f860208501611815565b9150604084013590509250925092565b600060208284031215611a1a57600080fd5b610c9582611815565b801515811461091b57600080fd5b60008060408385031215611a4457600080fd5b611a4d83611815565b91506020830135611a5d81611a23565b809150509250929050565b634e487b7160e01b600052602160045260246000fd5b6040808252835182820181905260009190606090818501906020808901865b83811015611ac25781516001600160a01b031685529382019390820190600101611a9d565b50508683038188015287518084528184019250600581901b8401820189830160005b83811015611b5757601f1987840301865281516080815185528682015160038110611b1f57634e487b7160e01b600052602160045260246000fd5b85880152818b01518b8601829052611b39828701826117bd565b928b0151958b01959095525095850195925090840190600101611ae4565b50909b9a5050505050505050505050565b60008060008060808587031215611b7e57600080fd5b611b8785611815565b9350611b9560208601611815565b925060408501359150606085013567ffffffffffffffff811115611bb857600080fd5b8501601f81018713611bc957600080fd5b611bd88782356020840161189a565b91505092959194509250565b60008060408385031215611bf757600080fd5b611c0083611815565b9150611c0e60208401611815565b90509250929050565b60008060408385031215611c2a57600080fd5b823567ffffffffffffffff811115611c4157600080fd5b611c4d85828601611910565b925050611c0e60208401611815565b600181811c90821680611c7057607f821691505b60208210811415611c9157634e487b7160e01b600052602260045260246000fd5b50919050565b60208082526031908201527f4552433732313a207472616e736665722063616c6c6572206973206e6f74206f6040820152701ddb995c881b9bdc88185c1c1c9bdd9959607a1b606082015260800190565b6020808252818101527f4f776e61626c653a2063616c6c6572206973206e6f7420746865206f776e6572604082015260600190565b634e487b7160e01b600052601160045260246000fd5b60008219821115611d4657611d46611d1d565b500190565b634e487b7160e01b600052603260045260246000fd5b6000600019821415611d7557611d75611d1d565b5060010190565b60008351611d8e818460208801611791565b835190830190611da2818360208801611791565b01949350505050565b600060208284031215611dbd57600080fd5b815160ff81168114610c9557600080fd5b600181815b80851115611e09578160001904821115611def57611def611d1d565b80851615611dfc57918102915b93841c9390800290611dd3565b509250929050565b600082611e2057506001610429565b81611e2d57506000610429565b8160018114611e435760028114611e4d57611e69565b6001915050610429565b60ff841115611e5e57611e5e611d1d565b50506001821b610429565b5060208310610133831016604e8410600b8410161715611e8c575081810a610429565b611e968383611dce565b8060001904821115611eaa57611eaa611d1d565b029392505050565b6000610c9560ff841683611e11565b6000816000190483118215151615611edb57611edb611d1d565b500290565b600060208284031215611ef257600080fd5b8151610c9581611a23565b600082821015611f0f57611f0f611d1d565b500390565b60208082526032908201527f4552433732313a207472616e7366657220746f206e6f6e20455243373231526560408201527131b2b4bb32b91034b6b83632b6b2b73a32b960711b606082015260800190565b634e487b7160e01b600052601260045260246000fd5b600082611f8b57611f8b611f66565b500490565b600082611f9f57611f9f611f66565b500690565b6001600160a01b0385811682528416602082015260408101839052608060608201819052600090611fd7908301846117bd565b9695505050505050565b600060208284031215611ff357600080fd5b8151610c958161175e56fea2646970667358221220f160c7f0334a6198509ec4b41276a2e146bb2f56e79af69c663bd3725c8a9a9464736f6c634300080a0033",
  "immutableReferences": {},
  "source": "// SPDX-License-Identifier: MIT\r\npragma solidity ^0.8.0;\r\n\r\nimport '@openzeppelin/contracts/token/ERC721/ERC721.sol';\r\nimport '@openzeppelin/contracts/access/Ownable.sol';\r\nimport './Token.sol';\r\n\r\nenum LandType { NFT, PARK, ROAD }\r\n\r\ncontract World is ERC721, Ownable {\r\n    struct Land {\r\n        uint256 tokenId;\r\n        LandType landType;\r\n        string game;\r\n        uint256 price;\r\n    }\r\n\r\n    Token private token;\r\n    uint256 private numOfTokens;\r\n\r\n    mapping(uint256 => Land) private lands;\r\n\r\n    constructor(Token _token) ERC721('Land', 'LAND') Ownable() {\r\n        token = _token;\r\n        numOfTokens = 0;\r\n    }\r\n\r\n    function mint(Land memory land) public onlyOwner {\r\n        numOfTokens = land.tokenId;\r\n        _mint(msg.sender, land.tokenId);\r\n        setLand(land);\r\n    }\r\n\r\n    function getTokensCount() public view returns (uint256) {\r\n        return numOfTokens;\r\n    }\r\n\r\n    function getMap() public view returns (address[] memory, Land[] memory) {\r\n        address[] memory owners = new address[](numOfTokens);\r\n        Land[] memory map = new Land[](numOfTokens);\r\n\r\n        for (uint256 i = 0; i < numOfTokens; i++) {\r\n            owners[i] = ownerOf(i + 1);\r\n            map[i] = lands[i + 1];\r\n        }\r\n\r\n        return (owners, map);\r\n    }\r\n\r\n    function setLand(Land memory land) public {\r\n        require(_exists(land.tokenId), 'Land set of nonexistent token');\r\n        require(land.price >= 0, 'Land price cannot be negative number');\r\n\r\n        lands[land.tokenId] = land;\r\n    }\r\n\r\n    function transferLand(Land memory land, address to) public payable returns (bool) {\r\n        require(land.landType == LandType.NFT, 'Only NFT lands can be transfer');\r\n        require(msg.sender != to, 'You cannot transfer land to yourself');\r\n\r\n        token.transferFrom(to, msg.sender, land.price * (10 ** token.decimals()));\r\n        _transfer(msg.sender, to, land.tokenId);\r\n\r\n        return true;\r\n    }\r\n}",
  "sourcePath": "C:\\Users\\elads\\Documents\\\\ \\ \\\\\\Final Project\\contracts\\World.sol",
  "compiler": {
    "name": "solc",
    "version": "0.8.10+commit.fc410830.Emscripten.clang"
  },
  "schemaVersion": "3.4.4",
  "updatedAt": "2022-02-22T00:47:24.690Z",
  "networkType": "ethereum",
  "devdoc": {
    "kind": "dev",
    "methods": {
      "approve(address,uint256)": {
        "details": "See {IERC721-approve}."
      },
      "balanceOf(address)": {
        "details": "See {IERC721-balanceOf}."
      },
      "getApproved(uint256)": {
        "details": "See {IERC721-getApproved}."
      },
      "isApprovedForAll(address,address)": {
        "details": "See {IERC721-isApprovedForAll}."
      },
      "name()": {
        "details": "See {IERC721Metadata-name}."
      },
      "owner()": {
        "details": "Returns the address of the current owner."
      },
      "ownerOf(uint256)": {
        "details": "See {IERC721-ownerOf}."
      },
      "renounceOwnership()": {
        "details": "Leaves the contract without owner. It will not be possible to call `onlyOwner` functions anymore. Can only be called by the current owner. NOTE: Renouncing ownership will leave the contract without an owner, thereby removing any functionality that is only available to the owner."
      },
      "safeTransferFrom(address,address,uint256)": {
        "details": "See {IERC721-safeTransferFrom}."
      },
      "safeTransferFrom(address,address,uint256,bytes)": {
        "details": "See {IERC721-safeTransferFrom}."
      },
      "setApprovalForAll(address,bool)": {
        "details": "See {IERC721-setApprovalForAll}."
      },
      "supportsInterface(bytes4)": {
        "details": "See {IERC165-supportsInterface}."
      },
      "symbol()": {
        "details": "See {IERC721Metadata-symbol}."
      },
      "tokenURI(uint256)": {
        "details": "See {IERC721Metadata-tokenURI}."
      },
      "transferFrom(address,address,uint256)": {
        "details": "See {IERC721-transferFrom}."
      },
      "transferOwnership(address)": {
        "details": "Transfers ownership of the contract to a new account (`newOwner`). Can only be called by the current owner."
      }
    },
    "version": 1
  },
  "userdoc": {
    "kind": "user",
    "methods": {},
    "version": 1
  }
}