{
  "contractName": "World",
  "abi": [
    {
      "inputs": [
        {
          "internalType": "contract Token",
          "name": "_token",
          "type": "address"
        }
      ],
      "stateMutability": "nonpayable",
      "type": "constructor"
    },
    {
      "anonymous": false,
      "inputs": [
        {
          "indexed": true,
          "internalType": "address",
          "name": "owner",
          "type": "address"
        },
        {
          "indexed": true,
          "internalType": "address",
          "name": "approved",
          "type": "address"
        },
        {
          "indexed": true,
          "internalType": "uint256",
          "name": "tokenId",
          "type": "uint256"
        }
      ],
      "name": "Approval",
      "type": "event"
    },
    {
      "anonymous": false,
      "inputs": [
        {
          "indexed": true,
          "internalType": "address",
          "name": "owner",
          "type": "address"
        },
        {
          "indexed": true,
          "internalType": "address",
          "name": "operator",
          "type": "address"
        },
        {
          "indexed": false,
          "internalType": "bool",
          "name": "approved",
          "type": "bool"
        }
      ],
      "name": "ApprovalForAll",
      "type": "event"
    },
    {
      "anonymous": false,
      "inputs": [
        {
          "indexed": true,
          "internalType": "address",
          "name": "previousOwner",
          "type": "address"
        },
        {
          "indexed": true,
          "internalType": "address",
          "name": "newOwner",
          "type": "address"
        }
      ],
      "name": "OwnershipTransferred",
      "type": "event"
    },
    {
      "anonymous": false,
      "inputs": [
        {
          "indexed": true,
          "internalType": "address",
          "name": "from",
          "type": "address"
        },
        {
          "indexed": true,
          "internalType": "address",
          "name": "to",
          "type": "address"
        },
        {
          "indexed": true,
          "internalType": "uint256",
          "name": "tokenId",
          "type": "uint256"
        }
      ],
      "name": "Transfer",
      "type": "event"
    },
    {
      "inputs": [
        {
          "internalType": "address",
          "name": "to",
          "type": "address"
        },
        {
          "internalType": "uint256",
          "name": "tokenId",
          "type": "uint256"
        }
      ],
      "name": "approve",
      "outputs": [],
      "stateMutability": "nonpayable",
      "type": "function"
    },
    {
      "inputs": [
        {
          "internalType": "address",
          "name": "owner",
          "type": "address"
        }
      ],
      "name": "balanceOf",
      "outputs": [
        {
          "internalType": "uint256",
          "name": "",
          "type": "uint256"
        }
      ],
      "stateMutability": "view",
      "type": "function"
    },
    {
      "inputs": [
        {
          "internalType": "uint256",
          "name": "tokenId",
          "type": "uint256"
        }
      ],
      "name": "getApproved",
      "outputs": [
        {
          "internalType": "address",
          "name": "",
          "type": "address"
        }
      ],
      "stateMutability": "view",
      "type": "function"
    },
    {
      "inputs": [
        {
          "internalType": "address",
          "name": "owner",
          "type": "address"
        },
        {
          "internalType": "address",
          "name": "operator",
          "type": "address"
        }
      ],
      "name": "isApprovedForAll",
      "outputs": [
        {
          "internalType": "bool",
          "name": "",
          "type": "bool"
        }
      ],
      "stateMutability": "view",
      "type": "function"
    },
    {
      "inputs": [],
      "name": "name",
      "outputs": [
        {
          "internalType": "string",
          "name": "",
          "type": "string"
        }
      ],
      "stateMutability": "view",
      "type": "function"
    },
    {
      "inputs": [],
      "name": "owner",
      "outputs": [
        {
          "internalType": "address",
          "name": "",
          "type": "address"
        }
      ],
      "stateMutability": "view",
      "type": "function"
    },
    {
      "inputs": [
        {
          "internalType": "uint256",
          "name": "tokenId",
          "type": "uint256"
        }
      ],
      "name": "ownerOf",
      "outputs": [
        {
          "internalType": "address",
          "name": "",
          "type": "address"
        }
      ],
      "stateMutability": "view",
      "type": "function"
    },
    {
      "inputs": [],
      "name": "renounceOwnership",
      "outputs": [],
      "stateMutability": "nonpayable",
      "type": "function"
    },
    {
      "inputs": [
        {
          "internalType": "address",
          "name": "from",
          "type": "address"
        },
        {
          "internalType": "address",
          "name": "to",
          "type": "address"
        },
        {
          "internalType": "uint256",
          "name": "tokenId",
          "type": "uint256"
        }
      ],
      "name": "safeTransferFrom",
      "outputs": [],
      "stateMutability": "nonpayable",
      "type": "function"
    },
    {
      "inputs": [
        {
          "internalType": "address",
          "name": "from",
          "type": "address"
        },
        {
          "internalType": "address",
          "name": "to",
          "type": "address"
        },
        {
          "internalType": "uint256",
          "name": "tokenId",
          "type": "uint256"
        },
        {
          "internalType": "bytes",
          "name": "_data",
          "type": "bytes"
        }
      ],
      "name": "safeTransferFrom",
      "outputs": [],
      "stateMutability": "nonpayable",
      "type": "function"
    },
    {
      "inputs": [
        {
          "internalType": "address",
          "name": "operator",
          "type": "address"
        },
        {
          "internalType": "bool",
          "name": "approved",
          "type": "bool"
        }
      ],
      "name": "setApprovalForAll",
      "outputs": [],
      "stateMutability": "nonpayable",
      "type": "function"
    },
    {
      "inputs": [
        {
          "internalType": "bytes4",
          "name": "interfaceId",
          "type": "bytes4"
        }
      ],
      "name": "supportsInterface",
      "outputs": [
        {
          "internalType": "bool",
          "name": "",
          "type": "bool"
        }
      ],
      "stateMutability": "view",
      "type": "function"
    },
    {
      "inputs": [],
      "name": "symbol",
      "outputs": [
        {
          "internalType": "string",
          "name": "",
          "type": "string"
        }
      ],
      "stateMutability": "view",
      "type": "function"
    },
    {
      "inputs": [
        {
          "internalType": "uint256",
          "name": "tokenId",
          "type": "uint256"
        }
      ],
      "name": "tokenURI",
      "outputs": [
        {
          "internalType": "string",
          "name": "",
          "type": "string"
        }
      ],
      "stateMutability": "view",
      "type": "function"
    },
    {
      "inputs": [
        {
          "internalType": "address",
          "name": "from",
          "type": "address"
        },
        {
          "internalType": "address",
          "name": "to",
          "type": "address"
        },
        {
          "internalType": "uint256",
          "name": "tokenId",
          "type": "uint256"
        }
      ],
      "name": "transferFrom",
      "outputs": [],
      "stateMutability": "nonpayable",
      "type": "function"
    },
    {
      "inputs": [
        {
          "internalType": "address",
          "name": "newOwner",
          "type": "address"
        }
      ],
      "name": "transferOwnership",
      "outputs": [],
      "stateMutability": "nonpayable",
      "type": "function"
    },
    {
      "inputs": [
        {
          "components": [
            {
              "internalType": "uint256",
              "name": "tokenId",
              "type": "uint256"
            },
            {
              "internalType": "enum LandType",
              "name": "landType",
              "type": "uint8"
            },
            {
              "internalType": "string",
              "name": "game",
              "type": "string"
            },
            {
              "internalType": "uint256",
              "name": "price",
              "type": "uint256"
            }
          ],
          "internalType": "struct World.Land",
          "name": "land",
          "type": "tuple"
        }
      ],
      "name": "mint",
      "outputs": [],
      "stateMutability": "nonpayable",
      "type": "function"
    },
    {
      "inputs": [],
      "name": "getTokensCount",
      "outputs": [
        {
          "internalType": "uint256",
          "name": "",
          "type": "uint256"
        }
      ],
      "stateMutability": "view",
      "type": "function"
    },
    {
      "inputs": [],
      "name": "getMap",
      "outputs": [
        {
          "internalType": "address[]",
          "name": "",
          "type": "address[]"
        },
        {
          "components": [
            {
              "internalType": "uint256",
              "name": "tokenId",
              "type": "uint256"
            },
            {
              "internalType": "enum LandType",
              "name": "landType",
              "type": "uint8"
            },
            {
              "internalType": "string",
              "name": "game",
              "type": "string"
            },
            {
              "internalType": "uint256",
              "name": "price",
              "type": "uint256"
            }
          ],
          "internalType": "struct World.Land[]",
          "name": "",
          "type": "tuple[]"
        }
      ],
      "stateMutability": "view",
      "type": "function"
    },
    {
      "inputs": [
        {
          "components": [
            {
              "internalType": "uint256",
              "name": "tokenId",
              "type": "uint256"
            },
            {
              "internalType": "enum LandType",
              "name": "landType",
              "type": "uint8"
            },
            {
              "internalType": "string",
              "name": "game",
              "type": "string"
            },
            {
              "internalType": "uint256",
              "name": "price",
              "type": "uint256"
            }
          ],
          "internalType": "struct World.Land",
          "name": "land",
          "type": "tuple"
        }
      ],
      "name": "setLand",
      "outputs": [],
      "stateMutability": "nonpayable",
      "type": "function"
    },
    {
      "inputs": [
        {
          "components": [
            {
              "internalType": "uint256",
              "name": "tokenId",
              "type": "uint256"
            },
            {
              "internalType": "enum LandType",
              "name": "landType",
              "type": "uint8"
            },
            {
              "internalType": "string",
              "name": "game",
              "type": "string"
            },
            {
              "internalType": "uint256",
              "name": "price",
              "type": "uint256"
            }
          ],
          "internalType": "struct World.Land",
          "name": "land",
          "type": "tuple"
        },
        {
          "internalType": "address",
          "name": "to",
          "type": "address"
        }
      ],
      "name": "transferLand",
      "outputs": [
        {
          "internalType": "bool",
          "name": "",
          "type": "bool"
        }
      ],
      "stateMutability": "payable",
      "type": "function"
    }
  ],
  "bytecode": "0x60806040523480156200001157600080fd5b5060405162002303380380620023038339810160408190526200003491620001e0565b6040518060400160405280600481526020016313185b9960e21b815250604051806040016040528060048152602001631310539160e21b8152508160009080519060200190620000869291906200013a565b5080516200009c9060019060208401906200013a565b505050620000b9620000b3620000e460201b60201c565b620000e8565b600780546001600160a01b0319166001600160a01b039290921691909117905560006008556200024d565b3390565b600680546001600160a01b038381166001600160a01b0319831681179093556040519116919082907f8be0079c531659141344cd1fd0a4f28419497f9722a3daafe3b4186f6b6457e090600090a35050565b828054620001489062000210565b90600052602060002090601f0160209004810192826200016c5760008555620001b7565b82601f106200018757805160ff1916838001178555620001b7565b82800160010185558215620001b7579182015b82811115620001b75782518255916020019190600101906200019a565b50620001c5929150620001c9565b5090565b5b80821115620001c55760008155600101620001ca565b600060208284031215620001f2578081fd5b81516001600160a01b038116811462000209578182fd5b9392505050565b600181811c908216806200022557607f821691505b602082108114156200024757634e487b7160e01b600052602260045260246000fd5b50919050565b6120a6806200025d6000396000f3fe60806040526004361061012a5760003560e01c8063715018a6116100ab578063ad3de14c1161006f578063ad3de14c14610327578063b88d4fde1461034a578063c87b56dd1461036a578063e985e9c51461038a578063f2fde38b146103aa578063f960a91e146103ca57600080fd5b8063715018a61461029f5780638da5cb5b146102b457806395d89b41146102d2578063a0001329146102e7578063a22cb4651461030757600080fd5b806323b872dd116100f257806323b872dd146102005780633962f82d1461022057806342842e0e1461023f5780636352211e1461025f57806370a082311461027f57600080fd5b806301ffc9a71461012f57806306fdde0314610164578063081812fc14610186578063095ea7b3146101be5780630b1e1d3f146101e0575b600080fd5b34801561013b57600080fd5b5061014f61014a366004611aaa565b6103dd565b60405190151581526020015b60405180910390f35b34801561017057600080fd5b5061017961042f565b60405161015b9190611d10565b34801561019257600080fd5b506101a66101a1366004611b58565b6104c1565b6040516001600160a01b03909116815260200161015b565b3480156101ca57600080fd5b506101de6101d9366004611a65565b61055b565b005b3480156101ec57600080fd5b506101de6101fb366004611ae2565b610671565b34801561020c57600080fd5b506101de61021b36600461197b565b610755565b34801561022c57600080fd5b506008545b60405190815260200161015b565b34801561024b57600080fd5b506101de61025a36600461197b565b610786565b34801561026b57600080fd5b506101a661027a366004611b58565b6107a1565b34801561028b57600080fd5b5061023161029a36600461192f565b610818565b3480156102ab57600080fd5b506101de61089f565b3480156102c057600080fd5b506006546001600160a01b03166101a6565b3480156102de57600080fd5b506101796108d5565b3480156102f357600080fd5b506101de610302366004611ae2565b6108e4565b34801561031357600080fd5b506101de610322366004611a2f565b61092c565b34801561033357600080fd5b5061033c61093b565b60405161015b929190611c29565b34801561035657600080fd5b506101de6103653660046119b6565b610bde565b34801561037657600080fd5b50610179610385366004611b58565b610c16565b34801561039657600080fd5b5061014f6103a5366004611949565b610cfe565b3480156103b657600080fd5b506101de6103c536600461192f565b610d2c565b61014f6103d8366004611b15565b610dc4565b60006001600160e01b031982166380ac58cd60e01b148061040e57506001600160e01b03198216635b5e139f60e01b145b8061042957506301ffc9a760e01b6001600160e01b03198316145b92915050565b60606000805461043e90611fa0565b80601f016020809104026020016040519081016040528092919081815260200182805461046a90611fa0565b80156104b75780601f1061048c576101008083540402835291602001916104b7565b820191906000526020600020905b81548152906001019060200180831161049a57829003601f168201915b5050505050905090565b6000818152600260205260408120546001600160a01b031661053f5760405162461bcd60e51b815260206004820152602c60248201527f4552433732313a20617070726f76656420717565727920666f72206e6f6e657860448201526b34b9ba32b73a103a37b5b2b760a11b60648201526084015b60405180910390fd5b506000908152600460205260409020546001600160a01b031690565b6000610566826107a1565b9050806001600160a01b0316836001600160a01b031614156105d45760405162461bcd60e51b815260206004820152602160248201527f4552433732313a20617070726f76616c20746f2063757272656e74206f776e656044820152603960f91b6064820152608401610536565b336001600160a01b03821614806105f057506105f08133610cfe565b6106625760405162461bcd60e51b815260206004820152603860248201527f4552433732313a20617070726f76652063616c6c6572206973206e6f74206f7760448201527f6e6572206e6f7220617070726f76656420666f7220616c6c00000000000000006064820152608401610536565b61066c8383610fe0565b505050565b80516000908152600260205260409020546001600160a01b03166106d75760405162461bcd60e51b815260206004820152601d60248201527f4c616e6420736574206f66206e6f6e6578697374656e7420746f6b656e0000006044820152606401610536565b805160009081526009602090815260409091208251815590820151600180830180548594939260ff199091169083600281111561072457634e487b7160e01b600052602160045260246000fd5b02179055506040820151805161074491600284019160209091019061177e565b506060820151816003015590505050565b61075f338261104e565b61077b5760405162461bcd60e51b815260040161053690611daa565b61066c838383611125565b61066c83838360405180602001604052806000815250610bde565b6000818152600260205260408120546001600160a01b0316806104295760405162461bcd60e51b815260206004820152602960248201527f4552433732313a206f776e657220717565727920666f72206e6f6e657869737460448201526832b73a103a37b5b2b760b91b6064820152608401610536565b60006001600160a01b0382166108835760405162461bcd60e51b815260206004820152602a60248201527f4552433732313a2062616c616e636520717565727920666f7220746865207a65604482015269726f206164647265737360b01b6064820152608401610536565b506001600160a01b031660009081526003602052604090205490565b6006546001600160a01b031633146108c95760405162461bcd60e51b815260040161053690611d75565b6108d360006112c1565b565b60606001805461043e90611fa0565b6006546001600160a01b0316331461090e5760405162461bcd60e51b815260040161053690611d75565b80516008819055610920903390611313565b61092981610671565b50565b610937338383611455565b5050565b606080600060085467ffffffffffffffff81111561096957634e487b7160e01b600052604160045260246000fd5b604051908082528060200260200182016040528015610992578160200160208202803683370190505b509050600060085467ffffffffffffffff8111156109c057634e487b7160e01b600052604160045260246000fd5b604051908082528060200260200182016040528015610a1d57816020015b610a0a604080516080810190915260008082526020820190815260200160608152602001600081525090565b8152602001906001900390816109de5790505b50905060005b600854811015610bd457610a3b61027a826001611e24565b838281518110610a5b57634e487b7160e01b600052603260045260246000fd5b6001600160a01b039092166020928302919091019091015260096000610a82836001611e24565b8152602001908152602001600020604051806080016040529081600082015481526020016001820160009054906101000a900460ff166002811115610ad757634e487b7160e01b600052602160045260246000fd5b6002811115610af657634e487b7160e01b600052602160045260246000fd5b8152602001600282018054610b0a90611fa0565b80601f0160208091040260200160405190810160405280929190818152602001828054610b3690611fa0565b8015610b835780601f10610b5857610100808354040283529160200191610b83565b820191906000526020600020905b815481529060010190602001808311610b6657829003601f168201915b50505050508152602001600382015481525050828281518110610bb657634e487b7160e01b600052603260045260246000fd5b60200260200101819052508080610bcc90611fdb565b915050610a23565b5090939092509050565b610be8338361104e565b610c045760405162461bcd60e51b815260040161053690611daa565b610c1084848484611524565b50505050565b6000818152600260205260409020546060906001600160a01b0316610c955760405162461bcd60e51b815260206004820152602f60248201527f4552433732314d657461646174613a2055524920717565727920666f72206e6f60448201526e3732bc34b9ba32b73a103a37b5b2b760891b6064820152608401610536565b6000610cac60408051602081019091526000815290565b90506000815111610ccc5760405180602001604052806000815250610cf7565b80610cd684611557565b604051602001610ce7929190611bbd565b6040516020818303038152906040525b9392505050565b6001600160a01b03918216600090815260056020908152604080832093909416825291909152205460ff1690565b6006546001600160a01b03163314610d565760405162461bcd60e51b815260040161053690611d75565b6001600160a01b038116610dbb5760405162461bcd60e51b815260206004820152602660248201527f4f776e61626c653a206e6577206f776e657220697320746865207a65726f206160448201526564647265737360d01b6064820152608401610536565b610929816112c1565b60008083602001516002811115610deb57634e487b7160e01b600052602160045260246000fd5b14610e385760405162461bcd60e51b815260206004820152601e60248201527f4f6e6c79204e4654206c616e64732063616e206265207472616e7366657200006044820152606401610536565b336001600160a01b0383161415610e9d5760405162461bcd60e51b8152602060048201526024808201527f596f752063616e6e6f74207472616e73666572206c616e6420746f20796f757260448201526339b2b63360e11b6064820152608401610536565b6007546040805163313ce56760e01b815290516001600160a01b03909216916323b872dd9185913391859163313ce56791600480820192602092909190829003018186803b158015610eee57600080fd5b505afa158015610f02573d6000803e3d6000fd5b505050506040513d601f19601f82011682018060405250810190610f269190611b70565b610f3190600a611e93565b8760600151610f409190611f3e565b6040516001600160e01b031960e086901b1681526001600160a01b0393841660048201529290911660248301526044820152606401602060405180830381600087803b158015610f8f57600080fd5b505af1158015610fa3573d6000803e3d6000fd5b505050506040513d601f19601f82011682018060405250810190610fc79190611a8e565b50610fd733838560000151611125565b50600192915050565b600081815260046020526040902080546001600160a01b0319166001600160a01b0384169081179091558190611015826107a1565b6001600160a01b03167f8c5be1e5ebec7d5bd14f71427d1e84f3dd0314c0f7b2291e5b200ac8c7c3b92560405160405180910390a45050565b6000818152600260205260408120546001600160a01b03166110c75760405162461bcd60e51b815260206004820152602c60248201527f4552433732313a206f70657261746f7220717565727920666f72206e6f6e657860448201526b34b9ba32b73a103a37b5b2b760a11b6064820152608401610536565b60006110d2836107a1565b9050806001600160a01b0316846001600160a01b0316148061110d5750836001600160a01b0316611102846104c1565b6001600160a01b0316145b8061111d575061111d8185610cfe565b949350505050565b826001600160a01b0316611138826107a1565b6001600160a01b03161461119c5760405162461bcd60e51b815260206004820152602560248201527f4552433732313a207472616e736665722066726f6d20696e636f72726563742060448201526437bbb732b960d91b6064820152608401610536565b6001600160a01b0382166111fe5760405162461bcd60e51b8152602060048201526024808201527f4552433732313a207472616e7366657220746f20746865207a65726f206164646044820152637265737360e01b6064820152608401610536565b611209600082610fe0565b6001600160a01b0383166000908152600360205260408120805460019290611232908490611f5d565b90915550506001600160a01b0382166000908152600360205260408120805460019290611260908490611e24565b909155505060008181526002602052604080822080546001600160a01b0319166001600160a01b0386811691821790925591518493918716917fddf252ad1be2c89b69c2b068fc378daa952ba7f163c4a11628f55a4df523b3ef91a4505050565b600680546001600160a01b038381166001600160a01b0319831681179093556040519116919082907f8be0079c531659141344cd1fd0a4f28419497f9722a3daafe3b4186f6b6457e090600090a35050565b6001600160a01b0382166113695760405162461bcd60e51b815260206004820181905260248201527f4552433732313a206d696e7420746f20746865207a65726f20616464726573736044820152606401610536565b6000818152600260205260409020546001600160a01b0316156113ce5760405162461bcd60e51b815260206004820152601c60248201527f4552433732313a20746f6b656e20616c7265616479206d696e746564000000006044820152606401610536565b6001600160a01b03821660009081526003602052604081208054600192906113f7908490611e24565b909155505060008181526002602052604080822080546001600160a01b0319166001600160a01b03861690811790915590518392907fddf252ad1be2c89b69c2b068fc378daa952ba7f163c4a11628f55a4df523b3ef908290a45050565b816001600160a01b0316836001600160a01b031614156114b75760405162461bcd60e51b815260206004820152601960248201527f4552433732313a20617070726f766520746f2063616c6c6572000000000000006044820152606401610536565b6001600160a01b03838116600081815260056020908152604080832094871680845294825291829020805460ff191686151590811790915591519182527f17307eab39ab6107e8899845ad3d59bd9653f200f220920489ca2b5937696c31910160405180910390a3505050565b61152f848484611125565b61153b84848484611671565b610c105760405162461bcd60e51b815260040161053690611d23565b60608161157b5750506040805180820190915260018152600360fc1b602082015290565b8160005b81156115a5578061158f81611fdb565b915061159e9050600a83611e3c565b915061157f565b60008167ffffffffffffffff8111156115ce57634e487b7160e01b600052604160045260246000fd5b6040519080825280601f01601f1916602001820160405280156115f8576020820181803683370190505b5090505b841561111d5761160d600183611f5d565b915061161a600a86611ff6565b611625906030611e24565b60f81b81838151811061164857634e487b7160e01b600052603260045260246000fd5b60200101906001600160f81b031916908160001a90535061166a600a86611e3c565b94506115fc565b60006001600160a01b0384163b1561177357604051630a85bd0160e11b81526001600160a01b0385169063150b7a02906116b5903390899088908890600401611bec565b602060405180830381600087803b1580156116cf57600080fd5b505af19250505080156116ff575060408051601f3d908101601f191682019092526116fc91810190611ac6565b60015b611759573d80801561172d576040519150601f19603f3d011682016040523d82523d6000602084013e611732565b606091505b5080516117515760405162461bcd60e51b815260040161053690611d23565b805181602001fd5b6001600160e01b031916630a85bd0160e11b14905061111d565b506001949350505050565b82805461178a90611fa0565b90600052602060002090601f0160209004810192826117ac57600085556117f2565b82601f106117c557805160ff19168380011785556117f2565b828001600101855582156117f2579182015b828111156117f25782518255916020019190600101906117d7565b506117fe929150611802565b5090565b5b808211156117fe5760008155600101611803565b600067ffffffffffffffff8084111561183257611832612036565b604051601f8501601f19908116603f0116810190828211818310171561185a5761185a612036565b8160405280935085815286868601111561187357600080fd5b858560208301376000602087830101525050509392505050565b80356001600160a01b03811681146118a457600080fd5b919050565b6000608082840312156118ba578081fd5b6118c2611dfb565b9050813581526020820135600381106118da57600080fd5b6020820152604082013567ffffffffffffffff8111156118f957600080fd5b8201601f8101841361190a57600080fd5b61191984823560208401611817565b6040830152506060820135606082015292915050565b600060208284031215611940578081fd5b610cf78261188d565b6000806040838503121561195b578081fd5b6119648361188d565b91506119726020840161188d565b90509250929050565b60008060006060848603121561198f578081fd5b6119988461188d565b92506119a66020850161188d565b9150604084013590509250925092565b600080600080608085870312156119cb578081fd5b6119d48561188d565b93506119e26020860161188d565b925060408501359150606085013567ffffffffffffffff811115611a04578182fd5b8501601f81018713611a14578182fd5b611a2387823560208401611817565b91505092959194509250565b60008060408385031215611a41578182fd5b611a4a8361188d565b91506020830135611a5a8161204c565b809150509250929050565b60008060408385031215611a77578182fd5b611a808361188d565b946020939093013593505050565b600060208284031215611a9f578081fd5b8151610cf78161204c565b600060208284031215611abb578081fd5b8135610cf78161205a565b600060208284031215611ad7578081fd5b8151610cf78161205a565b600060208284031215611af3578081fd5b813567ffffffffffffffff811115611b09578182fd5b61111d848285016118a9565b60008060408385031215611b27578182fd5b823567ffffffffffffffff811115611b3d578283fd5b611b49858286016118a9565b9250506119726020840161188d565b600060208284031215611b69578081fd5b5035919050565b600060208284031215611b81578081fd5b815160ff81168114610cf7578182fd5b60008151808452611ba9816020860160208601611f74565b601f01601f19169290920160200192915050565b60008351611bcf818460208801611f74565b835190830190611be3818360208801611f74565b01949350505050565b6001600160a01b0385811682528416602082015260408101839052608060608201819052600090611c1f90830184611b91565b9695505050505050565b6040808252835182820181905260009190606090818501906020808901865b83811015611c6d5781516001600160a01b031685529382019390820190600101611c48565b50508683038188015287518084528184019250600581901b84018201898301885b83811015611cff57601f1987840301865281516080815185528682015160038110611cc757634e487b7160e01b8d52602160045260248dfd5b85880152818b01518b8601829052611ce182870182611b91565b928b0151958b01959095525095850195925090840190600101611c8e565b50909b9a5050505050505050505050565b602081526000610cf76020830184611b91565b60208082526032908201527f4552433732313a207472616e7366657220746f206e6f6e20455243373231526560408201527131b2b4bb32b91034b6b83632b6b2b73a32b960711b606082015260800190565b6020808252818101527f4f776e61626c653a2063616c6c6572206973206e6f7420746865206f776e6572604082015260600190565b60208082526031908201527f4552433732313a207472616e736665722063616c6c6572206973206e6f74206f6040820152701ddb995c881b9bdc88185c1c1c9bdd9959607a1b606082015260800190565b6040516080810167ffffffffffffffff81118282101715611e1e57611e1e612036565b60405290565b60008219821115611e3757611e3761200a565b500190565b600082611e4b57611e4b612020565b500490565b600181815b80851115611e8b578160001904821115611e7157611e7161200a565b80851615611e7e57918102915b93841c9390800290611e55565b509250929050565b6000610cf760ff841683600082611eac57506001610429565b81611eb957506000610429565b8160018114611ecf5760028114611ed957611ef5565b6001915050610429565b60ff841115611eea57611eea61200a565b50506001821b610429565b5060208310610133831016604e8410600b8410161715611f18575081810a610429565b611f228383611e50565b8060001904821115611f3657611f3661200a565b029392505050565b6000816000190483118215151615611f5857611f5861200a565b500290565b600082821015611f6f57611f6f61200a565b500390565b60005b83811015611f8f578181015183820152602001611f77565b83811115610c105750506000910152565b600181811c90821680611fb457607f821691505b60208210811415611fd557634e487b7160e01b600052602260045260246000fd5b50919050565b6000600019821415611fef57611fef61200a565b5060010190565b60008261200557612005612020565b500690565b634e487b7160e01b600052601160045260246000fd5b634e487b7160e01b600052601260045260246000fd5b634e487b7160e01b600052604160045260246000fd5b801515811461092957600080fd5b6001600160e01b03198116811461092957600080fdfea264697066735822122036a22ce48398f6e816249f82a123a95ebd4644a60eb8892d6220048db6a92fab64736f6c63430008040033",
  "immutableReferences": {},
  "source": "// SPDX-License-Identifier: MIT\r\npragma solidity ^0.8.0;\r\n\r\nimport '@openzeppelin/contracts/token/ERC721/ERC721.sol';\r\nimport '@openzeppelin/contracts/access/Ownable.sol';\r\nimport './Token.sol';\r\n\r\nenum LandType { NFT, PARK, ROAD }\r\n\r\ncontract World is ERC721, Ownable {\r\n    struct Land {\r\n        uint256 tokenId;\r\n        LandType landType;\r\n        string game;\r\n        uint256 price;\r\n    }\r\n\r\n    Token private token;\r\n    uint256 private numOfTokens;\r\n\r\n    mapping(uint256 => Land) private lands;\r\n\r\n    constructor(Token _token) ERC721('Land', 'LAND') Ownable() {\r\n        token = _token;\r\n        numOfTokens = 0;\r\n    }\r\n\r\n    function mint(Land memory land) public onlyOwner {\r\n        numOfTokens = land.tokenId;\r\n        _mint(msg.sender, land.tokenId);\r\n        setLand(land);\r\n    }\r\n\r\n    function getTokensCount() public view returns (uint256) {\r\n        return numOfTokens;\r\n    }\r\n\r\n    function getMap() public view returns (address[] memory, Land[] memory) {\r\n        address[] memory owners = new address[](numOfTokens);\r\n        Land[] memory map = new Land[](numOfTokens);\r\n\r\n        for (uint256 i = 0; i < numOfTokens; i++) {\r\n            owners[i] = ownerOf(i + 1);\r\n            map[i] = lands[i + 1];\r\n        }\r\n\r\n        return (owners, map);\r\n    }\r\n\r\n    function setLand(Land memory land) public {\r\n        require(_exists(land.tokenId), 'Land set of nonexistent token');\r\n        require(land.price >= 0, 'Land price cannot be negative number');\r\n\r\n        lands[land.tokenId] = land;\r\n    }\r\n\r\n    function transferLand(Land memory land, address to) public payable returns (bool) {\r\n        require(land.landType == LandType.NFT, 'Only NFT lands can be transfer');\r\n        require(msg.sender != to, 'You cannot transfer land to yourself');\r\n\r\n        token.transferFrom(to, msg.sender, land.price * (10 ** token.decimals()));\r\n        _transfer(msg.sender, to, land.tokenId);\r\n\r\n        return true;\r\n    }\r\n}",
  "sourcePath": "C:\\Users\\elads\\Documents\\\\ \\ \\\\\\Final Project\\contracts\\World.sol",
  "compiler": {
    "name": "solc",
    "version": "0.8.4+commit.c7e474f2.Emscripten.clang"
  },
  "schemaVersion": "3.4.4",
  "updatedAt": "2022-02-21T19:08:03.413Z",
  "devdoc": {
    "kind": "dev",
    "methods": {
      "approve(address,uint256)": {
        "details": "See {IERC721-approve}."
      },
      "balanceOf(address)": {
        "details": "See {IERC721-balanceOf}."
      },
      "getApproved(uint256)": {
        "details": "See {IERC721-getApproved}."
      },
      "isApprovedForAll(address,address)": {
        "details": "See {IERC721-isApprovedForAll}."
      },
      "name()": {
        "details": "See {IERC721Metadata-name}."
      },
      "owner()": {
        "details": "Returns the address of the current owner."
      },
      "ownerOf(uint256)": {
        "details": "See {IERC721-ownerOf}."
      },
      "renounceOwnership()": {
        "details": "Leaves the contract without owner. It will not be possible to call `onlyOwner` functions anymore. Can only be called by the current owner. NOTE: Renouncing ownership will leave the contract without an owner, thereby removing any functionality that is only available to the owner."
      },
      "safeTransferFrom(address,address,uint256)": {
        "details": "See {IERC721-safeTransferFrom}."
      },
      "safeTransferFrom(address,address,uint256,bytes)": {
        "details": "See {IERC721-safeTransferFrom}."
      },
      "setApprovalForAll(address,bool)": {
        "details": "See {IERC721-setApprovalForAll}."
      },
      "supportsInterface(bytes4)": {
        "details": "See {IERC165-supportsInterface}."
      },
      "symbol()": {
        "details": "See {IERC721Metadata-symbol}."
      },
      "tokenURI(uint256)": {
        "details": "See {IERC721Metadata-tokenURI}."
      },
      "transferFrom(address,address,uint256)": {
        "details": "See {IERC721-transferFrom}."
      },
      "transferOwnership(address)": {
        "details": "Transfers ownership of the contract to a new account (`newOwner`). Can only be called by the current owner."
      }
    },
    "version": 1
  },
  "userdoc": {
    "kind": "user",
    "methods": {},
    "version": 1
  }
}