{
  "contractName": "World",
  "abi": [
    {
      "inputs": [
        {
          "internalType": "contract Token",
          "name": "_token",
          "type": "address"
        }
      ],
      "stateMutability": "nonpayable",
      "type": "constructor"
    },
    {
      "anonymous": false,
      "inputs": [
        {
          "indexed": true,
          "internalType": "address",
          "name": "owner",
          "type": "address"
        },
        {
          "indexed": true,
          "internalType": "address",
          "name": "approved",
          "type": "address"
        },
        {
          "indexed": true,
          "internalType": "uint256",
          "name": "tokenId",
          "type": "uint256"
        }
      ],
      "name": "Approval",
      "type": "event"
    },
    {
      "anonymous": false,
      "inputs": [
        {
          "indexed": true,
          "internalType": "address",
          "name": "owner",
          "type": "address"
        },
        {
          "indexed": true,
          "internalType": "address",
          "name": "operator",
          "type": "address"
        },
        {
          "indexed": false,
          "internalType": "bool",
          "name": "approved",
          "type": "bool"
        }
      ],
      "name": "ApprovalForAll",
      "type": "event"
    },
    {
      "anonymous": false,
      "inputs": [
        {
          "indexed": true,
          "internalType": "address",
          "name": "previousOwner",
          "type": "address"
        },
        {
          "indexed": true,
          "internalType": "address",
          "name": "newOwner",
          "type": "address"
        }
      ],
      "name": "OwnershipTransferred",
      "type": "event"
    },
    {
      "anonymous": false,
      "inputs": [
        {
          "indexed": true,
          "internalType": "address",
          "name": "from",
          "type": "address"
        },
        {
          "indexed": true,
          "internalType": "address",
          "name": "to",
          "type": "address"
        },
        {
          "indexed": true,
          "internalType": "uint256",
          "name": "tokenId",
          "type": "uint256"
        }
      ],
      "name": "Transfer",
      "type": "event"
    },
    {
      "inputs": [
        {
          "internalType": "address",
          "name": "to",
          "type": "address"
        },
        {
          "internalType": "uint256",
          "name": "tokenId",
          "type": "uint256"
        }
      ],
      "name": "approve",
      "outputs": [],
      "stateMutability": "nonpayable",
      "type": "function"
    },
    {
      "inputs": [
        {
          "internalType": "address",
          "name": "owner",
          "type": "address"
        }
      ],
      "name": "balanceOf",
      "outputs": [
        {
          "internalType": "uint256",
          "name": "",
          "type": "uint256"
        }
      ],
      "stateMutability": "view",
      "type": "function",
      "constant": true
    },
    {
      "inputs": [
        {
          "internalType": "uint256",
          "name": "tokenId",
          "type": "uint256"
        }
      ],
      "name": "getApproved",
      "outputs": [
        {
          "internalType": "address",
          "name": "",
          "type": "address"
        }
      ],
      "stateMutability": "view",
      "type": "function",
      "constant": true
    },
    {
      "inputs": [
        {
          "internalType": "address",
          "name": "owner",
          "type": "address"
        },
        {
          "internalType": "address",
          "name": "operator",
          "type": "address"
        }
      ],
      "name": "isApprovedForAll",
      "outputs": [
        {
          "internalType": "bool",
          "name": "",
          "type": "bool"
        }
      ],
      "stateMutability": "view",
      "type": "function",
      "constant": true
    },
    {
      "inputs": [],
      "name": "name",
      "outputs": [
        {
          "internalType": "string",
          "name": "",
          "type": "string"
        }
      ],
      "stateMutability": "view",
      "type": "function",
      "constant": true
    },
    {
      "inputs": [],
      "name": "owner",
      "outputs": [
        {
          "internalType": "address",
          "name": "",
          "type": "address"
        }
      ],
      "stateMutability": "view",
      "type": "function",
      "constant": true
    },
    {
      "inputs": [
        {
          "internalType": "uint256",
          "name": "tokenId",
          "type": "uint256"
        }
      ],
      "name": "ownerOf",
      "outputs": [
        {
          "internalType": "address",
          "name": "",
          "type": "address"
        }
      ],
      "stateMutability": "view",
      "type": "function",
      "constant": true
    },
    {
      "inputs": [],
      "name": "renounceOwnership",
      "outputs": [],
      "stateMutability": "nonpayable",
      "type": "function"
    },
    {
      "inputs": [
        {
          "internalType": "address",
          "name": "from",
          "type": "address"
        },
        {
          "internalType": "address",
          "name": "to",
          "type": "address"
        },
        {
          "internalType": "uint256",
          "name": "tokenId",
          "type": "uint256"
        }
      ],
      "name": "safeTransferFrom",
      "outputs": [],
      "stateMutability": "nonpayable",
      "type": "function"
    },
    {
      "inputs": [
        {
          "internalType": "address",
          "name": "from",
          "type": "address"
        },
        {
          "internalType": "address",
          "name": "to",
          "type": "address"
        },
        {
          "internalType": "uint256",
          "name": "tokenId",
          "type": "uint256"
        },
        {
          "internalType": "bytes",
          "name": "_data",
          "type": "bytes"
        }
      ],
      "name": "safeTransferFrom",
      "outputs": [],
      "stateMutability": "nonpayable",
      "type": "function"
    },
    {
      "inputs": [
        {
          "internalType": "address",
          "name": "operator",
          "type": "address"
        },
        {
          "internalType": "bool",
          "name": "approved",
          "type": "bool"
        }
      ],
      "name": "setApprovalForAll",
      "outputs": [],
      "stateMutability": "nonpayable",
      "type": "function"
    },
    {
      "inputs": [
        {
          "internalType": "bytes4",
          "name": "interfaceId",
          "type": "bytes4"
        }
      ],
      "name": "supportsInterface",
      "outputs": [
        {
          "internalType": "bool",
          "name": "",
          "type": "bool"
        }
      ],
      "stateMutability": "view",
      "type": "function",
      "constant": true
    },
    {
      "inputs": [],
      "name": "symbol",
      "outputs": [
        {
          "internalType": "string",
          "name": "",
          "type": "string"
        }
      ],
      "stateMutability": "view",
      "type": "function",
      "constant": true
    },
    {
      "inputs": [
        {
          "internalType": "uint256",
          "name": "tokenId",
          "type": "uint256"
        }
      ],
      "name": "tokenURI",
      "outputs": [
        {
          "internalType": "string",
          "name": "",
          "type": "string"
        }
      ],
      "stateMutability": "view",
      "type": "function",
      "constant": true
    },
    {
      "inputs": [
        {
          "internalType": "address",
          "name": "from",
          "type": "address"
        },
        {
          "internalType": "address",
          "name": "to",
          "type": "address"
        },
        {
          "internalType": "uint256",
          "name": "tokenId",
          "type": "uint256"
        }
      ],
      "name": "transferFrom",
      "outputs": [],
      "stateMutability": "nonpayable",
      "type": "function"
    },
    {
      "inputs": [
        {
          "internalType": "address",
          "name": "newOwner",
          "type": "address"
        }
      ],
      "name": "transferOwnership",
      "outputs": [],
      "stateMutability": "nonpayable",
      "type": "function"
    },
    {
      "inputs": [
        {
          "internalType": "uint256",
          "name": "tokenId",
          "type": "uint256"
        },
        {
          "internalType": "string",
          "name": "tokenURI",
          "type": "string"
        }
      ],
      "name": "mint",
      "outputs": [],
      "stateMutability": "nonpayable",
      "type": "function"
    },
    {
      "inputs": [],
      "name": "getTokensCount",
      "outputs": [
        {
          "internalType": "uint256",
          "name": "",
          "type": "uint256"
        }
      ],
      "stateMutability": "view",
      "type": "function",
      "constant": true
    },
    {
      "inputs": [],
      "name": "getMap",
      "outputs": [
        {
          "internalType": "address[]",
          "name": "",
          "type": "address[]"
        },
        {
          "internalType": "string[]",
          "name": "",
          "type": "string[]"
        }
      ],
      "stateMutability": "view",
      "type": "function",
      "constant": true
    },
    {
      "inputs": [
        {
          "internalType": "uint256",
          "name": "tokenId",
          "type": "uint256"
        },
        {
          "internalType": "uint256",
          "name": "price",
          "type": "uint256"
        },
        {
          "internalType": "address",
          "name": "to",
          "type": "address"
        }
      ],
      "name": "sellLand",
      "outputs": [
        {
          "internalType": "bool",
          "name": "",
          "type": "bool"
        }
      ],
      "stateMutability": "payable",
      "type": "function",
      "payable": true
    },
    {
      "inputs": [
        {
          "internalType": "uint256",
          "name": "tokenId",
          "type": "uint256"
        },
        {
          "internalType": "string",
          "name": "tokenURI",
          "type": "string"
        }
      ],
      "name": "updateLand",
      "outputs": [],
      "stateMutability": "nonpayable",
      "type": "function"
    }
  ],
  "bytecode": "0x60806040523480156200001157600080fd5b5060405162001ec838038062001ec88339810160408190526200003491620001e0565b6040518060400160405280600481526020016313185b9960e21b815250604051806040016040528060048152602001631310539160e21b8152508160009080519060200190620000869291906200013a565b5080516200009c9060019060208401906200013a565b505050620000b9620000b3620000e460201b60201c565b620000e8565b600880546001600160a01b0319166001600160a01b039290921691909117905560006009556200024d565b3390565b600780546001600160a01b038381166001600160a01b0319831681179093556040519116919082907f8be0079c531659141344cd1fd0a4f28419497f9722a3daafe3b4186f6b6457e090600090a35050565b828054620001489062000210565b90600052602060002090601f0160209004810192826200016c5760008555620001b7565b82601f106200018757805160ff1916838001178555620001b7565b82800160010185558215620001b7579182015b82811115620001b75782518255916020019190600101906200019a565b50620001c5929150620001c9565b5090565b5b80821115620001c55760008155600101620001ca565b600060208284031215620001f2578081fd5b81516001600160a01b038116811462000209578182fd5b9392505050565b600181811c908216806200022557607f821691505b602082108114156200024757634e487b7160e01b600052602260045260246000fd5b50919050565b611c6b806200025d6000396000f3fe60806040526004361061012a5760003560e01c806377097fc8116100ab578063ad3de14c1161006f578063ad3de14c14610327578063b88d4fde1461034a578063ba789bd61461036a578063c87b56dd1461037d578063e985e9c51461039d578063f2fde38b146103e657600080fd5b806377097fc8146102945780638da5cb5b146102b457806395d89b41146102d2578063a18f7d98146102e7578063a22cb4651461030757600080fd5b80633962f82d116100f25780633962f82d1461020057806342842e0e1461021f5780636352211e1461023f57806370a082311461025f578063715018a61461027f57600080fd5b806301ffc9a71461012f57806306fdde0314610164578063081812fc14610186578063095ea7b3146101be57806323b872dd146101e0575b600080fd5b34801561013b57600080fd5b5061014f61014a366004611805565b610406565b60405190151581526020015b60405180910390f35b34801561017057600080fd5b50610179610458565b60405161015b9190611a19565b34801561019257600080fd5b506101a66101a136600461183d565b6104ea565b6040516001600160a01b03909116815260200161015b565b3480156101ca57600080fd5b506101de6101d93660046117dc565b610577565b005b3480156101ec57600080fd5b506101de6101fb3660046116ee565b61068d565b34801561020c57600080fd5b506009545b60405190815260200161015b565b34801561022b57600080fd5b506101de61023a3660046116ee565b6106be565b34801561024b57600080fd5b506101a661025a36600461183d565b6106d9565b34801561026b57600080fd5b5061021161027a3660046116a2565b610750565b34801561028b57600080fd5b506101de6107d7565b3480156102a057600080fd5b506101de6102af366004611855565b61080d565b3480156102c057600080fd5b506007546001600160a01b03166101a6565b3480156102de57600080fd5b50610179610854565b3480156102f357600080fd5b506101de610302366004611855565b610863565b34801561031357600080fd5b506101de6103223660046117a2565b610889565b34801561033357600080fd5b5061033c610894565b60405161015b929190611979565b34801561035657600080fd5b506101de610365366004611729565b6109f8565b61014f6103783660046118ad565b610a30565b34801561038957600080fd5b5061017961039836600461183d565b610a47565b3480156103a957600080fd5b5061014f6103b83660046116bc565b6001600160a01b03918216600090815260056020908152604080832093909416825291909152205460ff1690565b3480156103f257600080fd5b506101de6104013660046116a2565b610bbe565b60006001600160e01b031982166380ac58cd60e01b148061043757506001600160e01b03198216635b5e139f60e01b145b8061045257506301ffc9a760e01b6001600160e01b03198316145b92915050565b60606000805461046790611b73565b80601f016020809104026020016040519081016040528092919081815260200182805461049390611b73565b80156104e05780601f106104b5576101008083540402835291602001916104e0565b820191906000526020600020905b8154815290600101906020018083116104c357829003601f168201915b5050505050905090565b60006104f582610c59565b61055b5760405162461bcd60e51b815260206004820152602c60248201527f4552433732313a20617070726f76656420717565727920666f72206e6f6e657860448201526b34b9ba32b73a103a37b5b2b760a11b60648201526084015b60405180910390fd5b506000908152600460205260409020546001600160a01b031690565b6000610582826106d9565b9050806001600160a01b0316836001600160a01b031614156105f05760405162461bcd60e51b815260206004820152602160248201527f4552433732313a20617070726f76616c20746f2063757272656e74206f776e656044820152603960f91b6064820152608401610552565b336001600160a01b038216148061060c575061060c81336103b8565b61067e5760405162461bcd60e51b815260206004820152603860248201527f4552433732313a20617070726f76652063616c6c6572206973206e6f74206f7760448201527f6e6572206e6f7220617070726f76656420666f7220616c6c00000000000000006064820152608401610552565b6106888383610c76565b505050565b6106973382610ce4565b6106b35760405162461bcd60e51b815260040161055290611ab3565b610688838383610dca565b610688838383604051806020016040528060008152506109f8565b6000818152600260205260408120546001600160a01b0316806104525760405162461bcd60e51b815260206004820152602960248201527f4552433732313a206f776e657220717565727920666f72206e6f6e657869737460448201526832b73a103a37b5b2b760b91b6064820152608401610552565b60006001600160a01b0382166107bb5760405162461bcd60e51b815260206004820152602a60248201527f4552433732313a2062616c616e636520717565727920666f7220746865207a65604482015269726f206164647265737360b01b6064820152608401610552565b506001600160a01b031660009081526003602052604090205490565b6007546001600160a01b031633146108015760405162461bcd60e51b815260040161055290611a7e565b61080b6000610f66565b565b6007546001600160a01b031633146108375760405162461bcd60e51b815260040161055290611a7e565b60098290556108463383610fb8565b61085082826110eb565b5050565b60606001805461046790611b73565b61086c826106d9565b6001600160a01b0316336001600160a01b03161461084657600080fd5b610850338383611176565b606080600060095467ffffffffffffffff8111156108c257634e487b7160e01b600052604160045260246000fd5b6040519080825280602002602001820160405280156108eb578160200160208202803683370190505b509050600060095467ffffffffffffffff81111561091957634e487b7160e01b600052604160045260246000fd5b60405190808252806020026020018201604052801561094c57816020015b60608152602001906001900390816109375790505b50905060005b6009548110156109ee5761096a61025a826001611b04565b83828151811061098a57634e487b7160e01b600052603260045260246000fd5b6001600160a01b03909216602092830291909101909101526109b0610398826001611b04565b8282815181106109d057634e487b7160e01b600052603260045260246000fd5b602002602001018190525080806109e690611bae565b915050610952565b5090939092509050565b610a023383610ce4565b610a1e5760405162461bcd60e51b815260040161055290611ab3565b610a2a84848484611245565b50505050565b6000610a3d338386610dca565b5060019392505050565b6060610a5282610c59565b610ab85760405162461bcd60e51b815260206004820152603160248201527f45524337323155524953746f726167653a2055524920717565727920666f72206044820152703737b732bc34b9ba32b73a103a37b5b2b760791b6064820152608401610552565b60008281526006602052604081208054610ad190611b73565b80601f0160208091040260200160405190810160405280929190818152602001828054610afd90611b73565b8015610b4a5780601f10610b1f57610100808354040283529160200191610b4a565b820191906000526020600020905b815481529060010190602001808311610b2d57829003601f168201915b505050505090506000610b6860408051602081019091526000815290565b9050805160001415610b7b575092915050565b815115610bad578082604051602001610b9592919061190d565b60405160208183030381529060405292505050919050565b610bb684611278565b949350505050565b6007546001600160a01b03163314610be85760405162461bcd60e51b815260040161055290611a7e565b6001600160a01b038116610c4d5760405162461bcd60e51b815260206004820152602660248201527f4f776e61626c653a206e6577206f776e657220697320746865207a65726f206160448201526564647265737360d01b6064820152608401610552565b610c5681610f66565b50565b6000908152600260205260409020546001600160a01b0316151590565b600081815260046020526040902080546001600160a01b0319166001600160a01b0384169081179091558190610cab826106d9565b6001600160a01b03167f8c5be1e5ebec7d5bd14f71427d1e84f3dd0314c0f7b2291e5b200ac8c7c3b92560405160405180910390a45050565b6000610cef82610c59565b610d505760405162461bcd60e51b815260206004820152602c60248201527f4552433732313a206f70657261746f7220717565727920666f72206e6f6e657860448201526b34b9ba32b73a103a37b5b2b760a11b6064820152608401610552565b6000610d5b836106d9565b9050806001600160a01b0316846001600160a01b03161480610d965750836001600160a01b0316610d8b846104ea565b6001600160a01b0316145b80610bb657506001600160a01b0380821660009081526005602090815260408083209388168352929052205460ff16610bb6565b826001600160a01b0316610ddd826106d9565b6001600160a01b031614610e415760405162461bcd60e51b815260206004820152602560248201527f4552433732313a207472616e736665722066726f6d20696e636f72726563742060448201526437bbb732b960d91b6064820152608401610552565b6001600160a01b038216610ea35760405162461bcd60e51b8152602060048201526024808201527f4552433732313a207472616e7366657220746f20746865207a65726f206164646044820152637265737360e01b6064820152608401610552565b610eae600082610c76565b6001600160a01b0383166000908152600360205260408120805460019290610ed7908490611b30565b90915550506001600160a01b0382166000908152600360205260408120805460019290610f05908490611b04565b909155505060008181526002602052604080822080546001600160a01b0319166001600160a01b0386811691821790925591518493918716917fddf252ad1be2c89b69c2b068fc378daa952ba7f163c4a11628f55a4df523b3ef91a4505050565b600780546001600160a01b038381166001600160a01b0319831681179093556040519116919082907f8be0079c531659141344cd1fd0a4f28419497f9722a3daafe3b4186f6b6457e090600090a35050565b6001600160a01b03821661100e5760405162461bcd60e51b815260206004820181905260248201527f4552433732313a206d696e7420746f20746865207a65726f20616464726573736044820152606401610552565b61101781610c59565b156110645760405162461bcd60e51b815260206004820152601c60248201527f4552433732313a20746f6b656e20616c7265616479206d696e746564000000006044820152606401610552565b6001600160a01b038216600090815260036020526040812080546001929061108d908490611b04565b909155505060008181526002602052604080822080546001600160a01b0319166001600160a01b03861690811790915590518392907fddf252ad1be2c89b69c2b068fc378daa952ba7f163c4a11628f55a4df523b3ef908290a45050565b6110f482610c59565b6111575760405162461bcd60e51b815260206004820152602e60248201527f45524337323155524953746f726167653a2055524920736574206f66206e6f6e60448201526d32bc34b9ba32b73a103a37b5b2b760911b6064820152608401610552565b6000828152600660209081526040909120825161068892840190611577565b816001600160a01b0316836001600160a01b031614156111d85760405162461bcd60e51b815260206004820152601960248201527f4552433732313a20617070726f766520746f2063616c6c6572000000000000006044820152606401610552565b6001600160a01b03838116600081815260056020908152604080832094871680845294825291829020805460ff191686151590811790915591519182527f17307eab39ab6107e8899845ad3d59bd9653f200f220920489ca2b5937696c31910160405180910390a3505050565b611250848484610dca565b61125c84848484611350565b610a2a5760405162461bcd60e51b815260040161055290611a2c565b606061128382610c59565b6112e75760405162461bcd60e51b815260206004820152602f60248201527f4552433732314d657461646174613a2055524920717565727920666f72206e6f60448201526e3732bc34b9ba32b73a103a37b5b2b760891b6064820152608401610552565b60006112fe60408051602081019091526000815290565b9050600081511161131e5760405180602001604052806000815250611349565b806113288461145d565b60405160200161133992919061190d565b6040516020818303038152906040525b9392505050565b60006001600160a01b0384163b1561145257604051630a85bd0160e11b81526001600160a01b0385169063150b7a029061139490339089908890889060040161193c565b602060405180830381600087803b1580156113ae57600080fd5b505af19250505080156113de575060408051601f3d908101601f191682019092526113db91810190611821565b60015b611438573d80801561140c576040519150601f19603f3d011682016040523d82523d6000602084013e611411565b606091505b5080516114305760405162461bcd60e51b815260040161055290611a2c565b805181602001fd5b6001600160e01b031916630a85bd0160e11b149050610bb6565b506001949350505050565b6060816114815750506040805180820190915260018152600360fc1b602082015290565b8160005b81156114ab578061149581611bae565b91506114a49050600a83611b1c565b9150611485565b60008167ffffffffffffffff8111156114d457634e487b7160e01b600052604160045260246000fd5b6040519080825280601f01601f1916602001820160405280156114fe576020820181803683370190505b5090505b8415610bb657611513600183611b30565b9150611520600a86611bc9565b61152b906030611b04565b60f81b81838151811061154e57634e487b7160e01b600052603260045260246000fd5b60200101906001600160f81b031916908160001a905350611570600a86611b1c565b9450611502565b82805461158390611b73565b90600052602060002090601f0160209004810192826115a557600085556115eb565b82601f106115be57805160ff19168380011785556115eb565b828001600101855582156115eb579182015b828111156115eb5782518255916020019190600101906115d0565b506115f79291506115fb565b5090565b5b808211156115f757600081556001016115fc565b600067ffffffffffffffff8084111561162b5761162b611c09565b604051601f8501601f19908116603f0116810190828211818310171561165357611653611c09565b8160405280935085815286868601111561166c57600080fd5b858560208301376000602087830101525050509392505050565b80356001600160a01b038116811461169d57600080fd5b919050565b6000602082840312156116b3578081fd5b61134982611686565b600080604083850312156116ce578081fd5b6116d783611686565b91506116e560208401611686565b90509250929050565b600080600060608486031215611702578081fd5b61170b84611686565b925061171960208501611686565b9150604084013590509250925092565b6000806000806080858703121561173e578081fd5b61174785611686565b935061175560208601611686565b925060408501359150606085013567ffffffffffffffff811115611777578182fd5b8501601f81018713611787578182fd5b61179687823560208401611610565b91505092959194509250565b600080604083850312156117b4578182fd5b6117bd83611686565b9150602083013580151581146117d1578182fd5b809150509250929050565b600080604083850312156117ee578182fd5b6117f783611686565b946020939093013593505050565b600060208284031215611816578081fd5b813561134981611c1f565b600060208284031215611832578081fd5b815161134981611c1f565b60006020828403121561184e578081fd5b5035919050565b60008060408385031215611867578182fd5b82359150602083013567ffffffffffffffff811115611884578182fd5b8301601f81018513611894578182fd5b6118a385823560208401611610565b9150509250929050565b6000806000606084860312156118c1578283fd5b83359250602084013591506118d860408501611686565b90509250925092565b600081518084526118f9816020860160208601611b47565b601f01601f19169290920160200192915050565b6000835161191f818460208801611b47565b835190830190611933818360208801611b47565b01949350505050565b6001600160a01b038581168252841660208201526040810183905260806060820181905260009061196f908301846118e1565b9695505050505050565b604080825283519082018190526000906020906060840190828701845b828110156119bb5781516001600160a01b031684529284019290840190600101611996565b50505083810382850152845180825282820190600581901b83018401878501865b83811015611a0a57601f198684030185526119f88383516118e1565b948701949250908601906001016119dc565b50909998505050505050505050565b60208152600061134960208301846118e1565b60208082526032908201527f4552433732313a207472616e7366657220746f206e6f6e20455243373231526560408201527131b2b4bb32b91034b6b83632b6b2b73a32b960711b606082015260800190565b6020808252818101527f4f776e61626c653a2063616c6c6572206973206e6f7420746865206f776e6572604082015260600190565b60208082526031908201527f4552433732313a207472616e736665722063616c6c6572206973206e6f74206f6040820152701ddb995c881b9bdc88185c1c1c9bdd9959607a1b606082015260800190565b60008219821115611b1757611b17611bdd565b500190565b600082611b2b57611b2b611bf3565b500490565b600082821015611b4257611b42611bdd565b500390565b60005b83811015611b62578181015183820152602001611b4a565b83811115610a2a5750506000910152565b600181811c90821680611b8757607f821691505b60208210811415611ba857634e487b7160e01b600052602260045260246000fd5b50919050565b6000600019821415611bc257611bc2611bdd565b5060010190565b600082611bd857611bd8611bf3565b500690565b634e487b7160e01b600052601160045260246000fd5b634e487b7160e01b600052601260045260246000fd5b634e487b7160e01b600052604160045260246000fd5b6001600160e01b031981168114610c5657600080fdfea264697066735822122008e733de58588979c7efdfb2ed507d2410ca5c51440922f57c3a3e00c4b1fbc864736f6c63430008040033",
  "immutableReferences": {},
  "source": "// SPDX-License-Identifier: MIT\r\npragma solidity ^0.8.0;\r\n\r\nimport '@openzeppelin/contracts/token/ERC721/extensions/ERC721URIStorage.sol';\r\nimport '@openzeppelin/contracts/access/Ownable.sol';\r\nimport '@openzeppelin/contracts/utils/Counters.sol';\r\nimport './Token.sol';\r\n\r\ncontract World is ERC721URIStorage, Ownable {\r\n    Token token;\r\n    uint256 private numOfTokens;\r\n\r\n    constructor(Token _token) ERC721('Land', 'LAND') Ownable() {\r\n        token = _token;\r\n        numOfTokens = 0;\r\n    }\r\n\r\n    function mint(uint256 tokenId, string memory tokenURI) public onlyOwner {\r\n        numOfTokens = tokenId;\r\n        _mint(msg.sender, tokenId);\r\n        _setTokenURI(tokenId, tokenURI);\r\n    }\r\n\r\n    function getTokensCount() public view returns (uint256) {\r\n        return numOfTokens;\r\n    }\r\n\r\n    function getMap() public view returns (address[] memory, string[] memory) {\r\n        address[] memory owners = new address[](numOfTokens);\r\n        string[] memory map = new string[](numOfTokens);\r\n\r\n        for (uint256 i = 0; i < numOfTokens; i++) {\r\n            owners[i] = ownerOf(i + 1);\r\n            map[i] = tokenURI(i + 1);\r\n        }\r\n\r\n        return (owners, map);\r\n    }\r\n\r\n    function sellLand(uint256 tokenId, uint256 price, address to) public payable returns (bool) {\r\n        /*address ownerOfToken = ownerOf(tokenId);\r\n        token.approve(msg.sender, msg.value * price);\r\n        bool success = token.transferFrom(msg.sender, ownerOfToken, msg.value * price);\r\n\r\n        if (success) {\r\n            setApprovalForAll(msg.sender, true);\r\n            //approve(msg.sender, tokenId);\r\n            transferFrom(ownerOfToken, msg.sender, tokenId);\r\n        }*/\r\n\r\n        _transfer(msg.sender, to, tokenId);\r\n\r\n        return true; //success;\r\n    }\r\n\r\n    function updateLand(uint256 tokenId, string memory tokenURI) public {\r\n        require(msg.sender == ownerOf(tokenId));\r\n        _setTokenURI(tokenId, tokenURI);\r\n    }\r\n}",
  "sourcePath": "C:\\Users\\elads\\Documents\\\\ \\ \\\\\\Final Project\\contracts\\World.sol",
  "compiler": {
    "name": "solc",
    "version": "0.8.4+commit.c7e474f2.Emscripten.clang"
  },
  "schemaVersion": "3.4.4",
  "updatedAt": "2022-02-17T15:30:32.013Z",
  "networkType": "ethereum",
  "devdoc": {
    "kind": "dev",
    "methods": {
      "approve(address,uint256)": {
        "details": "See {IERC721-approve}."
      },
      "balanceOf(address)": {
        "details": "See {IERC721-balanceOf}."
      },
      "getApproved(uint256)": {
        "details": "See {IERC721-getApproved}."
      },
      "isApprovedForAll(address,address)": {
        "details": "See {IERC721-isApprovedForAll}."
      },
      "name()": {
        "details": "See {IERC721Metadata-name}."
      },
      "owner()": {
        "details": "Returns the address of the current owner."
      },
      "ownerOf(uint256)": {
        "details": "See {IERC721-ownerOf}."
      },
      "renounceOwnership()": {
        "details": "Leaves the contract without owner. It will not be possible to call `onlyOwner` functions anymore. Can only be called by the current owner. NOTE: Renouncing ownership will leave the contract without an owner, thereby removing any functionality that is only available to the owner."
      },
      "safeTransferFrom(address,address,uint256)": {
        "details": "See {IERC721-safeTransferFrom}."
      },
      "safeTransferFrom(address,address,uint256,bytes)": {
        "details": "See {IERC721-safeTransferFrom}."
      },
      "setApprovalForAll(address,bool)": {
        "details": "See {IERC721-setApprovalForAll}."
      },
      "supportsInterface(bytes4)": {
        "details": "See {IERC165-supportsInterface}."
      },
      "symbol()": {
        "details": "See {IERC721Metadata-symbol}."
      },
      "tokenURI(uint256)": {
        "details": "See {IERC721Metadata-tokenURI}."
      },
      "transferFrom(address,address,uint256)": {
        "details": "See {IERC721-transferFrom}."
      },
      "transferOwnership(address)": {
        "details": "Transfers ownership of the contract to a new account (`newOwner`). Can only be called by the current owner."
      }
    },
    "version": 1
  },
  "userdoc": {
    "kind": "user",
    "methods": {},
    "version": 1
  }
}