{
  "contractName": "World",
  "abi": [
    {
      "inputs": [
        {
          "internalType": "contract Token",
          "name": "_token",
          "type": "address"
        }
      ],
      "stateMutability": "nonpayable",
      "type": "constructor"
    },
    {
      "anonymous": false,
      "inputs": [
        {
          "indexed": true,
          "internalType": "address",
          "name": "owner",
          "type": "address"
        },
        {
          "indexed": true,
          "internalType": "address",
          "name": "approved",
          "type": "address"
        },
        {
          "indexed": true,
          "internalType": "uint256",
          "name": "tokenId",
          "type": "uint256"
        }
      ],
      "name": "Approval",
      "type": "event"
    },
    {
      "anonymous": false,
      "inputs": [
        {
          "indexed": true,
          "internalType": "address",
          "name": "owner",
          "type": "address"
        },
        {
          "indexed": true,
          "internalType": "address",
          "name": "operator",
          "type": "address"
        },
        {
          "indexed": false,
          "internalType": "bool",
          "name": "approved",
          "type": "bool"
        }
      ],
      "name": "ApprovalForAll",
      "type": "event"
    },
    {
      "anonymous": false,
      "inputs": [
        {
          "indexed": true,
          "internalType": "address",
          "name": "previousOwner",
          "type": "address"
        },
        {
          "indexed": true,
          "internalType": "address",
          "name": "newOwner",
          "type": "address"
        }
      ],
      "name": "OwnershipTransferred",
      "type": "event"
    },
    {
      "anonymous": false,
      "inputs": [
        {
          "indexed": true,
          "internalType": "address",
          "name": "from",
          "type": "address"
        },
        {
          "indexed": true,
          "internalType": "address",
          "name": "to",
          "type": "address"
        },
        {
          "indexed": true,
          "internalType": "uint256",
          "name": "tokenId",
          "type": "uint256"
        }
      ],
      "name": "Transfer",
      "type": "event"
    },
    {
      "inputs": [
        {
          "internalType": "address",
          "name": "to",
          "type": "address"
        },
        {
          "internalType": "uint256",
          "name": "tokenId",
          "type": "uint256"
        }
      ],
      "name": "approve",
      "outputs": [],
      "stateMutability": "nonpayable",
      "type": "function"
    },
    {
      "inputs": [
        {
          "internalType": "address",
          "name": "owner",
          "type": "address"
        }
      ],
      "name": "balanceOf",
      "outputs": [
        {
          "internalType": "uint256",
          "name": "",
          "type": "uint256"
        }
      ],
      "stateMutability": "view",
      "type": "function",
      "constant": true
    },
    {
      "inputs": [
        {
          "internalType": "uint256",
          "name": "tokenId",
          "type": "uint256"
        }
      ],
      "name": "getApproved",
      "outputs": [
        {
          "internalType": "address",
          "name": "",
          "type": "address"
        }
      ],
      "stateMutability": "view",
      "type": "function",
      "constant": true
    },
    {
      "inputs": [
        {
          "internalType": "address",
          "name": "owner",
          "type": "address"
        },
        {
          "internalType": "address",
          "name": "operator",
          "type": "address"
        }
      ],
      "name": "isApprovedForAll",
      "outputs": [
        {
          "internalType": "bool",
          "name": "",
          "type": "bool"
        }
      ],
      "stateMutability": "view",
      "type": "function",
      "constant": true
    },
    {
      "inputs": [],
      "name": "name",
      "outputs": [
        {
          "internalType": "string",
          "name": "",
          "type": "string"
        }
      ],
      "stateMutability": "view",
      "type": "function",
      "constant": true
    },
    {
      "inputs": [],
      "name": "owner",
      "outputs": [
        {
          "internalType": "address",
          "name": "",
          "type": "address"
        }
      ],
      "stateMutability": "view",
      "type": "function",
      "constant": true
    },
    {
      "inputs": [
        {
          "internalType": "uint256",
          "name": "tokenId",
          "type": "uint256"
        }
      ],
      "name": "ownerOf",
      "outputs": [
        {
          "internalType": "address",
          "name": "",
          "type": "address"
        }
      ],
      "stateMutability": "view",
      "type": "function",
      "constant": true
    },
    {
      "inputs": [],
      "name": "renounceOwnership",
      "outputs": [],
      "stateMutability": "nonpayable",
      "type": "function"
    },
    {
      "inputs": [
        {
          "internalType": "address",
          "name": "from",
          "type": "address"
        },
        {
          "internalType": "address",
          "name": "to",
          "type": "address"
        },
        {
          "internalType": "uint256",
          "name": "tokenId",
          "type": "uint256"
        }
      ],
      "name": "safeTransferFrom",
      "outputs": [],
      "stateMutability": "nonpayable",
      "type": "function"
    },
    {
      "inputs": [
        {
          "internalType": "address",
          "name": "from",
          "type": "address"
        },
        {
          "internalType": "address",
          "name": "to",
          "type": "address"
        },
        {
          "internalType": "uint256",
          "name": "tokenId",
          "type": "uint256"
        },
        {
          "internalType": "bytes",
          "name": "_data",
          "type": "bytes"
        }
      ],
      "name": "safeTransferFrom",
      "outputs": [],
      "stateMutability": "nonpayable",
      "type": "function"
    },
    {
      "inputs": [
        {
          "internalType": "address",
          "name": "operator",
          "type": "address"
        },
        {
          "internalType": "bool",
          "name": "approved",
          "type": "bool"
        }
      ],
      "name": "setApprovalForAll",
      "outputs": [],
      "stateMutability": "nonpayable",
      "type": "function"
    },
    {
      "inputs": [
        {
          "internalType": "bytes4",
          "name": "interfaceId",
          "type": "bytes4"
        }
      ],
      "name": "supportsInterface",
      "outputs": [
        {
          "internalType": "bool",
          "name": "",
          "type": "bool"
        }
      ],
      "stateMutability": "view",
      "type": "function",
      "constant": true
    },
    {
      "inputs": [],
      "name": "symbol",
      "outputs": [
        {
          "internalType": "string",
          "name": "",
          "type": "string"
        }
      ],
      "stateMutability": "view",
      "type": "function",
      "constant": true
    },
    {
      "inputs": [
        {
          "internalType": "uint256",
          "name": "tokenId",
          "type": "uint256"
        }
      ],
      "name": "tokenURI",
      "outputs": [
        {
          "internalType": "string",
          "name": "",
          "type": "string"
        }
      ],
      "stateMutability": "view",
      "type": "function",
      "constant": true
    },
    {
      "inputs": [
        {
          "internalType": "address",
          "name": "from",
          "type": "address"
        },
        {
          "internalType": "address",
          "name": "to",
          "type": "address"
        },
        {
          "internalType": "uint256",
          "name": "tokenId",
          "type": "uint256"
        }
      ],
      "name": "transferFrom",
      "outputs": [],
      "stateMutability": "nonpayable",
      "type": "function"
    },
    {
      "inputs": [
        {
          "internalType": "address",
          "name": "newOwner",
          "type": "address"
        }
      ],
      "name": "transferOwnership",
      "outputs": [],
      "stateMutability": "nonpayable",
      "type": "function"
    },
    {
      "inputs": [
        {
          "internalType": "uint256",
          "name": "tokenId",
          "type": "uint256"
        },
        {
          "internalType": "string",
          "name": "tokenURI",
          "type": "string"
        }
      ],
      "name": "mint",
      "outputs": [],
      "stateMutability": "nonpayable",
      "type": "function"
    },
    {
      "inputs": [],
      "name": "getTokensCount",
      "outputs": [
        {
          "internalType": "uint256",
          "name": "",
          "type": "uint256"
        }
      ],
      "stateMutability": "view",
      "type": "function",
      "constant": true
    },
    {
      "inputs": [],
      "name": "getMap",
      "outputs": [
        {
          "internalType": "address[]",
          "name": "",
          "type": "address[]"
        },
        {
          "internalType": "string[]",
          "name": "",
          "type": "string[]"
        }
      ],
      "stateMutability": "view",
      "type": "function",
      "constant": true
    },
    {
      "inputs": [
        {
          "internalType": "uint256",
          "name": "tokenId",
          "type": "uint256"
        },
        {
          "internalType": "string",
          "name": "tokenURI",
          "type": "string"
        }
      ],
      "name": "updateLand",
      "outputs": [],
      "stateMutability": "nonpayable",
      "type": "function"
    }
  ],
  "bytecode": "0x60806040523480156200001157600080fd5b5060405162001d6838038062001d688339810160408190526200003491620001e0565b6040518060400160405280600481526020016313185b9960e21b815250604051806040016040528060048152602001631310539160e21b8152508160009080519060200190620000869291906200013a565b5080516200009c9060019060208401906200013a565b505050620000b9620000b3620000e460201b60201c565b620000e8565b600880546001600160a01b0319166001600160a01b039290921691909117905560006009556200024d565b3390565b600780546001600160a01b038381166001600160a01b0319831681179093556040519116919082907f8be0079c531659141344cd1fd0a4f28419497f9722a3daafe3b4186f6b6457e090600090a35050565b828054620001489062000210565b90600052602060002090601f0160209004810192826200016c5760008555620001b7565b82601f106200018757805160ff1916838001178555620001b7565b82800160010185558215620001b7579182015b82811115620001b75782518255916020019190600101906200019a565b50620001c5929150620001c9565b5090565b5b80821115620001c55760008155600101620001ca565b600060208284031215620001f2578081fd5b81516001600160a01b038116811462000209578182fd5b9392505050565b600181811c908216806200022557607f821691505b602082108114156200024757634e487b7160e01b600052602260045260246000fd5b50919050565b611b0b806200025d6000396000f3fe608060405234801561001057600080fd5b506004361061012c5760003560e01c806377097fc8116100ad578063ad3de14c11610071578063ad3de14c14610266578063b88d4fde1461027c578063c87b56dd1461028f578063e985e9c5146102a2578063f2fde38b146102de57600080fd5b806377097fc8146102145780638da5cb5b1461022757806395d89b4114610238578063a18f7d9814610240578063a22cb4651461025357600080fd5b80633962f82d116100f45780633962f82d146101c157806342842e0e146101d35780636352211e146101e657806370a08231146101f9578063715018a61461020c57600080fd5b806301ffc9a71461013157806306fdde0314610159578063081812fc1461016e578063095ea7b31461019957806323b872dd146101ae575b600080fd5b61014461013f3660046116d9565b6102f1565b60405190151581526020015b60405180910390f35b610161610343565b60405161015091906118b9565b61018161017c366004611711565b6103d5565b6040516001600160a01b039091168152602001610150565b6101ac6101a73660046116b0565b610462565b005b6101ac6101bc3660046115c2565b610578565b6009545b604051908152602001610150565b6101ac6101e13660046115c2565b6105a9565b6101816101f4366004611711565b6105c4565b6101c5610207366004611576565b61063b565b6101ac6106c2565b6101ac610222366004611729565b6106f8565b6007546001600160a01b0316610181565b61016161073f565b6101ac61024e366004611729565b61074e565b6101ac610261366004611676565b610774565b61026e61077f565b604051610150929190611819565b6101ac61028a3660046115fd565b6108e3565b61016161029d366004611711565b61091b565b6101446102b0366004611590565b6001600160a01b03918216600090815260056020908152604080832093909416825291909152205460ff1690565b6101ac6102ec366004611576565b610a92565b60006001600160e01b031982166380ac58cd60e01b148061032257506001600160e01b03198216635b5e139f60e01b145b8061033d57506301ffc9a760e01b6001600160e01b03198316145b92915050565b60606000805461035290611a13565b80601f016020809104026020016040519081016040528092919081815260200182805461037e90611a13565b80156103cb5780601f106103a0576101008083540402835291602001916103cb565b820191906000526020600020905b8154815290600101906020018083116103ae57829003601f168201915b5050505050905090565b60006103e082610b2d565b6104465760405162461bcd60e51b815260206004820152602c60248201527f4552433732313a20617070726f76656420717565727920666f72206e6f6e657860448201526b34b9ba32b73a103a37b5b2b760a11b60648201526084015b60405180910390fd5b506000908152600460205260409020546001600160a01b031690565b600061046d826105c4565b9050806001600160a01b0316836001600160a01b031614156104db5760405162461bcd60e51b815260206004820152602160248201527f4552433732313a20617070726f76616c20746f2063757272656e74206f776e656044820152603960f91b606482015260840161043d565b336001600160a01b03821614806104f757506104f781336102b0565b6105695760405162461bcd60e51b815260206004820152603860248201527f4552433732313a20617070726f76652063616c6c6572206973206e6f74206f7760448201527f6e6572206e6f7220617070726f76656420666f7220616c6c0000000000000000606482015260840161043d565b6105738383610b4a565b505050565b6105823382610bb8565b61059e5760405162461bcd60e51b815260040161043d90611953565b610573838383610c9e565b610573838383604051806020016040528060008152506108e3565b6000818152600260205260408120546001600160a01b03168061033d5760405162461bcd60e51b815260206004820152602960248201527f4552433732313a206f776e657220717565727920666f72206e6f6e657869737460448201526832b73a103a37b5b2b760b91b606482015260840161043d565b60006001600160a01b0382166106a65760405162461bcd60e51b815260206004820152602a60248201527f4552433732313a2062616c616e636520717565727920666f7220746865207a65604482015269726f206164647265737360b01b606482015260840161043d565b506001600160a01b031660009081526003602052604090205490565b6007546001600160a01b031633146106ec5760405162461bcd60e51b815260040161043d9061191e565b6106f66000610e3a565b565b6007546001600160a01b031633146107225760405162461bcd60e51b815260040161043d9061191e565b60098290556107313383610e8c565b61073b8282610fbf565b5050565b60606001805461035290611a13565b610757826105c4565b6001600160a01b0316336001600160a01b03161461073157600080fd5b61073b33838361104a565b606080600060095467ffffffffffffffff8111156107ad57634e487b7160e01b600052604160045260246000fd5b6040519080825280602002602001820160405280156107d6578160200160208202803683370190505b509050600060095467ffffffffffffffff81111561080457634e487b7160e01b600052604160045260246000fd5b60405190808252806020026020018201604052801561083757816020015b60608152602001906001900390816108225790505b50905060005b6009548110156108d9576108556101f48260016119a4565b83828151811061087557634e487b7160e01b600052603260045260246000fd5b6001600160a01b039092166020928302919091019091015261089b61029d8260016119a4565b8282815181106108bb57634e487b7160e01b600052603260045260246000fd5b602002602001018190525080806108d190611a4e565b91505061083d565b5090939092509050565b6108ed3383610bb8565b6109095760405162461bcd60e51b815260040161043d90611953565b61091584848484611119565b50505050565b606061092682610b2d565b61098c5760405162461bcd60e51b815260206004820152603160248201527f45524337323155524953746f726167653a2055524920717565727920666f72206044820152703737b732bc34b9ba32b73a103a37b5b2b760791b606482015260840161043d565b600082815260066020526040812080546109a590611a13565b80601f01602080910402602001604051908101604052809291908181526020018280546109d190611a13565b8015610a1e5780601f106109f357610100808354040283529160200191610a1e565b820191906000526020600020905b815481529060010190602001808311610a0157829003601f168201915b505050505090506000610a3c60408051602081019091526000815290565b9050805160001415610a4f575092915050565b815115610a81578082604051602001610a699291906117ad565b60405160208183030381529060405292505050919050565b610a8a8461114c565b949350505050565b6007546001600160a01b03163314610abc5760405162461bcd60e51b815260040161043d9061191e565b6001600160a01b038116610b215760405162461bcd60e51b815260206004820152602660248201527f4f776e61626c653a206e6577206f776e657220697320746865207a65726f206160448201526564647265737360d01b606482015260840161043d565b610b2a81610e3a565b50565b6000908152600260205260409020546001600160a01b0316151590565b600081815260046020526040902080546001600160a01b0319166001600160a01b0384169081179091558190610b7f826105c4565b6001600160a01b03167f8c5be1e5ebec7d5bd14f71427d1e84f3dd0314c0f7b2291e5b200ac8c7c3b92560405160405180910390a45050565b6000610bc382610b2d565b610c245760405162461bcd60e51b815260206004820152602c60248201527f4552433732313a206f70657261746f7220717565727920666f72206e6f6e657860448201526b34b9ba32b73a103a37b5b2b760a11b606482015260840161043d565b6000610c2f836105c4565b9050806001600160a01b0316846001600160a01b03161480610c6a5750836001600160a01b0316610c5f846103d5565b6001600160a01b0316145b80610a8a57506001600160a01b0380821660009081526005602090815260408083209388168352929052205460ff16610a8a565b826001600160a01b0316610cb1826105c4565b6001600160a01b031614610d155760405162461bcd60e51b815260206004820152602560248201527f4552433732313a207472616e736665722066726f6d20696e636f72726563742060448201526437bbb732b960d91b606482015260840161043d565b6001600160a01b038216610d775760405162461bcd60e51b8152602060048201526024808201527f4552433732313a207472616e7366657220746f20746865207a65726f206164646044820152637265737360e01b606482015260840161043d565b610d82600082610b4a565b6001600160a01b0383166000908152600360205260408120805460019290610dab9084906119d0565b90915550506001600160a01b0382166000908152600360205260408120805460019290610dd99084906119a4565b909155505060008181526002602052604080822080546001600160a01b0319166001600160a01b0386811691821790925591518493918716917fddf252ad1be2c89b69c2b068fc378daa952ba7f163c4a11628f55a4df523b3ef91a4505050565b600780546001600160a01b038381166001600160a01b0319831681179093556040519116919082907f8be0079c531659141344cd1fd0a4f28419497f9722a3daafe3b4186f6b6457e090600090a35050565b6001600160a01b038216610ee25760405162461bcd60e51b815260206004820181905260248201527f4552433732313a206d696e7420746f20746865207a65726f2061646472657373604482015260640161043d565b610eeb81610b2d565b15610f385760405162461bcd60e51b815260206004820152601c60248201527f4552433732313a20746f6b656e20616c7265616479206d696e74656400000000604482015260640161043d565b6001600160a01b0382166000908152600360205260408120805460019290610f619084906119a4565b909155505060008181526002602052604080822080546001600160a01b0319166001600160a01b03861690811790915590518392907fddf252ad1be2c89b69c2b068fc378daa952ba7f163c4a11628f55a4df523b3ef908290a45050565b610fc882610b2d565b61102b5760405162461bcd60e51b815260206004820152602e60248201527f45524337323155524953746f726167653a2055524920736574206f66206e6f6e60448201526d32bc34b9ba32b73a103a37b5b2b760911b606482015260840161043d565b600082815260066020908152604090912082516105739284019061144b565b816001600160a01b0316836001600160a01b031614156110ac5760405162461bcd60e51b815260206004820152601960248201527f4552433732313a20617070726f766520746f2063616c6c657200000000000000604482015260640161043d565b6001600160a01b03838116600081815260056020908152604080832094871680845294825291829020805460ff191686151590811790915591519182527f17307eab39ab6107e8899845ad3d59bd9653f200f220920489ca2b5937696c31910160405180910390a3505050565b611124848484610c9e565b61113084848484611224565b6109155760405162461bcd60e51b815260040161043d906118cc565b606061115782610b2d565b6111bb5760405162461bcd60e51b815260206004820152602f60248201527f4552433732314d657461646174613a2055524920717565727920666f72206e6f60448201526e3732bc34b9ba32b73a103a37b5b2b760891b606482015260840161043d565b60006111d260408051602081019091526000815290565b905060008151116111f2576040518060200160405280600081525061121d565b806111fc84611331565b60405160200161120d9291906117ad565b6040516020818303038152906040525b9392505050565b60006001600160a01b0384163b1561132657604051630a85bd0160e11b81526001600160a01b0385169063150b7a02906112689033908990889088906004016117dc565b602060405180830381600087803b15801561128257600080fd5b505af19250505080156112b2575060408051601f3d908101601f191682019092526112af918101906116f5565b60015b61130c573d8080156112e0576040519150601f19603f3d011682016040523d82523d6000602084013e6112e5565b606091505b5080516113045760405162461bcd60e51b815260040161043d906118cc565b805181602001fd5b6001600160e01b031916630a85bd0160e11b149050610a8a565b506001949350505050565b6060816113555750506040805180820190915260018152600360fc1b602082015290565b8160005b811561137f578061136981611a4e565b91506113789050600a836119bc565b9150611359565b60008167ffffffffffffffff8111156113a857634e487b7160e01b600052604160045260246000fd5b6040519080825280601f01601f1916602001820160405280156113d2576020820181803683370190505b5090505b8415610a8a576113e76001836119d0565b91506113f4600a86611a69565b6113ff9060306119a4565b60f81b81838151811061142257634e487b7160e01b600052603260045260246000fd5b60200101906001600160f81b031916908160001a905350611444600a866119bc565b94506113d6565b82805461145790611a13565b90600052602060002090601f01602090048101928261147957600085556114bf565b82601f1061149257805160ff19168380011785556114bf565b828001600101855582156114bf579182015b828111156114bf5782518255916020019190600101906114a4565b506114cb9291506114cf565b5090565b5b808211156114cb57600081556001016114d0565b600067ffffffffffffffff808411156114ff576114ff611aa9565b604051601f8501601f19908116603f0116810190828211818310171561152757611527611aa9565b8160405280935085815286868601111561154057600080fd5b858560208301376000602087830101525050509392505050565b80356001600160a01b038116811461157157600080fd5b919050565b600060208284031215611587578081fd5b61121d8261155a565b600080604083850312156115a2578081fd5b6115ab8361155a565b91506115b96020840161155a565b90509250929050565b6000806000606084860312156115d6578081fd5b6115df8461155a565b92506115ed6020850161155a565b9150604084013590509250925092565b60008060008060808587031215611612578081fd5b61161b8561155a565b93506116296020860161155a565b925060408501359150606085013567ffffffffffffffff81111561164b578182fd5b8501601f8101871361165b578182fd5b61166a878235602084016114e4565b91505092959194509250565b60008060408385031215611688578182fd5b6116918361155a565b9150602083013580151581146116a5578182fd5b809150509250929050565b600080604083850312156116c2578182fd5b6116cb8361155a565b946020939093013593505050565b6000602082840312156116ea578081fd5b813561121d81611abf565b600060208284031215611706578081fd5b815161121d81611abf565b600060208284031215611722578081fd5b5035919050565b6000806040838503121561173b578182fd5b82359150602083013567ffffffffffffffff811115611758578182fd5b8301601f81018513611768578182fd5b611777858235602084016114e4565b9150509250929050565b600081518084526117998160208601602086016119e7565b601f01601f19169290920160200192915050565b600083516117bf8184602088016119e7565b8351908301906117d38183602088016119e7565b01949350505050565b6001600160a01b038581168252841660208201526040810183905260806060820181905260009061180f90830184611781565b9695505050505050565b604080825283519082018190526000906020906060840190828701845b8281101561185b5781516001600160a01b031684529284019290840190600101611836565b50505083810382850152845180825282820190600581901b83018401878501865b838110156118aa57601f19868403018552611898838351611781565b9487019492509086019060010161187c565b50909998505050505050505050565b60208152600061121d6020830184611781565b60208082526032908201527f4552433732313a207472616e7366657220746f206e6f6e20455243373231526560408201527131b2b4bb32b91034b6b83632b6b2b73a32b960711b606082015260800190565b6020808252818101527f4f776e61626c653a2063616c6c6572206973206e6f7420746865206f776e6572604082015260600190565b60208082526031908201527f4552433732313a207472616e736665722063616c6c6572206973206e6f74206f6040820152701ddb995c881b9bdc88185c1c1c9bdd9959607a1b606082015260800190565b600082198211156119b7576119b7611a7d565b500190565b6000826119cb576119cb611a93565b500490565b6000828210156119e2576119e2611a7d565b500390565b60005b83811015611a025781810151838201526020016119ea565b838111156109155750506000910152565b600181811c90821680611a2757607f821691505b60208210811415611a4857634e487b7160e01b600052602260045260246000fd5b50919050565b6000600019821415611a6257611a62611a7d565b5060010190565b600082611a7857611a78611a93565b500690565b634e487b7160e01b600052601160045260246000fd5b634e487b7160e01b600052601260045260246000fd5b634e487b7160e01b600052604160045260246000fd5b6001600160e01b031981168114610b2a57600080fdfea26469706673582212200005f02b330f5ba472ab7f4ad95304f595d5ae1da6d3b359ddf237966ac8fbe364736f6c63430008040033",
  "immutableReferences": {},
  "source": "// SPDX-License-Identifier: MIT\r\npragma solidity ^0.8.0;\r\n\r\nimport '@openzeppelin/contracts/token/ERC721/extensions/ERC721URIStorage.sol';\r\nimport '@openzeppelin/contracts/access/Ownable.sol';\r\nimport '@openzeppelin/contracts/utils/Counters.sol';\r\nimport './Token.sol';\r\n\r\ncontract World is ERC721URIStorage, Ownable {\r\n    Token token;\r\n    uint256 private numOfTokens;\r\n\r\n    constructor(Token _token) ERC721('Land', 'LAND') Ownable() {\r\n        token = _token;\r\n        numOfTokens = 0;\r\n    }\r\n\r\n    function mint(uint256 tokenId, string memory tokenURI) public onlyOwner {\r\n        numOfTokens = tokenId;\r\n        _mint(msg.sender, tokenId);\r\n        _setTokenURI(tokenId, tokenURI);\r\n    }\r\n\r\n    function getTokensCount() public view returns (uint256) {\r\n        return numOfTokens;\r\n    }\r\n\r\n    function getMap() public view returns (address[] memory, string[] memory) {\r\n        address[] memory owners = new address[](numOfTokens);\r\n        string[] memory map = new string[](numOfTokens);\r\n\r\n        for (uint256 i = 0; i < numOfTokens; i++) {\r\n            owners[i] = ownerOf(i + 1);\r\n            map[i] = tokenURI(i + 1);\r\n        }\r\n\r\n        return (owners, map);\r\n    }\r\n\r\n    /*function buyLand(uint256 tokenId, uint256 price) public payable returns (bool) {\r\n        address ownerOfToken = ownerOf(tokenId);\r\n        token.approve(ownerOfToken, price);\r\n        bool success = token.transfer(ownerOfToken, price);\r\n\r\n        //if (success) {\r\n            //transferFrom(ownerOfToken, msg.sender, tokenId);\r\n        //}\r\n\r\n        return success;\r\n    }*/\r\n\r\n    function updateLand(uint256 tokenId, string memory tokenURI) public {\r\n        require(msg.sender == ownerOf(tokenId));\r\n        _setTokenURI(tokenId, tokenURI);\r\n    }\r\n}",
  "sourcePath": "C:\\Users\\elads\\Documents\\\\ \\ \\\\\\Final Project\\contracts\\World.sol",
  "compiler": {
    "name": "solc",
    "version": "0.8.4+commit.c7e474f2.Emscripten.clang"
  },
  "schemaVersion": "3.4.4",
  "updatedAt": "2022-02-16T02:59:30.120Z",
  "networkType": "ethereum",
  "devdoc": {
    "kind": "dev",
    "methods": {
      "approve(address,uint256)": {
        "details": "See {IERC721-approve}."
      },
      "balanceOf(address)": {
        "details": "See {IERC721-balanceOf}."
      },
      "getApproved(uint256)": {
        "details": "See {IERC721-getApproved}."
      },
      "isApprovedForAll(address,address)": {
        "details": "See {IERC721-isApprovedForAll}."
      },
      "name()": {
        "details": "See {IERC721Metadata-name}."
      },
      "owner()": {
        "details": "Returns the address of the current owner."
      },
      "ownerOf(uint256)": {
        "details": "See {IERC721-ownerOf}."
      },
      "renounceOwnership()": {
        "details": "Leaves the contract without owner. It will not be possible to call `onlyOwner` functions anymore. Can only be called by the current owner. NOTE: Renouncing ownership will leave the contract without an owner, thereby removing any functionality that is only available to the owner."
      },
      "safeTransferFrom(address,address,uint256)": {
        "details": "See {IERC721-safeTransferFrom}."
      },
      "safeTransferFrom(address,address,uint256,bytes)": {
        "details": "See {IERC721-safeTransferFrom}."
      },
      "setApprovalForAll(address,bool)": {
        "details": "See {IERC721-setApprovalForAll}."
      },
      "supportsInterface(bytes4)": {
        "details": "See {IERC165-supportsInterface}."
      },
      "symbol()": {
        "details": "See {IERC721Metadata-symbol}."
      },
      "tokenURI(uint256)": {
        "details": "See {IERC721Metadata-tokenURI}."
      },
      "transferFrom(address,address,uint256)": {
        "details": "See {IERC721-transferFrom}."
      },
      "transferOwnership(address)": {
        "details": "Transfers ownership of the contract to a new account (`newOwner`). Can only be called by the current owner."
      }
    },
    "version": 1
  },
  "userdoc": {
    "kind": "user",
    "methods": {},
    "version": 1
  }
}