{
  "contractName": "World",
  "abi": [
    {
      "inputs": [],
      "payable": false,
      "stateMutability": "nonpayable",
      "type": "constructor"
    },
    {
      "constant": true,
      "inputs": [
        {
          "internalType": "address",
          "name": "",
          "type": "address"
        },
        {
          "internalType": "uint256",
          "name": "",
          "type": "uint256"
        }
      ],
      "name": "lands",
      "outputs": [
        {
          "internalType": "address",
          "name": "owner",
          "type": "address"
        },
        {
          "internalType": "enum World.LandType",
          "name": "landType",
          "type": "uint8"
        },
        {
          "internalType": "uint256",
          "name": "price",
          "type": "uint256"
        },
        {
          "internalType": "string",
          "name": "content",
          "type": "string"
        },
        {
          "internalType": "uint8",
          "name": "row",
          "type": "uint8"
        },
        {
          "internalType": "uint8",
          "name": "col",
          "type": "uint8"
        }
      ],
      "payable": false,
      "stateMutability": "view",
      "type": "function"
    },
    {
      "constant": true,
      "inputs": [
        {
          "internalType": "uint256",
          "name": "",
          "type": "uint256"
        },
        {
          "internalType": "uint256",
          "name": "",
          "type": "uint256"
        }
      ],
      "name": "map",
      "outputs": [
        {
          "internalType": "address",
          "name": "owner",
          "type": "address"
        },
        {
          "internalType": "enum World.LandType",
          "name": "landType",
          "type": "uint8"
        },
        {
          "internalType": "uint256",
          "name": "price",
          "type": "uint256"
        },
        {
          "internalType": "string",
          "name": "content",
          "type": "string"
        },
        {
          "internalType": "uint8",
          "name": "row",
          "type": "uint8"
        },
        {
          "internalType": "uint8",
          "name": "col",
          "type": "uint8"
        }
      ],
      "payable": false,
      "stateMutability": "view",
      "type": "function"
    },
    {
      "constant": false,
      "inputs": [],
      "name": "initMap",
      "outputs": [],
      "payable": false,
      "stateMutability": "nonpayable",
      "type": "function"
    },
    {
      "constant": false,
      "inputs": [
        {
          "internalType": "uint256",
          "name": "row",
          "type": "uint256"
        },
        {
          "internalType": "uint256",
          "name": "col",
          "type": "uint256"
        }
      ],
      "name": "buyLand",
      "outputs": [
        {
          "internalType": "bool",
          "name": "success",
          "type": "bool"
        }
      ],
      "payable": false,
      "stateMutability": "nonpayable",
      "type": "function"
    },
    {
      "constant": true,
      "inputs": [],
      "name": "getMap",
      "outputs": [
        {
          "components": [
            {
              "internalType": "address",
              "name": "owner",
              "type": "address"
            },
            {
              "internalType": "enum World.LandType",
              "name": "landType",
              "type": "uint8"
            },
            {
              "internalType": "uint256",
              "name": "price",
              "type": "uint256"
            },
            {
              "internalType": "string",
              "name": "content",
              "type": "string"
            },
            {
              "internalType": "uint8",
              "name": "row",
              "type": "uint8"
            },
            {
              "internalType": "uint8",
              "name": "col",
              "type": "uint8"
            }
          ],
          "internalType": "struct World.Land[50][50]",
          "name": "",
          "type": "tuple[50][50]"
        }
      ],
      "payable": false,
      "stateMutability": "view",
      "type": "function"
    },
    {
      "constant": true,
      "inputs": [],
      "name": "getOwner",
      "outputs": [
        {
          "internalType": "address",
          "name": "",
          "type": "address"
        }
      ],
      "payable": false,
      "stateMutability": "view",
      "type": "function"
    },
    {
      "constant": true,
      "inputs": [],
      "name": "getMyLands",
      "outputs": [
        {
          "components": [
            {
              "internalType": "address",
              "name": "owner",
              "type": "address"
            },
            {
              "internalType": "enum World.LandType",
              "name": "landType",
              "type": "uint8"
            },
            {
              "internalType": "uint256",
              "name": "price",
              "type": "uint256"
            },
            {
              "internalType": "string",
              "name": "content",
              "type": "string"
            },
            {
              "internalType": "uint8",
              "name": "row",
              "type": "uint8"
            },
            {
              "internalType": "uint8",
              "name": "col",
              "type": "uint8"
            }
          ],
          "internalType": "struct World.Land[]",
          "name": "",
          "type": "tuple[]"
        }
      ],
      "payable": false,
      "stateMutability": "view",
      "type": "function"
    }
  ],
  "bytecode": "0x608060405234801561001057600080fd5b50336000806101000a81548173ffffffffffffffffffffffffffffffffffffffff021916908373ffffffffffffffffffffffffffffffffffffffff1602179055506115ab806100606000396000f3fe608060405234801561001057600080fd5b506004361061007d5760003560e01c8063893d20e81161005b578063893d20e8146100df578063a90b9128146100fd578063ad3de14c14610132578063be977cd4146101505761007d565b80630695b9c314610082578063151810a6146100a0578063756efcf7146100aa575b600080fd5b61008a610180565b6040516100979190611372565b60405180910390f35b6100a8610386565b005b6100c460048036036100bf9190810190610f4c565b6106e4565b6040516100d6969594939291906112e8565b60405180910390f35b6100e761081a565b6040516100f491906112cd565b60405180910390f35b61011760048036036101129190810190610f88565b610843565b604051610129969594939291906112e8565b60405180910390f35b61013a610971565b6040516101479190611350565b60405180910390f35b61016a60048036036101659190810190610f88565b610b64565b6040516101779190611394565b60405180910390f35b606061271160003373ffffffffffffffffffffffffffffffffffffffff1673ffffffffffffffffffffffffffffffffffffffff168152602001908152602001600020805480602002602001604051908101604052809291908181526020016000905b8282101561037d57838290600052602060002090600402016040518060c00160405290816000820160009054906101000a900473ffffffffffffffffffffffffffffffffffffffff1673ffffffffffffffffffffffffffffffffffffffff1673ffffffffffffffffffffffffffffffffffffffff1681526020016000820160149054906101000a900460ff16600281111561027957fe5b600281111561028457fe5b815260200160018201548152602001600282018054600181600116156101000203166002900480601f01602080910402602001604051908101604052809291908181526020018280546001816001161561010002031660029004801561032b5780601f106103005761010080835404028352916020019161032b565b820191906000526020600020905b81548152906001019060200180831161030e57829003601f168201915b505050505081526020016003820160009054906101000a900460ff1660ff1660ff1681526020016003820160019054906101000a900460ff1660ff1660ff1681525050815260200190600101906101e2565b50505050905090565b60008090505b60328160ff1610156106e15760008090505b60328160ff1610156106d3576000809054906101000a900473ffffffffffffffffffffffffffffffffffffffff1660018360ff16603281106103dc57fe5b60c802018260ff16603281106103ee57fe5b6004020160000160006101000a81548173ffffffffffffffffffffffffffffffffffffffff021916908373ffffffffffffffffffffffffffffffffffffffff1602179055508160018360ff166032811061044457fe5b60c802018260ff166032811061045657fe5b6004020160030160006101000a81548160ff021916908360ff1602179055508060018360ff166032811061048657fe5b60c802018260ff166032811061049857fe5b6004020160030160016101000a81548160ff021916908360ff16021790555060058260ff1614806104cc575060058160ff16145b1561055057600260018360ff16603281106104e357fe5b60c802018260ff16603281106104f557fe5b6004020160000160146101000a81548160ff0219169083600281111561051757fe5b0217905550600060018360ff166032811061052e57fe5b60c802018260ff166032811061054057fe5b60040201600101819055506106c6565b60028260ff1610158015610568575060048260ff1611155b8015610578575060028160ff1610155b8015610588575060048160ff1611155b806105c7575060068260ff16101580156105a6575060088260ff1611155b80156105b6575060068160ff1610155b80156105c6575060088160ff1611155b5b1561064a576001808360ff16603281106105dd57fe5b60c802018260ff16603281106105ef57fe5b6004020160000160146101000a81548160ff0219169083600281111561061157fe5b0217905550600a60018360ff166032811061062857fe5b60c802018260ff166032811061063a57fe5b60040201600101819055506106c5565b600060018360ff166032811061065c57fe5b60c802018260ff166032811061066e57fe5b6004020160000160146101000a81548160ff0219169083600281111561069057fe5b0217905550600f60018360ff16603281106106a757fe5b60c802018260ff16603281106106b957fe5b60040201600101819055505b5b808060010191505061039e565b50808060010191505061038c565b50565b61271160205281600052604060002081815481106106fe57fe5b9060005260206000209060040201600091509150508060000160009054906101000a900473ffffffffffffffffffffffffffffffffffffffff16908060000160149054906101000a900460ff1690806001015490806002018054600181600116156101000203166002900480601f0160208091040260200160405190810160405280929190818152602001828054600181600116156101000203166002900480156107ea5780601f106107bf576101008083540402835291602001916107ea565b820191906000526020600020905b8154815290600101906020018083116107cd57829003601f168201915b5050505050908060030160009054906101000a900460ff16908060030160019054906101000a900460ff16905086565b60008060009054906101000a900473ffffffffffffffffffffffffffffffffffffffff16905090565b6001826032811061085057fe5b60c80201816032811061085f57fe5b60040201600091509150508060000160009054906101000a900473ffffffffffffffffffffffffffffffffffffffff16908060000160149054906101000a900460ff1690806001015490806002018054600181600116156101000203166002900480601f0160208091040260200160405190810160405280929190818152602001828054600181600116156101000203166002900480156109415780601f1061091657610100808354040283529160200191610941565b820191906000526020600020905b81548152906001019060200180831161092457829003601f168201915b5050505050908060030160009054906101000a900460ff16908060030160019054906101000a900460ff16905086565b610979610dbd565b6001603280602002604051908101604052809291906000905b82821015610b5b57838260c80201603280602002604051908101604052809291906000905b82821015610b48578382600402016040518060c00160405290816000820160009054906101000a900473ffffffffffffffffffffffffffffffffffffffff1673ffffffffffffffffffffffffffffffffffffffff1673ffffffffffffffffffffffffffffffffffffffff1681526020016000820160149054906101000a900460ff166002811115610a4457fe5b6002811115610a4f57fe5b815260200160018201548152602001600282018054600181600116156101000203166002900480601f016020809104026020016040519081016040528092919081815260200182805460018160011615610100020316600290048015610af65780601f10610acb57610100808354040283529160200191610af6565b820191906000526020600020905b815481529060010190602001808311610ad957829003601f168201915b505050505081526020016003820160009054906101000a900460ff1660ff1660ff1681526020016003820160019054906101000a900460ff1660ff1660ff1681525050815260200190600101906109b7565b5050505081526020019060010190610992565b50505050905090565b6000808310158015610b765750603283105b8015610b83575060008210155b8015610b8f5750603282105b610b9857600080fd5b3360018460328110610ba657fe5b60c802018360328110610bb557fe5b6004020160000160006101000a81548173ffffffffffffffffffffffffffffffffffffffff021916908373ffffffffffffffffffffffffffffffffffffffff16021790555061271160003373ffffffffffffffffffffffffffffffffffffffff1673ffffffffffffffffffffffffffffffffffffffff16815260200190815260200160002060018460328110610c4757fe5b60c802018360328110610c5657fe5b60040201908060018154018082558091505090600182039060005260206000209060040201600090919290919091506000820160009054906101000a900473ffffffffffffffffffffffffffffffffffffffff168160000160006101000a81548173ffffffffffffffffffffffffffffffffffffffff021916908373ffffffffffffffffffffffffffffffffffffffff1602179055506000820160149054906101000a900460ff168160000160146101000a81548160ff02191690836002811115610d1d57fe5b02179055506001820154816001015560028201816002019080546001816001161561010002031660029004610d53929190610deb565b506003820160009054906101000a900460ff168160030160006101000a81548160ff021916908360ff1602179055506003820160019054906101000a900460ff168160030160016101000a81548160ff021916908360ff1602179055505050506001905092915050565b6040518061064001604052806032905b610dd5610e72565b815260200190600190039081610dcd5790505090565b828054600181600116156101000203166002900490600052602060002090601f016020900481019282601f10610e245780548555610e61565b82800160010185558215610e6157600052602060002091601f016020900482015b82811115610e60578254825591600101919060010190610e45565b5b509050610e6e9190610ea0565b5090565b6040518061064001604052806032905b610e8a610ec5565b815260200190600190039081610e825790505090565b610ec291905b80821115610ebe576000816000905550600101610ea6565b5090565b90565b6040518060c00160405280600073ffffffffffffffffffffffffffffffffffffffff16815260200160006002811115610efa57fe5b81526020016000815260200160608152602001600060ff168152602001600060ff1681525090565b600081359050610f318161153a565b92915050565b600081359050610f4681611551565b92915050565b60008060408385031215610f5f57600080fd5b6000610f6d85828601610f22565b9250506020610f7e85828601610f37565b9150509250929050565b60008060408385031215610f9b57600080fd5b6000610fa985828601610f37565b9250506020610fba85828601610f37565b9150509250929050565b6000610fd0838361107f565b905092915050565b6000610fe48383611208565b905092915050565b610ff58161146f565b82525050565b6110048161146f565b82525050565b6000611015826113d3565b61101f8185611426565b935083602082028501611031856113af565b8060005b8581101561106d578484038952815161104e8582610fc4565b9450611059836113ff565b925060208a01995050600181019050611035565b50829750879550505050505092915050565b600061108a826113de565b6110948185611431565b9350836020820285016110a6856113b9565b8060005b858110156110e257848403895281516110c38582610fd8565b94506110ce8361140c565b925060208a019950506001810190506110aa565b50829750879550505050505092915050565b60006110ff826113e9565b611109818561143c565b93508360208202850161111b856113c3565b8060005b8581101561115757848403895281516111388582610fd8565b945061114383611419565b925060208a0199505060018101905061111f565b50829750879550505050505092915050565b61117281611481565b82525050565b611181816114d7565b82525050565b611190816114d7565b82525050565b60006111a1826113f4565b6111ab818561144d565b93506111bb8185602086016114e9565b6111c48161151c565b840191505092915050565b60006111da826113f4565b6111e4818561145e565b93506111f48185602086016114e9565b6111fd8161151c565b840191505092915050565b600060c0830160008301516112206000860182610fec565b5060208301516112336020860182611178565b5060408301516112466040860182611291565b506060830151848203606086015261125e8282611196565b915050608083015161127360808601826112af565b5060a083015161128660a08601826112af565b508091505092915050565b61129a816114c0565b82525050565b6112a9816114c0565b82525050565b6112b8816114ca565b82525050565b6112c7816114ca565b82525050565b60006020820190506112e26000830184610ffb565b92915050565b600060c0820190506112fd6000830189610ffb565b61130a6020830188611187565b61131760408301876112a0565b818103606083015261132981866111cf565b905061133860808301856112be565b61134560a08301846112be565b979650505050505050565b6000602082019050818103600083015261136a818461100a565b905092915050565b6000602082019050818103600083015261138c81846110f4565b905092915050565b60006020820190506113a96000830184611169565b92915050565b6000819050919050565b6000819050919050565b6000819050602082019050919050565b600060329050919050565b600060329050919050565b600081519050919050565b600081519050919050565b6000602082019050919050565b6000602082019050919050565b6000602082019050919050565b600081905092915050565b600081905092915050565b600082825260208201905092915050565b600082825260208201905092915050565b600082825260208201905092915050565b600061147a826114a0565b9050919050565b60008115159050919050565b600081905061149b8261152d565b919050565b600073ffffffffffffffffffffffffffffffffffffffff82169050919050565b6000819050919050565b600060ff82169050919050565b60006114e28261148d565b9050919050565b60005b838110156115075780820151818401526020810190506114ec565b83811115611516576000848401525b50505050565b6000601f19601f8301169050919050565b6003811061153757fe5b50565b6115438161146f565b811461154e57600080fd5b50565b61155a816114c0565b811461156557600080fd5b5056fea365627a7a723158206d12d5e796d1229dd3e596807ff519fa224ce8f8f2cbf70bfbc8ceae4beb03c76c6578706572696d656e74616cf564736f6c63430005100040",
  "source": "pragma solidity ^0.5.0;\r\npragma experimental ABIEncoderV2;\r\n\r\n//import \"./Land.sol\";\r\n\r\ncontract World {\r\n    uint256 constant MAP_SIZE = 50;\r\n\r\n    enum LandType { NFT, PARK, ROAD }\r\n\r\n    struct Land {\r\n        address owner;\r\n        LandType landType;\r\n        uint price;\r\n        string content;\r\n        uint8 row;\r\n        uint8 col;\r\n    }\r\n    \r\n    address owner;\r\n    Land[MAP_SIZE][MAP_SIZE] public map;\r\n\r\n    mapping(address => Land[]) public lands;\r\n\r\n    constructor() public {\r\n        owner = msg.sender;\r\n        //initMap();\r\n    }\r\n\r\n    function initMap() public {\r\n        //initialPrice = uint(keccak256(abi.encodePacked(msg.sender, now))) % (MAX_INITIAL_PRICE - MIN_INITIAL_PRICE) + MIN_INITIAL_PRICE;\r\n\r\n        for (uint8 i = 0; i < MAP_SIZE; i++) {\r\n            for (uint8 j = 0; j < MAP_SIZE; j++) {\r\n                map[i][j].owner = owner;\r\n                map[i][j].row = i;\r\n                map[i][j].col = j;\r\n                if (i == 5 || j == 5) {\r\n                    map[i][j].landType = LandType.ROAD;\r\n                    map[i][j].price = 0;\r\n                } else if (i >= 2 && i <= 4 && j >= 2 && j <= 4\r\n                    || i >= 6 && i <= 8 && j >= 6 && j <= 8) {\r\n                    map[i][j].landType = LandType.PARK;\r\n                    map[i][j].price = 10;\r\n                } else {\r\n                    map[i][j].landType = LandType.NFT;\r\n                    map[i][j].price = 15;\r\n                }\r\n            }\r\n        }\r\n    }\r\n\r\n    /*function initMap() private {\r\n        //initialPrice = uint(keccak256(abi.encodePacked(msg.sender, now))) % (MAX_INITIAL_PRICE - MIN_INITIAL_PRICE) + MIN_INITIAL_PRICE;\r\n\r\n        for (uint8 i = 0; i < MAP_SIZE; i++) {\r\n            for (uint8 j = 0; j < MAP_SIZE; j++) {\r\n                //map[i][j].owner = msg.sender;\r\n                map[i][j].row = i;\r\n                map[i][j].col = j;\r\n                if (i == 5 || j == 5) {\r\n                    map[i][j].landType = LandType.ROAD;\r\n                    map[i][j].price = 0;\r\n                } else if (i >= 2 && i <= 4 && j >= 2 && j <= 4\r\n                    || i >= 6 && i <= 8 && j >= 6 && j <= 8) {\r\n                    map[i][j].landType = LandType.PARK;\r\n                    map[i][j].price = 10;\r\n                } else {\r\n                    map[i][j].landType = LandType.NFT;\r\n                    map[i][j].price = 15;\r\n                }\r\n            }\r\n        }\r\n    }*/\r\n\r\n    function buyLand(uint row, uint col) public returns (bool success) {\r\n        require(row >= 0 && row < MAP_SIZE && col >= 0 && col < MAP_SIZE);\r\n\r\n        //map[row][col].transferFrom(map[row][col].getOwner(), msg.sender, 0);\r\n        map[row][col].owner = msg.sender;\r\n        lands[msg.sender].push(map[row][col]);\r\n\r\n        return true;\r\n    }\r\n\r\n    function getMap() public view returns (Land[MAP_SIZE][MAP_SIZE] memory) {\r\n        return map;\r\n    }\r\n\r\n    function getOwner() public view returns (address) {\r\n        return owner;\r\n    }\r\n\r\n    function getMyLands() public view returns (Land[] memory) {\r\n        return lands[msg.sender];\r\n    }\r\n}",
  "sourcePath": "C:\\Users\\elads\\Documents\\תואר\\שנה ג\\סמסטר א\\בלוקציין\\תרגילים\\Final Project\\contracts\\World.sol",
  "compiler": {
    "name": "solc",
    "version": "0.5.16+commit.9c3226ce.Emscripten.clang"
  },
  "schemaVersion": "3.4.4",
  "updatedAt": "2022-02-11T23:58:46.398Z",
  "devdoc": {
    "methods": {}
  },
  "userdoc": {
    "methods": {}
  }
}