{
  "contractName": "World",
  "abi": [
    {
      "inputs": [],
      "stateMutability": "nonpayable",
      "type": "constructor"
    },
    {
      "anonymous": false,
      "inputs": [
        {
          "indexed": true,
          "internalType": "address",
          "name": "owner",
          "type": "address"
        },
        {
          "indexed": true,
          "internalType": "address",
          "name": "approved",
          "type": "address"
        },
        {
          "indexed": true,
          "internalType": "uint256",
          "name": "tokenId",
          "type": "uint256"
        }
      ],
      "name": "Approval",
      "type": "event"
    },
    {
      "anonymous": false,
      "inputs": [
        {
          "indexed": true,
          "internalType": "address",
          "name": "owner",
          "type": "address"
        },
        {
          "indexed": true,
          "internalType": "address",
          "name": "operator",
          "type": "address"
        },
        {
          "indexed": false,
          "internalType": "bool",
          "name": "approved",
          "type": "bool"
        }
      ],
      "name": "ApprovalForAll",
      "type": "event"
    },
    {
      "anonymous": false,
      "inputs": [
        {
          "indexed": true,
          "internalType": "address",
          "name": "previousOwner",
          "type": "address"
        },
        {
          "indexed": true,
          "internalType": "address",
          "name": "newOwner",
          "type": "address"
        }
      ],
      "name": "OwnershipTransferred",
      "type": "event"
    },
    {
      "anonymous": false,
      "inputs": [
        {
          "indexed": true,
          "internalType": "address",
          "name": "from",
          "type": "address"
        },
        {
          "indexed": true,
          "internalType": "address",
          "name": "to",
          "type": "address"
        },
        {
          "indexed": true,
          "internalType": "uint256",
          "name": "tokenId",
          "type": "uint256"
        }
      ],
      "name": "Transfer",
      "type": "event"
    },
    {
      "inputs": [
        {
          "internalType": "address",
          "name": "to",
          "type": "address"
        },
        {
          "internalType": "uint256",
          "name": "tokenId",
          "type": "uint256"
        }
      ],
      "name": "approve",
      "outputs": [],
      "stateMutability": "nonpayable",
      "type": "function"
    },
    {
      "inputs": [
        {
          "internalType": "address",
          "name": "owner",
          "type": "address"
        }
      ],
      "name": "balanceOf",
      "outputs": [
        {
          "internalType": "uint256",
          "name": "",
          "type": "uint256"
        }
      ],
      "stateMutability": "view",
      "type": "function",
      "constant": true
    },
    {
      "inputs": [
        {
          "internalType": "uint256",
          "name": "tokenId",
          "type": "uint256"
        }
      ],
      "name": "getApproved",
      "outputs": [
        {
          "internalType": "address",
          "name": "",
          "type": "address"
        }
      ],
      "stateMutability": "view",
      "type": "function",
      "constant": true
    },
    {
      "inputs": [
        {
          "internalType": "address",
          "name": "owner",
          "type": "address"
        },
        {
          "internalType": "address",
          "name": "operator",
          "type": "address"
        }
      ],
      "name": "isApprovedForAll",
      "outputs": [
        {
          "internalType": "bool",
          "name": "",
          "type": "bool"
        }
      ],
      "stateMutability": "view",
      "type": "function",
      "constant": true
    },
    {
      "inputs": [],
      "name": "name",
      "outputs": [
        {
          "internalType": "string",
          "name": "",
          "type": "string"
        }
      ],
      "stateMutability": "view",
      "type": "function",
      "constant": true
    },
    {
      "inputs": [],
      "name": "owner",
      "outputs": [
        {
          "internalType": "address",
          "name": "",
          "type": "address"
        }
      ],
      "stateMutability": "view",
      "type": "function",
      "constant": true
    },
    {
      "inputs": [
        {
          "internalType": "uint256",
          "name": "tokenId",
          "type": "uint256"
        }
      ],
      "name": "ownerOf",
      "outputs": [
        {
          "internalType": "address",
          "name": "",
          "type": "address"
        }
      ],
      "stateMutability": "view",
      "type": "function",
      "constant": true
    },
    {
      "inputs": [],
      "name": "renounceOwnership",
      "outputs": [],
      "stateMutability": "nonpayable",
      "type": "function"
    },
    {
      "inputs": [
        {
          "internalType": "address",
          "name": "from",
          "type": "address"
        },
        {
          "internalType": "address",
          "name": "to",
          "type": "address"
        },
        {
          "internalType": "uint256",
          "name": "tokenId",
          "type": "uint256"
        }
      ],
      "name": "safeTransferFrom",
      "outputs": [],
      "stateMutability": "nonpayable",
      "type": "function"
    },
    {
      "inputs": [
        {
          "internalType": "address",
          "name": "from",
          "type": "address"
        },
        {
          "internalType": "address",
          "name": "to",
          "type": "address"
        },
        {
          "internalType": "uint256",
          "name": "tokenId",
          "type": "uint256"
        },
        {
          "internalType": "bytes",
          "name": "_data",
          "type": "bytes"
        }
      ],
      "name": "safeTransferFrom",
      "outputs": [],
      "stateMutability": "nonpayable",
      "type": "function"
    },
    {
      "inputs": [
        {
          "internalType": "address",
          "name": "operator",
          "type": "address"
        },
        {
          "internalType": "bool",
          "name": "approved",
          "type": "bool"
        }
      ],
      "name": "setApprovalForAll",
      "outputs": [],
      "stateMutability": "nonpayable",
      "type": "function"
    },
    {
      "inputs": [
        {
          "internalType": "bytes4",
          "name": "interfaceId",
          "type": "bytes4"
        }
      ],
      "name": "supportsInterface",
      "outputs": [
        {
          "internalType": "bool",
          "name": "",
          "type": "bool"
        }
      ],
      "stateMutability": "view",
      "type": "function",
      "constant": true
    },
    {
      "inputs": [],
      "name": "symbol",
      "outputs": [
        {
          "internalType": "string",
          "name": "",
          "type": "string"
        }
      ],
      "stateMutability": "view",
      "type": "function",
      "constant": true
    },
    {
      "inputs": [
        {
          "internalType": "uint256",
          "name": "tokenId",
          "type": "uint256"
        }
      ],
      "name": "tokenURI",
      "outputs": [
        {
          "internalType": "string",
          "name": "",
          "type": "string"
        }
      ],
      "stateMutability": "view",
      "type": "function",
      "constant": true
    },
    {
      "inputs": [
        {
          "internalType": "address",
          "name": "from",
          "type": "address"
        },
        {
          "internalType": "address",
          "name": "to",
          "type": "address"
        },
        {
          "internalType": "uint256",
          "name": "tokenId",
          "type": "uint256"
        }
      ],
      "name": "transferFrom",
      "outputs": [],
      "stateMutability": "nonpayable",
      "type": "function"
    },
    {
      "inputs": [
        {
          "internalType": "address",
          "name": "newOwner",
          "type": "address"
        }
      ],
      "name": "transferOwnership",
      "outputs": [],
      "stateMutability": "nonpayable",
      "type": "function"
    },
    {
      "inputs": [],
      "name": "mint",
      "outputs": [
        {
          "internalType": "uint256",
          "name": "",
          "type": "uint256"
        }
      ],
      "stateMutability": "nonpayable",
      "type": "function"
    }
  ],
  "bytecode": "0x60806040523480156200001157600080fd5b506040518060400160405280600481526020016313185b9960e21b815250604051806040016040528060048152602001631310539160e21b815250816000908051906020019062000064929190620000f3565b5080516200007a906001906020840190620000f3565b50505062000097620000916200009d60201b60201c565b620000a1565b620001d6565b3390565b600680546001600160a01b038381166001600160a01b0319831681179093556040519116919082907f8be0079c531659141344cd1fd0a4f28419497f9722a3daafe3b4186f6b6457e090600090a35050565b828054620001019062000199565b90600052602060002090601f01602090048101928262000125576000855562000170565b82601f106200014057805160ff191683800117855562000170565b8280016001018555821562000170579182015b828111156200017057825182559160200191906001019062000153565b506200017e92915062000182565b5090565b5b808211156200017e576000815560010162000183565b600181811c90821680620001ae57607f821691505b60208210811415620001d057634e487b7160e01b600052602260045260246000fd5b50919050565b6115af80620001e66000396000f3fe608060405234801561001057600080fd5b506004361061010b5760003560e01c806370a08231116100a2578063a22cb46511610071578063a22cb46514610210578063b88d4fde14610223578063c87b56dd14610236578063e985e9c514610249578063f2fde38b1461028557600080fd5b806370a08231146101dc578063715018a6146101ef5780638da5cb5b146101f757806395d89b411461020857600080fd5b80631249c58b116100de5780631249c58b1461018d57806323b872dd146101a357806342842e0e146101b65780636352211e146101c957600080fd5b806301ffc9a71461011057806306fdde0314610138578063081812fc1461014d578063095ea7b314610178575b600080fd5b61012361011e366004611275565b610298565b60405190151581526020015b60405180910390f35b6101406102ea565b60405161012f919061135d565b61016061015b3660046112ad565b61037c565b6040516001600160a01b03909116815260200161012f565b61018b61018636600461124c565b610416565b005b61019561052c565b60405190815260200161012f565b61018b6101b1366004611102565b610583565b61018b6101c4366004611102565b6105b4565b6101606101d73660046112ad565b6105cf565b6101956101ea3660046110b6565b610646565b61018b6106cd565b6006546001600160a01b0316610160565b610140610703565b61018b61021e366004611212565b610712565b61018b61023136600461113d565b610721565b6101406102443660046112ad565b610759565b6101236102573660046110d0565b6001600160a01b03918216600090815260056020908152604080832093909416825291909152205460ff1690565b61018b6102933660046110b6565b610841565b60006001600160e01b031982166380ac58cd60e01b14806102c957506001600160e01b03198216635b5e139f60e01b145b806102e457506301ffc9a760e01b6001600160e01b03198316145b92915050565b6060600080546102f9906114b7565b80601f0160208091040260200160405190810160405280929190818152602001828054610325906114b7565b80156103725780601f1061034757610100808354040283529160200191610372565b820191906000526020600020905b81548152906001019060200180831161035557829003601f168201915b5050505050905090565b6000818152600260205260408120546001600160a01b03166103fa5760405162461bcd60e51b815260206004820152602c60248201527f4552433732313a20617070726f76656420717565727920666f72206e6f6e657860448201526b34b9ba32b73a103a37b5b2b760a11b60648201526084015b60405180910390fd5b506000908152600460205260409020546001600160a01b031690565b6000610421826105cf565b9050806001600160a01b0316836001600160a01b0316141561048f5760405162461bcd60e51b815260206004820152602160248201527f4552433732313a20617070726f76616c20746f2063757272656e74206f776e656044820152603960f91b60648201526084016103f1565b336001600160a01b03821614806104ab57506104ab8133610257565b61051d5760405162461bcd60e51b815260206004820152603860248201527f4552433732313a20617070726f76652063616c6c6572206973206e6f74206f7760448201527f6e6572206e6f7220617070726f76656420666f7220616c6c000000000000000060648201526084016103f1565b61052783836108dc565b505050565b6006546000906001600160a01b031633146105595760405162461bcd60e51b81526004016103f1906113c2565b610567600780546001019055565b600061057260075490565b905061057e338261094a565b905090565b61058d3382610a8c565b6105a95760405162461bcd60e51b81526004016103f1906113f7565b610527838383610b83565b61052783838360405180602001604052806000815250610721565b6000818152600260205260408120546001600160a01b0316806102e45760405162461bcd60e51b815260206004820152602960248201527f4552433732313a206f776e657220717565727920666f72206e6f6e657869737460448201526832b73a103a37b5b2b760b91b60648201526084016103f1565b60006001600160a01b0382166106b15760405162461bcd60e51b815260206004820152602a60248201527f4552433732313a2062616c616e636520717565727920666f7220746865207a65604482015269726f206164647265737360b01b60648201526084016103f1565b506001600160a01b031660009081526003602052604090205490565b6006546001600160a01b031633146106f75760405162461bcd60e51b81526004016103f1906113c2565b6107016000610d1f565b565b6060600180546102f9906114b7565b61071d338383610d71565b5050565b61072b3383610a8c565b6107475760405162461bcd60e51b81526004016103f1906113f7565b61075384848484610e40565b50505050565b6000818152600260205260409020546060906001600160a01b03166107d85760405162461bcd60e51b815260206004820152602f60248201527f4552433732314d657461646174613a2055524920717565727920666f72206e6f60448201526e3732bc34b9ba32b73a103a37b5b2b760891b60648201526084016103f1565b60006107ef60408051602081019091526000815290565b9050600081511161080f576040518060200160405280600081525061083a565b8061081984610e73565b60405160200161082a9291906112f1565b6040516020818303038152906040525b9392505050565b6006546001600160a01b0316331461086b5760405162461bcd60e51b81526004016103f1906113c2565b6001600160a01b0381166108d05760405162461bcd60e51b815260206004820152602660248201527f4f776e61626c653a206e6577206f776e657220697320746865207a65726f206160448201526564647265737360d01b60648201526084016103f1565b6108d981610d1f565b50565b600081815260046020526040902080546001600160a01b0319166001600160a01b0384169081179091558190610911826105cf565b6001600160a01b03167f8c5be1e5ebec7d5bd14f71427d1e84f3dd0314c0f7b2291e5b200ac8c7c3b92560405160405180910390a45050565b6001600160a01b0382166109a05760405162461bcd60e51b815260206004820181905260248201527f4552433732313a206d696e7420746f20746865207a65726f206164647265737360448201526064016103f1565b6000818152600260205260409020546001600160a01b031615610a055760405162461bcd60e51b815260206004820152601c60248201527f4552433732313a20746f6b656e20616c7265616479206d696e7465640000000060448201526064016103f1565b6001600160a01b0382166000908152600360205260408120805460019290610a2e908490611448565b909155505060008181526002602052604080822080546001600160a01b0319166001600160a01b03861690811790915590518392907fddf252ad1be2c89b69c2b068fc378daa952ba7f163c4a11628f55a4df523b3ef908290a45050565b6000818152600260205260408120546001600160a01b0316610b055760405162461bcd60e51b815260206004820152602c60248201527f4552433732313a206f70657261746f7220717565727920666f72206e6f6e657860448201526b34b9ba32b73a103a37b5b2b760a11b60648201526084016103f1565b6000610b10836105cf565b9050806001600160a01b0316846001600160a01b03161480610b4b5750836001600160a01b0316610b408461037c565b6001600160a01b0316145b80610b7b57506001600160a01b0380821660009081526005602090815260408083209388168352929052205460ff165b949350505050565b826001600160a01b0316610b96826105cf565b6001600160a01b031614610bfa5760405162461bcd60e51b815260206004820152602560248201527f4552433732313a207472616e736665722066726f6d20696e636f72726563742060448201526437bbb732b960d91b60648201526084016103f1565b6001600160a01b038216610c5c5760405162461bcd60e51b8152602060048201526024808201527f4552433732313a207472616e7366657220746f20746865207a65726f206164646044820152637265737360e01b60648201526084016103f1565b610c676000826108dc565b6001600160a01b0383166000908152600360205260408120805460019290610c90908490611474565b90915550506001600160a01b0382166000908152600360205260408120805460019290610cbe908490611448565b909155505060008181526002602052604080822080546001600160a01b0319166001600160a01b0386811691821790925591518493918716917fddf252ad1be2c89b69c2b068fc378daa952ba7f163c4a11628f55a4df523b3ef91a4505050565b600680546001600160a01b038381166001600160a01b0319831681179093556040519116919082907f8be0079c531659141344cd1fd0a4f28419497f9722a3daafe3b4186f6b6457e090600090a35050565b816001600160a01b0316836001600160a01b03161415610dd35760405162461bcd60e51b815260206004820152601960248201527f4552433732313a20617070726f766520746f2063616c6c65720000000000000060448201526064016103f1565b6001600160a01b03838116600081815260056020908152604080832094871680845294825291829020805460ff191686151590811790915591519182527f17307eab39ab6107e8899845ad3d59bd9653f200f220920489ca2b5937696c31910160405180910390a3505050565b610e4b848484610b83565b610e5784848484610f8d565b6107535760405162461bcd60e51b81526004016103f190611370565b606081610e975750506040805180820190915260018152600360fc1b602082015290565b8160005b8115610ec15780610eab816114f2565b9150610eba9050600a83611460565b9150610e9b565b60008167ffffffffffffffff811115610eea57634e487b7160e01b600052604160045260246000fd5b6040519080825280601f01601f191660200182016040528015610f14576020820181803683370190505b5090505b8415610b7b57610f29600183611474565b9150610f36600a8661150d565b610f41906030611448565b60f81b818381518110610f6457634e487b7160e01b600052603260045260246000fd5b60200101906001600160f81b031916908160001a905350610f86600a86611460565b9450610f18565b60006001600160a01b0384163b1561108f57604051630a85bd0160e11b81526001600160a01b0385169063150b7a0290610fd1903390899088908890600401611320565b602060405180830381600087803b158015610feb57600080fd5b505af192505050801561101b575060408051601f3d908101601f1916820190925261101891810190611291565b60015b611075573d808015611049576040519150601f19603f3d011682016040523d82523d6000602084013e61104e565b606091505b50805161106d5760405162461bcd60e51b81526004016103f190611370565b805181602001fd5b6001600160e01b031916630a85bd0160e11b149050610b7b565b506001949350505050565b80356001600160a01b03811681146110b157600080fd5b919050565b6000602082840312156110c7578081fd5b61083a8261109a565b600080604083850312156110e2578081fd5b6110eb8361109a565b91506110f96020840161109a565b90509250929050565b600080600060608486031215611116578081fd5b61111f8461109a565b925061112d6020850161109a565b9150604084013590509250925092565b60008060008060808587031215611152578081fd5b61115b8561109a565b93506111696020860161109a565b925060408501359150606085013567ffffffffffffffff8082111561118c578283fd5b818701915087601f83011261119f578283fd5b8135818111156111b1576111b161154d565b604051601f8201601f19908116603f011681019083821181831017156111d9576111d961154d565b816040528281528a60208487010111156111f1578586fd5b82602086016020830137918201602001949094529598949750929550505050565b60008060408385031215611224578182fd5b61122d8361109a565b915060208301358015158114611241578182fd5b809150509250929050565b6000806040838503121561125e578182fd5b6112678361109a565b946020939093013593505050565b600060208284031215611286578081fd5b813561083a81611563565b6000602082840312156112a2578081fd5b815161083a81611563565b6000602082840312156112be578081fd5b5035919050565b600081518084526112dd81602086016020860161148b565b601f01601f19169290920160200192915050565b6000835161130381846020880161148b565b83519083019061131781836020880161148b565b01949350505050565b6001600160a01b0385811682528416602082015260408101839052608060608201819052600090611353908301846112c5565b9695505050505050565b60208152600061083a60208301846112c5565b60208082526032908201527f4552433732313a207472616e7366657220746f206e6f6e20455243373231526560408201527131b2b4bb32b91034b6b83632b6b2b73a32b960711b606082015260800190565b6020808252818101527f4f776e61626c653a2063616c6c6572206973206e6f7420746865206f776e6572604082015260600190565b60208082526031908201527f4552433732313a207472616e736665722063616c6c6572206973206e6f74206f6040820152701ddb995c881b9bdc88185c1c1c9bdd9959607a1b606082015260800190565b6000821982111561145b5761145b611521565b500190565b60008261146f5761146f611537565b500490565b60008282101561148657611486611521565b500390565b60005b838110156114a657818101518382015260200161148e565b838111156107535750506000910152565b600181811c908216806114cb57607f821691505b602082108114156114ec57634e487b7160e01b600052602260045260246000fd5b50919050565b600060001982141561150657611506611521565b5060010190565b60008261151c5761151c611537565b500690565b634e487b7160e01b600052601160045260246000fd5b634e487b7160e01b600052601260045260246000fd5b634e487b7160e01b600052604160045260246000fd5b6001600160e01b0319811681146108d957600080fdfea2646970667358221220cc58618b20f6ec85c9cedf0967c62cc41571aed36f2fd403a7c18b60302d7b4c64736f6c63430008040033",
  "immutableReferences": {},
  "source": "// SPDX-License-Identifier: MIT\r\npragma solidity ^0.8.0;\r\n\r\nimport '@openzeppelin/contracts/token/ERC721/ERC721.sol';\r\nimport '@openzeppelin/contracts/access/Ownable.sol';\r\nimport '@openzeppelin/contracts/utils/Counters.sol';\r\n\r\n//enum LandType { NFT, PARK, ROAD }\r\n//uint256 constant MAP_SIZE = 100;\r\n\r\ncontract World is ERC721, Ownable {\r\n    using Counters for Counters.Counter;\r\n    Counters.Counter private _tokenIds;\r\n\r\n    /*struct Land {\r\n        uint256 tokenId;\r\n        address owner;\r\n        LandType landType;\r\n        uint256 price;\r\n        string content;\r\n    }*/\r\n    \r\n    //address[MAP_SIZE][MAP_SIZE] map;\r\n\r\n    constructor() ERC721('Land', 'LAND') Ownable() {}\r\n\r\n    /*function mintAllLands() public {\r\n        for (uint8 i = 0; i < MAP_SIZE; i++) {\r\n            for (uint8 j = 0; j < MAP_SIZE; j++) {\r\n                if (i == 5 || j == 5) {\r\n                    mint(i, j, LandType.ROAD, 0, 'empty');\r\n                } else if (i >= 2 && i <= 4 && j >= 2 && j <= 4\r\n                    || i >= 6 && i <= 7 && j >= 6 && j <= 7) {\r\n                    mint(i, j, LandType.PARK, 0, 'empty');\r\n                } else {\r\n                    mint(i, j, LandType.NFT, 12, 'empty');\r\n                }\r\n            }\r\n        }\r\n    }*/\r\n\r\n    function mint() public onlyOwner returns (uint256) {\r\n        _tokenIds.increment();\r\n        uint256 newItemId = _tokenIds.current();\r\n        _mint(msg.sender, newItemId);\r\n        //map[row][col] = msg.sender;\r\n    \r\n        return newItemId;\r\n    }\r\n\r\n    /*function getMap() public view returns (address[MAP_SIZE][MAP_SIZE] memory) {\r\n        return map;\r\n    }*/\r\n}",
  "sourcePath": "C:\\Users\\elads\\Documents\\\\ \\ \\\\\\Final Project\\contracts\\World.sol",
  "compiler": {
    "name": "solc",
    "version": "0.8.4+commit.c7e474f2.Emscripten.clang"
  },
  "schemaVersion": "3.4.4",
  "updatedAt": "2022-02-15T02:21:38.082Z",
  "networkType": "ethereum",
  "devdoc": {
    "kind": "dev",
    "methods": {
      "approve(address,uint256)": {
        "details": "See {IERC721-approve}."
      },
      "balanceOf(address)": {
        "details": "See {IERC721-balanceOf}."
      },
      "getApproved(uint256)": {
        "details": "See {IERC721-getApproved}."
      },
      "isApprovedForAll(address,address)": {
        "details": "See {IERC721-isApprovedForAll}."
      },
      "name()": {
        "details": "See {IERC721Metadata-name}."
      },
      "owner()": {
        "details": "Returns the address of the current owner."
      },
      "ownerOf(uint256)": {
        "details": "See {IERC721-ownerOf}."
      },
      "renounceOwnership()": {
        "details": "Leaves the contract without owner. It will not be possible to call `onlyOwner` functions anymore. Can only be called by the current owner. NOTE: Renouncing ownership will leave the contract without an owner, thereby removing any functionality that is only available to the owner."
      },
      "safeTransferFrom(address,address,uint256)": {
        "details": "See {IERC721-safeTransferFrom}."
      },
      "safeTransferFrom(address,address,uint256,bytes)": {
        "details": "See {IERC721-safeTransferFrom}."
      },
      "setApprovalForAll(address,bool)": {
        "details": "See {IERC721-setApprovalForAll}."
      },
      "supportsInterface(bytes4)": {
        "details": "See {IERC165-supportsInterface}."
      },
      "symbol()": {
        "details": "See {IERC721Metadata-symbol}."
      },
      "tokenURI(uint256)": {
        "details": "See {IERC721Metadata-tokenURI}."
      },
      "transferFrom(address,address,uint256)": {
        "details": "See {IERC721-transferFrom}."
      },
      "transferOwnership(address)": {
        "details": "Transfers ownership of the contract to a new account (`newOwner`). Can only be called by the current owner."
      }
    },
    "version": 1
  },
  "userdoc": {
    "kind": "user",
    "methods": {},
    "version": 1
  }
}