{
  "contractName": "World",
  "abi": [
    {
      "inputs": [
        {
          "internalType": "contract Token",
          "name": "_token",
          "type": "address"
        }
      ],
      "stateMutability": "nonpayable",
      "type": "constructor"
    },
    {
      "anonymous": false,
      "inputs": [
        {
          "indexed": true,
          "internalType": "address",
          "name": "owner",
          "type": "address"
        },
        {
          "indexed": true,
          "internalType": "address",
          "name": "approved",
          "type": "address"
        },
        {
          "indexed": true,
          "internalType": "uint256",
          "name": "tokenId",
          "type": "uint256"
        }
      ],
      "name": "Approval",
      "type": "event"
    },
    {
      "anonymous": false,
      "inputs": [
        {
          "indexed": true,
          "internalType": "address",
          "name": "owner",
          "type": "address"
        },
        {
          "indexed": true,
          "internalType": "address",
          "name": "operator",
          "type": "address"
        },
        {
          "indexed": false,
          "internalType": "bool",
          "name": "approved",
          "type": "bool"
        }
      ],
      "name": "ApprovalForAll",
      "type": "event"
    },
    {
      "anonymous": false,
      "inputs": [
        {
          "indexed": true,
          "internalType": "address",
          "name": "previousOwner",
          "type": "address"
        },
        {
          "indexed": true,
          "internalType": "address",
          "name": "newOwner",
          "type": "address"
        }
      ],
      "name": "OwnershipTransferred",
      "type": "event"
    },
    {
      "anonymous": false,
      "inputs": [
        {
          "indexed": true,
          "internalType": "address",
          "name": "from",
          "type": "address"
        },
        {
          "indexed": true,
          "internalType": "address",
          "name": "to",
          "type": "address"
        },
        {
          "indexed": true,
          "internalType": "uint256",
          "name": "tokenId",
          "type": "uint256"
        }
      ],
      "name": "Transfer",
      "type": "event"
    },
    {
      "inputs": [
        {
          "internalType": "address",
          "name": "to",
          "type": "address"
        },
        {
          "internalType": "uint256",
          "name": "tokenId",
          "type": "uint256"
        }
      ],
      "name": "approve",
      "outputs": [],
      "stateMutability": "nonpayable",
      "type": "function"
    },
    {
      "inputs": [
        {
          "internalType": "address",
          "name": "owner",
          "type": "address"
        }
      ],
      "name": "balanceOf",
      "outputs": [
        {
          "internalType": "uint256",
          "name": "",
          "type": "uint256"
        }
      ],
      "stateMutability": "view",
      "type": "function",
      "constant": true
    },
    {
      "inputs": [
        {
          "internalType": "uint256",
          "name": "tokenId",
          "type": "uint256"
        }
      ],
      "name": "getApproved",
      "outputs": [
        {
          "internalType": "address",
          "name": "",
          "type": "address"
        }
      ],
      "stateMutability": "view",
      "type": "function",
      "constant": true
    },
    {
      "inputs": [
        {
          "internalType": "address",
          "name": "owner",
          "type": "address"
        },
        {
          "internalType": "address",
          "name": "operator",
          "type": "address"
        }
      ],
      "name": "isApprovedForAll",
      "outputs": [
        {
          "internalType": "bool",
          "name": "",
          "type": "bool"
        }
      ],
      "stateMutability": "view",
      "type": "function",
      "constant": true
    },
    {
      "inputs": [],
      "name": "name",
      "outputs": [
        {
          "internalType": "string",
          "name": "",
          "type": "string"
        }
      ],
      "stateMutability": "view",
      "type": "function",
      "constant": true
    },
    {
      "inputs": [],
      "name": "owner",
      "outputs": [
        {
          "internalType": "address",
          "name": "",
          "type": "address"
        }
      ],
      "stateMutability": "view",
      "type": "function",
      "constant": true
    },
    {
      "inputs": [
        {
          "internalType": "uint256",
          "name": "tokenId",
          "type": "uint256"
        }
      ],
      "name": "ownerOf",
      "outputs": [
        {
          "internalType": "address",
          "name": "",
          "type": "address"
        }
      ],
      "stateMutability": "view",
      "type": "function",
      "constant": true
    },
    {
      "inputs": [],
      "name": "renounceOwnership",
      "outputs": [],
      "stateMutability": "nonpayable",
      "type": "function"
    },
    {
      "inputs": [
        {
          "internalType": "address",
          "name": "from",
          "type": "address"
        },
        {
          "internalType": "address",
          "name": "to",
          "type": "address"
        },
        {
          "internalType": "uint256",
          "name": "tokenId",
          "type": "uint256"
        }
      ],
      "name": "safeTransferFrom",
      "outputs": [],
      "stateMutability": "nonpayable",
      "type": "function"
    },
    {
      "inputs": [
        {
          "internalType": "address",
          "name": "from",
          "type": "address"
        },
        {
          "internalType": "address",
          "name": "to",
          "type": "address"
        },
        {
          "internalType": "uint256",
          "name": "tokenId",
          "type": "uint256"
        },
        {
          "internalType": "bytes",
          "name": "_data",
          "type": "bytes"
        }
      ],
      "name": "safeTransferFrom",
      "outputs": [],
      "stateMutability": "nonpayable",
      "type": "function"
    },
    {
      "inputs": [
        {
          "internalType": "address",
          "name": "operator",
          "type": "address"
        },
        {
          "internalType": "bool",
          "name": "approved",
          "type": "bool"
        }
      ],
      "name": "setApprovalForAll",
      "outputs": [],
      "stateMutability": "nonpayable",
      "type": "function"
    },
    {
      "inputs": [
        {
          "internalType": "bytes4",
          "name": "interfaceId",
          "type": "bytes4"
        }
      ],
      "name": "supportsInterface",
      "outputs": [
        {
          "internalType": "bool",
          "name": "",
          "type": "bool"
        }
      ],
      "stateMutability": "view",
      "type": "function",
      "constant": true
    },
    {
      "inputs": [],
      "name": "symbol",
      "outputs": [
        {
          "internalType": "string",
          "name": "",
          "type": "string"
        }
      ],
      "stateMutability": "view",
      "type": "function",
      "constant": true
    },
    {
      "inputs": [
        {
          "internalType": "uint256",
          "name": "tokenId",
          "type": "uint256"
        }
      ],
      "name": "tokenURI",
      "outputs": [
        {
          "internalType": "string",
          "name": "",
          "type": "string"
        }
      ],
      "stateMutability": "view",
      "type": "function",
      "constant": true
    },
    {
      "inputs": [
        {
          "internalType": "address",
          "name": "from",
          "type": "address"
        },
        {
          "internalType": "address",
          "name": "to",
          "type": "address"
        },
        {
          "internalType": "uint256",
          "name": "tokenId",
          "type": "uint256"
        }
      ],
      "name": "transferFrom",
      "outputs": [],
      "stateMutability": "nonpayable",
      "type": "function"
    },
    {
      "inputs": [
        {
          "internalType": "address",
          "name": "newOwner",
          "type": "address"
        }
      ],
      "name": "transferOwnership",
      "outputs": [],
      "stateMutability": "nonpayable",
      "type": "function"
    },
    {
      "inputs": [
        {
          "internalType": "uint256",
          "name": "tokenId",
          "type": "uint256"
        },
        {
          "internalType": "string",
          "name": "tokenURI",
          "type": "string"
        }
      ],
      "name": "mint",
      "outputs": [],
      "stateMutability": "nonpayable",
      "type": "function"
    },
    {
      "inputs": [],
      "name": "getTokensCount",
      "outputs": [
        {
          "internalType": "uint256",
          "name": "",
          "type": "uint256"
        }
      ],
      "stateMutability": "view",
      "type": "function",
      "constant": true
    },
    {
      "inputs": [],
      "name": "getMap",
      "outputs": [
        {
          "internalType": "address[]",
          "name": "",
          "type": "address[]"
        },
        {
          "internalType": "string[]",
          "name": "",
          "type": "string[]"
        }
      ],
      "stateMutability": "view",
      "type": "function",
      "constant": true
    },
    {
      "inputs": [
        {
          "internalType": "uint256",
          "name": "tokenId",
          "type": "uint256"
        },
        {
          "internalType": "uint256",
          "name": "price",
          "type": "uint256"
        }
      ],
      "name": "buyLand",
      "outputs": [
        {
          "internalType": "bool",
          "name": "",
          "type": "bool"
        }
      ],
      "stateMutability": "payable",
      "type": "function",
      "payable": true
    },
    {
      "inputs": [
        {
          "internalType": "uint256",
          "name": "tokenId",
          "type": "uint256"
        },
        {
          "internalType": "string",
          "name": "tokenURI",
          "type": "string"
        }
      ],
      "name": "updateLand",
      "outputs": [],
      "stateMutability": "nonpayable",
      "type": "function"
    }
  ],
  "bytecode": "0x60806040523480156200001157600080fd5b5060405162002051380380620020518339810160408190526200003491620001e0565b6040518060400160405280600481526020016313185b9960e21b815250604051806040016040528060048152602001631310539160e21b8152508160009080519060200190620000869291906200013a565b5080516200009c9060019060208401906200013a565b505050620000b9620000b3620000e460201b60201c565b620000e8565b600880546001600160a01b0319166001600160a01b039290921691909117905560006009556200024d565b3390565b600780546001600160a01b038381166001600160a01b0319831681179093556040519116919082907f8be0079c531659141344cd1fd0a4f28419497f9722a3daafe3b4186f6b6457e090600090a35050565b828054620001489062000210565b90600052602060002090601f0160209004810192826200016c5760008555620001b7565b82601f106200018757805160ff1916838001178555620001b7565b82800160010185558215620001b7579182015b82811115620001b75782518255916020019190600101906200019a565b50620001c5929150620001c9565b5090565b5b80821115620001c55760008155600101620001ca565b600060208284031215620001f2578081fd5b81516001600160a01b038116811462000209578182fd5b9392505050565b600181811c908216806200022557607f821691505b602082108114156200024757634e487b7160e01b600052602260045260246000fd5b50919050565b611df4806200025d6000396000f3fe60806040526004361061012a5760003560e01c806377097fc8116100ab578063ad3de14c1161006f578063ad3de14c14610327578063b88d4fde1461034a578063be977cd41461036a578063c87b56dd1461037d578063e985e9c51461039d578063f2fde38b146103e657600080fd5b806377097fc8146102945780638da5cb5b146102b457806395d89b41146102d2578063a18f7d98146102e7578063a22cb4651461030757600080fd5b80633962f82d116100f25780633962f82d1461020057806342842e0e1461021f5780636352211e1461023f57806370a082311461025f578063715018a61461027f57600080fd5b806301ffc9a71461012f57806306fdde0314610164578063081812fc14610186578063095ea7b3146101be57806323b872dd146101e0575b600080fd5b34801561013b57600080fd5b5061014f61014a366004611974565b610406565b60405190151581526020015b60405180910390f35b34801561017057600080fd5b50610179610458565b60405161015b9190611b75565b34801561019257600080fd5b506101a66101a13660046119ac565b6104ea565b6040516001600160a01b03909116815260200161015b565b3480156101ca57600080fd5b506101de6101d936600461192f565b610577565b005b3480156101ec57600080fd5b506101de6101fb366004611845565b61068d565b34801561020c57600080fd5b506009545b60405190815260200161015b565b34801561022b57600080fd5b506101de61023a366004611845565b6106be565b34801561024b57600080fd5b506101a661025a3660046119ac565b6106d9565b34801561026b57600080fd5b5061021161027a3660046117f9565b610750565b34801561028b57600080fd5b506101de6107d7565b3480156102a057600080fd5b506101de6102af3660046119c4565b61080d565b3480156102c057600080fd5b506007546001600160a01b03166101a6565b3480156102de57600080fd5b50610179610854565b3480156102f357600080fd5b506101de6103023660046119c4565b610863565b34801561031357600080fd5b506101de6103223660046118f9565b610889565b34801561033357600080fd5b5061033c610894565b60405161015b929190611ad5565b34801561035657600080fd5b506101de610365366004611880565b6109f8565b61014f610378366004611a1c565b610a30565b34801561038957600080fd5b506101796103983660046119ac565b610ba6565b3480156103a957600080fd5b5061014f6103b8366004611813565b6001600160a01b03918216600090815260056020908152604080832093909416825291909152205460ff1690565b3480156103f257600080fd5b506101de6104013660046117f9565b610d15565b60006001600160e01b031982166380ac58cd60e01b148061043757506001600160e01b03198216635b5e139f60e01b145b8061045257506301ffc9a760e01b6001600160e01b03198316145b92915050565b60606000805461046790611cee565b80601f016020809104026020016040519081016040528092919081815260200182805461049390611cee565b80156104e05780601f106104b5576101008083540402835291602001916104e0565b820191906000526020600020905b8154815290600101906020018083116104c357829003601f168201915b5050505050905090565b60006104f582610db0565b61055b5760405162461bcd60e51b815260206004820152602c60248201527f4552433732313a20617070726f76656420717565727920666f72206e6f6e657860448201526b34b9ba32b73a103a37b5b2b760a11b60648201526084015b60405180910390fd5b506000908152600460205260409020546001600160a01b031690565b6000610582826106d9565b9050806001600160a01b0316836001600160a01b031614156105f05760405162461bcd60e51b815260206004820152602160248201527f4552433732313a20617070726f76616c20746f2063757272656e74206f776e656044820152603960f91b6064820152608401610552565b336001600160a01b038216148061060c575061060c81336103b8565b61067e5760405162461bcd60e51b815260206004820152603860248201527f4552433732313a20617070726f76652063616c6c6572206973206e6f74206f7760448201527f6e6572206e6f7220617070726f76656420666f7220616c6c00000000000000006064820152608401610552565b6106888383610dcd565b505050565b6106973382610e3b565b6106b35760405162461bcd60e51b815260040161055290611c0f565b610688838383610f21565b610688838383604051806020016040528060008152506109f8565b6000818152600260205260408120546001600160a01b0316806104525760405162461bcd60e51b815260206004820152602960248201527f4552433732313a206f776e657220717565727920666f72206e6f6e657869737460448201526832b73a103a37b5b2b760b91b6064820152608401610552565b60006001600160a01b0382166107bb5760405162461bcd60e51b815260206004820152602a60248201527f4552433732313a2062616c616e636520717565727920666f7220746865207a65604482015269726f206164647265737360b01b6064820152608401610552565b506001600160a01b031660009081526003602052604090205490565b6007546001600160a01b031633146108015760405162461bcd60e51b815260040161055290611bda565b61080b60006110bd565b565b6007546001600160a01b031633146108375760405162461bcd60e51b815260040161055290611bda565b6009829055610846338361110f565b6108508282611242565b5050565b60606001805461046790611cee565b61086c826106d9565b6001600160a01b0316336001600160a01b03161461084657600080fd5b6108503383836112cd565b606080600060095467ffffffffffffffff8111156108c257634e487b7160e01b600052604160045260246000fd5b6040519080825280602002602001820160405280156108eb578160200160208202803683370190505b509050600060095467ffffffffffffffff81111561091957634e487b7160e01b600052604160045260246000fd5b60405190808252806020026020018201604052801561094c57816020015b60608152602001906001900390816109375790505b50905060005b6009548110156109ee5761096a61025a826001611c60565b83828151811061098a57634e487b7160e01b600052603260045260246000fd5b6001600160a01b03909216602092830291909101909101526109b0610398826001611c60565b8282815181106109d057634e487b7160e01b600052603260045260246000fd5b602002602001018190525080806109e690611d29565b915050610952565b5090939092509050565b610a023383610e3b565b610a1e5760405162461bcd60e51b815260040161055290611c0f565b610a2a8484848461139c565b50505050565b600080610a3c846106d9565b6008549091506001600160a01b031663095ea7b333610a5b8634611c8c565b6040516001600160e01b031960e085901b1681526001600160a01b0390921660048301526024820152604401602060405180830381600087803b158015610aa157600080fd5b505af1158015610ab5573d6000803e3d6000fd5b505050506040513d601f19601f82011682018060405250810190610ad99190611958565b506008546000906001600160a01b03166323b872dd3384610afa8834611c8c565b6040516001600160e01b031960e086901b1681526001600160a01b0393841660048201529290911660248301526044820152606401602060405180830381600087803b158015610b4957600080fd5b505af1158015610b5d573d6000803e3d6000fd5b505050506040513d601f19601f82011682018060405250810190610b819190611958565b90508015610b9e57610b92856104ea565b50610b9e82338761068d565b949350505050565b6060610bb182610db0565b610c175760405162461bcd60e51b815260206004820152603160248201527f45524337323155524953746f726167653a2055524920717565727920666f72206044820152703737b732bc34b9ba32b73a103a37b5b2b760791b6064820152608401610552565b60008281526006602052604081208054610c3090611cee565b80601f0160208091040260200160405190810160405280929190818152602001828054610c5c90611cee565b8015610ca95780601f10610c7e57610100808354040283529160200191610ca9565b820191906000526020600020905b815481529060010190602001808311610c8c57829003601f168201915b505050505090506000610cc760408051602081019091526000815290565b9050805160001415610cda575092915050565b815115610d0c578082604051602001610cf4929190611a69565b60405160208183030381529060405292505050919050565b610b9e846113cf565b6007546001600160a01b03163314610d3f5760405162461bcd60e51b815260040161055290611bda565b6001600160a01b038116610da45760405162461bcd60e51b815260206004820152602660248201527f4f776e61626c653a206e6577206f776e657220697320746865207a65726f206160448201526564647265737360d01b6064820152608401610552565b610dad816110bd565b50565b6000908152600260205260409020546001600160a01b0316151590565b600081815260046020526040902080546001600160a01b0319166001600160a01b0384169081179091558190610e02826106d9565b6001600160a01b03167f8c5be1e5ebec7d5bd14f71427d1e84f3dd0314c0f7b2291e5b200ac8c7c3b92560405160405180910390a45050565b6000610e4682610db0565b610ea75760405162461bcd60e51b815260206004820152602c60248201527f4552433732313a206f70657261746f7220717565727920666f72206e6f6e657860448201526b34b9ba32b73a103a37b5b2b760a11b6064820152608401610552565b6000610eb2836106d9565b9050806001600160a01b0316846001600160a01b03161480610eed5750836001600160a01b0316610ee2846104ea565b6001600160a01b0316145b80610b9e57506001600160a01b0380821660009081526005602090815260408083209388168352929052205460ff16610b9e565b826001600160a01b0316610f34826106d9565b6001600160a01b031614610f985760405162461bcd60e51b815260206004820152602560248201527f4552433732313a207472616e736665722066726f6d20696e636f72726563742060448201526437bbb732b960d91b6064820152608401610552565b6001600160a01b038216610ffa5760405162461bcd60e51b8152602060048201526024808201527f4552433732313a207472616e7366657220746f20746865207a65726f206164646044820152637265737360e01b6064820152608401610552565b611005600082610dcd565b6001600160a01b038316600090815260036020526040812080546001929061102e908490611cab565b90915550506001600160a01b038216600090815260036020526040812080546001929061105c908490611c60565b909155505060008181526002602052604080822080546001600160a01b0319166001600160a01b0386811691821790925591518493918716917fddf252ad1be2c89b69c2b068fc378daa952ba7f163c4a11628f55a4df523b3ef91a4505050565b600780546001600160a01b038381166001600160a01b0319831681179093556040519116919082907f8be0079c531659141344cd1fd0a4f28419497f9722a3daafe3b4186f6b6457e090600090a35050565b6001600160a01b0382166111655760405162461bcd60e51b815260206004820181905260248201527f4552433732313a206d696e7420746f20746865207a65726f20616464726573736044820152606401610552565b61116e81610db0565b156111bb5760405162461bcd60e51b815260206004820152601c60248201527f4552433732313a20746f6b656e20616c7265616479206d696e746564000000006044820152606401610552565b6001600160a01b03821660009081526003602052604081208054600192906111e4908490611c60565b909155505060008181526002602052604080822080546001600160a01b0319166001600160a01b03861690811790915590518392907fddf252ad1be2c89b69c2b068fc378daa952ba7f163c4a11628f55a4df523b3ef908290a45050565b61124b82610db0565b6112ae5760405162461bcd60e51b815260206004820152602e60248201527f45524337323155524953746f726167653a2055524920736574206f66206e6f6e60448201526d32bc34b9ba32b73a103a37b5b2b760911b6064820152608401610552565b60008281526006602090815260409091208251610688928401906116ce565b816001600160a01b0316836001600160a01b0316141561132f5760405162461bcd60e51b815260206004820152601960248201527f4552433732313a20617070726f766520746f2063616c6c6572000000000000006044820152606401610552565b6001600160a01b03838116600081815260056020908152604080832094871680845294825291829020805460ff191686151590811790915591519182527f17307eab39ab6107e8899845ad3d59bd9653f200f220920489ca2b5937696c31910160405180910390a3505050565b6113a7848484610f21565b6113b3848484846114a7565b610a2a5760405162461bcd60e51b815260040161055290611b88565b60606113da82610db0565b61143e5760405162461bcd60e51b815260206004820152602f60248201527f4552433732314d657461646174613a2055524920717565727920666f72206e6f60448201526e3732bc34b9ba32b73a103a37b5b2b760891b6064820152608401610552565b600061145560408051602081019091526000815290565b9050600081511161147557604051806020016040528060008152506114a0565b8061147f846115b4565b604051602001611490929190611a69565b6040516020818303038152906040525b9392505050565b60006001600160a01b0384163b156115a957604051630a85bd0160e11b81526001600160a01b0385169063150b7a02906114eb903390899088908890600401611a98565b602060405180830381600087803b15801561150557600080fd5b505af1925050508015611535575060408051601f3d908101601f1916820190925261153291810190611990565b60015b61158f573d808015611563576040519150601f19603f3d011682016040523d82523d6000602084013e611568565b606091505b5080516115875760405162461bcd60e51b815260040161055290611b88565b805181602001fd5b6001600160e01b031916630a85bd0160e11b149050610b9e565b506001949350505050565b6060816115d85750506040805180820190915260018152600360fc1b602082015290565b8160005b811561160257806115ec81611d29565b91506115fb9050600a83611c78565b91506115dc565b60008167ffffffffffffffff81111561162b57634e487b7160e01b600052604160045260246000fd5b6040519080825280601f01601f191660200182016040528015611655576020820181803683370190505b5090505b8415610b9e5761166a600183611cab565b9150611677600a86611d44565b611682906030611c60565b60f81b8183815181106116a557634e487b7160e01b600052603260045260246000fd5b60200101906001600160f81b031916908160001a9053506116c7600a86611c78565b9450611659565b8280546116da90611cee565b90600052602060002090601f0160209004810192826116fc5760008555611742565b82601f1061171557805160ff1916838001178555611742565b82800160010185558215611742579182015b82811115611742578251825591602001919060010190611727565b5061174e929150611752565b5090565b5b8082111561174e5760008155600101611753565b600067ffffffffffffffff8084111561178257611782611d84565b604051601f8501601f19908116603f011681019082821181831017156117aa576117aa611d84565b816040528093508581528686860111156117c357600080fd5b858560208301376000602087830101525050509392505050565b80356001600160a01b03811681146117f457600080fd5b919050565b60006020828403121561180a578081fd5b6114a0826117dd565b60008060408385031215611825578081fd5b61182e836117dd565b915061183c602084016117dd565b90509250929050565b600080600060608486031215611859578081fd5b611862846117dd565b9250611870602085016117dd565b9150604084013590509250925092565b60008060008060808587031215611895578081fd5b61189e856117dd565b93506118ac602086016117dd565b925060408501359150606085013567ffffffffffffffff8111156118ce578182fd5b8501601f810187136118de578182fd5b6118ed87823560208401611767565b91505092959194509250565b6000806040838503121561190b578182fd5b611914836117dd565b9150602083013561192481611d9a565b809150509250929050565b60008060408385031215611941578182fd5b61194a836117dd565b946020939093013593505050565b600060208284031215611969578081fd5b81516114a081611d9a565b600060208284031215611985578081fd5b81356114a081611da8565b6000602082840312156119a1578081fd5b81516114a081611da8565b6000602082840312156119bd578081fd5b5035919050565b600080604083850312156119d6578182fd5b82359150602083013567ffffffffffffffff8111156119f3578182fd5b8301601f81018513611a03578182fd5b611a1285823560208401611767565b9150509250929050565b60008060408385031215611a2e578182fd5b50508035926020909101359150565b60008151808452611a55816020860160208601611cc2565b601f01601f19169290920160200192915050565b60008351611a7b818460208801611cc2565b835190830190611a8f818360208801611cc2565b01949350505050565b6001600160a01b0385811682528416602082015260408101839052608060608201819052600090611acb90830184611a3d565b9695505050505050565b604080825283519082018190526000906020906060840190828701845b82811015611b175781516001600160a01b031684529284019290840190600101611af2565b50505083810382850152845180825282820190600581901b83018401878501865b83811015611b6657601f19868403018552611b54838351611a3d565b94870194925090860190600101611b38565b50909998505050505050505050565b6020815260006114a06020830184611a3d565b60208082526032908201527f4552433732313a207472616e7366657220746f206e6f6e20455243373231526560408201527131b2b4bb32b91034b6b83632b6b2b73a32b960711b606082015260800190565b6020808252818101527f4f776e61626c653a2063616c6c6572206973206e6f7420746865206f776e6572604082015260600190565b60208082526031908201527f4552433732313a207472616e736665722063616c6c6572206973206e6f74206f6040820152701ddb995c881b9bdc88185c1c1c9bdd9959607a1b606082015260800190565b60008219821115611c7357611c73611d58565b500190565b600082611c8757611c87611d6e565b500490565b6000816000190483118215151615611ca657611ca6611d58565b500290565b600082821015611cbd57611cbd611d58565b500390565b60005b83811015611cdd578181015183820152602001611cc5565b83811115610a2a5750506000910152565b600181811c90821680611d0257607f821691505b60208210811415611d2357634e487b7160e01b600052602260045260246000fd5b50919050565b6000600019821415611d3d57611d3d611d58565b5060010190565b600082611d5357611d53611d6e565b500690565b634e487b7160e01b600052601160045260246000fd5b634e487b7160e01b600052601260045260246000fd5b634e487b7160e01b600052604160045260246000fd5b8015158114610dad57600080fd5b6001600160e01b031981168114610dad57600080fdfea26469706673582212202e74ee8aadcb6447758305153b2cb69990a2f2485412968a3693de292a79c17f64736f6c63430008040033",
  "immutableReferences": {},
  "source": "// SPDX-License-Identifier: MIT\r\npragma solidity ^0.8.0;\r\n\r\nimport '@openzeppelin/contracts/token/ERC721/extensions/ERC721URIStorage.sol';\r\nimport '@openzeppelin/contracts/access/Ownable.sol';\r\nimport '@openzeppelin/contracts/utils/Counters.sol';\r\nimport './Token.sol';\r\n\r\ncontract World is ERC721URIStorage, Ownable {\r\n    Token token;\r\n    uint256 private numOfTokens;\r\n\r\n    constructor(Token _token) ERC721('Land', 'LAND') Ownable() {\r\n        token = _token;\r\n        numOfTokens = 0;\r\n    }\r\n\r\n    function mint(uint256 tokenId, string memory tokenURI) public onlyOwner {\r\n        numOfTokens = tokenId;\r\n        _mint(msg.sender, tokenId);\r\n        _setTokenURI(tokenId, tokenURI);\r\n    }\r\n\r\n    function getTokensCount() public view returns (uint256) {\r\n        return numOfTokens;\r\n    }\r\n\r\n    function getMap() public view returns (address[] memory, string[] memory) {\r\n        address[] memory owners = new address[](numOfTokens);\r\n        string[] memory map = new string[](numOfTokens);\r\n\r\n        for (uint256 i = 0; i < numOfTokens; i++) {\r\n            owners[i] = ownerOf(i + 1);\r\n            map[i] = tokenURI(i + 1);\r\n        }\r\n\r\n        return (owners, map);\r\n    }\r\n\r\n    function buyLand(uint256 tokenId, uint256 price) public payable returns (bool) {\r\n        address ownerOfToken = ownerOf(tokenId);\r\n        token.approve(msg.sender, msg.value * price);\r\n        bool success = token.transferFrom(msg.sender, ownerOfToken, msg.value * price);\r\n\r\n        if (success) {\r\n            getApproved(tokenId);\r\n            transferFrom(ownerOfToken, msg.sender, tokenId);\r\n        }\r\n\r\n        return success;\r\n    }\r\n\r\n    function updateLand(uint256 tokenId, string memory tokenURI) public {\r\n        require(msg.sender == ownerOf(tokenId));\r\n        _setTokenURI(tokenId, tokenURI);\r\n    }\r\n}",
  "sourcePath": "C:\\Users\\elads\\Documents\\\\ \\ \\\\\\Final Project\\contracts\\World.sol",
  "compiler": {
    "name": "solc",
    "version": "0.8.4+commit.c7e474f2.Emscripten.clang"
  },
  "schemaVersion": "3.4.4",
  "updatedAt": "2022-02-17T02:16:24.932Z",
  "networkType": "ethereum",
  "devdoc": {
    "kind": "dev",
    "methods": {
      "approve(address,uint256)": {
        "details": "See {IERC721-approve}."
      },
      "balanceOf(address)": {
        "details": "See {IERC721-balanceOf}."
      },
      "getApproved(uint256)": {
        "details": "See {IERC721-getApproved}."
      },
      "isApprovedForAll(address,address)": {
        "details": "See {IERC721-isApprovedForAll}."
      },
      "name()": {
        "details": "See {IERC721Metadata-name}."
      },
      "owner()": {
        "details": "Returns the address of the current owner."
      },
      "ownerOf(uint256)": {
        "details": "See {IERC721-ownerOf}."
      },
      "renounceOwnership()": {
        "details": "Leaves the contract without owner. It will not be possible to call `onlyOwner` functions anymore. Can only be called by the current owner. NOTE: Renouncing ownership will leave the contract without an owner, thereby removing any functionality that is only available to the owner."
      },
      "safeTransferFrom(address,address,uint256)": {
        "details": "See {IERC721-safeTransferFrom}."
      },
      "safeTransferFrom(address,address,uint256,bytes)": {
        "details": "See {IERC721-safeTransferFrom}."
      },
      "setApprovalForAll(address,bool)": {
        "details": "See {IERC721-setApprovalForAll}."
      },
      "supportsInterface(bytes4)": {
        "details": "See {IERC165-supportsInterface}."
      },
      "symbol()": {
        "details": "See {IERC721Metadata-symbol}."
      },
      "tokenURI(uint256)": {
        "details": "See {IERC721Metadata-tokenURI}."
      },
      "transferFrom(address,address,uint256)": {
        "details": "See {IERC721-transferFrom}."
      },
      "transferOwnership(address)": {
        "details": "Transfers ownership of the contract to a new account (`newOwner`). Can only be called by the current owner."
      }
    },
    "version": 1
  },
  "userdoc": {
    "kind": "user",
    "methods": {},
    "version": 1
  }
}