{
  "contractName": "World",
  "abi": [
    {
      "inputs": [],
      "payable": false,
      "stateMutability": "nonpayable",
      "type": "constructor"
    },
    {
      "constant": true,
      "inputs": [
        {
          "internalType": "address",
          "name": "",
          "type": "address"
        },
        {
          "internalType": "uint256",
          "name": "",
          "type": "uint256"
        }
      ],
      "name": "lands",
      "outputs": [
        {
          "internalType": "address",
          "name": "owner",
          "type": "address"
        },
        {
          "internalType": "enum World.LandType",
          "name": "landType",
          "type": "uint8"
        },
        {
          "internalType": "uint256",
          "name": "price",
          "type": "uint256"
        },
        {
          "internalType": "string",
          "name": "content",
          "type": "string"
        },
        {
          "internalType": "uint8",
          "name": "row",
          "type": "uint8"
        },
        {
          "internalType": "uint8",
          "name": "col",
          "type": "uint8"
        }
      ],
      "payable": false,
      "stateMutability": "view",
      "type": "function"
    },
    {
      "constant": true,
      "inputs": [
        {
          "internalType": "uint256",
          "name": "",
          "type": "uint256"
        },
        {
          "internalType": "uint256",
          "name": "",
          "type": "uint256"
        }
      ],
      "name": "map",
      "outputs": [
        {
          "internalType": "address",
          "name": "owner",
          "type": "address"
        },
        {
          "internalType": "enum World.LandType",
          "name": "landType",
          "type": "uint8"
        },
        {
          "internalType": "uint256",
          "name": "price",
          "type": "uint256"
        },
        {
          "internalType": "string",
          "name": "content",
          "type": "string"
        },
        {
          "internalType": "uint8",
          "name": "row",
          "type": "uint8"
        },
        {
          "internalType": "uint8",
          "name": "col",
          "type": "uint8"
        }
      ],
      "payable": false,
      "stateMutability": "view",
      "type": "function"
    },
    {
      "constant": false,
      "inputs": [
        {
          "internalType": "uint256",
          "name": "row",
          "type": "uint256"
        },
        {
          "internalType": "uint256",
          "name": "col",
          "type": "uint256"
        }
      ],
      "name": "buyLand",
      "outputs": [
        {
          "internalType": "bool",
          "name": "success",
          "type": "bool"
        }
      ],
      "payable": false,
      "stateMutability": "nonpayable",
      "type": "function"
    },
    {
      "constant": true,
      "inputs": [],
      "name": "getMap",
      "outputs": [
        {
          "components": [
            {
              "internalType": "address",
              "name": "owner",
              "type": "address"
            },
            {
              "internalType": "enum World.LandType",
              "name": "landType",
              "type": "uint8"
            },
            {
              "internalType": "uint256",
              "name": "price",
              "type": "uint256"
            },
            {
              "internalType": "string",
              "name": "content",
              "type": "string"
            },
            {
              "internalType": "uint8",
              "name": "row",
              "type": "uint8"
            },
            {
              "internalType": "uint8",
              "name": "col",
              "type": "uint8"
            }
          ],
          "internalType": "struct World.Land[9][9]",
          "name": "",
          "type": "tuple[9][9]"
        }
      ],
      "payable": false,
      "stateMutability": "view",
      "type": "function"
    },
    {
      "constant": true,
      "inputs": [],
      "name": "getOwner",
      "outputs": [
        {
          "internalType": "address",
          "name": "",
          "type": "address"
        }
      ],
      "payable": false,
      "stateMutability": "view",
      "type": "function"
    },
    {
      "constant": true,
      "inputs": [],
      "name": "getMyLands",
      "outputs": [
        {
          "components": [
            {
              "internalType": "address",
              "name": "owner",
              "type": "address"
            },
            {
              "internalType": "enum World.LandType",
              "name": "landType",
              "type": "uint8"
            },
            {
              "internalType": "uint256",
              "name": "price",
              "type": "uint256"
            },
            {
              "internalType": "string",
              "name": "content",
              "type": "string"
            },
            {
              "internalType": "uint8",
              "name": "row",
              "type": "uint8"
            },
            {
              "internalType": "uint8",
              "name": "col",
              "type": "uint8"
            }
          ],
          "internalType": "struct World.Land[]",
          "name": "",
          "type": "tuple[]"
        }
      ],
      "payable": false,
      "stateMutability": "view",
      "type": "function"
    }
  ],
  "bytecode": "0x60806040523480156200001157600080fd5b50336000806101000a81548173ffffffffffffffffffffffffffffffffffffffff021916908373ffffffffffffffffffffffffffffffffffffffff160217905550620000626200006860201b60201c565b620003eb565b60008090505b60098160ff161015620003e85760008090505b60098160ff161015620003d9576000809054906101000a900473ffffffffffffffffffffffffffffffffffffffff1660018360ff1660098110620000c157fe5b602402018260ff1660098110620000d457fe5b6004020160000160006101000a81548173ffffffffffffffffffffffffffffffffffffffff021916908373ffffffffffffffffffffffffffffffffffffffff1602179055508160018360ff16600981106200012b57fe5b602402018260ff16600981106200013e57fe5b6004020160030160006101000a81548160ff021916908360ff1602179055508060018360ff16600981106200016f57fe5b602402018260ff16600981106200018257fe5b6004020160030160016101000a81548160ff021916908360ff16021790555060058260ff161480620001b7575060058160ff16145b156200024257600260018360ff1660098110620001d057fe5b602402018260ff1660098110620001e357fe5b6004020160000160146101000a81548160ff021916908360028111156200020657fe5b0217905550600060018360ff16600981106200021e57fe5b602402018260ff16600981106200023157fe5b6004020160010181905550620003cb565b60028260ff16101580156200025b575060048260ff1611155b80156200026c575060028160ff1610155b80156200027d575060048160ff1611155b80620002c0575060068260ff16101580156200029d575060088260ff1611155b8015620002ae575060068160ff1610155b8015620002bf575060088160ff1611155b5b156200034a576001808360ff1660098110620002d857fe5b602402018260ff1660098110620002eb57fe5b6004020160000160146101000a81548160ff021916908360028111156200030e57fe5b0217905550600a60018360ff16600981106200032657fe5b602402018260ff16600981106200033957fe5b6004020160010181905550620003ca565b600060018360ff16600981106200035d57fe5b602402018260ff16600981106200037057fe5b6004020160000160146101000a81548160ff021916908360028111156200039357fe5b0217905550600f60018360ff1660098110620003ab57fe5b602402018260ff1660098110620003be57fe5b60040201600101819055505b5b808060010191505062000081565b5080806001019150506200006e565b50565b61122880620003fb6000396000f3fe608060405234801561001057600080fd5b50600436106100625760003560e01c80630695b9c314610067578063756efcf714610085578063893d20e8146100ba578063a90b9128146100d8578063ad3de14c1461010d578063be977cd41461012b575b600080fd5b61006f61015b565b60405161007c9190610fef565b60405180910390f35b61009f600480360361009a9190810190610bc9565b610361565b6040516100b196959493929190610f65565b60405180910390f35b6100c2610497565b6040516100cf9190610f4a565b60405180910390f35b6100f260048036036100ed9190810190610c05565b6104c0565b60405161010496959493929190610f65565b60405180910390f35b6101156105ee565b6040516101229190610fcd565b60405180910390f35b61014560048036036101409190810190610c05565b6107e1565b6040516101529190611011565b60405180910390f35b606061014560003373ffffffffffffffffffffffffffffffffffffffff1673ffffffffffffffffffffffffffffffffffffffff168152602001908152602001600020805480602002602001604051908101604052809291908181526020016000905b8282101561035857838290600052602060002090600402016040518060c00160405290816000820160009054906101000a900473ffffffffffffffffffffffffffffffffffffffff1673ffffffffffffffffffffffffffffffffffffffff1673ffffffffffffffffffffffffffffffffffffffff1681526020016000820160149054906101000a900460ff16600281111561025457fe5b600281111561025f57fe5b815260200160018201548152602001600282018054600181600116156101000203166002900480601f0160208091040260200160405190810160405280929190818152602001828054600181600116156101000203166002900480156103065780601f106102db57610100808354040283529160200191610306565b820191906000526020600020905b8154815290600101906020018083116102e957829003601f168201915b505050505081526020016003820160009054906101000a900460ff1660ff1660ff1681526020016003820160019054906101000a900460ff1660ff1660ff1681525050815260200190600101906101bd565b50505050905090565b610145602052816000526040600020818154811061037b57fe5b9060005260206000209060040201600091509150508060000160009054906101000a900473ffffffffffffffffffffffffffffffffffffffff16908060000160149054906101000a900460ff1690806001015490806002018054600181600116156101000203166002900480601f0160208091040260200160405190810160405280929190818152602001828054600181600116156101000203166002900480156104675780601f1061043c57610100808354040283529160200191610467565b820191906000526020600020905b81548152906001019060200180831161044a57829003601f168201915b5050505050908060030160009054906101000a900460ff16908060030160019054906101000a900460ff16905086565b60008060009054906101000a900473ffffffffffffffffffffffffffffffffffffffff16905090565b600182600981106104cd57fe5b6024020181600981106104dc57fe5b60040201600091509150508060000160009054906101000a900473ffffffffffffffffffffffffffffffffffffffff16908060000160149054906101000a900460ff1690806001015490806002018054600181600116156101000203166002900480601f0160208091040260200160405190810160405280929190818152602001828054600181600116156101000203166002900480156105be5780601f10610593576101008083540402835291602001916105be565b820191906000526020600020905b8154815290600101906020018083116105a157829003601f168201915b5050505050908060030160009054906101000a900460ff16908060030160019054906101000a900460ff16905086565b6105f6610a3a565b6001600980602002604051908101604052809291906000905b828210156107d857838260240201600980602002604051908101604052809291906000905b828210156107c5578382600402016040518060c00160405290816000820160009054906101000a900473ffffffffffffffffffffffffffffffffffffffff1673ffffffffffffffffffffffffffffffffffffffff1673ffffffffffffffffffffffffffffffffffffffff1681526020016000820160149054906101000a900460ff1660028111156106c157fe5b60028111156106cc57fe5b815260200160018201548152602001600282018054600181600116156101000203166002900480601f0160208091040260200160405190810160405280929190818152602001828054600181600116156101000203166002900480156107735780601f1061074857610100808354040283529160200191610773565b820191906000526020600020905b81548152906001019060200180831161075657829003601f168201915b505050505081526020016003820160009054906101000a900460ff1660ff1660ff1681526020016003820160019054906101000a900460ff1660ff1660ff168152505081526020019060010190610634565b505050508152602001906001019061060f565b50505050905090565b60008083101580156107f35750600983105b8015610800575060008210155b801561080c5750600982105b61081557600080fd5b336001846009811061082357fe5b60240201836009811061083257fe5b6004020160000160006101000a81548173ffffffffffffffffffffffffffffffffffffffff021916908373ffffffffffffffffffffffffffffffffffffffff16021790555061014560003373ffffffffffffffffffffffffffffffffffffffff1673ffffffffffffffffffffffffffffffffffffffff168152602001908152602001600020600184600981106108c457fe5b6024020183600981106108d357fe5b60040201908060018154018082558091505090600182039060005260206000209060040201600090919290919091506000820160009054906101000a900473ffffffffffffffffffffffffffffffffffffffff168160000160006101000a81548173ffffffffffffffffffffffffffffffffffffffff021916908373ffffffffffffffffffffffffffffffffffffffff1602179055506000820160149054906101000a900460ff168160000160146101000a81548160ff0219169083600281111561099a57fe5b021790555060018201548160010155600282018160020190805460018160011615610100020316600290046109d0929190610a68565b506003820160009054906101000a900460ff168160030160006101000a81548160ff021916908360ff1602179055506003820160019054906101000a900460ff168160030160016101000a81548160ff021916908360ff1602179055505050506001905092915050565b6040518061012001604052806009905b610a52610aef565b815260200190600190039081610a4a5790505090565b828054600181600116156101000203166002900490600052602060002090601f016020900481019282601f10610aa15780548555610ade565b82800160010185558215610ade57600052602060002091601f016020900482015b82811115610add578254825591600101919060010190610ac2565b5b509050610aeb9190610b1d565b5090565b6040518061012001604052806009905b610b07610b42565b815260200190600190039081610aff5790505090565b610b3f91905b80821115610b3b576000816000905550600101610b23565b5090565b90565b6040518060c00160405280600073ffffffffffffffffffffffffffffffffffffffff16815260200160006002811115610b7757fe5b81526020016000815260200160608152602001600060ff168152602001600060ff1681525090565b600081359050610bae816111b7565b92915050565b600081359050610bc3816111ce565b92915050565b60008060408385031215610bdc57600080fd5b6000610bea85828601610b9f565b9250506020610bfb85828601610bb4565b9150509250929050565b60008060408385031215610c1857600080fd5b6000610c2685828601610bb4565b9250506020610c3785828601610bb4565b9150509250929050565b6000610c4d8383610cfc565b905092915050565b6000610c618383610e85565b905092915050565b610c72816110ec565b82525050565b610c81816110ec565b82525050565b6000610c9282611050565b610c9c81856110a3565b935083602082028501610cae8561102c565b8060005b85811015610cea5784840389528151610ccb8582610c41565b9450610cd68361107c565b925060208a01995050600181019050610cb2565b50829750879550505050505092915050565b6000610d078261105b565b610d1181856110ae565b935083602082028501610d2385611036565b8060005b85811015610d5f5784840389528151610d408582610c55565b9450610d4b83611089565b925060208a01995050600181019050610d27565b50829750879550505050505092915050565b6000610d7c82611066565b610d8681856110b9565b935083602082028501610d9885611040565b8060005b85811015610dd45784840389528151610db58582610c55565b9450610dc083611096565b925060208a01995050600181019050610d9c565b50829750879550505050505092915050565b610def816110fe565b82525050565b610dfe81611154565b82525050565b610e0d81611154565b82525050565b6000610e1e82611071565b610e2881856110ca565b9350610e38818560208601611166565b610e4181611199565b840191505092915050565b6000610e5782611071565b610e6181856110db565b9350610e71818560208601611166565b610e7a81611199565b840191505092915050565b600060c083016000830151610e9d6000860182610c69565b506020830151610eb06020860182610df5565b506040830151610ec36040860182610f0e565b5060608301518482036060860152610edb8282610e13565b9150506080830151610ef06080860182610f2c565b5060a0830151610f0360a0860182610f2c565b508091505092915050565b610f178161113d565b82525050565b610f268161113d565b82525050565b610f3581611147565b82525050565b610f4481611147565b82525050565b6000602082019050610f5f6000830184610c78565b92915050565b600060c082019050610f7a6000830189610c78565b610f876020830188610e04565b610f946040830187610f1d565b8181036060830152610fa68186610e4c565b9050610fb56080830185610f3b565b610fc260a0830184610f3b565b979650505050505050565b60006020820190508181036000830152610fe78184610c87565b905092915050565b600060208201905081810360008301526110098184610d71565b905092915050565b60006020820190506110266000830184610de6565b92915050565b6000819050919050565b6000819050919050565b6000819050602082019050919050565b600060099050919050565b600060099050919050565b600081519050919050565b600081519050919050565b6000602082019050919050565b6000602082019050919050565b6000602082019050919050565b600081905092915050565b600081905092915050565b600082825260208201905092915050565b600082825260208201905092915050565b600082825260208201905092915050565b60006110f78261111d565b9050919050565b60008115159050919050565b6000819050611118826111aa565b919050565b600073ffffffffffffffffffffffffffffffffffffffff82169050919050565b6000819050919050565b600060ff82169050919050565b600061115f8261110a565b9050919050565b60005b83811015611184578082015181840152602081019050611169565b83811115611193576000848401525b50505050565b6000601f19601f8301169050919050565b600381106111b457fe5b50565b6111c0816110ec565b81146111cb57600080fd5b50565b6111d78161113d565b81146111e257600080fd5b5056fea365627a7a723158203bca7f0f99de4dc6883d064215805770918db3adeafbc6e4337c034ac09d18286c6578706572696d656e74616cf564736f6c63430005100040",
  "source": "pragma solidity ^0.5.0;\r\npragma experimental ABIEncoderV2;\r\n\r\n//import \"./Land.sol\";\r\n\r\ncontract World {\r\n    uint256 constant MAP_SIZE = 9;\r\n\r\n    enum LandType { NFT, PARK, ROAD }\r\n\r\n    struct Land {\r\n        address owner;\r\n        LandType landType;\r\n        uint price;\r\n        string content;\r\n        uint8 row;\r\n        uint8 col;\r\n    }\r\n    \r\n    address owner;\r\n    Land[MAP_SIZE][MAP_SIZE] public map;\r\n\r\n    mapping(address => Land[]) public lands;\r\n\r\n    constructor() public {\r\n        owner = msg.sender;\r\n        initMap();\r\n    }\r\n\r\n    function initMap() private {\r\n        //initialPrice = uint(keccak256(abi.encodePacked(msg.sender, now))) % (MAX_INITIAL_PRICE - MIN_INITIAL_PRICE) + MIN_INITIAL_PRICE;\r\n\r\n        for (uint8 i = 0; i < MAP_SIZE; i++) {\r\n            for (uint8 j = 0; j < MAP_SIZE; j++) {\r\n                map[i][j].owner = owner;\r\n                map[i][j].row = i;\r\n                map[i][j].col = j;\r\n                if (i == 5 || j == 5) {\r\n                    map[i][j].landType = LandType.ROAD;\r\n                    map[i][j].price = 0;\r\n                } else if (i >= 2 && i <= 4 && j >= 2 && j <= 4\r\n                    || i >= 6 && i <= 8 && j >= 6 && j <= 8) {\r\n                    map[i][j].landType = LandType.PARK;\r\n                    map[i][j].price = 10;\r\n                } else {\r\n                    map[i][j].landType = LandType.NFT;\r\n                    map[i][j].price = 15;\r\n                }\r\n            }\r\n        }\r\n    }\r\n\r\n    /*function initMap() private {\r\n        //initialPrice = uint(keccak256(abi.encodePacked(msg.sender, now))) % (MAX_INITIAL_PRICE - MIN_INITIAL_PRICE) + MIN_INITIAL_PRICE;\r\n\r\n        for (uint8 i = 0; i < MAP_SIZE; i++) {\r\n            for (uint8 j = 0; j < MAP_SIZE; j++) {\r\n                //map[i][j].owner = msg.sender;\r\n                map[i][j].row = i;\r\n                map[i][j].col = j;\r\n                if (i == 5 || j == 5) {\r\n                    map[i][j].landType = LandType.ROAD;\r\n                    map[i][j].price = 0;\r\n                } else if (i >= 2 && i <= 4 && j >= 2 && j <= 4\r\n                    || i >= 6 && i <= 8 && j >= 6 && j <= 8) {\r\n                    map[i][j].landType = LandType.PARK;\r\n                    map[i][j].price = 10;\r\n                } else {\r\n                    map[i][j].landType = LandType.NFT;\r\n                    map[i][j].price = 15;\r\n                }\r\n            }\r\n        }\r\n    }*/\r\n\r\n    function buyLand(uint row, uint col) public returns (bool success) {\r\n        require(row >= 0 && row < MAP_SIZE && col >= 0 && col < MAP_SIZE);\r\n\r\n        //map[row][col].transferFrom(map[row][col].getOwner(), msg.sender, 0);\r\n        map[row][col].owner = msg.sender;\r\n        lands[msg.sender].push(map[row][col]);\r\n\r\n        return true;\r\n    }\r\n\r\n    function getMap() public view returns (Land[MAP_SIZE][MAP_SIZE] memory) {\r\n        return map;\r\n    }\r\n\r\n    function getOwner() public view returns (address) {\r\n        return owner;\r\n    }\r\n\r\n    function getMyLands() public view returns (Land[] memory) {\r\n        return lands[msg.sender];\r\n    }\r\n}",
  "sourcePath": "C:\\Users\\elads\\Documents\\תואר\\שנה ג\\סמסטר א\\בלוקציין\\תרגילים\\Final Project\\contracts\\World.sol",
  "compiler": {
    "name": "solc",
    "version": "0.5.16+commit.9c3226ce.Emscripten.clang"
  },
  "schemaVersion": "3.4.4",
  "updatedAt": "2022-02-11T01:19:29.712Z",
  "networkType": "ethereum",
  "devdoc": {
    "methods": {}
  },
  "userdoc": {
    "methods": {}
  }
}