{
  "contractName": "World",
  "abi": [
    {
      "inputs": [],
      "payable": false,
      "stateMutability": "nonpayable",
      "type": "constructor"
    },
    {
      "constant": true,
      "inputs": [
        {
          "internalType": "uint256",
          "name": "",
          "type": "uint256"
        },
        {
          "internalType": "uint256",
          "name": "",
          "type": "uint256"
        }
      ],
      "name": "map",
      "outputs": [
        {
          "internalType": "address",
          "name": "owner",
          "type": "address"
        },
        {
          "internalType": "enum World.LandType",
          "name": "landType",
          "type": "uint8"
        },
        {
          "internalType": "uint256",
          "name": "price",
          "type": "uint256"
        },
        {
          "internalType": "string",
          "name": "content",
          "type": "string"
        },
        {
          "internalType": "uint8",
          "name": "row",
          "type": "uint8"
        },
        {
          "internalType": "uint8",
          "name": "col",
          "type": "uint8"
        }
      ],
      "payable": false,
      "stateMutability": "view",
      "type": "function"
    },
    {
      "constant": false,
      "inputs": [
        {
          "components": [
            {
              "internalType": "address",
              "name": "owner",
              "type": "address"
            },
            {
              "internalType": "enum World.LandType",
              "name": "landType",
              "type": "uint8"
            },
            {
              "internalType": "uint256",
              "name": "price",
              "type": "uint256"
            },
            {
              "internalType": "string",
              "name": "content",
              "type": "string"
            },
            {
              "internalType": "uint8",
              "name": "row",
              "type": "uint8"
            },
            {
              "internalType": "uint8",
              "name": "col",
              "type": "uint8"
            }
          ],
          "internalType": "struct World.Land",
          "name": "land",
          "type": "tuple"
        }
      ],
      "name": "setLand",
      "outputs": [],
      "payable": false,
      "stateMutability": "nonpayable",
      "type": "function"
    },
    {
      "constant": false,
      "inputs": [
        {
          "internalType": "uint256",
          "name": "row",
          "type": "uint256"
        },
        {
          "internalType": "uint256",
          "name": "col",
          "type": "uint256"
        }
      ],
      "name": "buyLand",
      "outputs": [
        {
          "internalType": "bool",
          "name": "success",
          "type": "bool"
        }
      ],
      "payable": false,
      "stateMutability": "nonpayable",
      "type": "function"
    },
    {
      "constant": true,
      "inputs": [],
      "name": "getMap",
      "outputs": [
        {
          "components": [
            {
              "internalType": "address",
              "name": "owner",
              "type": "address"
            },
            {
              "internalType": "enum World.LandType",
              "name": "landType",
              "type": "uint8"
            },
            {
              "internalType": "uint256",
              "name": "price",
              "type": "uint256"
            },
            {
              "internalType": "string",
              "name": "content",
              "type": "string"
            },
            {
              "internalType": "uint8",
              "name": "row",
              "type": "uint8"
            },
            {
              "internalType": "uint8",
              "name": "col",
              "type": "uint8"
            }
          ],
          "internalType": "struct World.Land[9][9]",
          "name": "",
          "type": "tuple[9][9]"
        }
      ],
      "payable": false,
      "stateMutability": "view",
      "type": "function"
    }
  ],
  "bytecode": "0x60806040523480156200001157600080fd5b50336000806101000a81548173ffffffffffffffffffffffffffffffffffffffff021916908373ffffffffffffffffffffffffffffffffffffffff160217905550620000626200006860201b60201c565b620004ae565b600060058060140333426040516020016200008592919062000401565b6040516020818303038152906040528051906020012060001c81620000a657fe5b0601905060008090505b60098160ff161015620003c75760008090505b60098160ff161015620003b8576000809054906101000a900473ffffffffffffffffffffffffffffffffffffffff1660018360ff16600981106200010357fe5b602402018260ff16600981106200011657fe5b6004020160000160006101000a81548173ffffffffffffffffffffffffffffffffffffffff021916908373ffffffffffffffffffffffffffffffffffffffff1602179055508160018360ff16600981106200016d57fe5b602402018260ff16600981106200018057fe5b6004020160030160006101000a81548160ff021916908360ff1602179055508060018360ff1660098110620001b157fe5b602402018260ff1660098110620001c457fe5b6004020160030160016101000a81548160ff021916908360ff16021790555060058260ff161480620001f9575060058160ff16145b156200025357600260018360ff16600981106200021257fe5b602402018260ff16600981106200022557fe5b6004020160000160146101000a81548160ff021916908360028111156200024857fe5b0217905550620003aa565b60028260ff16101580156200026c575060048260ff1611155b80156200027d575060028160ff1610155b80156200028e575060048160ff1611155b80620002d1575060068260ff1610158015620002ae575060088260ff1611155b8015620002bf575060068160ff1610155b8015620002d0575060088160ff1611155b5b156200032a576001808360ff1660098110620002e957fe5b602402018260ff1660098110620002fc57fe5b6004020160000160146101000a81548160ff021916908360028111156200031f57fe5b0217905550620003a9565b600060018360ff16600981106200033d57fe5b602402018260ff16600981106200035057fe5b6004020160000160146101000a81548160ff021916908360028111156200037357fe5b02179055508260018360ff16600981106200038a57fe5b602402018260ff16600981106200039d57fe5b60040201600101819055505b5b8080600101915050620000c3565b508080600101915050620000b0565b5050565b620003e0620003da8262000431565b6200046f565b82525050565b620003fb620003f58262000465565b62000497565b82525050565b60006200040f8285620003cb565b601482019150620004218284620003e6565b6020820191508190509392505050565b60006200043e8262000445565b9050919050565b600073ffffffffffffffffffffffffffffffffffffffff82169050919050565b6000819050919050565b60006200047c8262000483565b9050919050565b60006200049082620004a1565b9050919050565b6000819050919050565b60008160601b9050919050565b610ecc80620004be6000396000f3fe608060405234801561001057600080fd5b506004361061004c5760003560e01c80634d7ce78214610051578063a90b91281461006d578063ad3de14c146100a2578063be977cd4146100c0575b600080fd5b61006b600480360361006691908101906108c4565b6100f0565b005b61008760048036036100829190810190610905565b610249565b60405161009996959493929190610bd5565b60405180910390f35b6100aa610377565b6040516100b79190610c3d565b60405180910390f35b6100da60048036036100d59190810190610905565b61056a565b6040516100e79190610c5f565b60405180910390f35b60008160800151905060008260a00151905060008260ff1610158015610119575060098260ff16105b8015610129575060008160ff1610155b8015610138575060098160ff16105b61014157600080fd5b8260018360ff166009811061015257fe5b602402018260ff166009811061016457fe5b6004020160008201518160000160006101000a81548173ffffffffffffffffffffffffffffffffffffffff021916908373ffffffffffffffffffffffffffffffffffffffff16021790555060208201518160000160146101000a81548160ff021916908360028111156101d357fe5b02179055506040820151816001015560608201518160020190805190602001906101fe92919061060a565b5060808201518160030160006101000a81548160ff021916908360ff16021790555060a08201518160030160016101000a81548160ff021916908360ff160217905550905050505050565b6001826009811061025657fe5b60240201816009811061026557fe5b60040201600091509150508060000160009054906101000a900473ffffffffffffffffffffffffffffffffffffffff16908060000160149054906101000a900460ff1690806001015490806002018054600181600116156101000203166002900480601f0160208091040260200160405190810160405280929190818152602001828054600181600116156101000203166002900480156103475780601f1061031c57610100808354040283529160200191610347565b820191906000526020600020905b81548152906001019060200180831161032a57829003601f168201915b5050505050908060030160009054906101000a900460ff16908060030160019054906101000a900460ff16905086565b61037f61068a565b6001600980602002604051908101604052809291906000905b8282101561056157838260240201600980602002604051908101604052809291906000905b8282101561054e578382600402016040518060c00160405290816000820160009054906101000a900473ffffffffffffffffffffffffffffffffffffffff1673ffffffffffffffffffffffffffffffffffffffff1673ffffffffffffffffffffffffffffffffffffffff1681526020016000820160149054906101000a900460ff16600281111561044a57fe5b600281111561045557fe5b815260200160018201548152602001600282018054600181600116156101000203166002900480601f0160208091040260200160405190810160405280929190818152602001828054600181600116156101000203166002900480156104fc5780601f106104d1576101008083540402835291602001916104fc565b820191906000526020600020905b8154815290600101906020018083116104df57829003601f168201915b505050505081526020016003820160009054906101000a900460ff1660ff1660ff1681526020016003820160019054906101000a900460ff1660ff1660ff1681525050815260200190600101906103bd565b5050505081526020019060010190610398565b50505050905090565b600080831015801561057c5750600983105b8015610589575060008210155b80156105955750600982105b61059e57600080fd5b33600184600981106105ac57fe5b6024020183600981106105bb57fe5b6004020160000160006101000a81548173ffffffffffffffffffffffffffffffffffffffff021916908373ffffffffffffffffffffffffffffffffffffffff1602179055506001905092915050565b828054600181600116156101000203166002900490600052602060002090601f016020900481019282601f1061064b57805160ff1916838001178555610679565b82800160010185558215610679579182015b8281111561067857825182559160200191906001019061065d565b5b50905061068691906106b8565b5090565b6040518061012001604052806009905b6106a26106dd565b81526020019060019003908161069a5790505090565b6106da91905b808211156106d65760008160009055506001016106be565b5090565b90565b6040518061012001604052806009905b6106f561070b565b8152602001906001900390816106ed5790505090565b6040518060c00160405280600073ffffffffffffffffffffffffffffffffffffffff1681526020016000600281111561074057fe5b81526020016000815260200160608152602001600060ff168152602001600060ff1681525090565b60008135905061077781610e34565b92915050565b60008135905061078c81610e4b565b92915050565b600082601f8301126107a357600080fd5b81356107b66107b182610ca7565b610c7a565b915080825260208301602083018583830111156107d257600080fd5b6107dd838284610dd4565b50505092915050565b600060c082840312156107f857600080fd5b61080260c0610c7a565b9050600061081284828501610768565b60008301525060206108268482850161077d565b602083015250604061083a8482850161089a565b604083015250606082013567ffffffffffffffff81111561085a57600080fd5b61086684828501610792565b606083015250608061087a848285016108af565b60808301525060a061088e848285016108af565b60a08301525092915050565b6000813590506108a981610e5b565b92915050565b6000813590506108be81610e72565b92915050565b6000602082840312156108d657600080fd5b600082013567ffffffffffffffff8111156108f057600080fd5b6108fc848285016107e6565b91505092915050565b6000806040838503121561091857600080fd5b60006109268582860161089a565b92505060206109378582860161089a565b9150509250929050565b600061094d83836109fc565b905092915050565b60006109618383610b10565b905092915050565b61097281610d5a565b82525050565b61098181610d5a565b82525050565b600061099282610ce7565b61099c8185610d22565b9350836020820285016109ae85610cd3565b8060005b858110156109ea57848403895281516109cb8582610941565b94506109d683610d08565b925060208a019950506001810190506109b2565b50829750879550505050505092915050565b6000610a0782610cf2565b610a118185610d2d565b935083602082028501610a2385610cdd565b8060005b85811015610a5f5784840389528151610a408582610955565b9450610a4b83610d15565b925060208a01995050600181019050610a27565b50829750879550505050505092915050565b610a7a81610d6c565b82525050565b610a8981610dc2565b82525050565b610a9881610dc2565b82525050565b6000610aa982610cfd565b610ab38185610d38565b9350610ac3818560208601610de3565b610acc81610e16565b840191505092915050565b6000610ae282610cfd565b610aec8185610d49565b9350610afc818560208601610de3565b610b0581610e16565b840191505092915050565b600060c083016000830151610b286000860182610969565b506020830151610b3b6020860182610a80565b506040830151610b4e6040860182610b99565b5060608301518482036060860152610b668282610a9e565b9150506080830151610b7b6080860182610bb7565b5060a0830151610b8e60a0860182610bb7565b508091505092915050565b610ba281610dab565b82525050565b610bb181610dab565b82525050565b610bc081610db5565b82525050565b610bcf81610db5565b82525050565b600060c082019050610bea6000830189610978565b610bf76020830188610a8f565b610c046040830187610ba8565b8181036060830152610c168186610ad7565b9050610c256080830185610bc6565b610c3260a0830184610bc6565b979650505050505050565b60006020820190508181036000830152610c578184610987565b905092915050565b6000602082019050610c746000830184610a71565b92915050565b6000604051905081810181811067ffffffffffffffff82111715610c9d57600080fd5b8060405250919050565b600067ffffffffffffffff821115610cbe57600080fd5b601f19601f8301169050602081019050919050565b6000819050919050565b6000819050919050565b600060099050919050565b600060099050919050565b600081519050919050565b6000602082019050919050565b6000602082019050919050565b600081905092915050565b600081905092915050565b600082825260208201905092915050565b600082825260208201905092915050565b6000610d6582610d8b565b9050919050565b60008115159050919050565b6000819050610d8682610e27565b919050565b600073ffffffffffffffffffffffffffffffffffffffff82169050919050565b6000819050919050565b600060ff82169050919050565b6000610dcd82610d78565b9050919050565b82818337600083830152505050565b60005b83811015610e01578082015181840152602081019050610de6565b83811115610e10576000848401525b50505050565b6000601f19601f8301169050919050565b60038110610e3157fe5b50565b610e3d81610d5a565b8114610e4857600080fd5b50565b60038110610e5857600080fd5b50565b610e6481610dab565b8114610e6f57600080fd5b50565b610e7b81610db5565b8114610e8657600080fd5b5056fea365627a7a72315820a2b81a6acef0d727b7253b2c4eb7e65d27f47c0f711e0a4aed04abb7ec8d58786c6578706572696d656e74616cf564736f6c63430005100040",
  "source": "pragma solidity ^0.5.0;\r\npragma experimental ABIEncoderV2;\r\n\r\n//import \"./Land.sol\";\r\n\r\ncontract World {\r\n    uint256 constant MAP_SIZE = 9;\r\n    uint256 constant MIN_INITIAL_PRICE = 5;\r\n    uint256 constant MAX_INITIAL_PRICE = 20;\r\n\r\n    enum LandType { NFT, PARK, ROAD }\r\n\r\n    struct Land {\r\n        address owner;\r\n        LandType landType;\r\n        uint256 price;\r\n        string content;\r\n        uint8 row;\r\n        uint8 col;\r\n    }\r\n    \r\n    address owner;\r\n    Land[MAP_SIZE][MAP_SIZE] public map;\r\n\r\n    //mapping(address => Land[]) public lands;\r\n\r\n    constructor() public {\r\n        owner = msg.sender;\r\n        initMap();\r\n    }\r\n\r\n    function initMap() private {\r\n        uint256 initialPrice = uint256(keccak256(abi.encodePacked(msg.sender, now))) % (MAX_INITIAL_PRICE - MIN_INITIAL_PRICE) + MIN_INITIAL_PRICE;\r\n\r\n        for (uint8 i = 0; i < MAP_SIZE; i++) {\r\n            for (uint8 j = 0; j < MAP_SIZE; j++) {\r\n                map[i][j].owner = owner;\r\n                map[i][j].row = i;\r\n                map[i][j].col = j;\r\n                if (i == 5 || j == 5) {\r\n                    map[i][j].landType = LandType.ROAD;\r\n                } else if (i >= 2 && i <= 4 && j >= 2 && j <= 4\r\n                    || i >= 6 && i <= 8 && j >= 6 && j <= 8) {\r\n                    map[i][j].landType = LandType.PARK;\r\n                } else {\r\n                    map[i][j].landType = LandType.NFT;\r\n                    map[i][j].price = initialPrice;\r\n                }\r\n            }\r\n        }\r\n    }\r\n\r\n    function setLand(Land memory land) public {\r\n        uint8 row = land.row;\r\n        uint8 col = land.col;\r\n        require(row >= 0 && row < MAP_SIZE && col >= 0 && col < MAP_SIZE);\r\n\r\n        map[row][col] = land;\r\n    }\r\n\r\n    function buyLand(uint row, uint col) public returns (bool success) {\r\n        require(row >= 0 && row < MAP_SIZE && col >= 0 && col < MAP_SIZE);\r\n\r\n        //map[row][col].transferFrom(map[row][col].getOwner(), msg.sender, 0);\r\n        map[row][col].owner = msg.sender;\r\n        //lands[msg.sender].push(map[row][col]);\r\n\r\n        return true;\r\n    }\r\n\r\n    function getMap() public view returns (Land[MAP_SIZE][MAP_SIZE] memory) {\r\n        return map;\r\n    }\r\n}",
  "sourcePath": "C:\\Users\\elads\\Documents\\תואר\\שנה ג\\סמסטר א\\בלוקציין\\תרגילים\\Final Project\\contracts\\World.sol",
  "compiler": {
    "name": "solc",
    "version": "0.5.16+commit.9c3226ce.Emscripten.clang"
  },
  "schemaVersion": "3.4.4",
  "updatedAt": "2022-02-12T23:22:06.530Z",
  "networkType": "ethereum",
  "devdoc": {
    "methods": {}
  },
  "userdoc": {
    "methods": {}
  }
}