{
  "contractName": "World",
  "abi": [
    {
      "inputs": [],
      "payable": false,
      "stateMutability": "nonpayable",
      "type": "constructor"
    },
    {
      "constant": true,
      "inputs": [
        {
          "internalType": "address",
          "name": "",
          "type": "address"
        },
        {
          "internalType": "uint256",
          "name": "",
          "type": "uint256"
        }
      ],
      "name": "lands",
      "outputs": [
        {
          "internalType": "address",
          "name": "owner",
          "type": "address"
        },
        {
          "internalType": "enum World.LandType",
          "name": "landType",
          "type": "uint8"
        },
        {
          "internalType": "uint256",
          "name": "price",
          "type": "uint256"
        },
        {
          "internalType": "string",
          "name": "content",
          "type": "string"
        },
        {
          "internalType": "uint8",
          "name": "row",
          "type": "uint8"
        },
        {
          "internalType": "uint8",
          "name": "col",
          "type": "uint8"
        }
      ],
      "payable": false,
      "stateMutability": "view",
      "type": "function"
    },
    {
      "constant": true,
      "inputs": [
        {
          "internalType": "uint256",
          "name": "",
          "type": "uint256"
        },
        {
          "internalType": "uint256",
          "name": "",
          "type": "uint256"
        }
      ],
      "name": "map",
      "outputs": [
        {
          "internalType": "address",
          "name": "owner",
          "type": "address"
        },
        {
          "internalType": "enum World.LandType",
          "name": "landType",
          "type": "uint8"
        },
        {
          "internalType": "uint256",
          "name": "price",
          "type": "uint256"
        },
        {
          "internalType": "string",
          "name": "content",
          "type": "string"
        },
        {
          "internalType": "uint8",
          "name": "row",
          "type": "uint8"
        },
        {
          "internalType": "uint8",
          "name": "col",
          "type": "uint8"
        }
      ],
      "payable": false,
      "stateMutability": "view",
      "type": "function"
    },
    {
      "constant": false,
      "inputs": [
        {
          "internalType": "uint256",
          "name": "row",
          "type": "uint256"
        },
        {
          "internalType": "uint256",
          "name": "col",
          "type": "uint256"
        }
      ],
      "name": "buyLand",
      "outputs": [
        {
          "internalType": "bool",
          "name": "success",
          "type": "bool"
        }
      ],
      "payable": false,
      "stateMutability": "nonpayable",
      "type": "function"
    },
    {
      "constant": true,
      "inputs": [],
      "name": "getMap",
      "outputs": [
        {
          "components": [
            {
              "internalType": "address",
              "name": "owner",
              "type": "address"
            },
            {
              "internalType": "enum World.LandType",
              "name": "landType",
              "type": "uint8"
            },
            {
              "internalType": "uint256",
              "name": "price",
              "type": "uint256"
            },
            {
              "internalType": "string",
              "name": "content",
              "type": "string"
            },
            {
              "internalType": "uint8",
              "name": "row",
              "type": "uint8"
            },
            {
              "internalType": "uint8",
              "name": "col",
              "type": "uint8"
            }
          ],
          "internalType": "struct World.Land[10][10]",
          "name": "",
          "type": "tuple[10][10]"
        }
      ],
      "payable": false,
      "stateMutability": "view",
      "type": "function"
    },
    {
      "constant": true,
      "inputs": [],
      "name": "getMyLands",
      "outputs": [
        {
          "components": [
            {
              "internalType": "address",
              "name": "owner",
              "type": "address"
            },
            {
              "internalType": "enum World.LandType",
              "name": "landType",
              "type": "uint8"
            },
            {
              "internalType": "uint256",
              "name": "price",
              "type": "uint256"
            },
            {
              "internalType": "string",
              "name": "content",
              "type": "string"
            },
            {
              "internalType": "uint8",
              "name": "row",
              "type": "uint8"
            },
            {
              "internalType": "uint8",
              "name": "col",
              "type": "uint8"
            }
          ],
          "internalType": "struct World.Land[]",
          "name": "",
          "type": "tuple[]"
        }
      ],
      "payable": false,
      "stateMutability": "view",
      "type": "function"
    }
  ],
  "bytecode": "0x60806040523480156200001157600080fd5b50620000226200002860201b60201c565b6200031f565b60008090505b600a8160ff1610156200031c5760008090505b600a8160ff1610156200030d578160008360ff16600a81106200006057fe5b602802018260ff16600a81106200007357fe5b6004020160030160006101000a81548160ff021916908360ff1602179055508060008360ff16600a8110620000a457fe5b602802018260ff16600a8110620000b757fe5b6004020160030160016101000a81548160ff021916908360ff16021790555060058260ff161480620000ec575060058160ff16145b156200017657600260008360ff16600a81106200010557fe5b602802018260ff16600a81106200011857fe5b6004020160000160146101000a81548160ff021916908360028111156200013b57fe5b02179055506000808360ff16600a81106200015257fe5b602802018260ff16600a81106200016557fe5b6004020160010181905550620002ff565b60028260ff16101580156200018f575060048260ff1611155b8015620001a0575060028160ff1610155b8015620001b1575060048160ff1611155b80620001f4575060068260ff1610158015620001d1575060088260ff1611155b8015620001e2575060068160ff1610155b8015620001f3575060088160ff1611155b5b156200027f57600160008360ff16600a81106200020d57fe5b602802018260ff16600a81106200022057fe5b6004020160000160146101000a81548160ff021916908360028111156200024357fe5b0217905550600a60008360ff16600a81106200025b57fe5b602802018260ff16600a81106200026e57fe5b6004020160010181905550620002fe565b6000808360ff16600a81106200029157fe5b602802018260ff16600a8110620002a457fe5b6004020160000160146101000a81548160ff02191690836002811115620002c757fe5b0217905550600f60008360ff16600a8110620002df57fe5b602802018260ff16600a8110620002f257fe5b60040201600101819055505b5b808060010191505062000041565b5080806001019150506200002e565b50565b6111bb806200032f6000396000f3fe608060405234801561001057600080fd5b50600436106100575760003560e01c80630695b9c31461005c578063756efcf71461007a578063a90b9128146100af578063ad3de14c146100e4578063be977cd414610102575b600080fd5b610064610132565b6040516100719190610f82565b60405180910390f35b610094600480360361008f9190810190610b77565b610338565b6040516100a696959493929190610ef8565b60405180910390f35b6100c960048036036100c49190810190610bb3565b61046e565b6040516100db96959493929190610ef8565b60405180910390f35b6100ec61059c565b6040516100f99190610f60565b60405180910390f35b61011c60048036036101179190810190610bb3565b61078f565b6040516101299190610fa4565b60405180910390f35b606061019060003373ffffffffffffffffffffffffffffffffffffffff1673ffffffffffffffffffffffffffffffffffffffff168152602001908152602001600020805480602002602001604051908101604052809291908181526020016000905b8282101561032f57838290600052602060002090600402016040518060c00160405290816000820160009054906101000a900473ffffffffffffffffffffffffffffffffffffffff1673ffffffffffffffffffffffffffffffffffffffff1673ffffffffffffffffffffffffffffffffffffffff1681526020016000820160149054906101000a900460ff16600281111561022b57fe5b600281111561023657fe5b815260200160018201548152602001600282018054600181600116156101000203166002900480601f0160208091040260200160405190810160405280929190818152602001828054600181600116156101000203166002900480156102dd5780601f106102b2576101008083540402835291602001916102dd565b820191906000526020600020905b8154815290600101906020018083116102c057829003601f168201915b505050505081526020016003820160009054906101000a900460ff1660ff1660ff1681526020016003820160019054906101000a900460ff1660ff1660ff168152505081526020019060010190610194565b50505050905090565b610190602052816000526040600020818154811061035257fe5b9060005260206000209060040201600091509150508060000160009054906101000a900473ffffffffffffffffffffffffffffffffffffffff16908060000160149054906101000a900460ff1690806001015490806002018054600181600116156101000203166002900480601f01602080910402602001604051908101604052809291908181526020018280546001816001161561010002031660029004801561043e5780601f106104135761010080835404028352916020019161043e565b820191906000526020600020905b81548152906001019060200180831161042157829003601f168201915b5050505050908060030160009054906101000a900460ff16908060030160019054906101000a900460ff16905086565b600082600a811061047b57fe5b6028020181600a811061048a57fe5b60040201600091509150508060000160009054906101000a900473ffffffffffffffffffffffffffffffffffffffff16908060000160149054906101000a900460ff1690806001015490806002018054600181600116156101000203166002900480601f01602080910402602001604051908101604052809291908181526020018280546001816001161561010002031660029004801561056c5780601f106105415761010080835404028352916020019161056c565b820191906000526020600020905b81548152906001019060200180831161054f57829003601f168201915b5050505050908060030160009054906101000a900460ff16908060030160019054906101000a900460ff16905086565b6105a46109e8565b6000600a80602002604051908101604052809291906000905b8282101561078657838260280201600a80602002604051908101604052809291906000905b82821015610773578382600402016040518060c00160405290816000820160009054906101000a900473ffffffffffffffffffffffffffffffffffffffff1673ffffffffffffffffffffffffffffffffffffffff1673ffffffffffffffffffffffffffffffffffffffff1681526020016000820160149054906101000a900460ff16600281111561066f57fe5b600281111561067a57fe5b815260200160018201548152602001600282018054600181600116156101000203166002900480601f0160208091040260200160405190810160405280929190818152602001828054600181600116156101000203166002900480156107215780601f106106f657610100808354040283529160200191610721565b820191906000526020600020905b81548152906001019060200180831161070457829003601f168201915b505050505081526020016003820160009054906101000a900460ff1660ff1660ff1681526020016003820160019054906101000a900460ff1660ff1660ff1681525050815260200190600101906105e2565b50505050815260200190600101906105bd565b50505050905090565b60008083101580156107a15750600a83105b80156107ae575060008210155b80156107ba5750600a82105b6107c357600080fd5b33600084600a81106107d157fe5b6028020183600a81106107e057fe5b6004020160000160006101000a81548173ffffffffffffffffffffffffffffffffffffffff021916908373ffffffffffffffffffffffffffffffffffffffff16021790555061019060003373ffffffffffffffffffffffffffffffffffffffff1673ffffffffffffffffffffffffffffffffffffffff168152602001908152602001600020600084600a811061087257fe5b6028020183600a811061088157fe5b60040201908060018154018082558091505090600182039060005260206000209060040201600090919290919091506000820160009054906101000a900473ffffffffffffffffffffffffffffffffffffffff168160000160006101000a81548173ffffffffffffffffffffffffffffffffffffffff021916908373ffffffffffffffffffffffffffffffffffffffff1602179055506000820160149054906101000a900460ff168160000160146101000a81548160ff0219169083600281111561094857fe5b0217905550600182015481600101556002820181600201908054600181600116156101000203166002900461097e929190610a16565b506003820160009054906101000a900460ff168160030160006101000a81548160ff021916908360ff1602179055506003820160019054906101000a900460ff168160030160016101000a81548160ff021916908360ff1602179055505050506001905092915050565b604051806101400160405280600a905b610a00610a9d565b8152602001906001900390816109f85790505090565b828054600181600116156101000203166002900490600052602060002090601f016020900481019282601f10610a4f5780548555610a8c565b82800160010185558215610a8c57600052602060002091601f016020900482015b82811115610a8b578254825591600101919060010190610a70565b5b509050610a999190610acb565b5090565b604051806101400160405280600a905b610ab5610af0565b815260200190600190039081610aad5790505090565b610aed91905b80821115610ae9576000816000905550600101610ad1565b5090565b90565b6040518060c00160405280600073ffffffffffffffffffffffffffffffffffffffff16815260200160006002811115610b2557fe5b81526020016000815260200160608152602001600060ff168152602001600060ff1681525090565b600081359050610b5c8161114a565b92915050565b600081359050610b7181611161565b92915050565b60008060408385031215610b8a57600080fd5b6000610b9885828601610b4d565b9250506020610ba985828601610b62565b9150509250929050565b60008060408385031215610bc657600080fd5b6000610bd485828601610b62565b9250506020610be585828601610b62565b9150509250929050565b6000610bfb8383610caa565b905092915050565b6000610c0f8383610e33565b905092915050565b610c208161107f565b82525050565b610c2f8161107f565b82525050565b6000610c4082610fe3565b610c4a8185611036565b935083602082028501610c5c85610fbf565b8060005b85811015610c985784840389528151610c798582610bef565b9450610c848361100f565b925060208a01995050600181019050610c60565b50829750879550505050505092915050565b6000610cb582610fee565b610cbf8185611041565b935083602082028501610cd185610fc9565b8060005b85811015610d0d5784840389528151610cee8582610c03565b9450610cf98361101c565b925060208a01995050600181019050610cd5565b50829750879550505050505092915050565b6000610d2a82610ff9565b610d34818561104c565b935083602082028501610d4685610fd3565b8060005b85811015610d825784840389528151610d638582610c03565b9450610d6e83611029565b925060208a01995050600181019050610d4a565b50829750879550505050505092915050565b610d9d81611091565b82525050565b610dac816110e7565b82525050565b610dbb816110e7565b82525050565b6000610dcc82611004565b610dd6818561105d565b9350610de68185602086016110f9565b610def8161112c565b840191505092915050565b6000610e0582611004565b610e0f818561106e565b9350610e1f8185602086016110f9565b610e288161112c565b840191505092915050565b600060c083016000830151610e4b6000860182610c17565b506020830151610e5e6020860182610da3565b506040830151610e716040860182610ebc565b5060608301518482036060860152610e898282610dc1565b9150506080830151610e9e6080860182610eda565b5060a0830151610eb160a0860182610eda565b508091505092915050565b610ec5816110d0565b82525050565b610ed4816110d0565b82525050565b610ee3816110da565b82525050565b610ef2816110da565b82525050565b600060c082019050610f0d6000830189610c26565b610f1a6020830188610db2565b610f276040830187610ecb565b8181036060830152610f398186610dfa565b9050610f486080830185610ee9565b610f5560a0830184610ee9565b979650505050505050565b60006020820190508181036000830152610f7a8184610c35565b905092915050565b60006020820190508181036000830152610f9c8184610d1f565b905092915050565b6000602082019050610fb96000830184610d94565b92915050565b6000819050919050565b6000819050919050565b6000819050602082019050919050565b6000600a9050919050565b6000600a9050919050565b600081519050919050565b600081519050919050565b6000602082019050919050565b6000602082019050919050565b6000602082019050919050565b600081905092915050565b600081905092915050565b600082825260208201905092915050565b600082825260208201905092915050565b600082825260208201905092915050565b600061108a826110b0565b9050919050565b60008115159050919050565b60008190506110ab8261113d565b919050565b600073ffffffffffffffffffffffffffffffffffffffff82169050919050565b6000819050919050565b600060ff82169050919050565b60006110f28261109d565b9050919050565b60005b838110156111175780820151818401526020810190506110fc565b83811115611126576000848401525b50505050565b6000601f19601f8301169050919050565b6003811061114757fe5b50565b6111538161107f565b811461115e57600080fd5b50565b61116a816110d0565b811461117557600080fd5b5056fea365627a7a72315820892b09b595e77c205198ce34d42da1dbff9a8c640d87c2938c5e8dd81391ea816c6578706572696d656e74616cf564736f6c63430005100040",
  "source": "pragma solidity ^0.5.0;\r\npragma experimental ABIEncoderV2;\r\n\r\nimport \"./Land.sol\";\r\n\r\ncontract World {\r\n    enum LandType { NFT, PARK, ROAD }\r\n\r\n    struct Land {\r\n        address owner;\r\n        LandType landType;\r\n        uint price;\r\n        string content;\r\n        uint8 row;\r\n        uint8 col;\r\n    }\r\n\r\n    uint constant MAP_SIZE = 10;\r\n    \r\n    Land[MAP_SIZE][MAP_SIZE] public map;\r\n\r\n    mapping(address => Land[]) public lands;\r\n\r\n    constructor() public {\r\n        initMap();\r\n    }\r\n\r\n    function initMap() private {\r\n        //initialPrice = uint(keccak256(abi.encodePacked(msg.sender, now))) % (MAX_INITIAL_PRICE - MIN_INITIAL_PRICE) + MIN_INITIAL_PRICE;\r\n\r\n        for (uint8 i = 0; i < MAP_SIZE; i++) {\r\n            for (uint8 j = 0; j < MAP_SIZE; j++) {\r\n                //map[i][j].owner = msg.sender;\r\n                map[i][j].row = i;\r\n                map[i][j].col = j;\r\n                if (i == 5 || j == 5) {\r\n                    map[i][j].landType = LandType.ROAD;\r\n                    map[i][j].price = 0;\r\n                } else if (i >= 2 && i <= 4 && j >= 2 && j <= 4\r\n                    || i >= 6 && i <= 8 && j >= 6 && j <= 8) {\r\n                    map[i][j].landType = LandType.PARK;\r\n                    map[i][j].price = 10;\r\n                } else {\r\n                    map[i][j].landType = LandType.NFT;\r\n                    map[i][j].price = 15;\r\n                }\r\n            }\r\n        }\r\n    }\r\n\r\n    function buyLand(uint row, uint col) public returns (bool success) {\r\n        require(row >= 0 && row < MAP_SIZE && col >= 0 && col < MAP_SIZE);\r\n\r\n        //map[row][col].transferFrom(map[row][col].getOwner(), msg.sender, 0);\r\n        map[row][col].owner = msg.sender;\r\n        lands[msg.sender].push(map[row][col]);\r\n\r\n        return true;\r\n    }\r\n\r\n    function getMap() public view returns (Land[MAP_SIZE][MAP_SIZE] memory) {\r\n        return map;\r\n    }\r\n\r\n    function getMyLands() public view returns (Land[] memory) {\r\n        return lands[msg.sender];\r\n    }\r\n}",
  "sourcePath": "C:\\Users\\elads\\Documents\\תואר\\שנה ג\\סמסטר א\\בלוקציין\\תרגילים\\Final Project\\contracts\\World.sol",
  "compiler": {
    "name": "solc",
    "version": "0.5.16+commit.9c3226ce.Emscripten.clang"
  },
  "schemaVersion": "3.4.4",
  "updatedAt": "2022-02-09T02:58:18.312Z",
  "networkType": "ethereum",
  "devdoc": {
    "methods": {}
  },
  "userdoc": {
    "methods": {}
  }
}