{
  "contractName": "World",
  "abi": [
    {
      "inputs": [
        {
          "internalType": "contract Token",
          "name": "_token",
          "type": "address"
        }
      ],
      "stateMutability": "nonpayable",
      "type": "constructor"
    },
    {
      "anonymous": false,
      "inputs": [
        {
          "indexed": true,
          "internalType": "address",
          "name": "owner",
          "type": "address"
        },
        {
          "indexed": true,
          "internalType": "address",
          "name": "approved",
          "type": "address"
        },
        {
          "indexed": true,
          "internalType": "uint256",
          "name": "tokenId",
          "type": "uint256"
        }
      ],
      "name": "Approval",
      "type": "event"
    },
    {
      "anonymous": false,
      "inputs": [
        {
          "indexed": true,
          "internalType": "address",
          "name": "owner",
          "type": "address"
        },
        {
          "indexed": true,
          "internalType": "address",
          "name": "operator",
          "type": "address"
        },
        {
          "indexed": false,
          "internalType": "bool",
          "name": "approved",
          "type": "bool"
        }
      ],
      "name": "ApprovalForAll",
      "type": "event"
    },
    {
      "anonymous": false,
      "inputs": [
        {
          "indexed": true,
          "internalType": "address",
          "name": "previousOwner",
          "type": "address"
        },
        {
          "indexed": true,
          "internalType": "address",
          "name": "newOwner",
          "type": "address"
        }
      ],
      "name": "OwnershipTransferred",
      "type": "event"
    },
    {
      "anonymous": false,
      "inputs": [
        {
          "indexed": true,
          "internalType": "address",
          "name": "from",
          "type": "address"
        },
        {
          "indexed": true,
          "internalType": "address",
          "name": "to",
          "type": "address"
        },
        {
          "indexed": true,
          "internalType": "uint256",
          "name": "tokenId",
          "type": "uint256"
        }
      ],
      "name": "Transfer",
      "type": "event"
    },
    {
      "inputs": [
        {
          "internalType": "address",
          "name": "to",
          "type": "address"
        },
        {
          "internalType": "uint256",
          "name": "tokenId",
          "type": "uint256"
        }
      ],
      "name": "approve",
      "outputs": [],
      "stateMutability": "nonpayable",
      "type": "function"
    },
    {
      "inputs": [
        {
          "internalType": "address",
          "name": "owner",
          "type": "address"
        }
      ],
      "name": "balanceOf",
      "outputs": [
        {
          "internalType": "uint256",
          "name": "",
          "type": "uint256"
        }
      ],
      "stateMutability": "view",
      "type": "function"
    },
    {
      "inputs": [
        {
          "internalType": "uint256",
          "name": "tokenId",
          "type": "uint256"
        }
      ],
      "name": "getApproved",
      "outputs": [
        {
          "internalType": "address",
          "name": "",
          "type": "address"
        }
      ],
      "stateMutability": "view",
      "type": "function"
    },
    {
      "inputs": [
        {
          "internalType": "address",
          "name": "owner",
          "type": "address"
        },
        {
          "internalType": "address",
          "name": "operator",
          "type": "address"
        }
      ],
      "name": "isApprovedForAll",
      "outputs": [
        {
          "internalType": "bool",
          "name": "",
          "type": "bool"
        }
      ],
      "stateMutability": "view",
      "type": "function"
    },
    {
      "inputs": [],
      "name": "name",
      "outputs": [
        {
          "internalType": "string",
          "name": "",
          "type": "string"
        }
      ],
      "stateMutability": "view",
      "type": "function"
    },
    {
      "inputs": [],
      "name": "owner",
      "outputs": [
        {
          "internalType": "address",
          "name": "",
          "type": "address"
        }
      ],
      "stateMutability": "view",
      "type": "function"
    },
    {
      "inputs": [
        {
          "internalType": "uint256",
          "name": "tokenId",
          "type": "uint256"
        }
      ],
      "name": "ownerOf",
      "outputs": [
        {
          "internalType": "address",
          "name": "",
          "type": "address"
        }
      ],
      "stateMutability": "view",
      "type": "function"
    },
    {
      "inputs": [],
      "name": "renounceOwnership",
      "outputs": [],
      "stateMutability": "nonpayable",
      "type": "function"
    },
    {
      "inputs": [
        {
          "internalType": "address",
          "name": "from",
          "type": "address"
        },
        {
          "internalType": "address",
          "name": "to",
          "type": "address"
        },
        {
          "internalType": "uint256",
          "name": "tokenId",
          "type": "uint256"
        }
      ],
      "name": "safeTransferFrom",
      "outputs": [],
      "stateMutability": "nonpayable",
      "type": "function"
    },
    {
      "inputs": [
        {
          "internalType": "address",
          "name": "from",
          "type": "address"
        },
        {
          "internalType": "address",
          "name": "to",
          "type": "address"
        },
        {
          "internalType": "uint256",
          "name": "tokenId",
          "type": "uint256"
        },
        {
          "internalType": "bytes",
          "name": "_data",
          "type": "bytes"
        }
      ],
      "name": "safeTransferFrom",
      "outputs": [],
      "stateMutability": "nonpayable",
      "type": "function"
    },
    {
      "inputs": [
        {
          "internalType": "address",
          "name": "operator",
          "type": "address"
        },
        {
          "internalType": "bool",
          "name": "approved",
          "type": "bool"
        }
      ],
      "name": "setApprovalForAll",
      "outputs": [],
      "stateMutability": "nonpayable",
      "type": "function"
    },
    {
      "inputs": [
        {
          "internalType": "bytes4",
          "name": "interfaceId",
          "type": "bytes4"
        }
      ],
      "name": "supportsInterface",
      "outputs": [
        {
          "internalType": "bool",
          "name": "",
          "type": "bool"
        }
      ],
      "stateMutability": "view",
      "type": "function"
    },
    {
      "inputs": [],
      "name": "symbol",
      "outputs": [
        {
          "internalType": "string",
          "name": "",
          "type": "string"
        }
      ],
      "stateMutability": "view",
      "type": "function"
    },
    {
      "inputs": [
        {
          "internalType": "uint256",
          "name": "tokenId",
          "type": "uint256"
        }
      ],
      "name": "tokenURI",
      "outputs": [
        {
          "internalType": "string",
          "name": "",
          "type": "string"
        }
      ],
      "stateMutability": "view",
      "type": "function"
    },
    {
      "inputs": [
        {
          "internalType": "address",
          "name": "from",
          "type": "address"
        },
        {
          "internalType": "address",
          "name": "to",
          "type": "address"
        },
        {
          "internalType": "uint256",
          "name": "tokenId",
          "type": "uint256"
        }
      ],
      "name": "transferFrom",
      "outputs": [],
      "stateMutability": "nonpayable",
      "type": "function"
    },
    {
      "inputs": [
        {
          "internalType": "address",
          "name": "newOwner",
          "type": "address"
        }
      ],
      "name": "transferOwnership",
      "outputs": [],
      "stateMutability": "nonpayable",
      "type": "function"
    },
    {
      "inputs": [
        {
          "components": [
            {
              "internalType": "uint256",
              "name": "tokenId",
              "type": "uint256"
            },
            {
              "internalType": "enum LandType",
              "name": "landType",
              "type": "uint8"
            },
            {
              "internalType": "string",
              "name": "game",
              "type": "string"
            },
            {
              "internalType": "uint256",
              "name": "price",
              "type": "uint256"
            }
          ],
          "internalType": "struct World.Land",
          "name": "land",
          "type": "tuple"
        }
      ],
      "name": "mint",
      "outputs": [],
      "stateMutability": "nonpayable",
      "type": "function"
    },
    {
      "inputs": [],
      "name": "getTokensCount",
      "outputs": [
        {
          "internalType": "uint256",
          "name": "",
          "type": "uint256"
        }
      ],
      "stateMutability": "view",
      "type": "function"
    },
    {
      "inputs": [],
      "name": "getMap",
      "outputs": [
        {
          "internalType": "address[]",
          "name": "",
          "type": "address[]"
        },
        {
          "components": [
            {
              "internalType": "uint256",
              "name": "tokenId",
              "type": "uint256"
            },
            {
              "internalType": "enum LandType",
              "name": "landType",
              "type": "uint8"
            },
            {
              "internalType": "string",
              "name": "game",
              "type": "string"
            },
            {
              "internalType": "uint256",
              "name": "price",
              "type": "uint256"
            }
          ],
          "internalType": "struct World.Land[]",
          "name": "",
          "type": "tuple[]"
        }
      ],
      "stateMutability": "view",
      "type": "function"
    },
    {
      "inputs": [
        {
          "components": [
            {
              "internalType": "uint256",
              "name": "tokenId",
              "type": "uint256"
            },
            {
              "internalType": "enum LandType",
              "name": "landType",
              "type": "uint8"
            },
            {
              "internalType": "string",
              "name": "game",
              "type": "string"
            },
            {
              "internalType": "uint256",
              "name": "price",
              "type": "uint256"
            }
          ],
          "internalType": "struct World.Land",
          "name": "land",
          "type": "tuple"
        },
        {
          "internalType": "address",
          "name": "to",
          "type": "address"
        }
      ],
      "name": "transferLand",
      "outputs": [
        {
          "internalType": "bool",
          "name": "",
          "type": "bool"
        }
      ],
      "stateMutability": "payable",
      "type": "function"
    }
  ],
  "bytecode": "0x60806040523480156200001157600080fd5b5060405162002208380380620022088339810160408190526200003491620001e0565b6040518060400160405280600481526020016313185b9960e21b815250604051806040016040528060048152602001631310539160e21b8152508160009080519060200190620000869291906200013a565b5080516200009c9060019060208401906200013a565b505050620000b9620000b3620000e460201b60201c565b620000e8565b600780546001600160a01b0319166001600160a01b039290921691909117905560006008556200024d565b3390565b600680546001600160a01b038381166001600160a01b0319831681179093556040519116919082907f8be0079c531659141344cd1fd0a4f28419497f9722a3daafe3b4186f6b6457e090600090a35050565b828054620001489062000210565b90600052602060002090601f0160209004810192826200016c5760008555620001b7565b82601f106200018757805160ff1916838001178555620001b7565b82800160010185558215620001b7579182015b82811115620001b75782518255916020019190600101906200019a565b50620001c5929150620001c9565b5090565b5b80821115620001c55760008155600101620001ca565b600060208284031215620001f2578081fd5b81516001600160a01b038116811462000209578182fd5b9392505050565b600181811c908216806200022557607f821691505b602082108114156200024757634e487b7160e01b600052602260045260246000fd5b50919050565b611fab806200025d6000396000f3fe60806040526004361061011f5760003560e01c80638da5cb5b116100a0578063b88d4fde11610064578063b88d4fde1461031f578063c87b56dd1461033f578063e985e9c51461035f578063f2fde38b146103a8578063f960a91e146103c857600080fd5b80638da5cb5b1461028957806395d89b41146102a7578063a0001329146102bc578063a22cb465146102dc578063ad3de14c146102fc57600080fd5b80633962f82d116100e75780633962f82d146101f557806342842e0e146102145780636352211e1461023457806370a0823114610254578063715018a61461027457600080fd5b806301ffc9a71461012457806306fdde0314610159578063081812fc1461017b578063095ea7b3146101b357806323b872dd146101d5575b600080fd5b34801561013057600080fd5b5061014461013f366004611aa6565b6103db565b60405190151581526020015b60405180910390f35b34801561016557600080fd5b5061016e61042d565b6040516101509190611d03565b34801561018757600080fd5b5061019b610196366004611b54565b6104bf565b6040516001600160a01b039091168152602001610150565b3480156101bf57600080fd5b506101d36101ce366004611a61565b610559565b005b3480156101e157600080fd5b506101d36101f0366004611977565b61066f565b34801561020157600080fd5b506008545b604051908152602001610150565b34801561022057600080fd5b506101d361022f366004611977565b6106a0565b34801561024057600080fd5b5061019b61024f366004611b54565b6106bb565b34801561026057600080fd5b5061020661026f36600461192b565b610732565b34801561028057600080fd5b506101d36107b9565b34801561029557600080fd5b506006546001600160a01b031661019b565b3480156102b357600080fd5b5061016e6107ef565b3480156102c857600080fd5b506101d36102d7366004611ade565b6107fe565b3480156102e857600080fd5b506101d36102f7366004611a2b565b610846565b34801561030857600080fd5b50610311610855565b604051610150929190611c1c565b34801561032b57600080fd5b506101d361033a3660046119b2565b610af8565b34801561034b57600080fd5b5061016e61035a366004611b54565b610b30565b34801561036b57600080fd5b5061014461037a366004611945565b6001600160a01b03918216600090815260056020908152604080832093909416825291909152205460ff1690565b3480156103b457600080fd5b506101d36103c336600461192b565b610c18565b6101446103d6366004611b11565b610cb0565b60006001600160e01b031982166380ac58cd60e01b148061040c57506001600160e01b03198216635b5e139f60e01b145b8061042757506301ffc9a760e01b6001600160e01b03198316145b92915050565b60606000805461043c90611ea5565b80601f016020809104026020016040519081016040528092919081815260200182805461046890611ea5565b80156104b55780601f1061048a576101008083540402835291602001916104b5565b820191906000526020600020905b81548152906001019060200180831161049857829003601f168201915b5050505050905090565b6000818152600260205260408120546001600160a01b031661053d5760405162461bcd60e51b815260206004820152602c60248201527f4552433732313a20617070726f76656420717565727920666f72206e6f6e657860448201526b34b9ba32b73a103a37b5b2b760a11b60648201526084015b60405180910390fd5b506000908152600460205260409020546001600160a01b031690565b6000610564826106bb565b9050806001600160a01b0316836001600160a01b031614156105d25760405162461bcd60e51b815260206004820152602160248201527f4552433732313a20617070726f76616c20746f2063757272656e74206f776e656044820152603960f91b6064820152608401610534565b336001600160a01b03821614806105ee57506105ee813361037a565b6106605760405162461bcd60e51b815260206004820152603860248201527f4552433732313a20617070726f76652063616c6c6572206973206e6f74206f7760448201527f6e6572206e6f7220617070726f76656420666f7220616c6c00000000000000006064820152608401610534565b61066a8383610edc565b505050565b6106793382610f4a565b6106955760405162461bcd60e51b815260040161053490611d9d565b61066a83838361103d565b61066a83838360405180602001604052806000815250610af8565b6000818152600260205260408120546001600160a01b0316806104275760405162461bcd60e51b815260206004820152602960248201527f4552433732313a206f776e657220717565727920666f72206e6f6e657869737460448201526832b73a103a37b5b2b760b91b6064820152608401610534565b60006001600160a01b03821661079d5760405162461bcd60e51b815260206004820152602a60248201527f4552433732313a2062616c616e636520717565727920666f7220746865207a65604482015269726f206164647265737360b01b6064820152608401610534565b506001600160a01b031660009081526003602052604090205490565b6006546001600160a01b031633146107e35760405162461bcd60e51b815260040161053490611d68565b6107ed60006111d9565b565b60606001805461043c90611ea5565b6006546001600160a01b031633146108285760405162461bcd60e51b815260040161053490611d68565b8051600881905561083a90339061122b565b6108438161136d565b50565b610851338383611451565b5050565b606080600060085467ffffffffffffffff81111561088357634e487b7160e01b600052604160045260246000fd5b6040519080825280602002602001820160405280156108ac578160200160208202803683370190505b509050600060085467ffffffffffffffff8111156108da57634e487b7160e01b600052604160045260246000fd5b60405190808252806020026020018201604052801561093757816020015b610924604080516080810190915260008082526020820190815260200160608152602001600081525090565b8152602001906001900390816108f85790505b50905060005b600854811015610aee5761095561024f826001611e17565b83828151811061097557634e487b7160e01b600052603260045260246000fd5b6001600160a01b03909216602092830291909101909101526009600061099c836001611e17565b8152602001908152602001600020604051806080016040529081600082015481526020016001820160009054906101000a900460ff1660028111156109f157634e487b7160e01b600052602160045260246000fd5b6002811115610a1057634e487b7160e01b600052602160045260246000fd5b8152602001600282018054610a2490611ea5565b80601f0160208091040260200160405190810160405280929190818152602001828054610a5090611ea5565b8015610a9d5780601f10610a7257610100808354040283529160200191610a9d565b820191906000526020600020905b815481529060010190602001808311610a8057829003601f168201915b50505050508152602001600382015481525050828281518110610ad057634e487b7160e01b600052603260045260246000fd5b60200260200101819052508080610ae690611ee0565b91505061093d565b5090939092509050565b610b023383610f4a565b610b1e5760405162461bcd60e51b815260040161053490611d9d565b610b2a84848484611520565b50505050565b6000818152600260205260409020546060906001600160a01b0316610baf5760405162461bcd60e51b815260206004820152602f60248201527f4552433732314d657461646174613a2055524920717565727920666f72206e6f60448201526e3732bc34b9ba32b73a103a37b5b2b760891b6064820152608401610534565b6000610bc660408051602081019091526000815290565b90506000815111610be65760405180602001604052806000815250610c11565b80610bf084611553565b604051602001610c01929190611bb0565b6040516020818303038152906040525b9392505050565b6006546001600160a01b03163314610c425760405162461bcd60e51b815260040161053490611d68565b6001600160a01b038116610ca75760405162461bcd60e51b815260206004820152602660248201527f4f776e61626c653a206e6577206f776e657220697320746865207a65726f206160448201526564647265737360d01b6064820152608401610534565b610843816111d9565b60008083602001516002811115610cd757634e487b7160e01b600052602160045260246000fd5b14610d245760405162461bcd60e51b815260206004820152601e60248201527f4f6e6c79204e4654206c616e64732063616e206265207472616e7366657200006044820152606401610534565b336001600160a01b0383161415610d895760405162461bcd60e51b8152602060048201526024808201527f596f752063616e6e6f74207472616e73666572206c616e6420746f20796f757260448201526339b2b63360e11b6064820152608401610534565b6000610d9884600001516106bb565b60075460408051634c6afee560e11b815290519293506000926001600160a01b03909216916323b872dd918591339185916398d5fdca91600480820192602092909190829003018186803b158015610def57600080fd5b505afa158015610e03573d6000803e3d6000fd5b505050506040513d601f19601f82011682018060405250810190610e279190611b6c565b8960600151610e369190611e43565b6040516001600160e01b031960e086901b1681526001600160a01b0393841660048201529290911660248301526044820152606401602060405180830381600087803b158015610e8557600080fd5b505af1158015610e99573d6000803e3d6000fd5b505050506040513d601f19601f82011682018060405250810190610ebd9190611a8a565b90508015610ed457610ed43385876000015161103d565b949350505050565b600081815260046020526040902080546001600160a01b0319166001600160a01b0384169081179091558190610f11826106bb565b6001600160a01b03167f8c5be1e5ebec7d5bd14f71427d1e84f3dd0314c0f7b2291e5b200ac8c7c3b92560405160405180910390a45050565b6000818152600260205260408120546001600160a01b0316610fc35760405162461bcd60e51b815260206004820152602c60248201527f4552433732313a206f70657261746f7220717565727920666f72206e6f6e657860448201526b34b9ba32b73a103a37b5b2b760a11b6064820152608401610534565b6000610fce836106bb565b9050806001600160a01b0316846001600160a01b031614806110095750836001600160a01b0316610ffe846104bf565b6001600160a01b0316145b80610ed457506001600160a01b0380821660009081526005602090815260408083209388168352929052205460ff16610ed4565b826001600160a01b0316611050826106bb565b6001600160a01b0316146110b45760405162461bcd60e51b815260206004820152602560248201527f4552433732313a207472616e736665722066726f6d20696e636f72726563742060448201526437bbb732b960d91b6064820152608401610534565b6001600160a01b0382166111165760405162461bcd60e51b8152602060048201526024808201527f4552433732313a207472616e7366657220746f20746865207a65726f206164646044820152637265737360e01b6064820152608401610534565b611121600082610edc565b6001600160a01b038316600090815260036020526040812080546001929061114a908490611e62565b90915550506001600160a01b0382166000908152600360205260408120805460019290611178908490611e17565b909155505060008181526002602052604080822080546001600160a01b0319166001600160a01b0386811691821790925591518493918716917fddf252ad1be2c89b69c2b068fc378daa952ba7f163c4a11628f55a4df523b3ef91a4505050565b600680546001600160a01b038381166001600160a01b0319831681179093556040519116919082907f8be0079c531659141344cd1fd0a4f28419497f9722a3daafe3b4186f6b6457e090600090a35050565b6001600160a01b0382166112815760405162461bcd60e51b815260206004820181905260248201527f4552433732313a206d696e7420746f20746865207a65726f20616464726573736044820152606401610534565b6000818152600260205260409020546001600160a01b0316156112e65760405162461bcd60e51b815260206004820152601c60248201527f4552433732313a20746f6b656e20616c7265616479206d696e746564000000006044820152606401610534565b6001600160a01b038216600090815260036020526040812080546001929061130f908490611e17565b909155505060008181526002602052604080822080546001600160a01b0319166001600160a01b03861690811790915590518392907fddf252ad1be2c89b69c2b068fc378daa952ba7f163c4a11628f55a4df523b3ef908290a45050565b80516000908152600260205260409020546001600160a01b03166113d35760405162461bcd60e51b815260206004820152601d60248201527f4c616e6420736574206f66206e6f6e6578697374656e7420746f6b656e0000006044820152606401610534565b805160009081526009602090815260409091208251815590820151600180830180548594939260ff199091169083600281111561142057634e487b7160e01b600052602160045260246000fd5b02179055506040820151805161144091600284019160209091019061177a565b506060820151816003015590505050565b816001600160a01b0316836001600160a01b031614156114b35760405162461bcd60e51b815260206004820152601960248201527f4552433732313a20617070726f766520746f2063616c6c6572000000000000006044820152606401610534565b6001600160a01b03838116600081815260056020908152604080832094871680845294825291829020805460ff191686151590811790915591519182527f17307eab39ab6107e8899845ad3d59bd9653f200f220920489ca2b5937696c31910160405180910390a3505050565b61152b84848461103d565b6115378484848461166d565b610b2a5760405162461bcd60e51b815260040161053490611d16565b6060816115775750506040805180820190915260018152600360fc1b602082015290565b8160005b81156115a1578061158b81611ee0565b915061159a9050600a83611e2f565b915061157b565b60008167ffffffffffffffff8111156115ca57634e487b7160e01b600052604160045260246000fd5b6040519080825280601f01601f1916602001820160405280156115f4576020820181803683370190505b5090505b8415610ed457611609600183611e62565b9150611616600a86611efb565b611621906030611e17565b60f81b81838151811061164457634e487b7160e01b600052603260045260246000fd5b60200101906001600160f81b031916908160001a905350611666600a86611e2f565b94506115f8565b60006001600160a01b0384163b1561176f57604051630a85bd0160e11b81526001600160a01b0385169063150b7a02906116b1903390899088908890600401611bdf565b602060405180830381600087803b1580156116cb57600080fd5b505af19250505080156116fb575060408051601f3d908101601f191682019092526116f891810190611ac2565b60015b611755573d808015611729576040519150601f19603f3d011682016040523d82523d6000602084013e61172e565b606091505b50805161174d5760405162461bcd60e51b815260040161053490611d16565b805181602001fd5b6001600160e01b031916630a85bd0160e11b149050610ed4565b506001949350505050565b82805461178690611ea5565b90600052602060002090601f0160209004810192826117a857600085556117ee565b82601f106117c157805160ff19168380011785556117ee565b828001600101855582156117ee579182015b828111156117ee5782518255916020019190600101906117d3565b506117fa9291506117fe565b5090565b5b808211156117fa57600081556001016117ff565b600067ffffffffffffffff8084111561182e5761182e611f3b565b604051601f8501601f19908116603f0116810190828211818310171561185657611856611f3b565b8160405280935085815286868601111561186f57600080fd5b858560208301376000602087830101525050509392505050565b80356001600160a01b03811681146118a057600080fd5b919050565b6000608082840312156118b6578081fd5b6118be611dee565b9050813581526020820135600381106118d657600080fd5b6020820152604082013567ffffffffffffffff8111156118f557600080fd5b8201601f8101841361190657600080fd5b61191584823560208401611813565b6040830152506060820135606082015292915050565b60006020828403121561193c578081fd5b610c1182611889565b60008060408385031215611957578081fd5b61196083611889565b915061196e60208401611889565b90509250929050565b60008060006060848603121561198b578081fd5b61199484611889565b92506119a260208501611889565b9150604084013590509250925092565b600080600080608085870312156119c7578081fd5b6119d085611889565b93506119de60208601611889565b925060408501359150606085013567ffffffffffffffff811115611a00578182fd5b8501601f81018713611a10578182fd5b611a1f87823560208401611813565b91505092959194509250565b60008060408385031215611a3d578182fd5b611a4683611889565b91506020830135611a5681611f51565b809150509250929050565b60008060408385031215611a73578182fd5b611a7c83611889565b946020939093013593505050565b600060208284031215611a9b578081fd5b8151610c1181611f51565b600060208284031215611ab7578081fd5b8135610c1181611f5f565b600060208284031215611ad3578081fd5b8151610c1181611f5f565b600060208284031215611aef578081fd5b813567ffffffffffffffff811115611b05578182fd5b610ed4848285016118a5565b60008060408385031215611b23578182fd5b823567ffffffffffffffff811115611b39578283fd5b611b45858286016118a5565b92505061196e60208401611889565b600060208284031215611b65578081fd5b5035919050565b600060208284031215611b7d578081fd5b5051919050565b60008151808452611b9c816020860160208601611e79565b601f01601f19169290920160200192915050565b60008351611bc2818460208801611e79565b835190830190611bd6818360208801611e79565b01949350505050565b6001600160a01b0385811682528416602082015260408101839052608060608201819052600090611c1290830184611b84565b9695505050505050565b6040808252835182820181905260009190606090818501906020808901865b83811015611c605781516001600160a01b031685529382019390820190600101611c3b565b50508683038188015287518084528184019250600581901b84018201898301885b83811015611cf257601f1987840301865281516080815185528682015160038110611cba57634e487b7160e01b8d52602160045260248dfd5b85880152818b01518b8601829052611cd482870182611b84565b928b0151958b01959095525095850195925090840190600101611c81565b50909b9a5050505050505050505050565b602081526000610c116020830184611b84565b60208082526032908201527f4552433732313a207472616e7366657220746f206e6f6e20455243373231526560408201527131b2b4bb32b91034b6b83632b6b2b73a32b960711b606082015260800190565b6020808252818101527f4f776e61626c653a2063616c6c6572206973206e6f7420746865206f776e6572604082015260600190565b60208082526031908201527f4552433732313a207472616e736665722063616c6c6572206973206e6f74206f6040820152701ddb995c881b9bdc88185c1c1c9bdd9959607a1b606082015260800190565b6040516080810167ffffffffffffffff81118282101715611e1157611e11611f3b565b60405290565b60008219821115611e2a57611e2a611f0f565b500190565b600082611e3e57611e3e611f25565b500490565b6000816000190483118215151615611e5d57611e5d611f0f565b500290565b600082821015611e7457611e74611f0f565b500390565b60005b83811015611e94578181015183820152602001611e7c565b83811115610b2a5750506000910152565b600181811c90821680611eb957607f821691505b60208210811415611eda57634e487b7160e01b600052602260045260246000fd5b50919050565b6000600019821415611ef457611ef4611f0f565b5060010190565b600082611f0a57611f0a611f25565b500690565b634e487b7160e01b600052601160045260246000fd5b634e487b7160e01b600052601260045260246000fd5b634e487b7160e01b600052604160045260246000fd5b801515811461084357600080fd5b6001600160e01b03198116811461084357600080fdfea26469706673582212207723218b5fcbebd33d1ab8caa499d8af77616ecbc9f1ef3c1d40562da00b7dea64736f6c63430008040033",
  "immutableReferences": {},
  "source": "// SPDX-License-Identifier: MIT\r\npragma solidity ^0.8.0;\r\n\r\nimport '@openzeppelin/contracts/token/ERC721/ERC721.sol';\r\nimport '@openzeppelin/contracts/access/Ownable.sol';\r\nimport './Token.sol';\r\n\r\nenum LandType { NFT, PARK, ROAD }\r\n\r\ncontract World is ERC721, Ownable {\r\n    struct Land {\r\n        uint256 tokenId;\r\n        LandType landType;\r\n        string game;\r\n        uint256 price;\r\n    }\r\n\r\n    Token private token;\r\n    uint256 private numOfTokens;\r\n\r\n    mapping(uint256 => Land) private lands;\r\n\r\n    constructor(Token _token) ERC721('Land', 'LAND') Ownable() {\r\n        token = _token;\r\n        numOfTokens = 0;\r\n    }\r\n\r\n    function mint(Land memory land) public onlyOwner {\r\n        numOfTokens = land.tokenId;\r\n        _mint(msg.sender, land.tokenId);\r\n        setLand(land);\r\n    }\r\n\r\n    function getTokensCount() public view returns (uint256) {\r\n        return numOfTokens;\r\n    }\r\n\r\n    function getMap() public view returns (address[] memory, Land[] memory) {\r\n        address[] memory owners = new address[](numOfTokens);\r\n        Land[] memory map = new Land[](numOfTokens);\r\n\r\n        for (uint256 i = 0; i < numOfTokens; i++) {\r\n            owners[i] = ownerOf(i + 1);\r\n            map[i] = lands[i + 1];\r\n        }\r\n\r\n        return (owners, map);\r\n    }\r\n\r\n    function setLand(Land memory land) internal virtual {\r\n        require(_exists(land.tokenId), 'Land set of nonexistent token');\r\n        require(land.price >= 0, 'Land price cannot be negative number');\r\n\r\n        lands[land.tokenId] = land;\r\n    }\r\n\r\n    function transferLand(Land memory land, address to) public payable returns (bool) {\r\n        require(land.landType == LandType.NFT, 'Only NFT lands can be transfer');\r\n        require(msg.sender != to, 'You cannot transfer land to yourself');\r\n\r\n        address ownerOfToken = ownerOf(land.tokenId);\r\n        //token.approve(msg.sender, msg.value * price);\r\n        bool success = token.transferFrom(ownerOfToken, msg.sender, land.price * token.getPrice());\r\n\r\n        if (success) {\r\n            _transfer(msg.sender, to, land.tokenId);\r\n        }\r\n\r\n        return success;\r\n    }\r\n}",
  "sourcePath": "C:\\Users\\elads\\Documents\\\\ \\ \\\\\\Final Project\\contracts\\World.sol",
  "compiler": {
    "name": "solc",
    "version": "0.8.4+commit.c7e474f2.Emscripten.clang"
  },
  "schemaVersion": "3.4.4",
  "updatedAt": "2022-02-19T01:00:25.111Z",
  "devdoc": {
    "kind": "dev",
    "methods": {
      "approve(address,uint256)": {
        "details": "See {IERC721-approve}."
      },
      "balanceOf(address)": {
        "details": "See {IERC721-balanceOf}."
      },
      "getApproved(uint256)": {
        "details": "See {IERC721-getApproved}."
      },
      "isApprovedForAll(address,address)": {
        "details": "See {IERC721-isApprovedForAll}."
      },
      "name()": {
        "details": "See {IERC721Metadata-name}."
      },
      "owner()": {
        "details": "Returns the address of the current owner."
      },
      "ownerOf(uint256)": {
        "details": "See {IERC721-ownerOf}."
      },
      "renounceOwnership()": {
        "details": "Leaves the contract without owner. It will not be possible to call `onlyOwner` functions anymore. Can only be called by the current owner. NOTE: Renouncing ownership will leave the contract without an owner, thereby removing any functionality that is only available to the owner."
      },
      "safeTransferFrom(address,address,uint256)": {
        "details": "See {IERC721-safeTransferFrom}."
      },
      "safeTransferFrom(address,address,uint256,bytes)": {
        "details": "See {IERC721-safeTransferFrom}."
      },
      "setApprovalForAll(address,bool)": {
        "details": "See {IERC721-setApprovalForAll}."
      },
      "supportsInterface(bytes4)": {
        "details": "See {IERC165-supportsInterface}."
      },
      "symbol()": {
        "details": "See {IERC721Metadata-symbol}."
      },
      "tokenURI(uint256)": {
        "details": "See {IERC721Metadata-tokenURI}."
      },
      "transferFrom(address,address,uint256)": {
        "details": "See {IERC721-transferFrom}."
      },
      "transferOwnership(address)": {
        "details": "Transfers ownership of the contract to a new account (`newOwner`). Can only be called by the current owner."
      }
    },
    "version": 1
  },
  "userdoc": {
    "kind": "user",
    "methods": {},
    "version": 1
  }
}