{
  "contractName": "World",
  "abi": [
    {
      "inputs": [
        {
          "internalType": "contract Token",
          "name": "_token",
          "type": "address"
        }
      ],
      "stateMutability": "nonpayable",
      "type": "constructor"
    },
    {
      "anonymous": false,
      "inputs": [
        {
          "indexed": true,
          "internalType": "address",
          "name": "owner",
          "type": "address"
        },
        {
          "indexed": true,
          "internalType": "address",
          "name": "approved",
          "type": "address"
        },
        {
          "indexed": true,
          "internalType": "uint256",
          "name": "tokenId",
          "type": "uint256"
        }
      ],
      "name": "Approval",
      "type": "event"
    },
    {
      "anonymous": false,
      "inputs": [
        {
          "indexed": true,
          "internalType": "address",
          "name": "owner",
          "type": "address"
        },
        {
          "indexed": true,
          "internalType": "address",
          "name": "operator",
          "type": "address"
        },
        {
          "indexed": false,
          "internalType": "bool",
          "name": "approved",
          "type": "bool"
        }
      ],
      "name": "ApprovalForAll",
      "type": "event"
    },
    {
      "anonymous": false,
      "inputs": [
        {
          "indexed": true,
          "internalType": "address",
          "name": "previousOwner",
          "type": "address"
        },
        {
          "indexed": true,
          "internalType": "address",
          "name": "newOwner",
          "type": "address"
        }
      ],
      "name": "OwnershipTransferred",
      "type": "event"
    },
    {
      "anonymous": false,
      "inputs": [
        {
          "indexed": true,
          "internalType": "address",
          "name": "from",
          "type": "address"
        },
        {
          "indexed": true,
          "internalType": "address",
          "name": "to",
          "type": "address"
        },
        {
          "indexed": true,
          "internalType": "uint256",
          "name": "tokenId",
          "type": "uint256"
        }
      ],
      "name": "Transfer",
      "type": "event"
    },
    {
      "inputs": [
        {
          "internalType": "address",
          "name": "to",
          "type": "address"
        },
        {
          "internalType": "uint256",
          "name": "tokenId",
          "type": "uint256"
        }
      ],
      "name": "approve",
      "outputs": [],
      "stateMutability": "nonpayable",
      "type": "function"
    },
    {
      "inputs": [
        {
          "internalType": "address",
          "name": "owner",
          "type": "address"
        }
      ],
      "name": "balanceOf",
      "outputs": [
        {
          "internalType": "uint256",
          "name": "",
          "type": "uint256"
        }
      ],
      "stateMutability": "view",
      "type": "function",
      "constant": true
    },
    {
      "inputs": [
        {
          "internalType": "uint256",
          "name": "tokenId",
          "type": "uint256"
        }
      ],
      "name": "getApproved",
      "outputs": [
        {
          "internalType": "address",
          "name": "",
          "type": "address"
        }
      ],
      "stateMutability": "view",
      "type": "function",
      "constant": true
    },
    {
      "inputs": [
        {
          "internalType": "address",
          "name": "owner",
          "type": "address"
        },
        {
          "internalType": "address",
          "name": "operator",
          "type": "address"
        }
      ],
      "name": "isApprovedForAll",
      "outputs": [
        {
          "internalType": "bool",
          "name": "",
          "type": "bool"
        }
      ],
      "stateMutability": "view",
      "type": "function",
      "constant": true
    },
    {
      "inputs": [],
      "name": "name",
      "outputs": [
        {
          "internalType": "string",
          "name": "",
          "type": "string"
        }
      ],
      "stateMutability": "view",
      "type": "function",
      "constant": true
    },
    {
      "inputs": [],
      "name": "owner",
      "outputs": [
        {
          "internalType": "address",
          "name": "",
          "type": "address"
        }
      ],
      "stateMutability": "view",
      "type": "function",
      "constant": true
    },
    {
      "inputs": [
        {
          "internalType": "uint256",
          "name": "tokenId",
          "type": "uint256"
        }
      ],
      "name": "ownerOf",
      "outputs": [
        {
          "internalType": "address",
          "name": "",
          "type": "address"
        }
      ],
      "stateMutability": "view",
      "type": "function",
      "constant": true
    },
    {
      "inputs": [],
      "name": "renounceOwnership",
      "outputs": [],
      "stateMutability": "nonpayable",
      "type": "function"
    },
    {
      "inputs": [
        {
          "internalType": "address",
          "name": "from",
          "type": "address"
        },
        {
          "internalType": "address",
          "name": "to",
          "type": "address"
        },
        {
          "internalType": "uint256",
          "name": "tokenId",
          "type": "uint256"
        }
      ],
      "name": "safeTransferFrom",
      "outputs": [],
      "stateMutability": "nonpayable",
      "type": "function"
    },
    {
      "inputs": [
        {
          "internalType": "address",
          "name": "from",
          "type": "address"
        },
        {
          "internalType": "address",
          "name": "to",
          "type": "address"
        },
        {
          "internalType": "uint256",
          "name": "tokenId",
          "type": "uint256"
        },
        {
          "internalType": "bytes",
          "name": "_data",
          "type": "bytes"
        }
      ],
      "name": "safeTransferFrom",
      "outputs": [],
      "stateMutability": "nonpayable",
      "type": "function"
    },
    {
      "inputs": [
        {
          "internalType": "address",
          "name": "operator",
          "type": "address"
        },
        {
          "internalType": "bool",
          "name": "approved",
          "type": "bool"
        }
      ],
      "name": "setApprovalForAll",
      "outputs": [],
      "stateMutability": "nonpayable",
      "type": "function"
    },
    {
      "inputs": [
        {
          "internalType": "bytes4",
          "name": "interfaceId",
          "type": "bytes4"
        }
      ],
      "name": "supportsInterface",
      "outputs": [
        {
          "internalType": "bool",
          "name": "",
          "type": "bool"
        }
      ],
      "stateMutability": "view",
      "type": "function",
      "constant": true
    },
    {
      "inputs": [],
      "name": "symbol",
      "outputs": [
        {
          "internalType": "string",
          "name": "",
          "type": "string"
        }
      ],
      "stateMutability": "view",
      "type": "function",
      "constant": true
    },
    {
      "inputs": [
        {
          "internalType": "uint256",
          "name": "tokenId",
          "type": "uint256"
        }
      ],
      "name": "tokenURI",
      "outputs": [
        {
          "internalType": "string",
          "name": "",
          "type": "string"
        }
      ],
      "stateMutability": "view",
      "type": "function",
      "constant": true
    },
    {
      "inputs": [
        {
          "internalType": "address",
          "name": "from",
          "type": "address"
        },
        {
          "internalType": "address",
          "name": "to",
          "type": "address"
        },
        {
          "internalType": "uint256",
          "name": "tokenId",
          "type": "uint256"
        }
      ],
      "name": "transferFrom",
      "outputs": [],
      "stateMutability": "nonpayable",
      "type": "function"
    },
    {
      "inputs": [
        {
          "internalType": "address",
          "name": "newOwner",
          "type": "address"
        }
      ],
      "name": "transferOwnership",
      "outputs": [],
      "stateMutability": "nonpayable",
      "type": "function"
    },
    {
      "inputs": [
        {
          "internalType": "uint8",
          "name": "row",
          "type": "uint8"
        },
        {
          "internalType": "uint8",
          "name": "col",
          "type": "uint8"
        },
        {
          "internalType": "enum LandType",
          "name": "landType",
          "type": "uint8"
        },
        {
          "internalType": "uint256",
          "name": "price",
          "type": "uint256"
        }
      ],
      "name": "mint",
      "outputs": [],
      "stateMutability": "nonpayable",
      "type": "function"
    },
    {
      "inputs": [],
      "name": "getTokensCount",
      "outputs": [
        {
          "internalType": "uint256",
          "name": "",
          "type": "uint256"
        }
      ],
      "stateMutability": "view",
      "type": "function",
      "constant": true
    },
    {
      "inputs": [],
      "name": "getMap",
      "outputs": [
        {
          "internalType": "address[]",
          "name": "",
          "type": "address[]"
        },
        {
          "components": [
            {
              "internalType": "uint256",
              "name": "tokenId",
              "type": "uint256"
            },
            {
              "internalType": "uint8",
              "name": "row",
              "type": "uint8"
            },
            {
              "internalType": "uint8",
              "name": "col",
              "type": "uint8"
            },
            {
              "internalType": "enum LandType",
              "name": "landType",
              "type": "uint8"
            },
            {
              "internalType": "string",
              "name": "game",
              "type": "string"
            },
            {
              "internalType": "uint256",
              "name": "price",
              "type": "uint256"
            }
          ],
          "internalType": "struct World.Land[]",
          "name": "",
          "type": "tuple[]"
        }
      ],
      "stateMutability": "view",
      "type": "function",
      "constant": true
    },
    {
      "inputs": [
        {
          "components": [
            {
              "internalType": "uint256",
              "name": "tokenId",
              "type": "uint256"
            },
            {
              "internalType": "uint8",
              "name": "row",
              "type": "uint8"
            },
            {
              "internalType": "uint8",
              "name": "col",
              "type": "uint8"
            },
            {
              "internalType": "enum LandType",
              "name": "landType",
              "type": "uint8"
            },
            {
              "internalType": "string",
              "name": "game",
              "type": "string"
            },
            {
              "internalType": "uint256",
              "name": "price",
              "type": "uint256"
            }
          ],
          "internalType": "struct World.Land",
          "name": "land",
          "type": "tuple"
        }
      ],
      "name": "setLand",
      "outputs": [],
      "stateMutability": "nonpayable",
      "type": "function"
    },
    {
      "inputs": [
        {
          "internalType": "uint256",
          "name": "tokenId",
          "type": "uint256"
        },
        {
          "internalType": "address",
          "name": "to",
          "type": "address"
        }
      ],
      "name": "transferLand",
      "outputs": [],
      "stateMutability": "payable",
      "type": "function",
      "payable": true
    }
  ],
  "bytecode": "0x60806040523480156200001157600080fd5b5060405162002496380380620024968339810160408190526200003491620001db565b6040518060400160405280600481526020016313185b9960e21b815250604051806040016040528060048152602001631310539160e21b81525081600090805190602001906200008692919062000135565b5080516200009c90600190602084019062000135565b505050620000b9620000b3620000df60201b60201c565b620000e3565b600880546001600160a01b0319166001600160a01b03929092169190911790556200024a565b3390565b600680546001600160a01b038381166001600160a01b0319831681179093556040519116919082907f8be0079c531659141344cd1fd0a4f28419497f9722a3daafe3b4186f6b6457e090600090a35050565b82805462000143906200020d565b90600052602060002090601f016020900481019282620001675760008555620001b2565b82601f106200018257805160ff1916838001178555620001b2565b82800160010185558215620001b2579182015b82811115620001b257825182559160200191906001019062000195565b50620001c0929150620001c4565b5090565b5b80821115620001c05760008155600101620001c5565b600060208284031215620001ee57600080fd5b81516001600160a01b03811681146200020657600080fd5b9392505050565b600181811c908216806200022257607f821691505b602082108114156200024457634e487b7160e01b600052602260045260246000fd5b50919050565b61223c806200025a6000396000f3fe60806040526004361061012a5760003560e01c806383d5a45e116100ab578063ad3de14c1161006f578063ad3de14c1461032b578063b88d4fde1461034e578063c798ff7d1461036e578063c87b56dd14610381578063e985e9c5146103a1578063f2fde38b146103c157600080fd5b806383d5a45e146102985780638da5cb5b146102b857806395d89b41146102d6578063a05e9ff8146102eb578063a22cb4651461030b57600080fd5b80633962f82d116100f25780633962f82d1461020057806342842e0e146102235780636352211e1461024357806370a0823114610263578063715018a61461028357600080fd5b806301ffc9a71461012f57806306fdde0314610164578063081812fc14610186578063095ea7b3146101be57806323b872dd146101e0575b600080fd5b34801561013b57600080fd5b5061014f61014a36600461193b565b6103e1565b60405190151581526020015b60405180910390f35b34801561017057600080fd5b50610179610433565b60405161015b91906119b0565b34801561019257600080fd5b506101a66101a13660046119c3565b6104c5565b6040516001600160a01b03909116815260200161015b565b3480156101ca57600080fd5b506101de6101d93660046119f8565b61055f565b005b3480156101ec57600080fd5b506101de6101fb366004611a22565b610675565b34801561020c57600080fd5b506102156106a6565b60405190815260200161015b565b34801561022f57600080fd5b506101de61023e366004611a22565b6106b6565b34801561024f57600080fd5b506101a661025e3660046119c3565b6106d1565b34801561026f57600080fd5b5061021561027e366004611a5e565b610748565b34801561028f57600080fd5b506101de6107cf565b3480156102a457600080fd5b506101de6102b3366004611b4c565b610835565b3480156102c457600080fd5b506006546001600160a01b03166101a6565b3480156102e257600080fd5b50610179610934565b3480156102f757600080fd5b506101de610306366004611c1c565b610943565b34801561031757600080fd5b506101de610326366004611c79565b610a6d565b34801561033757600080fd5b50610340610a7c565b60405161015b929190611cc6565b34801561035a57600080fd5b506101de610369366004611dcd565b610cec565b6101de61037c366004611e49565b610d24565b34801561038d57600080fd5b5061017961039c3660046119c3565b610f38565b3480156103ad57600080fd5b5061014f6103bc366004611e75565b611020565b3480156103cd57600080fd5b506101de6103dc366004611a5e565b61104e565b60006001600160e01b031982166380ac58cd60e01b148061041257506001600160e01b03198216635b5e139f60e01b145b8061042d57506301ffc9a760e01b6001600160e01b03198316145b92915050565b60606000805461044290611e9f565b80601f016020809104026020016040519081016040528092919081815260200182805461046e90611e9f565b80156104bb5780601f10610490576101008083540402835291602001916104bb565b820191906000526020600020905b81548152906001019060200180831161049e57829003601f168201915b5050505050905090565b6000818152600260205260408120546001600160a01b03166105435760405162461bcd60e51b815260206004820152602c60248201527f4552433732313a20617070726f76656420717565727920666f72206e6f6e657860448201526b34b9ba32b73a103a37b5b2b760a11b60648201526084015b60405180910390fd5b506000908152600460205260409020546001600160a01b031690565b600061056a826106d1565b9050806001600160a01b0316836001600160a01b031614156105d85760405162461bcd60e51b815260206004820152602160248201527f4552433732313a20617070726f76616c20746f2063757272656e74206f776e656044820152603960f91b606482015260840161053a565b336001600160a01b03821614806105f457506105f48133611020565b6106665760405162461bcd60e51b815260206004820152603860248201527f4552433732313a20617070726f76652063616c6c6572206973206e6f74206f7760448201527f6e6572206e6f7220617070726f76656420666f7220616c6c0000000000000000606482015260840161053a565b6106708383611119565b505050565b61067f3382611187565b61069b5760405162461bcd60e51b815260040161053a90611eda565b61067083838361125e565b60006106b160075490565b905090565b61067083838360405180602001604052806000815250610cec565b6000818152600260205260408120546001600160a01b03168061042d5760405162461bcd60e51b815260206004820152602960248201527f4552433732313a206f776e657220717565727920666f72206e6f6e657869737460448201526832b73a103a37b5b2b760b91b606482015260840161053a565b60006001600160a01b0382166107b35760405162461bcd60e51b815260206004820152602a60248201527f4552433732313a2062616c616e636520717565727920666f7220746865207a65604482015269726f206164647265737360b01b606482015260840161053a565b506001600160a01b031660009081526003602052604090205490565b6006546001600160a01b031633146108295760405162461bcd60e51b815260206004820181905260248201527f4f776e61626c653a2063616c6c6572206973206e6f7420746865206f776e6572604482015260640161053a565b61083360006113fa565b565b80516000908152600260205260409020546001600160a01b031661089b5760405162461bcd60e51b815260206004820152601d60248201527f4c616e6420736574206f66206e6f6e6578697374656e7420746f6b656e000000604482015260640161053a565b805160009081526009602090815260409182902083518155908301516001820180549385015160ff9081166101000261ffff199095169216919091179290921780835560608401518493909162ff000019166201000083600281111561090357610903611cb0565b02179055506080820151805161092391600284019160209091019061188c565b5060a0820151816003015590505050565b60606001805461044290611e9f565b600182600281111561095757610957611cb0565b14156109ce576006546001600160a01b031633146109c95760405162461bcd60e51b815260206004820152602960248201527f4f6e6c7920746865206f776e6572206f662074686520776f726c642063616e206044820152686d696e74207061726b60b81b606482015260840161053a565b6109ec565b60008260028111156109e2576109e2611cb0565b146109ec57600080fd5b6109fa600780546001019055565b6000610a0560075490565b9050610a11338261144c565b610a666040518060c001604052808381526020018760ff1681526020018660ff168152602001856002811115610a4957610a49611cb0565b815260408051602081810183526000825283015201849052610835565b5050505050565b610a7833838361158e565b5050565b6060806000610a896106a6565b905060008167ffffffffffffffff811115610aa657610aa6611a79565b604051908082528060200260200182016040528015610acf578160200160208202803683370190505b50905060008267ffffffffffffffff811115610aed57610aed611a79565b604051908082528060200260200182016040528015610b4c57816020015b6040805160c081018252600080825260208083018290529282018190526060808301829052608083015260a08201528252600019909201910181610b0b5790505b50905060005b83811015610ce157610b6861025e826001611f41565b838281518110610b7a57610b7a611f59565b6001600160a01b039092166020928302919091019091015260096000610ba1836001611f41565b81526020808201929092526040908101600020815160c08101835281548152600182015460ff808216958301959095526101008104851693820193909352929091606084019162010000909104166002811115610c0057610c00611cb0565b6002811115610c1157610c11611cb0565b8152602001600282018054610c2590611e9f565b80601f0160208091040260200160405190810160405280929190818152602001828054610c5190611e9f565b8015610c9e5780601f10610c7357610100808354040283529160200191610c9e565b820191906000526020600020905b815481529060010190602001808311610c8157829003601f168201915b50505050508152602001600382015481525050828281518110610cc357610cc3611f59565b60200260200101819052508080610cd990611f6f565b915050610b52565b509094909350915050565b610cf63383611187565b610d125760405162461bcd60e51b815260040161053a90611eda565b610d1e8484848461165d565b50505050565b6000808381526009602052604090206001015462010000900460ff166002811115610d5157610d51611cb0565b14610d9e5760405162461bcd60e51b815260206004820152601e60248201527f4f6e6c79204e4654206c616e64732063616e206265207472616e736665720000604482015260640161053a565b336001600160a01b0382161415610e035760405162461bcd60e51b8152602060048201526024808201527f596f752063616e6e6f74207472616e73666572206c616e6420746f20796f757260448201526339b2b63360e11b606482015260840161053a565b6008546001600160a01b03166323b872dd8233600860009054906101000a90046001600160a01b03166001600160a01b031663313ce5676040518163ffffffff1660e01b8152600401602060405180830381865afa158015610e69573d6000803e3d6000fd5b505050506040513d601f19601f82011682018060405250810190610e8d9190611f8a565b610e9890600a61208b565b600087815260096020526040902060030154610eb4919061209a565b6040516001600160e01b031960e086901b1681526001600160a01b03938416600482015292909116602483015260448201526064016020604051808303816000875af1158015610f08573d6000803e3d6000fd5b505050506040513d601f19601f82011682018060405250810190610f2c91906120b9565b50610a7833828461125e565b6000818152600260205260409020546060906001600160a01b0316610fb75760405162461bcd60e51b815260206004820152602f60248201527f4552433732314d657461646174613a2055524920717565727920666f72206e6f60448201526e3732bc34b9ba32b73a103a37b5b2b760891b606482015260840161053a565b6000610fce60408051602081019091526000815290565b90506000815111610fee5760405180602001604052806000815250611019565b80610ff884611690565b6040516020016110099291906120d6565b6040516020818303038152906040525b9392505050565b6001600160a01b03918216600090815260056020908152604080832093909416825291909152205460ff1690565b6006546001600160a01b031633146110a85760405162461bcd60e51b815260206004820181905260248201527f4f776e61626c653a2063616c6c6572206973206e6f7420746865206f776e6572604482015260640161053a565b6001600160a01b03811661110d5760405162461bcd60e51b815260206004820152602660248201527f4f776e61626c653a206e6577206f776e657220697320746865207a65726f206160448201526564647265737360d01b606482015260840161053a565b611116816113fa565b50565b600081815260046020526040902080546001600160a01b0319166001600160a01b038416908117909155819061114e826106d1565b6001600160a01b03167f8c5be1e5ebec7d5bd14f71427d1e84f3dd0314c0f7b2291e5b200ac8c7c3b92560405160405180910390a45050565b6000818152600260205260408120546001600160a01b03166112005760405162461bcd60e51b815260206004820152602c60248201527f4552433732313a206f70657261746f7220717565727920666f72206e6f6e657860448201526b34b9ba32b73a103a37b5b2b760a11b606482015260840161053a565b600061120b836106d1565b9050806001600160a01b0316846001600160a01b031614806112465750836001600160a01b031661123b846104c5565b6001600160a01b0316145b8061125657506112568185611020565b949350505050565b826001600160a01b0316611271826106d1565b6001600160a01b0316146112d55760405162461bcd60e51b815260206004820152602560248201527f4552433732313a207472616e736665722066726f6d20696e636f72726563742060448201526437bbb732b960d91b606482015260840161053a565b6001600160a01b0382166113375760405162461bcd60e51b8152602060048201526024808201527f4552433732313a207472616e7366657220746f20746865207a65726f206164646044820152637265737360e01b606482015260840161053a565b611342600082611119565b6001600160a01b038316600090815260036020526040812080546001929061136b908490612105565b90915550506001600160a01b0382166000908152600360205260408120805460019290611399908490611f41565b909155505060008181526002602052604080822080546001600160a01b0319166001600160a01b0386811691821790925591518493918716917fddf252ad1be2c89b69c2b068fc378daa952ba7f163c4a11628f55a4df523b3ef91a4505050565b600680546001600160a01b038381166001600160a01b0319831681179093556040519116919082907f8be0079c531659141344cd1fd0a4f28419497f9722a3daafe3b4186f6b6457e090600090a35050565b6001600160a01b0382166114a25760405162461bcd60e51b815260206004820181905260248201527f4552433732313a206d696e7420746f20746865207a65726f2061646472657373604482015260640161053a565b6000818152600260205260409020546001600160a01b0316156115075760405162461bcd60e51b815260206004820152601c60248201527f4552433732313a20746f6b656e20616c7265616479206d696e74656400000000604482015260640161053a565b6001600160a01b0382166000908152600360205260408120805460019290611530908490611f41565b909155505060008181526002602052604080822080546001600160a01b0319166001600160a01b03861690811790915590518392907fddf252ad1be2c89b69c2b068fc378daa952ba7f163c4a11628f55a4df523b3ef908290a45050565b816001600160a01b0316836001600160a01b031614156115f05760405162461bcd60e51b815260206004820152601960248201527f4552433732313a20617070726f766520746f2063616c6c657200000000000000604482015260640161053a565b6001600160a01b03838116600081815260056020908152604080832094871680845294825291829020805460ff191686151590811790915591519182527f17307eab39ab6107e8899845ad3d59bd9653f200f220920489ca2b5937696c31910160405180910390a3505050565b61166884848461125e565b6116748484848461178e565b610d1e5760405162461bcd60e51b815260040161053a9061211c565b6060816116b45750506040805180820190915260018152600360fc1b602082015290565b8160005b81156116de57806116c881611f6f565b91506116d79050600a83612184565b91506116b8565b60008167ffffffffffffffff8111156116f9576116f9611a79565b6040519080825280601f01601f191660200182016040528015611723576020820181803683370190505b5090505b841561125657611738600183612105565b9150611745600a86612198565b611750906030611f41565b60f81b81838151811061176557611765611f59565b60200101906001600160f81b031916908160001a905350611787600a86612184565b9450611727565b60006001600160a01b0384163b1561188157604051630a85bd0160e11b81526001600160a01b0385169063150b7a02906117d29033908990889088906004016121ac565b6020604051808303816000875af192505050801561180d575060408051601f3d908101601f1916820190925261180a918101906121e9565b60015b611867573d80801561183b576040519150601f19603f3d011682016040523d82523d6000602084013e611840565b606091505b50805161185f5760405162461bcd60e51b815260040161053a9061211c565b805181602001fd5b6001600160e01b031916630a85bd0160e11b149050611256565b506001949350505050565b82805461189890611e9f565b90600052602060002090601f0160209004810192826118ba5760008555611900565b82601f106118d357805160ff1916838001178555611900565b82800160010185558215611900579182015b828111156119005782518255916020019190600101906118e5565b5061190c929150611910565b5090565b5b8082111561190c5760008155600101611911565b6001600160e01b03198116811461111657600080fd5b60006020828403121561194d57600080fd5b813561101981611925565b60005b8381101561197357818101518382015260200161195b565b83811115610d1e5750506000910152565b6000815180845261199c816020860160208601611958565b601f01601f19169290920160200192915050565b6020815260006110196020830184611984565b6000602082840312156119d557600080fd5b5035919050565b80356001600160a01b03811681146119f357600080fd5b919050565b60008060408385031215611a0b57600080fd5b611a14836119dc565b946020939093013593505050565b600080600060608486031215611a3757600080fd5b611a40846119dc565b9250611a4e602085016119dc565b9150604084013590509250925092565b600060208284031215611a7057600080fd5b611019826119dc565b634e487b7160e01b600052604160045260246000fd5b60405160c0810167ffffffffffffffff81118282101715611ab257611ab2611a79565b60405290565b60ff8116811461111657600080fd5b8035600381106119f357600080fd5b600067ffffffffffffffff80841115611af157611af1611a79565b604051601f8501601f19908116603f01168101908282118183101715611b1957611b19611a79565b81604052809350858152868686011115611b3257600080fd5b858560208301376000602087830101525050509392505050565b600060208284031215611b5e57600080fd5b813567ffffffffffffffff80821115611b7657600080fd5b9083019060c08286031215611b8a57600080fd5b611b92611a8f565b823581526020830135611ba481611ab8565b60208201526040830135611bb781611ab8565b6040820152611bc860608401611ac7565b6060820152608083013582811115611bdf57600080fd5b83019150601f82018613611bf257600080fd5b611c0186833560208501611ad6565b608082015260a083013560a082015280935050505092915050565b60008060008060808587031215611c3257600080fd5b8435611c3d81611ab8565b93506020850135611c4d81611ab8565b9250611c5b60408601611ac7565b9396929550929360600135925050565b801515811461111657600080fd5b60008060408385031215611c8c57600080fd5b611c95836119dc565b91506020830135611ca581611c6b565b809150509250929050565b634e487b7160e01b600052602160045260246000fd5b6040808252835182820181905260009190606090818501906020808901865b83811015611d0a5781516001600160a01b031685529382019390820190600101611ce5565b50508683038188015287518084528184019250600581901b8401820189830160005b83811015611dbc57868303601f190186528151805184528581015160ff908116878601528a820151168a8501528881015160c09060038110611d7e57634e487b7160e01b600052602160045260246000fd5b858b0152608082810151818701839052611d9a83880182611984565b60a0948501519790940196909652505095850195925090840190600101611d2c565b50909b9a5050505050505050505050565b60008060008060808587031215611de357600080fd5b611dec856119dc565b9350611dfa602086016119dc565b925060408501359150606085013567ffffffffffffffff811115611e1d57600080fd5b8501601f81018713611e2e57600080fd5b611e3d87823560208401611ad6565b91505092959194509250565b60008060408385031215611e5c57600080fd5b82359150611e6c602084016119dc565b90509250929050565b60008060408385031215611e8857600080fd5b611e91836119dc565b9150611e6c602084016119dc565b600181811c90821680611eb357607f821691505b60208210811415611ed457634e487b7160e01b600052602260045260246000fd5b50919050565b60208082526031908201527f4552433732313a207472616e736665722063616c6c6572206973206e6f74206f6040820152701ddb995c881b9bdc88185c1c1c9bdd9959607a1b606082015260800190565b634e487b7160e01b600052601160045260246000fd5b60008219821115611f5457611f54611f2b565b500190565b634e487b7160e01b600052603260045260246000fd5b6000600019821415611f8357611f83611f2b565b5060010190565b600060208284031215611f9c57600080fd5b815161101981611ab8565b600181815b80851115611fe2578160001904821115611fc857611fc8611f2b565b80851615611fd557918102915b93841c9390800290611fac565b509250929050565b600082611ff95750600161042d565b816120065750600061042d565b816001811461201c576002811461202657612042565b600191505061042d565b60ff84111561203757612037611f2b565b50506001821b61042d565b5060208310610133831016604e8410600b8410161715612065575081810a61042d565b61206f8383611fa7565b806000190482111561208357612083611f2b565b029392505050565b600061101960ff841683611fea565b60008160001904831182151516156120b4576120b4611f2b565b500290565b6000602082840312156120cb57600080fd5b815161101981611c6b565b600083516120e8818460208801611958565b8351908301906120fc818360208801611958565b01949350505050565b60008282101561211757612117611f2b565b500390565b60208082526032908201527f4552433732313a207472616e7366657220746f206e6f6e20455243373231526560408201527131b2b4bb32b91034b6b83632b6b2b73a32b960711b606082015260800190565b634e487b7160e01b600052601260045260246000fd5b6000826121935761219361216e565b500490565b6000826121a7576121a761216e565b500690565b6001600160a01b03858116825284166020820152604081018390526080606082018190526000906121df90830184611984565b9695505050505050565b6000602082840312156121fb57600080fd5b81516110198161192556fea2646970667358221220dedcb7d34838423b3c641c9dd2ae1265eb8962daefe422bb6cc2f903364a2c0f64736f6c634300080a0033",
  "immutableReferences": {},
  "source": "// SPDX-License-Identifier: MIT\r\npragma solidity ^0.8.0;\r\n\r\nimport '@openzeppelin/contracts/token/ERC721/ERC721.sol';\r\nimport \"@openzeppelin/contracts/utils/Counters.sol\";\r\nimport '@openzeppelin/contracts/access/Ownable.sol';\r\nimport './Token.sol';\r\n\r\nenum LandType { NFT, PARK, ROAD }\r\n\r\ncontract World is ERC721, Ownable {\r\n    using Counters for Counters.Counter;\r\n\r\n    Counters.Counter private _tokenIds;\r\n    Token private token;\r\n\r\n    struct Land {\r\n        uint256 tokenId;\r\n        uint8 row;\r\n        uint8 col;\r\n        LandType landType;\r\n        string game;\r\n        uint256 price;\r\n    }\r\n\r\n    mapping(uint256 => Land) private lands;\r\n\r\n    constructor(Token _token) ERC721('Land', 'LAND') Ownable() {\r\n        token = _token;\r\n    }\r\n\r\n    function mint(uint8 row, uint8 col, LandType landType, uint256 price) public {\r\n        if (landType == LandType.PARK) {\r\n            require(owner() == _msgSender(), 'Only the owner of the world can mint park');\r\n        } else {\r\n            require(landType == LandType.NFT);\r\n        }\r\n\r\n        _tokenIds.increment();\r\n\r\n        uint256 tokenId = _tokenIds.current();\r\n        _mint(_msgSender(), tokenId);\r\n        setLand(Land(tokenId, row, col, landType, '', price));\r\n    }\r\n\r\n    function getTokensCount() public view returns (uint256) {\r\n        return _tokenIds.current();\r\n    }\r\n\r\n    function getMap() public view returns (address[] memory, Land[] memory) {\r\n        uint256 numOfTokens = getTokensCount();\r\n        address[] memory owners = new address[](numOfTokens);\r\n        Land[] memory map = new Land[](numOfTokens);\r\n\r\n        for (uint256 i = 0; i < numOfTokens; i++) {\r\n            owners[i] = ownerOf(i + 1);\r\n            map[i] = lands[i + 1];\r\n        }\r\n\r\n        return (owners, map);\r\n    }\r\n\r\n    function setLand(Land memory land) public {\r\n        require(_exists(land.tokenId), 'Land set of nonexistent token');\r\n        require(land.price >= 0, 'Land price cannot be negative number');\r\n\r\n        lands[land.tokenId] = land;\r\n    }\r\n\r\n    function transferLand(uint256 tokenId, address to) public payable {\r\n        require(lands[tokenId].landType == LandType.NFT, 'Only NFT lands can be transfer');\r\n        require(_msgSender() != to, 'You cannot transfer land to yourself');\r\n\r\n        token.transferFrom(to, _msgSender(), lands[tokenId].price * (10 ** token.decimals()));\r\n        _transfer(_msgSender(), to, tokenId);\r\n    }\r\n}",
  "sourcePath": "C:\\Users\\elads\\Documents\\\\ \\ \\\\\\Final Project\\contracts\\World.sol",
  "compiler": {
    "name": "solc",
    "version": "0.8.10+commit.fc410830.Emscripten.clang"
  },
  "schemaVersion": "3.4.4",
  "updatedAt": "2022-02-24T00:42:15.848Z",
  "networkType": "ethereum",
  "devdoc": {
    "kind": "dev",
    "methods": {
      "approve(address,uint256)": {
        "details": "See {IERC721-approve}."
      },
      "balanceOf(address)": {
        "details": "See {IERC721-balanceOf}."
      },
      "getApproved(uint256)": {
        "details": "See {IERC721-getApproved}."
      },
      "isApprovedForAll(address,address)": {
        "details": "See {IERC721-isApprovedForAll}."
      },
      "name()": {
        "details": "See {IERC721Metadata-name}."
      },
      "owner()": {
        "details": "Returns the address of the current owner."
      },
      "ownerOf(uint256)": {
        "details": "See {IERC721-ownerOf}."
      },
      "renounceOwnership()": {
        "details": "Leaves the contract without owner. It will not be possible to call `onlyOwner` functions anymore. Can only be called by the current owner. NOTE: Renouncing ownership will leave the contract without an owner, thereby removing any functionality that is only available to the owner."
      },
      "safeTransferFrom(address,address,uint256)": {
        "details": "See {IERC721-safeTransferFrom}."
      },
      "safeTransferFrom(address,address,uint256,bytes)": {
        "details": "See {IERC721-safeTransferFrom}."
      },
      "setApprovalForAll(address,bool)": {
        "details": "See {IERC721-setApprovalForAll}."
      },
      "supportsInterface(bytes4)": {
        "details": "See {IERC165-supportsInterface}."
      },
      "symbol()": {
        "details": "See {IERC721Metadata-symbol}."
      },
      "tokenURI(uint256)": {
        "details": "See {IERC721Metadata-tokenURI}."
      },
      "transferFrom(address,address,uint256)": {
        "details": "See {IERC721-transferFrom}."
      },
      "transferOwnership(address)": {
        "details": "Transfers ownership of the contract to a new account (`newOwner`). Can only be called by the current owner."
      }
    },
    "version": 1
  },
  "userdoc": {
    "kind": "user",
    "methods": {},
    "version": 1
  }
}