{
  "contractName": "World",
  "abi": [
    {
      "inputs": [],
      "stateMutability": "nonpayable",
      "type": "constructor"
    },
    {
      "inputs": [
        {
          "internalType": "uint8",
          "name": "",
          "type": "uint8"
        },
        {
          "internalType": "uint8",
          "name": "",
          "type": "uint8"
        }
      ],
      "name": "map",
      "outputs": [
        {
          "internalType": "address",
          "name": "owner",
          "type": "address"
        },
        {
          "internalType": "enum World.LandType",
          "name": "landType",
          "type": "uint8"
        },
        {
          "internalType": "uint256",
          "name": "price",
          "type": "uint256"
        },
        {
          "internalType": "string",
          "name": "content",
          "type": "string"
        },
        {
          "internalType": "uint8",
          "name": "row",
          "type": "uint8"
        },
        {
          "internalType": "uint8",
          "name": "col",
          "type": "uint8"
        }
      ],
      "stateMutability": "view",
      "type": "function"
    },
    {
      "inputs": [
        {
          "internalType": "uint8",
          "name": "row",
          "type": "uint8"
        },
        {
          "internalType": "uint8",
          "name": "col",
          "type": "uint8"
        }
      ],
      "name": "buyLand",
      "outputs": [
        {
          "internalType": "bool",
          "name": "success",
          "type": "bool"
        }
      ],
      "stateMutability": "nonpayable",
      "type": "function"
    }
  ],
  "bytecode": "0x608060405234801561001057600080fd5b50600080546001600160a01b0319163317905561002b610030565b6102e5565b6000600561003f816014610278565b6040516001600160601b03193360601b1660208201526034016040516020818303038152906040528051906020012060001c61007b91906102af565b6100859190610260565b905060005b60148160ff16101561025c5760005b60148160ff161015610249576000805460ff8481168084526001602090815260408086209387168087529390915290932080546001600160a01b039093166001600160a01b03199093169290921782556003909101805461ffff191683176101009092029190911790556005148061011457508060ff166005145b156101565760ff808316600090815260016020908152604080832093851683529290522080546002919060ff60a01b1916600160a01b835b0217905550610237565b60028260ff161015801561016e575060048260ff1611155b801561017e575060028160ff1610155b801561018e575060048160ff1611155b806101cc575060068260ff16101580156101ac575060088260ff1611155b80156101bc575060068160ff1610155b80156101cc575060088160ff1611155b156102065760ff80831660009081526001602081815260408084209486168452939052919020805460ff60a01b1916600160a01b8361014c565b60ff82811660009081526001602081815260408084209486168452939052919020805460ff60a01b19168155018390555b806102418161028f565b915050610099565b50806102548161028f565b91505061008a565b5050565b60008219821115610273576102736102cf565b500190565b60008282101561028a5761028a6102cf565b500390565b600060ff821660ff8114156102a6576102a66102cf565b60010192915050565b6000826102ca57634e487b7160e01b81526012600452602481fd5b500690565b634e487b7160e01b600052601160045260246000fd5b6102fb806102f46000396000f3fe608060405234801561001057600080fd5b50600436106100365760003560e01c8063145d24fc1461003b578063e3b3bbb914610069575b600080fd5b61004e6100493660046101af565b6100be565b604051610060969594939291906101e1565b60405180910390f35b6100ae6100773660046101af565b60ff8083166000908152600160208181526040808420948616845293905291902080546001600160a01b0319163317905592915050565b6040519015158152602001610060565b600160208181526000938452604080852090915291835291208054918101546002820180546001600160a01b03851694600160a01b900460ff169391906101049061028a565b80601f01602080910402602001604051908101604052809291908181526020018280546101309061028a565b801561017d5780601f106101525761010080835404028352916020019161017d565b820191906000526020600020905b81548152906001019060200180831161016057829003601f168201915b5050506003909301549192505060ff8082169161010090041686565b803560ff811681146101aa57600080fd5b919050565b600080604083850312156101c1578182fd5b6101ca83610199565b91506101d860208401610199565b90509250929050565b6001600160a01b0387168152600060206003881061020d57634e487b7160e01b82526021600452602482fd5b878184015286604084015260c0606084015285518060c0850152825b818110156102455787810183015185820160e001528201610229565b81811115610256578360e083870101525b50601f01601f1916830160e00191506102769050608083018560ff169052565b60ff831660a0830152979650505050505050565b600181811c9082168061029e57607f821691505b602082108114156102bf57634e487b7160e01b600052602260045260246000fd5b5091905056fea2646970667358221220b04f971581530762f54922e20e881b1b6d7773fcf6ceba1fe52102f08b26c61364736f6c63430008040033",
  "immutableReferences": {},
  "source": "// SPDX-License-Identifier: MIT\r\npragma solidity ^0.8.0;\r\n\r\n//import \"./Land.sol\";\r\n\r\ncontract World {\r\n    uint256 constant MIN_INITIAL_PRICE = 5;\r\n    uint256 constant MAX_INITIAL_PRICE = 20;\r\n\r\n    enum LandType { NFT, PARK, ROAD }\r\n\r\n    struct Land {\r\n        address owner;\r\n        LandType landType;\r\n        uint256 price;\r\n        string content;\r\n        uint8 row;\r\n        uint8 col;\r\n    }\r\n    \r\n    address owner;\r\n    mapping(uint8 => mapping(uint8 => Land)) public map;\r\n\r\n    constructor() {\r\n        owner = msg.sender;\r\n        initMap();\r\n    }\r\n\r\n    function initMap() private {\r\n        uint256 initialPrice = uint256(keccak256(abi.encodePacked(msg.sender))) % (MAX_INITIAL_PRICE - MIN_INITIAL_PRICE) + MIN_INITIAL_PRICE;\r\n\r\n        for (uint8 i = 0; i < 20; i++) {\r\n            for (uint8 j = 0; j < 20; j++) {\r\n                map[i][j].owner = owner;\r\n                map[i][j].row = i;\r\n                map[i][j].col = j;\r\n                if (i == 5 || j == 5) {\r\n                    map[i][j].landType = LandType.ROAD;\r\n                } else if (i >= 2 && i <= 4 && j >= 2 && j <= 4\r\n                    || i >= 6 && i <= 8 && j >= 6 && j <= 8) {\r\n                    map[i][j].landType = LandType.PARK;\r\n                } else {\r\n                    map[i][j].landType = LandType.NFT;\r\n                    map[i][j].price = initialPrice;\r\n                }\r\n            }\r\n        }\r\n    }\r\n\r\n    /*function setLand(Land memory land) public {\r\n        uint8 row = land.row;\r\n        uint8 col = land.col;\r\n        require(row >= 0 && row < MAP_SIZE && col >= 0 && col < MAP_SIZE);\r\n\r\n        map[row][col] = land;\r\n    }*/\r\n\r\n    function buyLand(uint8 row, uint8 col) public returns (bool success) {\r\n        //require(row >= 0 && row < MAP_SIZE && col >= 0 && col < MAP_SIZE);\r\n\r\n        //map[row][col].transferFrom(map[row][col].getOwner(), msg.sender, 0);\r\n        map[row][col].owner = msg.sender;\r\n        //lands[msg.sender].push(map[row][col]);\r\n\r\n        return true;\r\n    }\r\n\r\n    /*function getMap() public view returns (Land[][] memory) {\r\n        return map;\r\n    }*/\r\n}",
  "sourcePath": "C:\\Users\\elads\\Documents\\\\ \\ \\\\\\Final Project\\contracts\\World.sol",
  "compiler": {
    "name": "solc",
    "version": "0.8.4+commit.c7e474f2.Emscripten.clang"
  },
  "schemaVersion": "3.4.4",
  "updatedAt": "2022-02-13T23:43:19.929Z",
  "devdoc": {
    "kind": "dev",
    "methods": {},
    "version": 1
  },
  "userdoc": {
    "kind": "user",
    "methods": {},
    "version": 1
  }
}